:1000000018C1000046C1000044C1000042C1000008
:1000100040C100003EC100003CC100003AC10000E8
:1000200038C100001CC500001AC5000018C500003A
:1000300030C10000A8C500002CC100002AC100008A
:1000400028C1000026C1000024C1000022C1000018
:1000500020C100001EC100001CC10000B6C4000089
:1000600018C10000A5C300007AC3000012C100003F
:1000700010C100000EC100000CC100000AC1000048
:1000800008C1000006C1000004C1000002C1000058
:1000900000C10000FEC00000FCC00000FAC000006B
:1000A000F8C00000F6C00000F4C00000F2C000007C
:1000B000F0C00000EEC00000ECC00000EAC000008C
:1000C000E8C00000E6C00000E4C00000E2C000009C
:1000D000E0C00000DEC00000DCC00000DAC00000AC
:1000E000D8C000005C025F024E0252025802960223
:1000F000630267026D02710275027B027F02830256
:10010000960289028D0291022D2D2D3E20000000C5
:100110002100240027002A002D00300033000101B7
:100120000000040107010A0100000A0B02090C0D7E
:100130000E0807030401000000000000000000009A
:1001400000000000000000000000000000000000AF
:10015000000000001211100000000000000000006C
:10016000000000000000000000000000000000008F
:100170002200250028002B002E003100340002014F
:100180000000050108010B010000200023002600EB
:1001900029002C002F00320000010000030106019D
:1001A00009010505050507050808080802020202FD
:1001B0000A0A080804040404010101010101010103
:1001C0000303030303030303040707070C0C0C0CCE
:1001D0000C0C0C0C020202020606060606060606B7
:1001E0000B0B0B0B0B0B0B0B010210202008081044
:1001F0002040102040800201020108040201010297
:10020000040810204080804020100804020180046F
:1002100002018040201008040201080402010102CA
:100220000408102040800102040810204080261796
:100230001C1711241FBECFEFD1E2DEBFCDBF00E0FF
:100240000CBF28E0A2E0B4E001C01D92A533B207C4
:10025000E1F714E0A0E0B2E0E4EAF6E300E00BBF6F
:1002600002C007900D92A230B107D9F711E0C8E1A2
:10027000D1E000E006C021970109802FFE010E9415
:10028000D01AC731D10780E00807A9F7FED70C9430
:10029000411BB6CEFC01918D828D981761F0828D45
:1002A000DF01A80FB11D5D968C91928D9F5F9F73AA
:1002B000928F90E008958FEF9FEF0895FC01918D4C
:1002C000828D981731F0828DE80FF11D858D90E0B9
:1002D00008958FEF9FEF0895FC01918D228D892F56
:1002E00090E0805C9F4F821B91098F73992708953E
:1002F0008BEA94E0F1DF21E0892B09F420E0822FE2
:100300000895FC01848DDF01A80FB11DA35ABF4FD2
:100310002C91848D90E001968F739927848FA68904
:10032000B7892C93A089B1898C9180648C93938D2B
:10033000848D981306C00288F389E02D80818F7D1B
:1003400080830895EF92FF920F931F93CF93DF93D3
:10035000EC0181E0888F9B8D8C8D981305C0E88916
:10036000F989808185FD23C0F62E0B8D10E00F5F8B
:100370001F4F0F731127E02E8C8DE8120BC00FB6A4
:1003800007FCFACFE889F989808185FFF5CFCE0196
:10039000B8DFF2CF8B8DFE01E80FF11DE35AFF4F5E
:1003A000F0820B8FEA89FB898081806207C0EE8929
:1003B000FF896083E889F98980818064808381E096
:1003C00090E0DF91CF911F910F91FF90EF900895F2
:1003D000CF93DF93EC01888D8823C1F0EA89FB89F4
:1003E000808185FD05C0A889B9898C9186FD0EC0E4
:1003F0000FB607FCF5CF808185FFF2CFA889B989B8
:100400008C9185FFEDCFCE017CDFE8CFDF91CF91DE
:10041000089580E090E0892B19F06ADF811125C0F2
:1004200080E090E0892B41F080E090E0892B21F082
:100430000E94000081111CC080E090E0892B41F0F7
:1004400080E090E0892B21F00E940000811113C010
:1004500080E090E0892BA1F080E090E0892B81F092
:100460000E94000081110AC008950E940000D8CFA8
:100470000E940000E1CF0E940000EACF0C9400002F
:10048000089590E0FC013197E231F10508F04EC08B
:100490008827EE58FF4F8F4F0C94D01A8091800020
:1004A0008F7703C0809180008F7D809380000895B6
:1004B00080918000877FF9CF84B58F7702C084B5A3
:1004C0008F7D84BD08958091B0008F7703C08091A7
:1004D000B0008F7D8093B0000895809190008F7759
:1004E00007C0809190008F7D03C080919000877F2E
:1004F0008093900008958091A0008F7707C080912D
:10050000A0008F7D03C08091A000877F8093A00012
:100510000895809120018F7707C0809120018F7D01
:1005200003C080912001877F8093200108953FB709
:10053000F8948091670490916804A0916904B09147
:100540006A0426B5A89B05C02F3F19F00196A11D8E
:10055000B11D3FBFBA2FA92F982F8827820F911D59
:10056000A11DB11DBC01CD0142E0660F771F881FA0
:10057000991F4A95D1F708952091040430910504FC
:100580002817390771F49091020480910304981799
:1005900041F0E0910204F0E0EE5DFB4F808190E0DD
:1005A00008958FEF9FEF089508951F93CF93DF93E2
:1005B000DC015C962D913C915D972115310539F454
:1005C00081E090E013969C938E9312973DC05196D4
:1005D000ED91FC91529750969C915097892F809560
:1005E0001FB75E964C915E9741FB772770F941FDEE
:1005F0006095F8944081772311F0492B01C048237E
:100600004083E9012197F1F748E0508160FF02C083
:10061000592B01C058235083E9012197F1F76695C2
:10062000415099F7772321F090818923808303C07B
:100630008081982B90831FBF5C968D919C915D97D4
:100640000197F1F721E030E0C901DF91CF911F91CF
:10065000089520910404309105042817390769F49E
:10066000809103042091020490E0805C9F4F821BE4
:10067000910960E470E00C949B1A80E090E008958A
:10068000209104043091050428173907B9F490919A
:10069000020480910304981789F0E0910204F0E0CD
:1006A000EE5DFB4F80812091020430E02F5F3F4FD1
:1006B0002F7333272093020490E008958FEF9FEF6C
:1006C0000895AF92BF92DF92EF92FF920F931F9324
:1006D000CF93DF93EC01D62EEE80FF80E114F1047E
:1006E00049F15C0189E5A80EB11CD5018C918111FD
:1006F00017C008E011E0F8016491611104C081E0C5
:10070000D5018C930DC0D701ED91FC910190F08142
:10071000E02DC70119950F5F1F4F892B61F7EFCFB0
:100720008E819F81DC01ED91FC910190F081E02DA3
:100730006D2D19958C819D81DC01ED91FC910190CD
:10074000F081E02D6D2DDF91CF911F910F91FF90E2
:10075000EF90DF90BF90AF9019940E94231B1F92DF
:100760000F920FB60F9211240BB60F922F933F9357
:100770004F935F936F937F938F939F93AF93BF93A9
:10078000EF93FF938BEA94E0BCDDFF91EF91BF9173
:10079000AF919F918F917F916F915F914F913F9119
:1007A0002F910F900BBE0F900FBE0F901F901895BA
:1007B0001F920F920FB60F9211240BB60F922F9328
:1007C0008F939F93EF93FF93E091BB04F091BC0450
:1007D0008081E091C104F091C20482FD12C0908139
:1007E0008091C4048F5F8F732091C504821751F0EC
:1007F000E091C404F0E0E555FB4F958F8093C4046D
:1008000001C08081FF91EF919F918F912F910F9067
:100810000BBE0F900FBE0F901F901895CF93DF93D4
:10082000282F30E0F901E85DFE4F8491F901E8518D
:10083000FE4FD491F901EE55FE4FC491CC2389F0BF
:1008400081111FDEEC2FF0E0EE0FFF1FE857FE4F87
:10085000A591B491EC91ED2381E090E021F480E04A
:1008600002C080E090E0DF91CF9108951F93CF9375
:10087000DF93282F30E0F901E85DFE4F8491F90104
:10088000E851FE4FD491F901EE55FE4FC491CC23AF
:10089000C1F0162F8111F5DDEC2FF0E0EE0FFF1FF8
:1008A000E259FE4FA591B4918FB7F894111105C08C
:1008B0009C91ED2FE095E92302C0EC91ED2BEC9398
:1008C0008FBFDF91CF911F910895CF93DF9390E079
:1008D000FC01E851FE4F2491FC01EE55FE4F84913E
:1008E000882361F190E0880F991FFC01E25FFE4FC1
:1008F000C591D491FC01E259FE4FA591B4916111CB
:1009000009C09FB7F8948881209582238883EC9151
:100910002E230BC0623061F49FB7F8943881822F88
:10092000809583238883EC912E2B2C939FBF06C048
:100930008FB7F894E8812E2B28838FBFDF91CF915A
:1009400008958F929F92AF92BF92CF92DF92EF92D3
:10095000FF926B017C01EBDD4B015C01C114D10402
:10096000E104F104E9F0E3DDDC01CB018819990928
:10097000AA09BB09883E9340A105B10578F321E09F
:10098000C21AD108E108F10888EE880E83E0981EAB
:10099000A11CB11CC114D104E104F10421F7DECF84
:1009A000FF90EF90DF90CF90BF90AF909F908F908F
:1009B00008952FB7F8946091630470916404809156
:1009C0006504909166042FBF08951F920F920FB691
:1009D0000F9211242F933F938F939F93AF93BF93C5
:1009E0008091630490916404A0916504B0916604C1
:1009F0003091620423E0230F2D3720F40196A11DCE
:100A0000B11D05C026E8230F0296A11DB11D20933C
:100A100062048093630490936404A0936504B0938C
:100A200066048091670490916804A0916904B09174
:100A30006A040196A11DB11D809367049093680418
:100A4000A0936904B0936A04BF91AF919F918F9175
:100A50003F912F910F900FBE0F901F9018951F92EE
:100A60000F920FB60F9211240BB60F922F933F9354
:100A70004F935F936F937F938F939F93AF93BF93A6
:100A8000EF93FF93E0910404F0910504309709F48B
:100A900051C0968DA685B785858591FF04C09C9130
:100AA000892329F447C09C91892309F043C0A38975
:100AB000B4899C918589809589238C9386899789AF
:100AC0000197F1F7608D718DA685B785558538E062
:100AD00020E0CB010197F1F7822F90E09595879563
:100AE000282F4C91452309F02068315091F7868DCD
:100AF00081FD20958091030490E001968F739927E2
:100B000030910204381749F0A0910304B0E0AE5DC3
:100B1000BB4F2C938093030403C0868D8160868F26
:100B2000828D938D0197F1F7A389B4899C91858972
:100B3000892B8C93FF91EF91BF91AF919F918F91F2
:100B40007F916F915F914F913F912F910F900BBECD
:100B50000F900FBE0F901F901895E0910404F09134
:100B60000504E817F90769F4A389B4899C9185897C
:100B7000809589238C93109205041092040481E0DF
:100B8000089580E008951F920F920FB60F921124DE
:100B90000BB60F922F933F934F935F936F937F9377
:100BA0008F939F93AF93BF93EF93FF9380914905EA
:100BB00035DE20914D0530914E052F5F3F4F30932C
:100BC0004E0520934D0590914C05953618F096E012
:100BD00090934805909148059430C9F128F49230DB
:100BE00069F09330D1F05EC0953009F451C0963071
:100BF00009F058C091E09093190651C0811152C07C
:100C000020914D0530914E052436310508F442C03F
:100C10001092190610924C051CC0813009F042C098
:100C2000E0914C0591E09E0F90934C05F0E02091EF
:100C30004D0530914E05EE0FFF1FE85BFA4F3087F0
:100C4000278310924E0510924D0594E029C0811122
:100C500017C0E0914C0591E09E0F90934C05F0E099
:100C600020914D0530914E05EE0FFF1FE85BFA4FC6
:100C70003087278310924E0510924D0593E010C0E7
:100C800020914D0530914E052536310558F007C0AD
:100C9000811108C010924E0510924D0503C095E0D9
:100CA0009093480590914B059923B1F081110AC0AA
:100CB00080914A05882321F080914A0561E009C0AE
:100CC0002F9A0AC080914A05882329F080914A050D
:100CD00060E0CCDD01C02F98FF91EF91BF91AF9103
:100CE0009F918F917F916F915F914F913F912F9144
:100CF0000F900BBE0F900FBE0F901F901895CF92C4
:100D0000DF92EF92FF92CF93DF93EC01072E000C5E
:100D1000880B990B0E945A186B017C0120E030E08F
:100D200040E45FE30E94B91820E030E048E452E478
:100D30000E94EB190E94531AC617D707D4F020E07F
:100D400030E040EA5FE3C701B6010E94B91820E035
:100D500030E048E452E40E94EB1920E030E040E843
:100D60005FE30E9487190E94531A21E06C177D07E8
:100D70000CF420E0822F90E0DF91CF91FF90EF9074
:100D8000DF90CF900895CF92DF92EF92FF92CF93B2
:100D9000DF93EB01223160F5FC018081813049F461
:100DA0002770E22FF0E0EE52FD4F98818081892B71
:100DB0001EC081111DC0E22FE770F0E0EE52FD4F22
:100DC000C080D12CE12CF12CF4DD24EF31E040E0A7
:100DD00050E00E94AE1AC701B6010E948C1ADC01D5
:100DE000CB0181709927AA27BB272881822B888372
:100DF000DF91CF91FF90EF90DF90CF900895809199
:100E00002B0690912C06DC01ED91FC910480F5817C
:100E1000E02D1995A0912B06B0912C06892B49F055
:100E2000ED91FC9111970680F781E02DCD01199588
:100E3000E6CF6FEE73E0CD0116D263D080E396E08B
:100E40000E942F18811105C061EF73E08BEA94E0D6
:100E50000AC208950F931F93CF93DF93EC0161E0D3
:100E600080E304DDA6DD28813981E6E4E29FA0016C
:100E7000E39F500D11248A01550F220B330BDC0127
:100E8000CB01800F911FA21FB31F80933108909355
:100E90003208A0933308B0933408D0931102C09362
:100EA0001002DF91CF911F910F910895CF92DF92A1
:100EB000EF92FF920F931F93CF93DF936C017A0110
:100EC0008B01C0E0D0E0CE15DF0589F0D8016D912F
:100ED0008D01D601ED91FC910190F081E02DC601CC
:100EE0001995892B11F47E0102C02196ECCFC70120
:100EF000DF91CF911F910F91FF90EF90DF90CF90F6
:100F00000895CF92DF92EF92FF920F931F93CF93AA
:100F1000DF9300912B0610912C06C0E0D0E049DD54
:100F2000D80118966D937D938D939C931B97D80150
:100F3000ED91FC910680F781E02DC801199597FD90
:100F400004C08A309105B9F41EC033DDF801C084B5
:100F5000D184E284F384DC01CB018C199D09AE09B4
:100F6000BF09C480D580E680F7808C159D05AE054D
:100F7000BF05E8F208C0FE01E95DF94F81872196BF
:100F8000C035D10561F6FE01E95DF94F118680910A
:100F90002B0690912C06DC01ED91FC910084F185EB
:100FA000E02D19950D9759F480912B0690912C0600
:100FB000DC01ED91FC910680F781E02D1995CE01C1
:100FC000DF91CF911F910F91FF90EF90DF90CF9025
:100FD0000895CF92DF92EF92FF920F931F93CF93DA
:100FE0001092A3041092A4048C01C0E08FE0E82EBC
:100FF000F12C97E0C92ED12C6C2F70E080E090E0AE
:101000000E9458189B01AC0160E070E080E99FE30A
:101010000E94EB190E94531AFB01E652FD4F2081FA
:10102000F80181918F018130D9F4822F90E028302E
:1010300060F4F601E81BF90BEE52FD4F90818091B0
:10104000A304892B8093A3040BC0F701E81BF90BC1
:10105000EE52FD4F80819091A404982B9093A404AC
:10106000CF5FC23149F6CF911F910F91FF90EF9062
:10107000DF90CF900895E091AB04F091AC04019023
:10108000F081E02D682F8BEA94E01994EFE8F4E00A
:1010900082E18E0F9191913021F08E13FBCF81E090
:1010A000089580E00895ABE7B4E0EFE8F4E092E162
:1010B0009E0F8191813009F48C9311969E13F9CF84
:1010C00008958F929F92AF92BF92CF92DF92EF924C
:1010D000FF920F931F93CF93DF93FC01C081D181C7
:1010E0002091770430917804C217D3070CF048C0E0
:1010F0009E01220F331FE0917504F0917604E20FF8
:10110000F31F80809180C170DD27F1E0CF27209709
:1011100019F404E610E002C00CE91FEF7A015B014C
:101120006C01040F151FB801C401E9DD892B89F496
:101130000E0D1F1DB801C401E2DD892B69F4B80151
:101140006E0D7F1DC401DBDD892BE9F023E030E06B
:1011500005C021E030E002C022E030E0F5018081EE
:1011600091810196821793073CF0F501118210825C
:10117000F60180819181019691838083CE0105C023
:1011800081E090E002C08FEF9FEFDF91CF911F9140
:101190000F91FF90EF90DF90CF90BF90AF909F9016
:1011A0008F9008956115710579F0FB010190002081
:1011B000E9F73197AF01461B570BDC01ED91FC912C
:1011C0000280F381E02D199480E090E008958F92E1
:1011D0009F92AF92BF920F931F93CF93DF93CDB7A0
:1011E000DEB7A1970FB6F894DEBF0FBECDBF19A230
:1011F000423008F44AE08E010F5D1F4F842E912C7F
:10120000A12CB12CA50194010E94AE1AE62FB901C0
:10121000CA0101501109EA3014F4E05D01C0E95C33
:10122000D801EC93232B242B252B61F7B8018BEAF3
:1012300094E0B8DFA1960FB6F894DEBF0FBECDBF25
:10124000DF91CF911F910F91BF90AF909F908F90A2
:101250000895682F70E080E090E04AE0B8CFBC01CC
:101260008BEA94E09FCF0F931F93CF93DF93EC0112
:1012700099DF8C016FEA73E0CE0194DF800F911F3C
:10128000DF91CF911F910F910895CF93DF93CDB749
:10129000DEB72B970FB6F894DEBF0FBECDBF7894A4
:1012A00084B5826084BD84B5816084BD85B582606B
:1012B00085BD85B5816085BD80916E00816080931C
:1012C0006E00109281008091810082608093810085
:1012D0008091810081608093810080918000816095
:1012E000809380008091B10084608093B1008091F0
:1012F000B00081608093B000809191008260809303
:101300009100809191008160809391008091900084
:101310008160809390008091A10082608093A10001
:101320008091A10081608093A1008091A0008160E4
:101330008093A0008091210182608093210180919F
:10134000210181608093210180912001816080933F
:10135000200180917A00846080937A0080917A00E5
:10136000826080937A0080917A00816080937A0015
:1013700080917A00806880937A001092C100E09199
:10138000BB04F091BC0482E08083E091B704F0914B
:10139000B8041082E091B904F091BA0480E180832E
:1013A0001092C304E091BF04F091C00486E08083F2
:1013B000E091BD04F091BE04808180618083E09162
:1013C000BD04F091BE04808188608083E091BD04FB
:1013D000F091BE04808180688083E091BD04F0912B
:1013E000BE0480818F7D808364EF71E080E090E0B7
:1013F000A8DA61E080E369DA60E080E337DA10922E
:101400002D0810922C0810922B0810922A08109286
:101410002908109228088DE991E090932F08809375
:101420002E0880911E0896EF980F943048F02EEC0D
:10143000280F243028F022EC280F283008F070C044
:101440002DEB30E030932908209328082BE931E078
:1014500030932B0820932A082CE231E030932D089A
:1014600020932C08943070F02EEC280F243050F08C
:1014700022EC280F283010F40C941217A0E0B0E0F2
:101480000C941417A8E6B0E0E8E6F0E02081943070
:1014900018F08E53883010F081E001C084E0822B78
:1014A0008C9380911E0896EF980F943058F02EEC94
:1014B000280F243038F022EC280F283030F020E0BC
:1014C00030E005C02BE630E002C02DE630E030937E
:1014D000260820932508943010F49AEF0BC082332D
:1014E00081F0833381F0843381F092EC980F98304F
:1014F00070F492EC980F81E001C0880F9A95EAF79A
:1015000007C088E005C084E003C082E001C081E03C
:101510008093270880912E0890912F080197F1F76A
:1015200080912C0890912D08892B19F18091040449
:101530009091050428E082319207D9F0009709F0D4
:101540000CDB809130088E7F80933008109203046A
:101550001092020482E198E09093050480930404C1
:10156000E0912508F0912608908180912708892B29
:10157000808360E080912F0679D961E080912F0609
:10158000A4D96AE070E080E090E0DBD960E080916F
:101590002F069BD968EE73E080E090E0D2D9B1DCF1
:1015A000B0DC62E173E080E396E00E94271B892BA8
:1015B00009F459C76AEF70E080E090E0C2D9A1DC7D
:1015C000A0DC6AE273E08BEA94E04DDE18DC17DC05
:1015D00016DC61E08DE079D9F89482E08093B00068
:1015E0008093B10094E69093B3001092B200809380
:1015F000700078948093480510924C0580914905BD
:1016000060E063D981E080934B0561E08DE05DD9B6
:1016100009E812E060E0D8018D918D0156D9B2E061
:101620000C391B07B9F70DE912E061E0F80181916F
:101630008F014BD9F2E0003B1F07B9F7B1E8CB2E81
:10164000B2E0DB2E01EB12E0D801FD908D0161E0EC
:101650008F2D3BD961E08F2D09D9F601F1906F01F3
:1016600061E08F2D32D961E08F2D00D9F2E0093B86
:101670001F0751F788E092E0EDDB86E094E0885F99
:101680008A87ABE7B4E0AC5EA98793D9209180024A
:101690002330B9F50DE912E0F80122E1E20FFE2E48
:1016A00060E0D8018D918D01E1D8F012F9CF81D998
:1016B00000911F06109120062091210630912206EC
:1016C0000D5E1F4F2F4F3F4F06171707280739078B
:1016D0000CF000C160931F067093200680932106D2
:1016E00090932206C0907E02D0907F0271EBE72E8D
:1016F00072E0F72EAA24A394C701A8E08A0FB82E9F
:1017000055C000911B0610911C0620911D063091BA
:101710001E060C5F1F4F2F4F3F4F06171707280756
:1017200039072CF660931B0670931C0680931D06E8
:1017300090931E06EFE8EE2EE4E0FE2EF9E8CF2EA1
:10174000F2E0DF2E0DE912E088248394A2E07A2EE5
:10175000F80122E1E20F9E2ED801BC9060E08B2DB3
:1017600085D8F601A1906F018A2D58D8892B19F4DC
:10177000D7011C9213C0F701808261E0D8018C91DF
:1017800075D88BE490E00197F1F78A2D47D8892B23
:1017900011F4F701708260E08B2D68D80F5F1F4F46
:1017A000FFEFEF1AFF0A9012D7CF81CFF601019118
:1017B0006F01602F61706A258AE358D810E00095A8
:1017C0001095B80175956795617087E04FD8B8019D
:1017D0007595679575956795617088E047D8B801EC
:1017E00023E0759567952A95E1F7617087E33ED808
:1017F000B80134E0759567953A95E1F761708AE034
:1018000035D8B80145E0759567954A95E1F761705F
:1018100088E32CD8B80156E0759567955A95E1F79D
:1018200061708CE323D8000F012F001F110B602F74
:1018300061708DE31BD8D7011D917D0161E0812F7F
:1018400015D862E070E080E090E07BD860E0812F06
:101850000DD8BE10ABCF8091800281113BC0E6E075
:10186000F4E01192BA85BE13FCCF00E010E0202F07
:1018700040E066E074E0C80181579B4F84DA0F5F57
:101880001F4F0830110599F700E010E028E0200F05
:1018900041E067E074E0C80189569B4F74DA0F5F3E
:1018A0001F4F0830110591F700E010E020E1200FF4
:1018B00042E068E074E0C80181569B4F64DA0F5F34
:1018C0001F4F0830110591F7E6E0F4E0F09318049B
:1018D000E09317040091100210911102D8018D912C
:1018E0009C91892B09F445C064D86B017C018091DF
:1018F000310890913208A0913308B0913408C8168D
:10190000D906EA06FB06ACF1C801029690931102D3
:1019100080931002F80182819381892B29F460E081
:1019200080E30E94360425C080E30E940E0461E03B
:10193000892B09F060E080E30E943604D8011296FA
:101940002D913C91139746E4429FC001439F900D17
:101950001124092E000CAA0BBB0BC80ED91EEA1EBF
:10196000FB1EC0923108D0923208E0923308F09208
:1019700034088FE495E09093760480937504809109
:101980004C0590E090937804809377048091190639
:1019900090E090937A048093790480914805853093
:1019A00009F022C280915105909152058858910901
:1019B0008D35910588F480914C05843041F48091F7
:1019C0005305909154058097479708F46CC5809112
:1019D0004C05843408F04EC580914C058A3108F4DA
:1019E00052C080914F0590915005843F914080F402
:1019F00010927404109273048FEF9FEFDC018093B8
:101A00006F0490937004A0937104B093720459C052
:101A1000809151059091520585974B97A0F5E5E58A
:101A2000F5E082E090E0C12CD12C7601AC014F5F53
:101A30005F4F20914C0530E0421753075CF4DF0103
:101A400012972D913C91275031092730310508F428
:101A500071C5CA01019795958795909374048093F9
:101A600073040C972CF410927404109273040BC03E
:101A7000C0926F04D0927004E0927104F0927204EC
:101A800084E090E076C680914C058A3108F44CC021
:101A900080914F05909150058032934008F4A8CF73
:101AA0008091510590915205C697869708F45FC5BD
:101AB0003BC0C0926F04D0927004E0927104F09227
:101AC00072048BE090E055C62081318125523109A6
:101AD0002B31310508F05BC5CC0CDD1CEE1CFF1C66
:101AE0006894C0F802963496AC014F5F5F4F209126
:101AF0004C0530E04217530754F4DF0112972D9143
:101B00003C912C5031092B303105F0F2CA0101977C
:101B10009595879590937404809373040C974CF675
:101B2000109274041092730480914C05823208F470
:101B30004DC080915105909152050697079708F086
:101B400045C0E5E5F5E082E090E0C12CD12C7601BE
:101B50009C012F5F3F4F40914C0550E02417350703
:101B6000E4F4DF0112974D915C9111974E515109A8
:101B70004731510508F018C5CC0CDD1CEE1CFF1CCC
:101B80006894C0F8408151813496435051094530E2
:101B9000510510F40296DCCFC90101979595879500
:101BA000909374048093730440972CF410927404FF
:101BB000109273040BC0C0926F04D0927004E09234
:101BC0007104F09272048CE090E0D3C51C821B82F9
:101BD00081E090E09A83898380914C058D3008F4F0
:101BE00066C049E753E0BE016D5F7F4FCE010196AD
:101BF00068DA892B09F05BC049E753E0BE016D5FED
:101C00007F4FCE0101965DDA019709F050C049E798
:101C100053E0BE016D5F7F4FCE01019652DA892BF2
:101C200009F045C0812C912C540100E010E0809116
:101C30004C0590E029813A81281739074CF549E78E
:101C400053E0BE016D5F7F4FCE0101963ADA7C0111
:101C500049E753E0BE016D5F7F4FCE01019631DA57
:101C6000B1E0EB16F10449F4892B09F5880C991CB5
:101C7000AA1CBB1C689480F808C0EF28C1F4019727
:101C8000B1F4880C991CAA1CBB1C0F5F1F4FCFCF4F
:101C9000109374040093730480926F049092700404
:101CA000A0927104B092720481E090E062C51C823F
:101CB0001B8281E090E09A838983809177049091E0
:101CC0007804181619060CF054C0E0917504F091D0
:101CD000760482E090E09A83898382819381899758
:101CE0004E9708F046C083E090E09A838983848110
:101CF00095810B970A9708F03CC04CEB51E0BE0170
:101D00006D5F7F4FCE010196DCD9892B91F54CEBAD
:101D100051E0BE016D5F7F4FCE010196D2D9019790
:101D200041F5812C912C540100E010E029813A8189
:101D30008091770490917804281739070CF077C4C4
:101D40004CEB51E0BE016D5F7F4FCE010196B9D9DA
:101D50007C010330110509F034C44CEB51E0BE01A5
:101D60006D5F7F4FCE010196ACD9E816F90609F4F4
:101D700028C4E0917504F091760482819381C6971E
:101D8000869708F463C45CC58E35F2EA9F07FFEFBF
:101D9000AF07B10508F01AC58D3D9242AF4FB105AE
:101DA000F1F411E01093800288E592E053D886E7C1
:101DB00092E090937F0280937E020E94D904DC011E
:101DC000CB018053984FAF4FBF4F80932306909322
:101DD0002406A0932506B09326061093210482E0E2
:101DE0008093480510924C0580912104882391F03E
:101DF0000E94D90400912306109124062091250603
:101E000030912606061717072807390708F028C358
:101E10001092210410918002113081F03CF41111D4
:101E20001FC3809117049091180416C3123049F013
:101E3000133009F015C389E194E00EC386E792E000
:101E40000BC380911604823009F4B6C228F48823AB
:101E500051F08130B1F0FEC2833009F4D6C2843033
:101E600009F456C0F7C212D98111F4C20E94D904F4
:101E700060931204709313048093140490931504D8
:101E80008FC20E94D904DC01CB0188589341A1097B
:101E9000B10900911204109113042091140430919F
:101EA0001504081719072A073B07D8F483E0809325
:101EB000160468E573E08BEA94E0D5D91092A30488
:101EC0001092A4041092A5041092A6041092A704E4
:101ED0001092A8041092A9041092AA0482E792E03A
:101EE00091C28BE794E075D8D1D8882309F461C2F8
:101EF0000E94D90460930E0470930F048093100421
:101F00009093110484E0809316046EE673E099C206
:101F10000E94D904DC01CB01845F9140A109B10981
:101F2000C0900E04D0900F04E0901004F0901104C3
:101F3000C816D906EA06FB0608F02EC2109316044E
:101F400069E873E08BEA94E08ED920910E04309119
:101F50000F048091120490911304281B390B8BEC11
:101F600092E098878F83FC0188E090E05291429143
:101F70002417350714F4182F03C00197B9F710E0A0
:101F80002BE7622E24E0722EF30180E091919130D4
:101F900019F08F5F8231D1F791E1692F70E0FB0179
:101FA000E558FB4F0081013011F09150F6CF681BCE
:101FB0007109072E000C880B990B0E945A1820E01B
:101FC00030E048E851E40E94EB1929E23CE54FE794
:101FD00050E40E94B9180E94581A6D83EBE7F4E0B0
:101FE000F12C8191813021F0F39492E1F912F9CF33
:101FF00087E993E034D98F2D2CD98FE993E02FD93D
:102000006F2D70E080E090E00E945A1820E030E0F0
:1020100048E851E40E94EB199B01AC0160E070E0DC
:1020200080E89FE30E94861929E23CE54FE750E4EF
:102030000E94B9186B017C019B01AC010E94881AB7
:10204000882319F063EA73E01AC046015701E89447
:10205000B7F82FEF3FEF4FE75FE7C501B4010E94EC
:10206000881A811110C02FEF3FEF4FE75FE7C501DE
:10207000B4010E945418181634F467EA73E08BEA2E
:1020800094E090D86BC02FEF3FEF4FE75FE4C701BC
:10209000B6010E94841A18161CF46BEA73E0EFCFA5
:1020A0002FEF3FEF4FE75FECC701B601FDD787FD8C
:1020B000F4CF20E030E0A901C701B601F5D787FFD2
:1020C00007C08DE20E943B08C701B601905802C0CC
:1020D000C701B6012AE037ED43EA5BE30E948719A6
:1020E0001B012C010E94581A4B015C01E1D79B0196
:1020F000AC01C201B1010E9486191B012C014AE00A
:10210000C501B40164D88EE20E943B0820E030E0B3
:1021100040E251E4C201B1010E94B9181B012C0137
:102120000E94581A4B01A12CB12C4AE0C501B40100
:102130004ED8C501B401BCD79B01AC01C201B101AD
:102140000E94861920E030E040E251E40E94B91874
:102150000E94581A80E090E04AE039D86FEA73E0B4
:102160008BEA94E01FD8C701B6010E94581AF62ED8
:10217000EBE7F4E060E0DF0122E1A20FDA2E8191CB
:10218000813009F46F5FDE12FACF70E080E090E0FA
:102190008FD720E030E048E851E40E94EB1920E0BE
:1021A00030E040E251E4E5D70E94581AE62E81E083
:1021B0008E1528F492E0E91204C022E003C021E069
:1021C00001C023E0A1E0AF1530F4B2E0FB1206C07D
:1021D00092E0B92E05C0BB24B39402C083E0B82EB0
:1021E000ED81E23028F0E23011F402E001C003E0BA
:1021F000822F2B872ED881EA93E031D88B2D29D8D6
:1022000081EA93E02CD8802F24D881EA93E027D864
:10221000C12EC6948C2D1DD861EA73E08BEA94E040
:1022200022D82B852B9D90011124029FA001039F92
:10223000500D1124C49EC001C59E900D1124880F1D
:10224000991F63E070E00E949B1A062FCC2019F0C2
:10225000672B09F401E0D3018D913D010E9429090A
:10226000D610F9CF6FEA73E08BEA94E00E94D208AF
:1022700082EB93E00E942F098E2D0E9429098CEB9E
:1022800093E00E942F098F2D0E94290985EC93E08D
:102290000E942F098D810E9429098BEC93E00E94F6
:1022A0002F09812F0E94290983ED93E00E942F09B5
:1022B000C0900E04D0900F04E0901004F090110430
:1022C0008091120490911304A0911404B09115040C
:1022D000C81AD90AEA0AFB0AF7FE0CC08DE20E946E
:1022E0003B0866277727CB016C197D098E099F096A
:1022F0004AE003C04AE0C701B6010E94E7088DED3D
:1023000093E00E942F09802F0E94290961EB73E05E
:102310008BEA94E00E943309033020F4011103C0DA
:1023200000E001C003E01092A8041092A9041092EA
:10233000AA04023031F0033031F0013049F480EC6E
:1023400003C088ED01C08BED8093A9048093AA049B
:102350008BE794E00E94E90720910E0430910F046E
:102360008091120490911304281B390B88E090E0AF
:10237000EF81F88552914291F887EF832417350752
:102380001CF00197A9F780E0E82FF0E0E753FD4F3C
:1023900080818093A6045EC00E94460881115AC0C5
:1023A00081E08093160468E473E08BEA94E00E9475
:1023B00033090E9453084EC00E94D904DC01CB01AE
:1023C000805D9740A109B10900910E0410910F049E
:1023D0002091100430911104081719072A073B07B0
:1023E000C8F5109216046AE373E08BEA94E00E9449
:1023F0003309EBE7F4E082E0819329852E13FCCFCB
:102400008EE692E00E942A0725C00E944608882393
:10241000E9F01092A3041092A4041092A504109263
:10242000A6041092A7041092A8041092A904109276
:10243000AA048EE692E00E942A07109216046AE32C
:1024400073E08BEA94E00E94330904C08FE894E0C3
:102450000E94E90783EA94E090937F0280937E02D2
:102460000E94090212C965EE73E08BEA94E00E94B3
:102470003309FFCF809153059091540582549109FF
:102480008E9708F0A9CA80E090E040E050E0BA01E1
:10249000FC01EB5AFA4F2081318129503109293052
:1024A0003105C8F099CA8091550590915605099754
:1024B000099708F08CCA10927404109273048FEF7D
:1024C0009FEFDC0180936F0490937004A0937104DC
:1024D000B0937204B2C1FC01E95AFA4F20813181F4
:1024E0002751310922313105F8F020813181265000
:1024F00031092730310508F06FCA440F551F661F98
:10250000771F04968038910519F680E290E0909349
:1025100074048093730440936F0450937004609329
:1025200071047093720489C1440F551F661F771F91
:102530004160E7CF20813181235131092F303105AE
:1025400048F4CC0CDD1CEE1CFF1C6894C0F802960D
:1025500034966CCA208131812A50310929303105E5
:1025600008F091CACC0CDD1CEE1CFF1CF0CF809152
:10257000530590915405C697869708F0D5CAE7E5AC
:10258000F5E083E090E0C12CD12C7601ADCA20812A
:1025900031812C5031092A30310508F0C5CACC0CE4
:1025A000DD1CEE1CFF1C9ECA4D915C914C505109E4
:1025B0004B30510508F00ACBCC0CDD1CEE1CFF1C87
:1025C000E1CA4CEB51E0BE016D5F7F4FCE01019639
:1025D0000E9461086C010330110569F44CEB51E075
:1025E000BE016D5F7F4FCE0101960E946108C81643
:1025F000D90609F0BECBE114F10459F4CA94CD28F0
:1026000009F0B7CB880C991CAA1CBB1C689480F8F5
:102610000BC0EA94EF2809F0ACCBCD2809F0A9CB88
:10262000880C991CAA1CBB1C0F5F1F4F7FCB1093FB
:1026300074040093730480926F0490927004A092CB
:102640007104B092720482E090E093C0848195811D
:102650004B97459708F0F4C0DF0116967F0186EC92
:10266000E80EF11C20E030E040E050E060E070E077
:1026700080E090E00D911C911197095011090830EC
:10268000110508F0DDC012960D911C9113970151B0
:1026900011090D30110558F112960D911C911397E7
:1026A000045011090530110508F0CAC001E080D7B7
:1026B0001496AE15BF05F1F620936F0430937004A5
:1026C000409371045093720400E28DD720936D04FF
:1026D00030936E0485E090E090936C0480936B04DB
:1026E00080E390E0909374048093730446C001E00B
:1026F0005FD72160DDCFA80142505109DA014D9129
:102700005C91495051094830510508F047C1BC015E
:102710006F5F7F4FD8014D915C9147505109473011
:10272000510508F031C3220F331F216002960C5F60
:102730001F4F40914C0550E04450510984179507B4
:10274000D4F20197959587959093740480937304C0
:102750008A970CF423C1C901330FAA0BBB0B8093DA
:102760006F0490937004A0937104B093720489E095
:1027700090E090936C0480936B0480916F0490912F
:102780007004A0917104B09172048D35E2EA9E0745
:10279000EFEFAE07B10509F0F7CA82E0809380023F
:1027A000109216046AE373E08BEA94E00E94330906
:1027B000EBE7F4E082E0819329852E13FCCF8AE1D8
:1027C00092E00E942A0782E192E00FC08F34E0EB92
:1027D0009E07EFEFAE07B10501F51092800280E38E
:1027E00092E00E942A0788E292E090937F02809311
:1027F0007E020E94D904DC01CB018053984FAF4F79
:10280000BF4F8093230690932406A0932506B09390
:10281000260681E080932104E2CA8D31924EAF4FAB
:10282000B10509F0DCCA83E08093800280E592E084
:102830000E942A0788E492E0D8CF83E090E099CF05
:1028400080914C05893370F1828193818957910978
:102850008335910508F439C125C0D90112966D91CF
:102860007C911397665171096131710508F03CC183
:10287000D701C601880F991FAA1FBB1F6C017D01DC
:102880006894C0F84E5F5F4F2C5F3F4F4B3351054C
:1028900009F439C1D9016D917C916A50710969308F
:1028A0007105D8F280914C05823231F48281938196
:1028B0000A97099708F444C1828193818957910945
:1028C00083359105D0F480914C058132B0F084813C
:1028D0009581CA97899788F49F012A5F3F4FC12C41
:1028E000D12C760143E050E0D9016D917C916A5082
:1028F00071096930710508F442C1828193818C5459
:102900009109C59778F480914C05843031F4848125
:1029100095818097479708F492C180914C05843443
:1029200008F074C180914C05863460F182819381F6
:102930000C970B9708F4D1C125C0D90112966D915F
:102940007C9113976E5171096731710508F0FDC1D3
:10295000D701C601880F991FAA1FBB1F6C017D01FB
:102960006894C0F84E5F5F4F2C5F3F4F4534510570
:1029700009F4CEC1D9016D917C916C5071096B3015
:102980007105D8F280914C05883540F082819381A1
:10299000855891098B35910508F4E7C180914C0564
:1029A0008032E1F48281938106970697B8F484819E
:1029B00095810997099790F49F012A5F3F4FBF01C6
:1029C000625C7F4FC12CD12C7601D9014D915C9175
:1029D000465051094630510508F4E3C1809177040F
:1029E000909178049E838D8306970CF4F8C98F012B
:1029F0000A5F1F4F43E0242E312C55ECC52E5DE9B4
:102A0000D52E5CE1E52E51E8F52ED8016D917C9133
:102A1000F8013497A080B18080E090E049D32B0189
:102A20003C01B50180E090E043D34B015C012DEC0B
:102A30003CEC4CE45FE39DD39B01AC01C301B201CC
:102A400033D387FD15C02DEC3CEC4CE45FE3C301B0
:102A5000B2018FD39B01AC01C501B40125D3E82F8E
:102A6000880FFF0BEE27FF0FEE1FFF27319602C0E6
:102A7000E0E0F0E0A701960163E971E080E091E019
:102A80004BD56F01FF0FEE08FF08C626D726E826B4
:102A9000F926BFEF2B1A3B0A0E5F1F4FED81FE8117
:102AA0002E163F0609F0B1CFC0926F04D092700489
:102AB000E0927104F092720480E290E090937404CA
:102AC000809373048FEF9FEF54CE84819581CA97D2
:102AD000899708F0E7CE9F012A5F3F4FC12CD12C88
:102AE000760143E050E0D6CE12966D917C9113971B
:102AF000665071096730710508F0D4CECC0CDD1C2E
:102B0000EE1CFF1CBFCE9F012A583F4FD9012D91CB
:102B10003C912A5031092930310508F0C3CE2CE10F
:102B200030E03093740420937304C0926F04D09209
:102B30007004E0927104F09272048AE090E019CE81
:102B400020914C05CF01820F911D820F911DDC0158
:102B500012978D919C910A97099708F0ADCE10922B
:102B60007404109273048FEF9FEFDC0180936F0465
:102B700090937004A0937104B09372044DC1D90175
:102B800012966D917C9113976651710961317105AF
:102B900068F5D701C601880F991FAA1FBB1F6C01DA
:102BA0007D016894C0F84E5F5F4F2C5F3F4F43320A
:102BB000510509F099CE9F012A5B3F4FD9012D9114
:102BC0003C912A5031092930310508F096CE20E198
:102BD00030E03093740420937304C0926F04D09259
:102BE0007004E0927104F092720416C1D901129639
:102BF0006D917C911397665071096730710508F0EB
:102C00007CCECC0CDD1CEE1CFF1CCDCF84819581CD
:102C100089549109C39708F085CE9F012A5F3F4FE1
:102C2000BF016A577F4FC12CD12C7601D9014D913C
:102C30005C914950510949305105B8F073CE8681F5
:102C400097810997099708F068CE10927404109242
:102C500073048FEF9FEFDC0180936F0490937004F7
:102C6000A0937104B0937204DAC0D90112964D9109
:102C70005C9113974651510941315105F0F4D70148
:102C8000C601880F991FAA1FBB1F6C017D016894A4
:102C9000C0F82C5F3F4F2617370741F620E230E09F
:102CA0003093740420937304C0926F04D092700424
:102CB000E0927104F0927204B2C0D90112964D9163
:102CC0005C911397465051094730510508F02ACEC0
:102CD000CC0CDD1CEE1CFF1CDCCF84819581099798
:102CE000099708F04FCE868197818C974F9708F00F
:102CF00049CE8085918589974D9708F043CE9F01F5
:102D0000265F3F4FC12CD12C760145E050E032CEFA
:102D10009F0126573F4FD9012D913C912C503109ED
:102D20002B30310508F02ECE20E230E030937404D1
:102D300020937304C0926F04D0927004E0927104E7
:102D4000F092720488E090E014CDD90112966D9152
:102D50007C911397695071096930710508F012CEA2
:102D6000CC0CDD1CEE1CFF1CFDCD848195818254B2
:102D700091098E9708F012CE8F01045C1F4F8DE1F0
:102D800090E020E030E0D5CCD8014D915C914851E5
:102D900051094231510510F0CB01D3CC220F331F22
:102DA000C5CCD90112964D915C91139749515109A7
:102DB0004331510508F5D701C601880F991FAA1F95
:102DC000BB1F6C017D016894C0F82C5F3F4F261734
:102DD000370709F0FACD2EE030E0309374042093E9
:102DE0007304C0926F04D0927004E0927104F09268
:102DF00072048FE090E0BDCCD90112964D915C91A8
:102E00001397495051094930510508F0E7CDCC0CD2
:102E1000DD1CEE1CFF1CD9CF86E090E0AACC87E039
:102E200090E0A7CCA8E6B0E0283010F40C94440A57
:102E3000E0E0F0E00C94460A86E093E090931308FB
:102E40008093120882E198E00C94AD05CF92DF9256
:102E5000EF92FF921092AE041092AD0498EEC92E3C
:102E600093E0D92EE12CF12CC092AF04D092B004A3
:102E7000E092B104F092B2048EEE92E09093AC0432
:102E80008093AB0485EC90E09093B8048093B704F2
:102E900084EC90E09093BA048093B90480EC90E0C5
:102EA0009093BC048093BB0481EC90E09093BE04AB
:102EB0008093BD0482EC90E09093C0048093BF04A3
:102EC00086EC90E09093C2048093C1041092C404F5
:102ED0001092C5041092C6041092C7040E94D9042F
:102EE00060933108709332088093330890933408CC
:102EF0001092150810921408C0921608D092170864
:102F0000E0921808F092190886E093E09093130875
:102F100080931208109229081092280810922B080A
:102F200010922A0810922D0810922C0810922F0847
:102F300010922E08609130086E7F6D7F609330088C
:102F40006695617081E0682785E30E94360461E040
:102F500085E30E946504EDE1F2E0E491E09322084C
:102F6000E7EDF1E0E491F0E0EE0FFF1FE259FE4FD4
:102F700085919491909324088093230860E082E3E4
:102F80000E9465048091300881FD04C061E082E305
:102F90000E94360482E380931E08EAE1F2E0E491A5
:102FA000E0931F08E4EDF1E0E491F0E0EE0FFF1F85
:102FB000E857FE4F859194919093210880932008C3
:102FC00010922A06109229068EEF92E0909328061E
:102FD0008093270682E198E090932C0680932B063D
:102FE00010922E0610922D0683E380932F0684EF15
:102FF00091E0A0E0B0E08093160890931708A093AA
:103000001808B093190810928006109281060E9449
:10301000D904609323067093240680932506909329
:1030200026060E94D90460931F06709320068093A1
:103030002106909322060E94D90460931B06709388
:103040001C0680931D0690931E068EE28093490510
:1030500010924B05FF90EF90DF90CF900895FC0108
:1030600088279927E89421912032E9F3293010F03C
:103070002E30C8F32B3239F02D3231F4689403C06E
:103080000BD0820F911D219120532A30C8F31EF4DA
:10309000909581959F4F08957AE0979F902D879FF7
:1030A000802D910D1124089540D008F481E00895F9
:1030B000E89409C097FB3EF49095809570956195D2
:1030C0007F4F8F4F9F4F9923A9F0F92F96E9BB2788
:1030D0009395F695879577956795B795F111F8CF04
:1030E000FAF4BB0F11F460FF1BC06F5F7F4F8F4F6F
:1030F0009F4F16C0882311F096E911C0772321F065
:103100009EE8872F762F05C0662371F096E8862FFC
:1031100070E060E02AF09A95660F771F881FDAF753
:10312000880F9695879597F90895990F0008550F80
:10313000AA0BE0E8FEEF16161706E807F907C0F03D
:1031400012161306E407F50798F0621B730B840B45
:10315000950B39F40A2661F0232B242B252B21F41F
:1031600008950A2609F4A140A6958FEF811D811DBF
:1031700008950BD078C069D028F06ED018F0952350
:1031800009F05AC05FC01124A2C07ED0A0F3959F61
:10319000D1F3950F50E0551F629FF001729FBB273E
:1031A000F00DB11D639FAA27F00DB11DAA1F649FEA
:1031B0006627B00DA11D661F829F2227B00DA11D9D
:1031C000621F739FB00DA11D621F839FA00D611D23
:1031D000221F749F3327A00D611D231F849F600D44
:1031E000211D822F762F6A2F11249F5750408AF07D
:1031F000E1F088234AF0EE0FFF1FBB1F661F771F09
:10320000881F91505040A9F79E3F510570F014C09F
:103210005EC05F3FECF3983EDCF38695779567954B
:10322000B795F795E7959F5FC1F7FE2B880F911D26
:103230009695879597F9089597F99F6780E870E0CC
:1032400060E008959FEF80EC089500240A9416161C
:10325000170618060906089500240A941216130684
:10326000140605060895092E0394000C11F4882312
:1032700052F0BB0F40F4BF2B11F460FF04C06F5F2E
:103280007F4F8F4F9F4F089557FD9058440F551F04
:1032900059F05F3F71F04795880F97FB991F61F0D8
:1032A0009F3F79F087950895121613061406551F4F
:1032B000F2CF4695F1DF08C0161617061806991FBB
:1032C000F1CF86957105610508940895E894BB27B0
:1032D00066277727CB0197F9089509D0A59F900D10
:1032E000B49F900DA49F800D911D11240895A29F5D
:1032F000B001B39FC001A39F700D811D1124911DCA
:10330000B29F700D811D1124911D08955058BB2747
:10331000AA270ED0A8CF99DF30F09EDF20F031F43D
:103320009F3F11F41EF48ECF0EF4E095E7FB84CF9F
:10333000E92FAADF80F3BA1762077307840795079E
:1033400018F071F49EF5C2CF0EF4E0950B2EBA2F53
:10335000A02D0B01B90190010C01CA01A00111249B
:10336000FF27591B99F0593F50F4503E68F11A1647
:10337000F040A22F232F342F4427585FF3CF4695D8
:1033800037952795A795F0405395C9F77EF41F16FA
:10339000BA0B620B730B840BBAF09150A1F0FF0FC4
:1033A000BB1F661F771F881FC2F70EC0BA0F621FB0
:1033B000731F841F48F4879577956795B795F795A0
:1033C0009E3F08F0B3CF9395880F08F09927EE0F32
:1033D0009795879508950CD046CF3EDF40F035DFB6
:1033E00030F021F45F3F19F027CF511170CF2ACF71
:1033F0004BDF98F39923C9F35523B1F3951B550B74
:10340000BB27AA2762177307840738F09F5F5F4FB7
:10341000220F331F441FAA1FA9F333D00E2E3AF0F8
:10342000E0E830D091505040E695001CCAF729D012
:10343000FE2F27D0660F771F881FBB1F2617370761
:103440004807AB07B0E809F0BB0B802DBF01FF2791
:1034500093585F4F2AF09E3F510568F0EDCE37CF6D
:103460005F3FECF3983EDCF3869577956795B795CB
:10347000F7959F5FC9F7880F911D9695879597F9E6
:103480000895E1E0660F771F881FBB1F621773075F
:103490008407BA0720F0621B730B840BBA0BEE1F74
:1034A00088F7E095089504D06894B11110CF08957D
:1034B000F3DE88F09F5790F0B92F9927B751A0F00D
:1034C000D1F0660F771F881F991F1AF0BA95C9F7B8
:1034D00012C0B13081F0FADEB1E00895F7CE672F67
:1034E000782F8827B85F39F0B93FCCF38695779568
:1034F0006795B395D9F73EF4909580957095619551
:103500007F4F8F4F9F4F089510DE08F48FEF08957F
:103510000CDE880B990B0895DB018F939F93DDDE02
:10352000BF91AF91A29F800D911DA39F900DB29F5F
:10353000900D1124089597FB072E16F4009406D0E1
:1035400077FD08D06CD007FC05D03EF490958195AE
:103550009F4F0895709561957F4F0895A1E21A2EAF
:10356000AA1BBB1BFD010DC0AA1FBB1FEE1FFF1F27
:10357000A217B307E407F50720F0A21BB30BE40B77
:10358000F50B661F771F881F991F1A9469F76095BE
:103590007095809590959B01AC01BD01CF01089578
:1035A000EE0FFF1F881F8BBF0790F691E02D199437
:1035B0000F93083090F0982F872F762F652F542F78
:1035C000432F322F22270850F4CF220F331F441FDE
:1035D000551F661F771F881F991F0A95B2F70F9115
:1035E000089597FB10F8169400080F93083098F090
:1035F0000850232F342F452F562F672F782F892FD0
:10360000902DF4CF05949795879577956795579565
:103610004795379527950A95AAF70F910895AA1B04
:10362000BB1B51E107C0AA1FBB1FA617B70710F0AD
:10363000A61BB70B881F991F5A95A9F780959095DF
:10364000BC01CD01089581E090E0F8941AC0FB011F
:1036500051915523A9F0BF01DC014D91451741114E
:10366000E1F759F4CD010190002049F04D9140154A
:103670004111C9F3FB014111EFCF81E090E00197C7
:10368000089511E0C8E1D1E000E005C0802FFE01FF
:1036900087DF2196011DC931D10780E00807B1F706
:0436A000F894FFCFCC
:1036A400001824243C24240001000100050000002B
:1036B400700200382424382424000100010005008D
:1036C4000100010001000000007C10101010100027
:1036D40005000500010005000100010001000100D2
:1036E4000100050005000000000044AA9282820047
:1036F40005000100050000000100010001000100B7
:1037040001000100050001000500010000000100A6
:1037140000000A000000003844043840407C0002E5
:10372400023A0708370A383C3D1A1B1C1D1E1F208D
:1037340021222423262528272A292C2B2D02030481
:103744004445111013121415181617424340413FF3
:103754003E09060B05390C3B3640064C0420035841
:1037640002C2012C01C80082000080C0E0F0F8FC15
:10377400FEFF010204081020408000080109020A2B
:10378400030B040C050D060E070F00000000A20138
:1037940056076C014A015E01E80100000000610364
:1037A400560700000000D502560729034003BC0257
:1037B400D402416461667275697420465820536F5F
:1037C400756E6420426F6172640053465820626FC4
:1037D40061726420666F756E640052435F4D4F449E
:1037E400455F41524D45440052435F4D4F44455F50
:1037F400535441525445440052435F4D4F44455F36
:10380400574149545F544F5F434C45415200524322
:103814005F4D4F44455F535441525445445F4255B4
:10382400545F494E5F4149520052435F4D4F4445F6
:103834005F454E444544006C6F776573743A0020CD
:103844002F20006E616E00696E66006F7666000D53
:103854000A0053656E736F72733A2000204C6F77C1
:103864006573743A00204C656E3A002053706565A8
:10387400643A0020447572286D73293A0020546F0D
:1038840074616C3A004E6F7420666F756E64002B21
:10389400004661696C656420746F2061646A7573A5
:0238A4007400AE
:00000001FF
