:1000000018C1000046C1000044C1000042C1000008
:1000100040C100003EC100003CC100003AC10000E8
:1000200038C100001CC500001AC5000018C500003A
:1000300030C10000A8C500002CC100002AC100008A
:1000400028C1000026C1000024C1000022C1000018
:1000500020C100001EC100001CC10000B6C4000089
:1000600018C10000A5C300007AC3000012C100003F
:1000700010C100000EC100000CC100000AC1000048
:1000800008C1000006C1000004C1000002C1000058
:1000900000C10000FEC00000FCC00000FAC000006B
:1000A000F8C00000F6C00000F4C00000F2C000007C
:1000B000F0C00000EEC00000ECC00000EAC000008C
:1000C000E8C00000E6C00000E4C00000E2C000009C
:1000D000E0C00000DEC00000DCC00000DAC00000AC
:1000E000D8C000005C025F024E0252025802960223
:1000F000630267026D02710275027B027F02830256
:10010000960289028D0291022D2D2D3E20000000C5
:100110002100240027002A002D00300033000101B7
:100120000000040107010A0100000A0B02090C0D7E
:100130000E0807030401000000000000000000009A
:1001400000000000000000000000000000000000AF
:10015000000000001211100000000000000000006C
:10016000000000000000000000000000000000008F
:100170002200250028002B002E003100340002014F
:100180000000050108010B010000200023002600EB
:1001900029002C002F00320000010000030106019D
:1001A00009010505050507050808080802020202FD
:1001B0000A0A080804040404010101010101010103
:1001C0000303030303030303040707070C0C0C0CCE
:1001D0000C0C0C0C020202020606060606060606B7
:1001E0000B0B0B0B0B0B0B0B010210202008081044
:1001F0002040102040800201020108040201010297
:10020000040810204080804020100804020180046F
:1002100002018040201008040201080402010102CA
:10022000040810204080010204081020408021159D
:10023000171511241FBECFEFD1E2DEBFCDBF00E006
:100240000CBF27E0A6E8B3E001C01D92AC39B207AD
:10025000E1F713E0A0E0B2E0EAE8F2E300E00BBF70
:1002600002C007900D92A638B107D9F711E0C8E196
:10027000D1E000E006C021970109802FFE010E9415
:10028000C318C731D10780E00807A9F7D5D70C9468
:100290003419B6CEFC01918D828D981761F0828D54
:1002A000DF01A80FB11D5D968C91928D9F5F9F73AA
:1002B000928F90E008958FEF9FEF0895FC01918D4C
:1002C000828D981731F0828DE80FF11D858D90E0B9
:1002D00008958FEF9FEF0895FC01918D228D892F56
:1002E00090E0805C9F4F821B91098F73992708953E
:1002F00082E194E0F1DF21E0892B09F420E0822FF4
:100300000895FC01848DDF01A80FB11DA35ABF4FD2
:100310002C91848D90E001968F739927848FA68904
:10032000B7892C93A089B1898C9180648C93938D2B
:10033000848D981306C00288F389E02D80818F7D1B
:1003400080830895EF92FF920F931F93CF93DF93D3
:10035000EC0181E0888F9B8D8C8D981305C0E88916
:10036000F989808185FD23C0F62E0B8D10E00F5F8B
:100370001F4F0F731127E02E8C8DE8120BC00FB6A4
:1003800007FCFACFE889F989808185FFF5CFCE0196
:10039000B8DFF2CF8B8DFE01E80FF11DE35AFF4F5E
:1003A000F0820B8FEA89FB898081806207C0EE8929
:1003B000FF896083E889F98980818064808381E096
:1003C00090E0DF91CF911F910F91FF90EF900895F2
:1003D000CF93DF93EC01888D8823C1F0EA89FB89F4
:1003E000808185FD05C0A889B9898C9186FD0EC0E4
:1003F0000FB607FCF5CF808185FFF2CFA889B989B8
:100400008C9185FFEDCFCE017CDFE8CFDF91CF91DE
:10041000089580E090E0892B19F06ADF811125C0F2
:1004200080E090E0892B41F080E090E0892B21F082
:100430000E94000081111CC080E090E0892B41F0F7
:1004400080E090E0892B21F00E940000811113C010
:1004500080E090E0892BA1F080E090E0892B81F092
:100460000E94000081110AC008950E940000D8CFA8
:100470000E940000E1CF0E940000EACF0C9400002F
:10048000089590E0FC013197E231F10508F04EC08B
:100490008827EE58FF4F8F4F0C94C318809180002F
:1004A0008F7703C0809180008F7D809380000895B6
:1004B00080918000877FF9CF84B58F7702C084B5A3
:1004C0008F7D84BD08958091B0008F7703C08091A7
:1004D000B0008F7D8093B0000895809190008F7759
:1004E00007C0809190008F7D03C080919000877F2E
:1004F0008093900008958091A0008F7707C080912D
:10050000A0008F7D03C08091A000877F8093A00012
:100510000895809120018F7707C0809120018F7D01
:1005200003C080912001877F8093200108953FB709
:10053000F8948091FE039091FF03A0910004B09184
:10054000010426B5A89B05C02F3F19F00196A11DF7
:10055000B11D3FBFBA2FA92F982F8827820F911D59
:10056000A11DB11DBC01CD0142E0660F771F881FA0
:10057000991F4A95D1F70895AF92BF92DF92EF92FB
:10058000FF920F931F93CF93DF93EC01D62EEE8053
:10059000FF80E114F10449F15C0189E5A80EB11C6A
:1005A000D5018C91811117C008E011E0F801649128
:1005B000611104C081E0D5018C930DC0D701ED918C
:1005C000FC910190F081E02DC70119950F5F1F4F3D
:1005D000892B61F7EFCF8E819F81DC01ED91FC913A
:1005E0000190F081E02D6D2D19958C819D81DC01AC
:1005F000ED91FC910190F081E02D6D2DDF91CF9177
:100600001F910F91FF90EF90DF90BF90AF901994E2
:1006100020918803309189032817390771F490914C
:10062000860380918703981741F0E0918603F0E0FC
:10063000E754FC4F808190E008958FEF9FEF08957D
:1006400008951F93CF93DF93DC015C962D913C912D
:100650005D972115310539F481E090E013969C9364
:100660008E9312973DC05196ED91FC915297509602
:100670009C915097892F80951FB75E964C915E97FD
:1006800041FB772770F941FD6095F894408177230D
:1006900011F0492B01C048234083E9012197F1F76C
:1006A00048E0508160FF02C0592B01C0582350839D
:1006B000E9012197F1F76695415099F7772321F0E9
:1006C00090818923808303C08081982B90831FBFF2
:1006D0005C968D919C915D970197F1F721E030E058
:1006E000C901DF91CF911F91089520918803309126
:1006F00089032817390769F48091870320918603BD
:1007000090E0805C9F4F821B910960E470E00C9444
:100710008E1880E090E0089520918803309189033D
:1007200028173907B9F490918603809187039817A9
:1007300089F0E0918603F0E0E754FC4F808120913E
:10074000860330E02F5F3F4F2F73332720938603BC
:1007500090E008958FEF9FEF08950E9416191F9261
:100760000F920FB60F9211240BB60F922F933F9357
:100770004F935F936F937F938F939F93AF93BF93A9
:10078000EF93FF9382E194E0BCDDFF91EF91BF9185
:10079000AF919F918F917F916F915F914F913F9119
:1007A0002F910F900BBE0F900FBE0F901F901895BA
:1007B0001F920F920FB60F9211240BB60F922F9328
:1007C0008F939F93EF93FF93E0912204F091230482
:1007D0008081E0912804F091290482FD12C090816B
:1007E00080912B048F5F8F7320912C04821751F01E
:1007F000E0912B04F0E0EE5EFB4F958F80932B048D
:1008000001C08081FF91EF919F918F912F910F9067
:100810000BBE0F900FBE0F901F901895CF93DF93D4
:10082000282F30E0F901E85DFE4F8491F901E8518D
:10083000FE4FD491F901EE55FE4FC491CC2389F0BF
:1008400081111FDEEC2FF0E0EE0FFF1FE857FE4F87
:10085000A591B491EC91ED2381E090E021F480E04A
:1008600002C080E090E0DF91CF9108951F93CF9375
:10087000DF93282F30E0F901E85DFE4F8491F90104
:10088000E851FE4FD491F901EE55FE4FC491CC23AF
:10089000C1F0162F8111F5DDEC2FF0E0EE0FFF1FF8
:1008A000E259FE4FA591B4918FB7F894111105C08C
:1008B0009C91ED2FE095E92302C0EC91ED2BEC9398
:1008C0008FBFDF91CF911F910895CF93DF9390E079
:1008D000FC01E851FE4F2491FC01EE55FE4F84913E
:1008E000882361F190E0880F991FFC01E25FFE4FC1
:1008F000C591D491FC01E259FE4FA591B4916111CB
:1009000009C09FB7F8948881209582238883EC9151
:100910002E230BC0623061F49FB7F8943881822F88
:10092000809583238883EC912E2B2C939FBF06C048
:100930008FB7F894E8812E2B28838FBFDF91CF915A
:1009400008958F929F92AF92BF92CF92DF92EF92D3
:10095000FF926B017C01EBDD4B015C01C114D10402
:10096000E104F104E9F0E3DDDC01CB018819990928
:10097000AA09BB09883E9340A105B10578F321E09F
:10098000C21AD108E108F10888EE880E83E0981EAB
:10099000A11CB11CC114D104E104F10421F7DECF84
:1009A000FF90EF90DF90CF90BF90AF909F908F908F
:1009B00008952FB7F8946091FA037091FB0380912A
:1009C000FC039091FD032FBF08951F920F920FB665
:1009D0000F9211242F933F938F939F93AF93BF93C5
:1009E0008091FA039091FB03A091FC03B091FD0369
:1009F0003091F90323E0230F2D3720F40196A11D38
:100A0000B11D05C026E8230F0296A11DB11D20933C
:100A1000F9038093FA039093FB03A093FC03B09334
:100A2000FD038091FE039091FF03A0910004B0911B
:100A300001040196A11DB11D8093FE039093FF0355
:100A4000A0930004B0930104BF91AF919F918F9147
:100A50003F912F910F900FBE0F901F9018951F92EE
:100A60000F920FB60F9211240BB60F922F933F9354
:100A70004F935F936F937F938F939F93AF93BF93A6
:100A8000EF93FF93E0918803F0918903309709F485
:100A900051C0968DA685B785858591FF04C09C9130
:100AA000892329F447C09C91892309F043C0A38975
:100AB000B4899C918589809589238C9386899789AF
:100AC0000197F1F7608D718DA685B785558538E062
:100AD00020E0CB010197F1F7822F90E09595879563
:100AE000282F4C91452309F02068315091F7868DCD
:100AF00081FD20958091870390E001968F7399275F
:100B000030918603381749F0A0918703B0E0A754CD
:100B1000BC4F2C938093870303C0868D8160868FA2
:100B2000828D938D0197F1F7A389B4899C91858972
:100B3000892B8C93FF91EF91BF91AF919F918F91F2
:100B40007F916F915F914F913F912F910F900BBECD
:100B50000F900FBE0F901F901895E0918803F091B1
:100B60008903E817F90769F4A389B4899C918589F9
:100B7000809589238C93109289031092880381E0D9
:100B8000089580E008951F920F920FB60F921124DE
:100B90000BB60F922F933F934F935F936F937F9377
:100BA0008F939F93AF93BF93EF93FF938091B00484
:100BB00035DE2091B4043091B5042F5F3F4F309360
:100BC000B5042093B4049091B304953618F096E0E0
:100BD0009093AF049091AF049430C9F128F492300F
:100BE00069F09330D1F05EC0953009F451C0963071
:100BF00009F058C091E09093800551C0811152C016
:100C00002091B4043091B5042436310508F442C073
:100C1000109280051092B3041CC0813009F042C0CC
:100C2000E091B30491E09E0F9093B304F0E0209123
:100C3000B4043091B504EE0FFF1FE155FB4F308730
:100C400027831092B5041092B40494E029C0811156
:100C500017C0E091B30491E09E0F9093B304F0E0CD
:100C60002091B4043091B504EE0FFF1FE155FB4F06
:100C7000308727831092B5041092B40493E010C01B
:100C80002091B4043091B5042536310558F007C0E1
:100C9000811108C01092B5041092B40403C095E00D
:100CA0009093AF049091B2049923B1F081110AC0DE
:100CB0008091B104882321F08091B10461E009C0E2
:100CC0002F9A0AC08091B104882329F08091B10441
:100CD00060E0CCDD01C02F98FF91EF91BF91AF9103
:100CE0009F918F917F916F915F914F913F912F9144
:100CF0000F900BBE0F900FBE0F901F901895CF92C4
:100D0000DF92EF92FF92CF93DF93EC01072E000C5E
:100D1000880B990B0E9455166B017C0120E030E096
:100D200040E45FE30E94B41620E030E048E452E47F
:100D30000E94E6170E944E18C617D707D4F020E08D
:100D400030E040EA5FE3C701B6010E94B41620E03C
:100D500030E048E452E40E94E61720E030E040E84A
:100D60005FE30E9482170E944E1821E06C177D07F6
:100D70000CF420E0822F90E0DF91CF91FF90EF9074
:100D8000DF90CF900895CF92DF92EF92FF92CF93B2
:100D9000DF93EB01223160F5FC018081813049F461
:100DA0002770E22FF0E0EB54FD4F98818081892B72
:100DB0001EC081111DC0E22FE770F0E0EB54FD4F23
:100DC000C080D12CE12CF12CF4DD24EF31E040E0A7
:100DD00050E00E94A118C701B6010E947F18DC01F3
:100DE000CB0181709927AA27BB272881822B888372
:100DF000DF91CF91FF90EF90DF90CF900895CF9348
:100E0000DF9360E673E082E194E004D280918E0586
:100E100090918F05DC01ED91FC910480F581E02D2E
:100E20001995A0918E05B0918F05892B49F0ED9110
:100E3000FC9111970680F781E02DCD011995E6CF41
:100E40006AE673E0CD01E6D1BFD083E995E00E9468
:100E50002A16EC01DD27209739F46CE673E082E175
:100E600094E0DF91CF91D6C18DE793E0CFD1BE0161
:100E7000DD0F880B990B4AE057D16DE073E082E1FA
:100E800094E0DF91CF913BC10F931F93CF93DF93FA
:100E9000EC0161E080E3EADC8CDD28813981E6E465
:100EA000E29FA001E39F500D11248A01550F220BF0
:100EB000330BDC01CB01800F911FA21FB31F809366
:100EC000980790939907A0939A07B0939B07D093A4
:100ED0001502C0931402DF91CF911F910F910895D5
:100EE000CF92DF92EF92FF920F931F93CF93DF93F6
:100EF0006C017A018B01C0E0D0E0CE15DF0589F0EE
:100F0000D8016D918D01D601ED91FC910190F08198
:100F1000E02DC6011995892B11F47E0102C021969E
:100F2000ECCFC701DF91CF911F910F91FF90EF9010
:100F3000DF90CF9008958F929F92AF92BF92EF92E1
:100F4000FF920F931F93CF93DF93EC017B0100E09F
:100F500010E02FDD688779878A879B87E881F98190
:100F60000680F781E02DCE01199597FD04C08A30E7
:100F70009105B1F41DC01DDD88849984AA84BB84C9
:100F8000DC01CB0188199909AA09BB098C809D80D5
:100F9000AE80BF8088159905AA05BB05F8F208C088
:100FA000F70181937F010F5F1F4F0035110589F60F
:100FB000C801DF91CF911F910F91FF90EF90BF90EB
:100FC000AF909F908F900895CF93DF9363E975E082
:100FD00080918E0590918F05AEDFEC01FC01E65704
:100FE000FA4F118680918E0590918F05DC01ED916D
:100FF000FC910084F185E02D19950D9759F48091AD
:101000008E0590918F05DC01ED91FC910680F781B2
:10101000E02D1995CE01DF91CF9108958F929F9287
:10102000AF92BF92CF92DF92EF92FF920F931F93F6
:10103000CF93DF93FC01C081D18120910E043091C8
:101040000F04C217D3070CF048C09E01220F331FB4
:10105000E0910C04F0910D04E20FF31F8080918069
:10106000C170DD27F1E0CF27209719F404E610E0E6
:1010700002C00CE91FEF7A015B016C01040F151F20
:10108000B801C4013CDE892B89F40E0D1F1DB80187
:10109000C40135DE892B69F4B8016E0D7F1DC401D2
:1010A0002EDE892BE9F023E030E005C021E030E0BE
:1010B00002C022E030E0F501808191810196821723
:1010C00093073CF0F50111821082F6018081918135
:1010D000019691838083CE0105C081E090E002C03B
:1010E0008FEF9FEFDF91CF911F910F91FF90EF90C6
:1010F000DF90CF90BF90AF909F908F900895611533
:10110000710579F0FB0101900020E9F73197AF01FB
:10111000461B570BDC01ED91FC910280F381E02D21
:10112000199480E090E008958F929F92AF92BF92C1
:101130000F931F93CF93DF93CDB7DEB7A1970FB671
:10114000F894DEBF0FBECDBF19A2423008F44AE0CA
:101150008E010F5D1F4F842E912CA12CB12CA50167
:1011600094010E94A118E62FB901CA01015011098A
:10117000EA3014F4E05D01C0E95CD801EC93232B64
:10118000242B252B61F7B80182E194E0B8DFA1960A
:101190000FB6F894DEBF0FBECDBFDF91CF911F9188
:1011A0000F91BF90AF909F908F900895CF92DF9254
:1011B000EF92FF92CF93DF9397FF20C06B017C01EA
:1011C000E0911204F09113040190F081E02D6DE2A2
:1011D00082E194E01995EC0166277727CB016C1921
:1011E0007D098E099F094AE09FDF8C0F9D1FDF91CB
:1011F000CF91FF90EF90DF90CF9008954AE0DF917C
:10120000CF91FF90EF90DF90CF908ECFBC0182E125
:1012100094E075CF0F931F93CF93DF93EC016FDFB3
:101220008C016DE073E0CE016ADF800F911FDF91CA
:10123000CF911F910F910895CF93DF93CDB7DEB774
:101240002C970FB6F894DEBF0FBECDBF789484B54F
:10125000826084BD84B5816084BD85B5826085BDB2
:1012600085B5816085BD80916E00816080936E0040
:101270001092810080918100826080938100809132
:1012800081008160809381008091800081608093E3
:1012900080008091B10084608093B1008091B000A3
:1012A00081608093B0008091910082608093910072
:1012B0008091910081608093910080919000816085
:1012C000809390008091A10082608093A100809122
:1012D000A10081608093A1008091A0008160809333
:1012E000A0008091210182608093210180912101E1
:1012F0008160809321018091200181608093200191
:1013000080917A00846080937A0080917A00826074
:1013100080937A0080917A00816080937A00809136
:101320007A00806880937A001092C100E0912204D4
:10133000F091230482E08083E0911E04F0911F0469
:101340001082E0912004F091210480E180831092CA
:101350002A04E0912604F091270486E08083E0913E
:101360002404F0912504808180618083E09124042D
:10137000F0912504808188608083E0912404F091BD
:101380002504808180688083E0912404F091250405
:1013900080818F7D808364EF71E080E090E0D1DA1E
:1013A00061E080E392DA60E080E360DA1092900717
:1013B00010928F0710928E0710928D0710928C0753
:1013C00010928B078DE991E090939207809391079B
:1013D0008091810796EF980F943048F02EEC280FFB
:1013E000243028F022EC280F283008F070C02DEBB4
:1013F00030E030938C0720938B072BE931E030935A
:101400008E0720938D072CE231E0309390072093D4
:101410008F07943070F02EEC280F243050F022EC1F
:10142000280F283010F40C940D15A0E0B0E00C94B7
:101430000F15A8E6B0E0E8E6F0E02081943018F05F
:101440008E53883010F081E001C084E0822B8C93B1
:101450008091810796EF980F943058F02EEC280F6A
:10146000243038F022EC280F283030F020E030E033
:1014700005C02BE630E002C02DE630E0309389074E
:1014800020938807943010F49AEF0BC0823381F0D8
:10149000833381F0843381F092EC980F983070F4AC
:1014A00092EC980F81E001C0880F9A95EAF707C087
:1014B00088E005C084E003C082E001C081E0809341
:1014C0008A0780919107909192070197F1F7809197
:1014D0008F0790919007892B19F180918803909143
:1014E000890317E085379107D9F0009709F035DBBC
:1014F000809193078E7F80939307109287031092B9
:10150000860385E797E09093890380938803E091B1
:101510008807F0918907908180918A07892B8083C1
:1015200060E080919205A2D961E080919205CDD9C9
:101530006AE070E080E090E004DA60E0809192057B
:10154000C4D968EE73E080E090E0FBD93DDD3CDD7E
:1015500065EE72E083E995E00E941A19892B09F47F
:101560007AC56AEF70E080E090E0EBD92DDD2CDDEC
:101570006DEF72E082E194E04DDE41DC40DC3FDC67
:1015800080918E0590918F05DC01ED91FC91048096
:10159000F581E02D199500918E0510918F05D801E8
:1015A000ED91FC91892B31F00680F781E02DC80187
:1015B0001995E6CF0190F081E02D6CE4C8011995F2
:1015C0006DE073E0C8019BDD1092E4051CE08FE93B
:1015D00095E000E1080F63E975E080918E05909138
:1015E0008F05A9DC892B09F453C0A091E4051A9F4B
:1015F000D0011124AB51BA4FE3E9F5E0812F0190FE
:101600000D928A95E1F79090E405E92DF0E01E9F98
:10161000D0011F9FB00D1124A051BA4F1C92EE0FA4
:10162000FF1FEE0FFF1FEF5EF84F10821182128234
:1016300013823FE9A32E35E0B32ED5018D915D01D4
:1016400090ED980F9A3040F081E0890D8093E40589
:10165000893108F4C0CF1CC0C82ED12CB0E3CB1AFE
:10166000D1080D2C000CEE08FF0820813181428149
:101670005381AAE0B0E00E946817C60ED71EE81E8C
:10168000F91EC082D182E282F3820A11D6CFDCCF6A
:101690000091E40560E173E082E194E0BBDD6DE17F
:1016A00073E082E194E0B6DD6DE073E082E194E006
:1016B00026DD86E393E0AADD602F70E080E090E015
:1016C0004AE032DD6DE373E082E194E0A3DD85EE74
:1016D000E82E85E0F82E91E1C92E97E0D92E812CD5
:1016E000912C540110E01017A1F14AE0C501B4019A
:1016F0001BDD84E493E08ADD8091E405181710F483
:10170000C70102C080E090E081DD8CE493E07EDDE3
:101710008091E405181730F4F601608171818281AF
:10172000938103C060E070E0CB014AE0FDDC6DE036
:1017300073E082E194E0E3DC1F5FFCE0EF0EF11C5C
:1017400024E0C20ED11C8FEF881A980AA80AB80AA2
:10175000CACF6DE173E082E194E05CDD61E08DE091
:10176000B4D8F89482E08093B0008093B10094E6FE
:101770009093B3001092B20080937000789480939D
:10178000AF041092B3048091B00460E09ED881E071
:101790008093B20461E08DE098D805E812E060E043
:1017A000D8018D918D0191D8B2E008391B07B9F7A6
:1017B00009E912E061E0F80181918F0186D8F2E039
:1017C0000C3A1F07B9F71DE7C12E12E0D12E0DEA22
:1017D00012E0D801FD908D0161E08F2D76D861E097
:1017E0008F2D44D8F601F1906F0161E08F2D6DD8F7
:1017F00061E08F2D3BD8F2E0053B1F0751F78CE0ED
:1018000092E042DB89E992E012E1180F1B878DEA32
:1018100092E018E0180F1C8744244A94542C32019B
:10182000C8D820917C02233081F509E912E060E0FC
:10183000D8018D918D011AD8BB85B013F8CFB9D8D6
:1018400000918605109187052091880530918905C2
:101850000D5E1F4F2F4F3F4F0617170728073907F9
:101860000CF004C16093860570938705809388050A
:1018700090938905C0907A02D0907B027DEAE72E92
:1018800072E0F72EBB24B39457C0009182051091EB
:10189000830520918405309185050C5F1F4F2F4FE4
:1018A0003F4F06171707280739074CF66093820544
:1018B000709383058093840590938505E2E9EE2E6D
:1018C000E3E0FE2EF5E8CF2EF2E0DF2E09E912E08C
:1018D00099249394A2E08A2EF801B08060E08B2DC9
:1018E0000E943604D601AD906D018A2D0E940E042F
:1018F000892B19F4F701108216C0D7019C9261E080
:10190000F80180810E9436048BE490E00197F1F7A2
:101910008A2D0E940E04892B11F4D7018C9260E06D
:101920008B2D0E9436040F5F1F4FBFEFEB1AFB0A8F
:10193000EB85E013D1CF83CFD6010D916D01602FE0
:1019400061706B258AE30E94360410E000951095C3
:10195000B80175956795617087E00E943604B801FB
:101960007595679575956795617088E00E94360456
:10197000B80123E0759567952A95E1F7617087E3D3
:101980000E943604B80134E0759567953A95E1F701
:1019900061708AE00E943604B80145E0759567954C
:1019A0004A95E1F7617088E30E943604B80156E079
:1019B000759567955A95E1F761708CE30E9436043E
:1019C000000F012F001F110B602F61708DE30E942B
:1019D0003604F70111917F0161E0812F0E943604E6
:1019E00062E070E080E090E00E94A10460E0812F5E
:1019F0000E9436041C851E119FCF80917C028111AC
:101A000035C000E010E0202F40E06AE873E0C80134
:101A10008E569C4FB8D90F5F1F4F0830110599F7AC
:101A200000E010E028E0200F41E06BE873E0C8011F
:101A300086569C4FA8D90F5F1F4F0830110591F7AC
:101A400000E010E020E1200F42E06CE873E0C80104
:101A50008E559C4F98D90F5F1F4F0830110591F795
:101A60008AE893E09093A7038093A6030091140261
:101A700010911502D8018D919C91892B09F47EC09B
:101A80000E94D9046B017C0180919807909199077D
:101A9000A0919A07B0919B07C816D906EA06FB06E3
:101AA0000CF46CC0B801110F880B990B7FDB8AE432
:101AB00093E0ACDBE0911402F0911502608171813A
:101AC000072E000C880B990B71DB8091140290910A
:101AD00015020296909315028093140284E593E018
:101AE00095DB6091140270911502072E000C880B93
:101AF000990B5CDB8AE493E089DBE0911402F091BE
:101B0000150260817181072E000C880B990B4EDB4A
:101B10006DE073E082E194E0F2DA0091140210913A
:101B20001502F80180819181892B29F460E080E31E
:101B30000E94360423C080E30E940E0461E0892BDA
:101B400009F060E080E30E943604D8018D919C91F9
:101B500026E4289FB001299F700D1124CB01770F37
:101B6000AA0BBB0B8C0D9D1DAE1DBF1D809398074E
:101B700090939907A0939A07B0939B0786EB94E004
:101B800090930D0480930C048091B30490E09093A3
:101B90000F0480930E048091800590E090931104CF
:101BA000809310048091AF04853009F020C28091A9
:101BB000B8049091B904885891098D35910588F43D
:101BC0008091B304843041F48091BA049091BB04B5
:101BD0008097479708F45EC28091B304843408F07C
:101BE00040C28091B3048A3108F44FC08091B6049A
:101BF0009091B704843F914068F410920B041092C6
:101C00000A044092060450920704609208047092FD
:101C1000090459C08091B8049091B90485974B97F5
:101C2000A0F5ECEBF4E082E090E0C12CD12C760141
:101C3000AC014F5F5F4F2091B30430E04217530770
:101C40005CF4DF0112972D913C9127503109273028
:101C5000310508F465C2CA0101979595879590935F
:101C60000B0480930A040C972CF410920B0410922E
:101C70000A040BC0C0920604D0920704E092080444
:101C8000F092090484E090E070C38091B3048A313B
:101C900008F44CC08091B6049091B7048032934010
:101CA00008F4ABCF8091B8049091B904C697869799
:101CB00008F453C23BC0C0920604D0920704E092DD
:101CC0000804F09209048BE090E04FC32081318139
:101CD000255231092B31310508F04FC2CC0CDD1CE7
:101CE000EE1CFF1C6894C0F802963496AC014F5F5E
:101CF0005F4F2091B30430E04217530754F4DF01E3
:101D000012972D913C912C5031092B303105F0F276
:101D1000CA0101979595879590930B0480930A04C7
:101D20000C974CF610920B0410920A048091B304A5
:101D3000823208F44DC08091B8049091B90406979E
:101D4000079708F045C0ECEBF4E022E030E0C12C4E
:101D5000D12C7601C90101964091B30450E084175B
:101D60009507E4F4DF0112974D915C9111974E5164
:101D700051094731510508F00DC2CC0CDD1CEE1C99
:101D8000FF1C6894C0F8408151813496435051093A
:101D90004530510520F42E5F3F4FDCCFC90101973C
:101DA0009595879590930B0480930A0440972CF4A3
:101DB00010920B0410920A040BC0C0920604D09239
:101DC0000704E0920804F09209048CE090E0CDC290
:101DD0001C821B8281E090E09A8389838091B30406
:101DE0008D3008F466C049E753E0BE016D5F7F4F58
:101DF000CE01019613D9892B09F05BC049E753E066
:101E0000BE016D5F7F4FCE01019608D9019709F0A1
:101E100050C049E753E0BE016D5F7F4FCE01019690
:101E2000FDD8892B09F045C0812C912C540100E08C
:101E300010E08091B30490E029813A812817390796
:101E40004CF549E753E0BE016D5F7F4FCE0101962F
:101E5000E5D87C0149E753E0BE016D5F7F4FCE01BD
:101E60000196DCD8F1E0EF16F10449F4892B09F56D
:101E7000880C991CAA1CBB1C689480F808C0EF2829
:101E8000C1F40197B1F4880C991CAA1CBB1C0F5F0C
:101E90001F4FCFCF10930B0400930A0480920604C7
:101EA00090920704A0920804B092090481E090E0A7
:101EB0005CC21C821B8281E090E09A8389838091BE
:101EC0000E0490910F04181619060CF054C0E091FE
:101ED0000C04F0910D0482E090E09A838983828162
:101EE000938189974E9708F046C083E090E09A83EB
:101EF0008983848195810B970A9708F03CC04CEB4D
:101F000051E0BE016D5F7F4FCE01019687D8892BCE
:101F100091F54CEB51E0BE016D5F7F4FCE01019614
:101F20007DD8019741F5812C912C540100E010E0FF
:101F300029813A8180910E0490910F042817390766
:101F40000CF06BC14CEB51E0BE016D5F7F4FCE01D9
:101F5000019664D87C010330110509F028C14CEBCF
:101F600051E0BE016D5F7F4FCE01019657D8E81654
:101F7000F90609F41CC1E0910C04F0910D04828172
:101F80009381C697869708F457C155C28E35F2EAF9
:101F90009F07FFEFAF07B10508F016C28D3D9242D3
:101FA000AF4FB105F9F411E010937C028CE592E09B
:101FB0000E94440782E792E090937B0280937A022A
:101FC0000E94D904DC01CB018053984FAF4FBF4F23
:101FD0008093940790939507A0939607B0939707E3
:101FE0001093B80382E08093AF041092B304809101
:101FF000B803882389F00E94D904009194071091B6
:10200000950720919607309197070617170728071D
:102010003907F0F41092B80380917C02813079F096
:102020003CF4811115C08091A6039091A7030CC0C8
:10203000823041F0833061F480EB93E005C082E7A9
:1020400092E002C088EA93E090937B0280937A0248
:102050000E940902E5CB66E573E082E194E0DAD8FC
:10206000FFCF8091BA049091BB04825491098E975E
:1020700008F0B7CD80E090E040E050E0BA01FC010C
:10208000E454FB4F20813181295031092930310539
:10209000B0F0A7CD8091BC049091BD040997099739
:1020A00008F09ACD10920B0410920A044092060494
:1020B00050920704609208047092090421C0FC0148
:1020C000E254FB4F20813181275131092231310502
:1020D000D0F4440F551F661F771F41600496803867
:1020E000910569F680E290E090930B0480930A04D6
:1020F0004093060450930704609308047093090406
:1021000083E090E032C120813181265031092730AF
:10211000310508F066CD440F551F661F771FDECFCF
:1021200020813181235131092F30310548F4CC0C05
:10213000DD1CEE1CFF1C6894C0F80296349678CD26
:10214000208131812A5031092930310508F09DCD97
:10215000CC0CDD1CEE1CFF1CF0CF8091BA049091DA
:10216000BB04C697869708F0E1CDEEEBF4E083E080
:1021700090E0C12CD12C7601B9CD208131812C5039
:1021800031092A30310508F0D1CDCC0CDD1CEE1C14
:10219000FF1CAACD4D915C914C5051094B3051051B
:1021A00008F016CECC0CDD1CEE1CFF1CECCD4CEB6D
:1021B00051E0BE016D5F7F4FCE0101960E940E0877
:1021C0006C010330110569F44CEB51E0BE016D5F09
:1021D0007F4FCE0101960E940E08C816D90609F05D
:1021E000CACEE114F10459F4CA94CD2809F0C3CE43
:1021F000880C991CAA1CBB1C689480F80BC0EA943C
:10220000EF2809F0B8CECD2809F0B5CE880C991C7E
:10221000AA1CBB1C0F5F1F4F8BCE10930B040093A7
:102220000A048092060490920704A0920804B092D7
:10223000090482E090E099C0848195814B9745978D
:1022400008F0F9C0DF0116967F0116ECE10EF11CD3
:1022500020E030E040E050E060E070E080E090E0BE
:10226000CD90DC90119719E0C11AD10818E0C11681
:10227000D10408F0E0C01296CD90DC90139711E1E4
:10228000C11AD1081DE0C116D10410F501E083D7B1
:1022900021601496AE15BF0519F7209306043093FC
:1022A0000704409308045093090400E28FD7209359
:1022B00004043093050485E090E090930304809338
:1022C000020480E390E090930B0480930A0451C0D1
:1022D0001296CD90DC90139714E0C11AD10815E046
:1022E000C116D10408F0A7C001E055D7D2CFA8018C
:1022F00042505109DA014D915C91495051094830E1
:10230000510508F046C1BC016F5F7F4FD8014D9168
:102310005C91475051094730510508F033C3220FF3
:10232000331F216002960C5F1F4F4091B30450E0B1
:102330004450510984179507D4F2019795958795D4
:1023400090930B0480930A048A970CF422C1C9016C
:10235000330FAA0BBB0B8093060490930704A09342
:102360000804B093090489E090E0909303048093FB
:102370000204609106047091070480910804909112
:10238000090440E10E9494086DE073E082E194E06A
:102390000E947F088091060490910704A091080490
:1023A000B09109048D35E2EA9E07EFEFAE07B10563
:1023B00009F0ECCD82E080937C028EE392E00E94F3
:1023C000440786E392E00FC08F3420EB92072FEF93
:1023D000A207B10501F510927C028EE192E00E9405
:1023E000440786E192E090937B0280937A020E94F8
:1023F000D904DC01CB018053984FAF4FBF4F80937E
:10240000940790939507A0939607B093970781E060
:102410008093B803E7CD8D31924EAF4FB10509F0EF
:10242000E1CD83E080937C0284E592E00E94440742
:102430008CE492E0D8CF8091B304893370F182812B
:102440009381895791098335910508F43FC125C0CF
:10245000D90112966D917C91139766517109613182
:10246000710508F042C1D701C601880F991FAA1F44
:10247000BB1F6C017D016894C0F84E5F5F4F2C5FFD
:102480003F4F4B33510509F43FC1D9016D917C9108
:102490006A50710969307105D8F28091B3048232B3
:1024A00031F4828193810A97099708F44AC18281A5
:1024B00093818957910983359105D0F48091B304B4
:1024C0008132B0F084819581CA97899788F49F0101
:1024D0002A5F3F4FC12CD12C760143E050E0D90157
:1024E0006D917C916A5071096930710508F445C19C
:1024F000828193818C549109C59778F48091B304BB
:10250000843031F4848195818097479708F498C18D
:102510008091B304843408F07AC18091B304863486
:1025200060F1828193810C970B9708F4D4C125C088
:10253000D90112966D917C9113976E517109673193
:10254000710508F000C2D701C601880F991FAA1FA4
:10255000BB1F6C017D016894C0F84E5F5F4F2C5F1C
:102560003F4F4534510509F4D1C1D9016D917C919A
:102570006C5071096B307105D8F28091B3048835C5
:1025800040F082819381855891098B35910508F43B
:10259000EAC18091B3048032E1F48281938106978D
:1025A0000697B8F4848195810997099790F49F0163
:1025B0002A5F3F4FBF01625C7F4FC12CD12C760157
:1025C000D9014D915C91465051094630510508F4AE
:1025D000E6C180910E0490910F049E838D8306972F
:1025E0000CF400CD1F0196E0290E311C95ECC92E8C
:1025F0009DE9D92E9CE1E92E91E8F92E03E010E047
:10260000D1016D917C91F1013497A080B18080E07F
:1026100090E049D36F83788789879A87B50180E0F6
:1026200090E041D34B015C012DEC3CEC4CE45FE3CA
:102630009BD39B01AC016F81788589859A852FD3C7
:1026400087FD17C02DEC3CEC4CE45FE36F8178858F
:1026500089859A8589D39B01AC01C501B4011FD33B
:10266000E82F880FFF0BEE27FF0FEE1FFF27319695
:1026700002C0E0E0F0E0A701960163E971E080E0CC
:1026800091E03DD56F01FF0FEE08FF08C626D72663
:10269000E826F9260F5F1F4FB2E02B0E311CED81AB
:1026A000FE810E171F0709F0ABCFC0920604D0922F
:1026B0000704E0920804F092090480E290E090930D
:1026C0000B0480930A048FEF9FEF4FCE8481958196
:1026D000CA97899708F0E1CE9F012A5F3F4FC12C2E
:1026E000D12C760143E050E0D0CE12966D917C91D2
:1026F0001397665071096730710508F0CECECC0C87
:10270000DD1CEE1CFF1CB9CE9F012A583F4FD9019A
:102710002D913C912A5031092930310508F0BDCE68
:102720002CE130E030930B0420930A04C09206049D
:10273000D0920704E0920804F09209048AE090E045
:1027400014CE2091B304CF01820F911D820F911DF1
:10275000DC0112978D919C910A97099708F0A7CEFA
:1027600010920B0410920A0440920604509207043F
:10277000609208047092090447C0D90112966D91C5
:102780007C911397665171096131710568F5D70124
:10279000C601880F991FAA1FBB1F6C017D01689499
:1027A000C0F84E5F5F4F2C5F3F4F4332510509F039
:1027B00096CE9F012A5B3F4FD9012D913C912A5023
:1027C00031092930310508F093CE20E130E0309313
:1027D0000B0420930A04C0920604D0920704E092EE
:1027E0000804F092090410C0D90112966D917C91F1
:1027F0001397665071096730710508F079CECC0CDB
:10280000DD1CEE1CFF1CCDCF86E090E0AECD8481B8
:10281000958189549109C39708F07FCE9F012A5F63
:102820003F4FBF016A577F4FC12CD12C7601D90190
:102830004D915C914950510949305105A0F06DCE40
:10284000868197810997099708F062CE10920B0450
:1028500010920A0440920604509207046092080401
:1028600070920904D7C0D90112964D915C911397CB
:102870004651510941315105F0F4D701C601880F85
:10288000991FAA1FBB1F6C017D016894C0F82C5FC3
:102890003F4F2617370759F620E230E030930B04FC
:1028A00020930A04C0920604D0920704E092080420
:1028B000F0920904AFC0D90112964D915C91139723
:1028C000465051094730510508F027CECC0CDD1C8D
:1028D000EE1CFF1CDCCF848195810997099708F0D5
:1028E0004CCE868197818C974F9708F046CE808595
:1028F000918589974D9708F040CE9F01265F3F4F05
:10290000C12CD12C760145E050E02FCE9F012657F7
:102910003F4FD9012D913C912C5031092B3031057D
:1029200008F02BCE20E230E030930B0420930A0411
:10293000C0920604D0920704E0920804F0920904C1
:1029400088E090E012CDD90112966D917C91139799
:10295000695071096930710508F00FCECC0CDD1C8F
:10296000EE1CFF1CFACD84819581825491098E97CB
:1029700008F00FCE8F01045C1F4F8DE190E020E046
:1029800030E0D3CCD8014D915C914851510942318E
:10299000510510F0CB01D1CC220F331FC3CCD9018C
:1029A00012964D915C91139749515109433151054C
:1029B00008F5D701C601880F991FAA1FBB1F6C011C
:1029C0007D016894C0F82C5F3F4F2617370709F048
:1029D000F7CD2EE030E030930B0420930A04C09230
:1029E0000604D0920704E0920804F09209048FE0F4
:1029F00090E0BBCCD90112964D915C911397495050
:102A000051094930510508F0E4CDCC0CDD1CEE1C19
:102A1000FF1CD9CF87E090E0A8CCA8E6B0E0283032
:102A200010F40C941B0AE0E0F0E00C941D0A89ED10
:102A300092E0909376078093750785E797E00C9472
:102A4000AD05CF92DF92EF92FF9210921504109293
:102A5000140498EEC92E93E0D92EE12CF12CC092EB
:102A60001604D0921704E0921804F092190481EC35
:102A700092E0909313048093120485EC90E090937D
:102A80001F0480931E0484EC90E0909321048093B3
:102A9000200480EC90E0909323048093220481EC46
:102AA00090E0909325048093240482EC90E090932E
:102AB00027048093260486EC90E090932904809369
:102AC000280410922B0410922C0410922D041092C2
:102AD0002E040E94D90460939807709399078093FD
:102AE0009A0790939B070E94D90460939407709370
:102AF0009507809396079093970710927807109206
:102B00007707C0927907D0927A07E0927B07F0921C
:102B10007C0789ED92E09093760780937507109279
:102B20008C0710928B0710928E0710928D071092CF
:102B3000900710928F071092920710929107609160
:102B400093076E7F6D7F609393076695617081E058
:102B5000682785E30E94360461E085E30E946504EE
:102B6000EDE1F2E0E491E0938507E7EDF1E0E49137
:102B7000F0E0EE0FFF1FE259FE4F85919491909384
:102B800087078093860760E082E30E946504809156
:102B9000930781FD04C061E082E30E94360482E372
:102BA00080938107EAE1F2E0E491E0938207E4EDAB
:102BB000F1E0E491F0E0EE0FFF1FE857FE4F859142
:102BC0009491909384078093830710928D051092BF
:102BD0008C0581ED92E090938B0580938A0585E7C3
:102BE00097E090938F0580938E0510929105109237
:102BF000900583E38093920584EF91E0A0E0B0E03C
:102C00008093790790937A07A0937B07B0937C0712
:102C10001092E3051092E4050E94D90460938605A2
:102C20007093870580938805909389050E94D90445
:102C30006093820570938305809384059093850546
:102C40008EE28093B0041092B204FF90EF90DF9078
:102C5000CF900895FC0188279927E894219120328C
:102C6000E9F3293010F02E30C8F32B3239F02D3231
:102C700031F4689403C00BD0820F911D2191205331
:102C80002A30C8F31EF4909581959F4F08957AE0FD
:102C9000979F902D879F802D910D1124089540D0EE
:102CA00008F481E00895E89409C097FB3EF49095FC
:102CB0008095709561957F4F8F4F9F4F9923A9F015
:102CC000F92F96E9BB279395F695879577956795A4
:102CD000B795F111F8CFFAF4BB0F11F460FF1BC0E8
:102CE0006F5F7F4F8F4F9F4F16C0882311F096E97B
:102CF00011C0772321F09EE8872F762F05C0662329
:102D000071F096E8862F70E060E02AF09A95660FE1
:102D1000771F881FDAF7880F9695879597F908959A
:102D2000990F0008550FAA0BE0E8FEEF16161706DC
:102D3000E807F907C0F012161306E407F50798F044
:102D4000621B730B840B950B39F40A2661F0232B5D
:102D5000242B252B21F408950A2609F4A140A695D9
:102D60008FEF811D811D08950BD078C069D028F0A8
:102D70006ED018F0952309F05AC05FC01124A2C08C
:102D80007ED0A0F3959FD1F3950F50E0551F629F21
:102D9000F001729FBB27F00DB11D639FAA27F00DB4
:102DA000B11DAA1F649F6627B00DA11D661F829FDB
:102DB0002227B00DA11D621F739FB00DA11D621FC0
:102DC000839FA00D611D221F749F3327A00D611DDD
:102DD000231F849F600D211D822F762F6A2F1124BF
:102DE0009F5750408AF0E1F088234AF0EE0FFF1F12
:102DF000BB1F661F771F881F91505040A9F79E3F49
:102E0000510570F014C05EC05F3FECF3983EDCF3F8
:102E1000869577956795B795F795E7959F5FC1F785
:102E2000FE2B880F911D9695879597F9089597F930
:102E30009F6780E870E060E008959FEF80EC089560
:102E400000240A9416161706180609060895002489
:102E50000A9412161306140605060895092E039403
:102E6000000C11F4882352F0BB0F40F4BF2B11F477
:102E700060FF04C06F5F7F4F8F4F9F4F089557FDD6
:102E80009058440F551F59F05F3F71F04795880FD8
:102E900097FB991F61F09F3F79F08795089512166F
:102EA00013061406551FF2CF4695F1DF08C016161B
:102EB00017061806991FF1CF8695710561050894CC
:102EC0000895E894BB2766277727CB0197F90895E3
:102ED00009D0A59F900DB49F900DA49F800D911DCA
:102EE00011240895A29FB001B39FC001A39F700D4C
:102EF000811D1124911DB29F700D811D1124911D02
:102F000008955058BB27AA270ED0A8CF99DF30F0DC
:102F10009EDF20F031F49F3F11F41EF48ECF0EF4AB
:102F2000E095E7FB84CFE92FAADF80F3BA176207A9
:102F300073078407950718F071F49EF5C2CF0EF45D
:102F4000E0950B2EBA2FA02D0B01B90190010C01B9
:102F5000CA01A0011124FF27591B99F0593F50F4D1
:102F6000503E68F11A16F040A22F232F342F442729
:102F7000585FF3CF469537952795A795F040539521
:102F8000C9F77EF41F16BA0B620B730B840BBAF0F1
:102F90009150A1F0FF0FBB1F661F771F881FC2F75C
:102FA0000EC0BA0F621F731F841F48F48795779570
:102FB0006795B795F7959E3F08F0B3CF9395880F27
:102FC00008F09927EE0F9795879508950CD046CF76
:102FD0003EDF40F035DF30F021F45F3F19F027CFBE
:102FE000511170CF2ACF4BDF98F39923C9F35523A2
:102FF000B1F3951B550BBB27AA27621773078407EC
:1030000038F09F5F5F4F220F331F441FAA1FA9F3A1
:1030100033D00E2E3AF0E0E830D091505040E69593
:10302000001CCAF729D0FE2F27D0660F771F881FF4
:10303000BB1F261737074807AB07B0E809F0BB0BE3
:10304000802DBF01FF2793585F4F2AF09E3F510507
:1030500068F0EDCE37CF5F3FECF3983EDCF386951A
:1030600077956795B795F7959F5FC9F7880F911D7D
:103070009695879597F90895E1E0660F771F881F69
:10308000BB1F621773078407BA0720F0621B730B1C
:10309000840BBA0BEE1F88F7E095089504D068946E
:1030A000B11110CF0895F3DE88F09F5790F0B92F3B
:1030B0009927B751A0F0D1F0660F771F881F991F8D
:1030C0001AF0BA95C9F712C0B13081F0FADEB1E05A
:1030D0000895F7CE672F782F8827B85F39F0B93F6A
:1030E000CCF3869577956795B395D9F73EF490958F
:1030F0008095709561957F4F8F4F9F4F0895DB01AD
:103100008F939F93E5DEBF91AF91A29F800D911D9C
:10311000A39F900DB29F900D1124089597FB072E49
:1031200016F4009406D077FD08D06CD007FC05D0CB
:103130003EF4909581959F4F0895709561957F4FCE
:103140000895A1E21A2EAA1BBB1BFD010DC0AA1FE8
:10315000BB1FEE1FFF1FA217B307E407F50720F000
:10316000A21BB30BE40BF50B661F771F881F991F7B
:103170001A9469F760957095809590959B01AC01C4
:10318000BD01CF010895EE0FFF1F881F8BBF079071
:10319000F691E02D19940F93083090F0982F872F17
:1031A000762F652F542F432F322F22270850F4CF2C
:1031B000220F331F441F551F661F771F881F991F3B
:1031C0000A95B2F70F91089597FB10F8169400082E
:1031D0000F93083098F00850232F342F452F562F87
:1031E000672F782F892F902DF4CF05949795879589
:1031F0007795679557954795379527950A95AAF737
:103200000F910895AA1BBB1B51E107C0AA1FBB1F4A
:10321000A617B70710F0A61BB70B881F991F5A9562
:10322000A9F780959095BC01CD01089581E090E0CB
:10323000F8941AC0FB0151915523A9F0BF01DC019C
:103240004D9145174111E1F759F4CD01019000204E
:1032500049F04D9140154111C9F3FB014111EFCFE8
:1032600081E090E00197089511E0C8E1D1E000E02D
:1032700005C0802FFE0187DF2196011DC931D107CE
:0A32800080E00807B1F7F894FFCFD3
:10328A0001000000001824243C242400010001004D
:10329A00050000000202007C10101010100005004A
:1032AA000500010005000100010001000100010004
:1032BA0005000500000000382424382424000100F9
:1032CA00010005000100010001000000000044AAFD
:1032DA009282820005000100050000000100010041
:1032EA0001000100010001000500010005000100C4
:1032FA000000003844043840407C0402023A0708BF
:10330A00370A383C3D1A1B1C1D1E1F20212224236C
:10331A00262528272A292C2B2D020304444511107F
:10332A0013121415181617424340413F3E09060B63
:10333A0005390C3B360102040810204080000000C9
:10334A0000A20170076C014A015E01E80100000059
:10335A0000BC027007000000002103700775038C8F
:10336A000308032003416461667275697420465834
:10337A0020536F756E6420426F6172640053465821
:10338A0020626F61726420666F756E64000D0A00B8
:10339A0046696C65204C697374696E67003D3D3DF2
:1033AA003D3D3D3D3D3D3D3D3D3D3D3D3D3D3D3D43
:1033BA003D3D3D3D3D00466F756E642000204669E7
:1033CA006C657300096E616D653A20000973697A4C
:1033DA00653A20002D004E6F7420666F756E64008A
:1033EA00566F6C2075702E2E2E002B004661696C6C
:1033FA00656420746F2061646A75737400566F6C1B
:06340A00756D653A20001B
:020000023000CC
:10E000000D9489F10D94B2F10D94B2F10D94B2F129
:10E010000D94B2F10D94B2F10D94B2F10D94B2F1F0
:10E020000D94B2F10D94B2F10D94B2F10D94B2F1E0
:10E030000D94B2F10D94B2F10D94B2F10D94B2F1D0
:10E040000D94B2F10D94B2F10D94B2F10D94B2F1C0
:10E050000D94B2F10D94B2F10D94B2F10D94B2F1B0
:10E060000D94B2F10D94B2F10D94B2F10D94B2F1A0
:10E070000D94B2F10D94B2F10D94B2F10D94B2F190
:10E080000D94B2F10D94B2F10D94B2F10D94B2F180
:10E090000D94B2F10D94B2F10D94B2F10D94B2F170
:10E0A0000D94B2F10D94B2F10D94B2F10D94B2F160
:10E0B0000D94B2F10D94B2F10D94B2F10D94B2F150
:10E0C0000D94B2F10D94B2F10D94B2F10D94B2F140
:10E0D0000D94B2F10D94B2F10D94B2F10D94B2F130
:10E0E0000D94B2F141546D656761323536300041AF
:10E0F000726475696E6F206578706C6F72657220DE
:10E1000073746B3530305632206279204D4C530099
:10E11000426F6F746C6F616465723E004875683F52
:10E1200000436F6D70696C6564206F6E203D200048
:10E130004350552054797065202020203D20005FF9
:10E140005F4156525F415243485F5F3D2000415658
:10E1500052204C696243205665723D20004743437C
:10E160002056657273696F6E203D20004350552024
:10E1700049442020202020203D20004C6F7720663D
:10E18000757365202020203D20004869676820665F
:10E190007573652020203D200045787420667573D6
:10E1A00065202020203D20004C6F636B2066757336
:10E1B000652020203D20004D617220203720323024
:10E1C000313300312E362E3800342E332E350056A2
:10E1D00023202020414444522020206F7020636F70
:10E1E00064652020202020696E73747275637469E1
:10E1F0006F6E2061646472202020496E74657272B3
:10E20000757074006E6F20766563746F7200726A49
:10E210006D702020006A6D70200057686174207056
:10E220006F72743A00506F7274206E6F7420737541
:10E2300070706F72746564004D7573742062652030
:10E2400061206C6574746572002000577269747483
:10E25000696E672045450052656164696E672045B7
:10E26000450045452065727220636E743D00504F35
:10E27000525400303D5A65726F2061646472003FF1
:10E280003D43505520737461747300403D454550C3
:10E29000524F4D207465737400423D426C696E6B41
:10E2A000204C454400453D44756D70204545505215
:10E2B0004F4D00463D44756D7020464C415348001B
:10E2C000483D48656C70004C3D4C69737420492F83
:10E2D0004F20506F72747300513D51756974005234
:10E2E0003D44756D702052414D00563D73686F7707
:10E2F00020696E7465727275707420566563746FF0
:10E30000727300593D506F727420626C696E6B00BD
:10E310002A0011241FBECFEFD1E2DEBFCDBF01E046
:10E320000CBF12E0A0E0B2E0EEE1FDEF03E00BBFB6
:10E3300002C007900D92A030B107D9F712E0A0E01B
:10E34000B2E001C01D92AE30B107E1F70F9460F367
:10E350000D948DFE01E20EBF0FEF0DBF11241FBE05
:10E360000D9460F30D9400F020E030E040ED57E0B4
:10E3700005C0FA013197F1F72F5F3F4F2817390792
:10E38000C0F308959C01260F311DC901A0E0B0E043
:10E390002F5F3F4FABBFFC018791882361F08093D3
:10E3A000C6008091C00086FFFCCF8091C0008064D1
:10E3B0008093C000EACF08958DE08093C6008091DD
:10E3C000C00086FFFCCF8091C00080648093C000B5
:10E3D0008AE08093C6008091C00086FFFCCF8091C8
:10E3E000C00080648093C00008950F94C2F10F9420
:10E3F000DCF10895FC019081992359F09093C600B7
:10E400008091C00086FFFCCF8091C0008064809323
:10E41000C0003196992379F70895282F982F929567
:10E420009F70892F805D8A3308F0895F8093C600D2
:10E430008091C00086FFFCCF8091C00080648093F3
:10E44000C000822F8F70982F905D9A3308F0995FEB
:10E450009093C6008091C00086FFFCCF8091C000E1
:10E4600080648093C00008959C01FB01853691056E
:10E470001CF46330710594F0C90164E670E00F94F8
:10E480002EFE605D7F4F6093C6008091C00086FFC6
:10E49000FCCF8091C00080648093C0002B30310598
:10E4A00014F43297B4F0C90164E670E00F942EFEC4
:10E4B0006AE070E00F942EFE605D7F4F6093C600AF
:10E4C0008091C00086FFFCCF8091C0008064809363
:10E4D000C000C9016AE070E00F942EFEC0968093E0
:10E4E000C6008091C00086FFFCCF8091C000806490
:10E4F0008093C00008951F93182F8EE692EE60E07F
:10E500000F94C2F11093C6008091C00086FFFCCF2B
:10E510008091C00080648093C0000F94DCF11F9153
:10E5200008952F923F924F925F926F927F928F92B7
:10E530009F92AF92BF92CF92DF92EF92FF920F9392
:10E540001F93DF93CF93CDB7DEB762970FB6F894E2
:10E55000DEBF0FBECDBF382E622ECA01DB015C01CB
:10E560006D01772420E2222E2E010894411C511CBB
:10E570008BC081E0A81680E0B80681E0C80680E084
:10E58000D80628F0C601AA27BB270F940DF2BB2797
:10E59000AD2D9C2D8B2D0F940DF28A2D0F940DF225
:10E5A0002092C6008091C00086FFFCCF8091C00001
:10E5B00080648093C0009DE29093C6008091C0006B
:10E5C00086FFFCCF8091C00080648093C0002092C1
:10E5D000C6008091C00086FFFCCF8091C00080649F
:10E5E0008093C00019828601750188249924A1E0D6
:10E5F0003A1651F03A1620F0B2E03B1661F409C029
:10E600000BBFF701779007C0C7010F9477FE782EF4
:10E6100002C0F7017080872D0F940DF22092C60082
:10E620008091C00086FFFCCF8091C0008064809301
:10E63000C000872D8052F401EF70F0708F3520F408
:10E64000E40DF51D708204C0E40DF51D8EE280839B
:10E650000894E11CF11C011D111D0894811C911CE2
:10E6600090E18916910409F0C2CF80E190E0A0E02A
:10E67000B0E0A80EB91ECA1EDB1E198AC2010F9493
:10E68000FAF10F94DCF16A94662009F072CF629679
:10E690000FB6F894DEBF0FBECDBFCF91DF911F91B3
:10E6A0000F91FF90EF90DF90CF90BF90AF909F9031
:10E6B0008F907F906F905F904F903F902F90089534
:10E6C0002F923F924F925F926F927F928F929F9282
:10E6D000AF92BF92CF92DF92EF92FF920F931F9370
:10E6E000DF93CF93CDB7DEB7CD53D1400FB6F894BB
:10E6F000DEBF0FBECDBF01E20EBF0FEF0DBF94B75F
:10E70000F894A89514BE80916000886180936000A1
:10E7100010926000789493FF05C0E0910002F091A0
:10E7200001021995279A2F9A8091C00082608093E8
:10E73000C00080E18093C40088E18093C1000000A4
:10E74000EE24FF24870144E0A42EB12CCC24DD2448
:10E7500024C0C5010197F1F70894E11CF11C011DCB
:10E76000111D21E2E2162EE4F20620E0020720E06D
:10E77000120718F031E0C32ED12CC801B70127ECE5
:10E780003BE140E050E00F9441FE611571058105C9
:10E79000910519F485B1805885B98091C00087FD35
:10E7A00003C0C114D104A9F2A6014F5F5F4FC25E3E
:10E7B000DE4F59834883CE51D140C25EDE4F8881FF
:10E7C0009981CE51D140019711F00D9410FEC05D9A
:10E7D000DE4F19821882C053D14060E0C15DDE4F28
:10E7E0001882CF52D14088249924C35DDE4F19820C
:10E7F0001882CD52D140C05EDE4F188219821A8233
:10E800001B82C052D140CE5CDE4F188219821A8220
:10E810001B82C253D140EE24FF2487010BBFF701B6
:10E8200007911691C45CDE4F19830883CC53D14005
:10E830000D940BFEC25EDE4F28813981CE51D1404E
:10E840002130310509F52091C600C25EDE4F1982E4
:10E850001882CE51D14022C02F5F3F4F4F4F5F4FA4
:10E86000213082E138078AE7480780E0580780F0C6
:10E87000C45CDE4FE881F981CC53D140EF5FFF4F9C
:10E8800019F0EE27FF27099420E030E040E050E047
:10E890008091C00087FFE0CF2091C600C35DDE4FAE
:10E8A00048815981CD52D1404F5F5F4FC35DDE4FEC
:10E8B00059834883CD52D140213209F063C64A3092
:10E8C000510508F05FC60894811C911C53E0851621
:10E8D000910409F059C600E010E018C081E280936D
:10E8E000C6008091C00086FFFCCF8091C00080648C
:10E8F0008093C0002F5F3F4F2931310579F70F9486
:10E90000DCF10F5F1F4F0530110519F020E030E0FA
:10E91000E5CF10920A0210920B0210920C02109294
:10E920000D02109206021092070210920802109235
:10E930000902109202021092030210920402109235
:10E9400005028FEE90EE60E00F94F5F180E191EE1C
:10E9500060E00F94C2F18091C00087FFFCCF9091DE
:10E96000C600903608F09F759032B8F09093C600BC
:10E970008091C00086FFFCCF8091C00080648093AE
:10E98000C000A0E2A093C6008091C00086FFFCCF2B
:10E990008091C00080648093C000983409F4D7C18E
:10E9A0009934B8F4923409F459C1933458F490333B
:10E9B00019F1903308F4E3C59F33A1F1903409F0C5
:10E9C000DEC5BDC0953409F470C1963409F0D7C5D1
:10E9D00098C1923509F42BC2933538F49C3409F46C
:10E9E000F5C1913509F0CBC518C2963509F445C279
:10E9F000993509F0C4C567C483E792EE62E00F94CD
:10EA0000F5F110920602109207021092080210927D
:10EA1000090210920A0210920B0210920C0210923C
:10EA20000D0213C18FE792EE62E00F94F5F18FEEC5
:10EA300090EE60E00F94F5F181E291EE60E00F94CA
:10EA4000C2F187EB91EE60E00F94F5F180E391EE77
:10EA500060E00F94C2F184EE90EE60E00F94F5F167
:10EA60008FE391EE60E00F94C2F186E090E061E008
:10EA700070E00F9434F20F94DCF18DE591EE60E0DC
:10EA80000F94C2F189EC91EE60E00F94F5F18EE401
:10EA900091EE60E00F94C2F183EC91EE60E00F9490
:10EAA000F5F18CE691EE60E00F94C2F18EE10F94E7
:10EAB0000DF288E90F940DF281E00F940DF20F949E
:10EAC000DCF18BE791EE60E00F94C2F119E0E0E039
:10EAD000F0E010935700E4918E2F0F940DF20F94F5
:10EAE000DCF18AE891EE60E00F94C2F1E3E0F0E03F
:10EAF00010935700E4918E2F0F940DF20F94DCF1D8
:10EB000089E991EE60E00F94C2F1E2E0F0E0109349
:10EB10005700E4918E2F0F940DF20F94DCF188EAE8
:10EB200091EE60E00F94C2F1E1E0F0E01093570045
:10EB30001491812F0F940DF20F94DCF107CF8BE825
:10EB400092EE62E00F94F5F18BE492EE60E00F94A8
:10EB5000F5F10F94DCF100E010E019C0C8016F2D51
:10EB60000F947FFEFF2031F489E492EE60E00F9471
:10EB7000C2F10BC0F092C6008091C00086FFFCCFAE
:10EB80008091C00080648093C0000F5F1F4FC80158
:10EB900081519F41A0E0B0E0ABBFFC01F790BAE229
:10EBA000FB1621F0E2E000301E07C1F60F94DCF105
:10EBB0000F94DCF187E592EE60E00F94F5F10F948D
:10EBC000DCF1CC24DD2400E010E01EC0C8010F946D
:10EBD00077FEF82E882331F489E492EE60E00F94FA
:10EBE000C2F10BC08093C6008091C00086FFFCCFAD
:10EBF0008091C00080648093C000FE1419F00894D6
:10EC0000C11CD11C0F5F1F4FC80181519F41A0E063
:10EC1000B0E0ABBFFC01E790FAE2EF1621F022E092
:10EC20000030120799F60F94DCF10F94DCF182E6C4
:10EC300092EE60E00F94C2F1C60161E070E00F94C3
:10EC400034F20F94DCF10F94DCF110920202109276
:10EC50000302109204021092050278CE89E992EE26
:10EC600062E00F94F5F1279A2F9A16C02F9880E052
:10EC700090E0E0EDF7E03197F1F7019684369105E9
:10EC8000C1F72F9A80E090E0E0EDF7E03197F1F7DF
:10EC9000019684369105C1F78091C00087FFE6CFC9
:10ECA0008091C00087FFFCCF64C485EA92EE62E0E9
:10ECB0000F94F5F140910202509103026091040219
:10ECC0007091050281E020E10F9491F2809102029F
:10ECD00090910302A0910402B091050280509F4FD1
:10ECE000AF4FBF4F8093020290930302A0930402A0
:10ECF000B093050280509041A040B04008F426CE69
:10ED0000A4CF83EB92EE62E00F94F5F140910602FE
:10ED100050910702609108027091090280E020E1A1
:10ED20000F9491F28091060290910702A09108023F
:10ED3000B091090280509F4FAF4FBF4F80930602A2
:10ED400090930702A0930802B0930902FFCD80ECD4
:10ED500092EE62E00F94F5F183E792EE60E00F949B
:10ED6000F5F18FE792EE60E00F94F5F18BE892EE0B
:10ED700060E00F94F5F189E992EE60E00F94F5F10F
:10ED800085EA92EE60E00F94F5F183EB92EE60E09D
:10ED90000F94F5F180EC92EE60E00F94F5F187ECC2
:10EDA00092EE60E00F94F5F188ED92EE60E00F9442
:10EDB000F5F18FED92EE60E00F94F5F18AEE92EEB0
:10EDC00060E00F94F5F183E093EEBDCD87EC92EE19
:10EDD00062E00F94F5F181E40F947BF282E40F94EA
:10EDE0007BF283E40F947BF284E40F947BF285E45E
:10EDF0000F947BF286E40F947BF287E40F947BF20E
:10EE000088E40F947BF28AE40F947BF28BE40F94F6
:10EE10007BF28CE40F947BF299CD88ED92EE62E068
:10EE20000F94F5F1772473948824992409C48FED05
:10EE300092EE62E00F94F5F140910A0250910B02BC
:10EE400060910C0270910D0282E020E10F9491F22A
:10EE500080910A0290910B02A0910C02B0910D02D8
:10EE600080509F4FAF4FBF4F80930A0290930B0289
:10EE7000A0930C02B0930D0269CD8AEE92EE62E08F
:10EE80000F94F5F184EE90EE60E00F94F5F18FECC5
:10EE900091EE60E00F94F5F1662477244301CC5D98
:10EEA000DE4F19821882C452D140D401C301B695F5
:10EEB000A79597958795CA5DDE4F88839983AA8326
:10EEC000BB83C652D140CC5DDE4FA881B981C4520C
:10EED000D1401196CC5DDE4FB983A883C452D14096
:10EEE000CD0162E070E00F9434F2B0E2B093C6005E
:10EEF0008091C00086FFFCCF8091C0008064809329
:10EF0000C000EDE2E093C6008091C00086FFFCCF18
:10EF10008091C00080648093C000F0E2F093C6004E
:10EF20008091C00086FFFCCF8091C00080648093F8
:10EF3000C000CA5DDE4FE880F9800A811B81C6529D
:10EF4000D140BB27A12F902F8F2D0F940DF2CA5DBA
:10EF5000DE4F8881C652D1400F940DF2B0E2FB2EF5
:10EF6000F092C6008091C00086FFFCCF8091C00067
:10EF700080648093C0000DE30093C6008091C000C0
:10EF800086FFFCCF8091C00080648093C00010E2B7
:10EF90001093C6008091C00086FFFCCF8091C00016
:10EFA00080648093C0008BBEF3012791C65DDE4F65
:10EFB0002883CA52D140A22EBB24CC24DD2408943D
:10EFC000611C711C811C911C8BBEF3018791282E42
:10EFD0003324442455240894611C711C811C911C09
:10EFE0008BBEF3013791C55DDE4F3883CB52D140E4
:10EFF0000894611C711C811C911C8BBEF30147910C
:10F00000C45DDE4F4883CC52D140ADEFEA2EAFEF66
:10F01000FA2EAFEF0A2FAFEF1A2F6E0C7F1C801E57
:10F02000911E142D032DF22CEE24EA0CFB1C0C1D5A
:10F030001D1D0F940DF220E22093C6008091C000A8
:10F0400086FFFCCF8091C00080648093C000C65DC5
:10F05000DE4F8881CA52D1400F940DF230E23093D6
:10F06000C6008091C00086FFFCCF8091C000806404
:10F070008093C000C45DDE4F8881CC52D1400F9494
:10F080000DF240E24093C6008091C00086FFFCCFA5
:10F090008091C00080648093C000C55DDE4F888190
:10F0A000CB52D1400F940DF250E25093C6008091A4
:10F0B000C00086FFFCCF8091C00080648093C000B8
:10F0C0008FEFE8168FEFF80680E0080780E018075A
:10F0D00031F484E092EE60E00F94C2F1DFC0D80119
:10F0E000C7018070907CA070B0708050904CA040A0
:10F0F000B040D1F52FEF3FE340E050E0E222F322B1
:10F1000004231523CA5DDE4FA880B980CA80DB8046
:10F11000C652D140AE0CBF1CC01ED11EAA0CBB1CD7
:10F12000CC1CDD1C8EE092EE60E00F94C2F1BB2798
:10F13000A12F902F8F2D0F940DF28E2D0F940DF285
:10F1400030E23093C6008091C00086FFFCCF8091F2
:10F15000C00080648093C0004EE34093C60080915D
:10F16000C00086FFFCCF87C08EE09EEFA0E0B0E03D
:10F17000E822F9220A231B239CE0E91694E9F90608
:10F1800090E0090790E0190709F088C0C45DDE4FE0
:10F19000A881CC52D140EA2EFF2400E010E0102FCD
:10F1A0000F2DFE2CEE24C55DDE4FB881CB52D14031
:10F1B000EB0EF11C011D111DD601C501817090706F
:10F1C000A070B070DC0199278827E80EF91E0A1F8D
:10F1D0001B1F20EF30E040E050E0A222B322C42207
:10F1E000D52241E1AA0CBB1CCC1CDD1C4A95D1F7F1
:10F1F000EA0CFB1C0C1D1D1D81E090E0A0E0B0E0BE
:10F20000282239224A225B2235E1220C331C441C7D
:10F21000551C3A95D1F7E20CF31C041D151D57013E
:10F220006801AA0CBB1CCC1CDD1C85E192EE60E0E1
:10F230000F94C2F1C801AA27BB270F940DF2BB2778
:10F24000A12F902F8F2D0F940DF28E2D0F940DF274
:10F2500090E29093C6008091C00086FFFCCF809121
:10F26000C00080648093C000AEE3A093C60080918C
:10F27000C00086FFFCCF8091C00080648093C000F6
:10F28000C601AA27BB270F940DF2BB27AD2D9C2DDD
:10F290008B2D0F940DF28A2D0F940DF20F94DCF14B
:10F2A000CC5DDE4FE881F981C452D140F99709F471
:10F2B0004DCBF4E0EF2EF12C012D112D6E0C7F1CA7
:10F2C000801E911EF2CD83E093EE62E00F94F5F183
:10F2D0008AE192EE60E00F94C2F18091C00087FF56
:10F2E000FCCF1091C6001F751093C6008091C0001E
:10F2F00086FFFCCF8091C00080648093C0000F9493
:10F30000DCF1812F81548A3108F036C1163409F4BA
:10F3100095C0173490F4133409F44EC0143430F40B
:10F320001134F1F0123409F01DC130C0143409F465
:10F3300059C0153409F016C16BC01A3409F4C4C0A1
:10F340001B3438F4173409F48FC0183409F00AC19B
:10F35000A1C01B3409F4D2C01C3409F003C1E8C0B9
:10F360008FEF81B90DC082B1809582B980E090E0C5
:10F37000E0EDF7E03197F1F70196883C9105C1F790
:10F380008091C00087FFEFCF12B8EFC08FEF84B934
:10F390000DC085B1809585B980E090E0E0EDF7E0A3
:10F3A0003197F1F70196883C9105C1F78091C00033
:10F3B00087FFEFCF15B8D9C08FEF87B90DC088B1DF
:10F3C000809588B980E090E0E0EDF7E03197F1F7C3
:10F3D0000196883C9105C1F78091C00087FFEFCF6F
:10F3E00018B8C3C08FEF8AB90DC08BB180958BB9A7
:10F3F00080E090E0E0EDF7E03197F1F70196883C8E
:10F400009105C1F78091C00087FFEFCF1BB8ADC059
:10F410008FEF8DB90DC08EB180958EB980E090E0F0
:10F42000E0EDF7E03197F1F70196883C9105C1F7DF
:10F430008091C00087FFEFCF1EB897C08FEF80BBD1
:10F440000DC081B3809581BB80E090E0E0EDF7E0F6
:10F450003197F1F70196883C9105C1F78091C00082
:10F4600087FFEFCF11BA81C08FEF83BB0DC084B38C
:10F47000809584BB80E090E0E0EDF7E03197F1F714
:10F480000196883C9105C1F78091C00087FFEFCFBE
:10F4900014BA6BC08FEF809301010FC080910201FD
:10F4A00080958093020180E090E0E0EDF7E03197F5
:10F4B000F1F70196883C9105C1F78091C00087FF64
:10F4C000EDCF1092020151C08FEF809304010FC065
:10F4D0008091050180958093050180E090E0E0ED4A
:10F4E000F7E03197F1F70196883C9105C1F78091DB
:10F4F000C00087FFEDCF1092050137C08FEF8093DA
:10F5000007010FC08091080180958093080180E079
:10F5100090E0E0EDF7E03197F1F70196883C910536
:10F52000C1F78091C00087FFEDCF109208011DC088
:10F530008FEF80930A010FC080910B01809580931B
:10F540000B0180E090E0E0EDF7E03197F1F70196F4
:10F55000883C9105C1F78091C00087FFEDCF1092E4
:10F560000B0103C085E292EEEEC98091C00087FFD7
:10F57000FCCF8091C600EAC988E392EEE4C98CE131
:10F5800091EEE1C988249924933011F1943028F444
:10F59000913089F09230B8F408C0953061F195301F
:10F5A000F0F0963009F048C043C02B3109F042C951
:10F5B00091E06BE13FC96227C15DDE4F2883CF52E6
:10F5C000D14092E037C9B22FA0E0622793E032C960
:10F5D000822F90E0A82BB92B622794E02BC92E3004
:10F5E00009F039C3622795E0C05DDE4F19821882A9
:10F5F000C053D1401FC9E1E0F0E0EC0FFD1FC05D3A
:10F60000DE4F08811981C053D140E00FF11F2083E4
:10F610000F5F1F4FC05DDE4F19830883C053D14079
:10F6200062270A171B0709F005C9D80196E002C92D
:10F63000261709F010C303C0973009F0FBC87724E0
:10F640009981933109F412C19431C8F4963009F4C8
:10F65000D8C0973050F4923009F406C1933009F4C1
:10F660006DC0913009F059C253C0913109F477C08F
:10F67000923108F0BBC0903109F04FC2F5C098310B
:10F6800009F487C0993150F4953109F4EFC09531F0
:10F6900008F4C6C1963109F040C2C2C19A3109F4DA
:10F6A0006CC09A3108F491C09B3109F45BC09D3164
:10F6B00009F033C29D81903359F48F81882311F46E
:10F6C0009EE11CC0813011F091E018C098E916C08D
:10F6D000892F807591F0903539F4E0E0F0E089E011
:10F6E0008093570094910AC0983539F4E3E0F0E034
:10F6F00089E080935700949101C090E01A821B82A8
:10F700008D818C831D829E831F8227E030E009C299
:10F710001A8288E08B8381E48C8386E58D8382E581
:10F720008E8389E48F8383E5888780E589878FE5E9
:10F730008A8782E38B872BE030E0F3C18A818139AD
:10F7400041F0823941F0803911F48FE005C080E04A
:10F7500003C082E001C08AE01A828B8344C0772410
:10F76000739482C08D81882311F48EE12CC0813086
:10F7700011F081E028C088E926C01A82E1E0F0E0BB
:10F7800089E08093570084918B831C8224E030E0D1
:10F79000C8C18B81803589F48C81883039F4E2E0EE
:10F7A000F0E089E08093570084910DC0E0E0F0E044
:10F7B00089E080935700849106C0E3E0F0E089E09F
:10F7C0008093570084911A82DFCF8D81836C99E0FA
:10F7D000E1E0F0E0082E90935700E89507B600FCB2
:10F7E000FDCF1A821B8223E030E09BC180EC8A832C
:10F7F000CE5CDE4F188219821A821B82C253D1401E
:10F800008EC18A8190E0A0E0B0E0582F44273327D2
:10F8100022278B8190E0A0E0B0E0DC0199278827C7
:10F82000282B392B4A2B5B2B8D8190E0A0E0B0E098
:10F83000282B392B4A2B5B2B8C8190E0A0E0B0E089
:10F84000BA2FA92F982F8827282B392B4A2B5B2BCF
:10F85000220F331F441F551FC05EDE4F288339839C
:10F860004A835B83C052D1401A8259C13A81C95C34
:10F87000DE4F3883C753D140CA5CDE4F1882C6536F
:10F88000D1408B81C82EDD24CA5CDE4F488159816E
:10F89000C653D140C42AD52A933109F082C0CE5C28
:10F8A000DE4F88819981AA81BB81C253D1408050AB
:10F8B000904CA340B04030F583E0CE5CDE4FE88052
:10F8C000F9800A811B81C253D140F70100935B008C
:10F8D00080935700E89507B600FCFDCFCE5CDE4F65
:10F8E000088119812A813B81C253D14000501F4FAA
:10F8F0002F4F3F4FCE5CDE4F088319832A833B8313
:10F90000C253D140C05EDE4F488159816A817B81FC
:10F91000C052D140DE011B9631E08C9111962C91A2
:10F9200011971296C75CDE4F2883C953D140C85C3B
:10F93000DE4F1882C853D14090E0C85CDE4FE881AA
:10F94000F981C853D1408E2B9F2B0C01FA01609393
:10F950005B0030935700E89511244E5F5F4F6F4F67
:10F960007F4F0EEFE02E0FEFF02ECE0CDF1CC114F8
:10F97000D10499F685E0C05EDE4F088119812A81A5
:10F980003B81C052D140F80120935B008093570027
:10F99000E89507B600FCFDCF81E180935700E8951C
:10F9A00035C0C05EDE4F88819981AA81BB81C0527B
:10F9B000D140B695A795979587957C018601ABE0D8
:10F9C000AA2EB12CAC0EBD1E0BC0D5016D915D01F0
:10F9D000C7010F947FFE0894E11CF11C01501040F8
:10F9E0000115110591F7A60160E070E0440F551F65
:10F9F000661F771FC05EDE4FE880F9800A811B8199
:10FA0000C052D1404E0D5F1D601F711F1A82C05E33
:10FA1000DE4F488359836A837B83C052D1407FC0C5
:10FA2000FA80C55CDE4FF882CB53D140C65CDE4F16
:10FA30001882CA53D1408B81C82EDD24C65CDE4FAC
:10FA400008811981CA53D140C02AD12A1A828981DA
:10FA5000BE016D5F7F4F843121F59601C05EDE4FA0
:10FA6000E880F9800A811B81C052D1400BBFF701A9
:10FA700087919691DB018C9311969C936E5F7F4FDB
:10FA8000D801C7010296A11DB11DC05EDE4F88835B
:10FA90009983AA83BB83C052D14022503040F1F6F3
:10FAA00036C0C05EDE4F288139814A815B81C052F9
:10FAB000D1400894C108D108760100E010E0089414
:10FAC000C11CD11C0894E11CF11C011D111DE20E8A
:10FAD000F31E041F151F21BDBB27A52F942F832FB5
:10FAE00082BD2F5F3F4F4F4F5F4FF89A80B5DB01CC
:10FAF0008D93BD012E153F054007510761F7C05E8C
:10FB0000DE4F288339834A835B83C052D1409601FC
:10FB10002D5F3F4FFB01108204C080EC8A8322E0FE
:10FB200030E08BE18093C6008091C00086FFFCCF5F
:10FB30008091C00080648093C000C15DDE4FF88179
:10FB4000CF52D140F093C6008091C00086FFFCCF19
:10FB50008091C00080648093C000432F3093C60022
:10FB60008091C00086FFFCCF8091C00080648093AC
:10FB7000C000922F2093C6008091C00086FFFCCF6A
:10FB80008091C00080648093C0008EE08093C600A6
:10FB90008091C00086FFFCCF8091C000806480937C
:10FBA000C00065E1C15DDE4FE880CF52D1406E25D7
:10FBB00069276427FE01319610C090819093C6009A
:10FBC0008091C00086FFFCCF31968091C000806498
:10FBD0008093C0006927215030402115310569F715
:10FBE0006093C6008091C00086FFFCCF8091C0006A
:10FBF00080648093C00085B1805885B9772081F4F6
:10FC0000C15DDE4F0881CF52D1400F5FC15DDE4F35
:10FC10000883CF52D14090E0A0E0B0E00D941AF4F8
:10FC200027982F9880E090E020ED37E0F901319798
:10FC3000F1F7019684369105C9F700008091C00064
:10FC40008D7F8093C00081E180935700E895EE2777
:10FC5000FF270994FFCF90E00D941AF497FB092E2B
:10FC600007260AD077FD04D02ED006D000201AF443
:10FC7000709561957F4F0895F6F7909581959F4F08
:10FC80000895A1E21A2EAA1BBB1BFD010DC0AA1FDD
:10FC9000BB1FEE1FFF1FA217B307E407F50720F0F5
:10FCA000A21BB30BE40BF50B661F771F881F991F70
:10FCB0001A9469F760957095809590959B01AC01B9
:10FCC000BD01CF010895AA1BBB1B51E107C0AA1FAC
:10FCD000BB1FA617B70710F0A61BB70B881F991FED
:10FCE0005A95A9F780959095BC01CD010895F99991
:10FCF000FECF92BD81BDF89A992780B50895262F31
:10FD0000F999FECF1FBA92BD81BD20BD0FB6F89400
:0EFD1000FA9AF99A0FBE01960895F894FFCF63
:040000033000E000E9
:00000001FF