:100000001DC100004CC100004AC1000048C10000F1
:1000100046C1000044C1000042C1000040C10000D0
:100020003EC100002FC500002DC500002BC50000FB
:1000300036C10000BBC5000032C1000030C1000065
:100040002EC100002CC100002AC1000028C1000000
:1000500026C1000024C1000022C10000C9C4000064
:100060001EC10000B8C300008DC3000018C100000D
:1000700016C1000014C1000012C1000010C1000030
:100080000EC100000CC100000AC1000008C1000040
:1000900006C1000004C1000002C1000000C1000050
:1000A000FEC00000FCC00000FAC00000F8C0000064
:1000B000F6C00000F4C00000F2C00000F0C0000074
:1000C000EEC00000ECC00000EAC00000E8C0000084
:1000D000E6C00000E4C00000E2C00000E0C0000094
:1000E000DEC0000062026502540258025E029C02F9
:1000F00069026D02730277027B0281028502890226
:100100009C028F02930297022D2D2D3E20000000AD
:100110002100240027002A002D00300033000101B7
:100120000000040107010A0100000A0B02090C0D7E
:100130000E0807030401000000000000000000009A
:1001400000000000000000000000000000000000AF
:10015000000000001211100000000000000000006C
:1001600000000000000000000000000000006C6FB4
:100170006F703A2025640A00000022002500280044
:100180002B002E003100340002010000050108019F
:100190000B01000020002300260029002C002F0066
:1001A00032000001000003010601090105050505F3
:1001B000070508080808020202020A0A08080404DF
:1001C000040401010101010101010303030303030D
:1001D0000303040707070C0C0C0C0C0C0C0C02029C
:1001E000020206060606060606060B0B0B0B0B0B99
:1001F0000B0B010210202008081020401020408026
:1002000002010201080402010102040810204080DA
:100210008040201008040201800402018040201068
:1002200008040201080402010102040810204080B1
:1002300001020408102040807A18701811241FBE93
:10024000CFEFD1E2DEBFCDBF00E00CBF28E0AEE8CB
:10025000B4E001C01D92A13CB207E1F714E0A0E0B8
:10026000B2E0ECE9FEE300E00BBF02C007900D92A4
:10027000AE38B107D9F711E0CDE1D1E000E006C01A
:1002800021970109802FFE010E94CC1ECC31D1079D
:1002900080E00807A9F70E94BD090C943D1FB0CE6D
:1002A000FC01918D828D981761F0828DDF01A80F7E
:1002B000B11D5D968C91928D9F5F9F73928F90E0A0
:1002C00008958FEF9FEF0895FC01918D828D98170F
:1002D00031F0828DE80FF11D858D90E008958FEF4C
:1002E0009FEF0895FC01918D228D892F90E0805C15
:1002F0009F4F821B91098F739927089587E395E09B
:10030000F1DF21E0892B09F420E0822F0895FC0120
:10031000848DDF01A80FB11DA35ABF4F2C91848D8E
:1003200090E001968F739927848FA689B7892C93C3
:10033000A089B1898C9180648C93938D848D98135E
:1003400006C00288F389E02D80818F7D8083089527
:10035000EF92FF920F931F93CF93DF93EC0181E015
:10036000888F9B8D8C8D981305C0E889F9898081D1
:1003700085FD23C0F62E0B8D10E00F5F1F4F0F730E
:100380001127E02E8C8DE8120BC00FB607FCFACFB8
:10039000E889F989808185FFF5CFCE01B8DFF2CFFA
:1003A0008B8DFE01E80FF11DE35AFF4FF0820B8F9A
:1003B000EA89FB898081806207C0EE89FF896083BA
:1003C000E889F98980818064808381E090E0DF9111
:1003D000CF911F910F91FF90EF900895CF93DF93EE
:1003E000EC01888D8823C1F0EA89FB89808185FD35
:1003F00005C0A889B9898C9186FD0EC00FB607FC8F
:10040000F5CF808185FFF2CFA889B9898C9185FFCE
:10041000EDCFCE017CDFE8CFDF91CF91089580E072
:1004200090E0892B19F06ADF811125C080E090E00F
:10043000892B41F080E090E0892B21F00E940000A0
:1004400081111CC080E090E0892B41F080E090E0B9
:10045000892B21F00E940000811113C080E090E000
:10046000892BA1F080E090E0892B81F00E940000B0
:1004700081110AC008950E940000D8CF0E94000098
:10048000E1CF0E940000EACF0C940000089590E0B4
:10049000FC013197E231F10508F04EC08827EE5893
:1004A000FF4F8F4F0C94CC1E809180008F7703C03C
:1004B000809180008F7D80938000089580918000DE
:1004C000877FF9CF84B58F7702C084B58F7D84BDD7
:1004D00008958091B0008F7703C08091B0008F7D28
:1004E0008093B0000895809190008F7707C080912D
:1004F00090008F7D03C080919000877F8093900053
:1005000008958091A0008F7707C08091A0008F7D13
:1005100003C08091A000877F8093A0000895809100
:1005200020018F7707C0809120018F7D03C08091CB
:100530002001877F8093200108953FB7F894809130
:10054000F3049091F404A091F504B091F60426B55B
:10055000A89B05C02F3F19F00196A11DB11D3FBFFB
:10056000BA2FA92F982F8827820F911DA11DB11D89
:10057000BC01CD0142E0660F771F881F991F4A9585
:10058000D1F70895209190043091910428173907EC
:1005900071F490918E0480918F04981741F0E0914E
:1005A0008E04F0E0E255FB4F808190E008958FEFDC
:1005B0009FEF089508951F93CF93DF93DC015C961E
:1005C0002D913C915D972115310539F481E090E042
:1005D00013969C938E9312973DC05196ED91FC918A
:1005E000529750969C915097892F80951FB75E9691
:1005F0004C915E9741FB772770F941FD6095F89427
:100600004081772311F0492B01C048234083E90141
:100610002197F1F748E0508160FF02C0592B01C0DB
:1006200058235083E9012197F1F76695415099F7D6
:10063000772321F090818923808303C08081982BC8
:1006400090831FBF5C968D919C915D970197F1F708
:1006500021E030E0C901DF91CF911F9108952091F1
:100660009004309191042817390769F480918F0420
:1006700020918E0490E0805C9F4F821B910960E482
:1006800070E00C94971E80E090E008952091900413
:100690003091910428173907B9F490918E04809114
:1006A0008F04981789F0E0918E04F0E0E255FB4F3B
:1006B000808120918E0430E02F5F3F4F2F733327CE
:1006C00020938E0490E008958FEF9FEF0895AF92EE
:1006D000BF92DF92EF92FF920F931F93CF93DF931E
:1006E000EC01D62EEE80FF80E114F10449F15C01AB
:1006F00089E5A80EB11CD5018C91811117C008E0C5
:1007000011E0F8016491611104C081E0D5018C937E
:100710000DC0D701ED91FC910190F081E02DC70152
:1007200019950F5F1F4F892B61F7EFCF8E819F8146
:10073000DC01ED91FC910190F081E02D6D2D19957A
:100740008C819D81DC01ED91FC910190F081E02D87
:100750006D2DDF91CF911F910F91FF90EF90DF9062
:10076000BF90AF901994CF93C82F8A3021F46DE0D9
:1007700087E395E0EDDD6C2F87E395E0CF91E8CD41
:100780000E941F1F1F920F920FB60F9211240BB6DB
:100790000F922F933F934F935F936F937F938F931A
:1007A0009F93AF93BF93EF93FF9387E395E0AFDD04
:1007B000FF91EF91BF91AF919F918F917F916F9139
:1007C0005F914F913F912F910F900BBE0F900FBEF5
:1007D0000F901F9018951F920F920FB60F92112431
:1007E0000BB60F922F938F939F93EF93FF93E0910C
:1007F0004705F09148058081E0914D05F0914E0547
:1008000082FD12C09081809150058F5F8F7320917F
:100810005105821751F0E0915005F0E0E95CFA4F84
:10082000958F8093500501C08081FF91EF919F913A
:100830008F912F910F900BBE0F900FBE0F901F90B6
:100840001895CF93DF93282F30E0F901E85DFE4F34
:100850008491F901EE50FE4FD491F901E455FE4F19
:10086000C491CC2389F0811112DEEC2FF0E0EE0F61
:10087000FF1FEE56FE4FA591B491EC91ED2381E060
:1008800090E021F480E002C080E090E0DF91CF9121
:1008900008951F93CF93DF93282F30E0F901E85D8F
:1008A000FE4F8491F901EE50FE4FD491F901E455C9
:1008B000FE4FC491CC23C1F0162F8111E8DDEC2F3F
:1008C000F0E0EE0FFF1FE858FE4FA591B4918FB7EF
:1008D000F894111105C09C91ED2FE095E92302C019
:1008E000EC91ED2BEC938FBFDF91CF911F91089589
:1008F000CF93DF9390E0FC01EE50FE4F2491FC017A
:10090000E455FE4F8491882361F190E0880F991F90
:10091000FC01E25FFE4FC591D491FC01E858FE4F07
:10092000A591B491611109C09FB7F8948881209571
:1009300082238883EC912E230BC0623061F49FB731
:10094000F8943881822F809583238883EC912E2B15
:100950002C939FBF06C08FB7F894E8812E2B288375
:100960008FBFDF91CF9108958F929F92AF92BF92E8
:10097000CF92DF92EF92FF926B017C01DEDD4B01A3
:100980005C01C114D104E104F104E9F0D6DDDC011D
:10099000CB0188199909AA09BB09883E9340A10592
:1009A000B10578F321E0C21AD108E108F10888EE18
:1009B000880E83E0981EA11CB11CC114D104E1046F
:1009C000F10421F7DECFFF90EF90DF90CF90BF9042
:1009D000AF909F908F9008952FB7F8946091EF0497
:1009E0007091F0048091F1049091F2042FBF08956A
:1009F0001F920F920FB60F9211242F933F938F9354
:100A00009F93AF93BF938091EF049091F004A091D6
:100A1000F104B091F2043091EE0423E0230F2D375E
:100A200020F40196A11DB11D05C026E8230F0296F2
:100A3000A11DB11D2093EE048093EF049093F00468
:100A4000A093F104B093F2048091F3049091F40424
:100A5000A091F504B091F6040196A11DB11D8093FB
:100A6000F3049093F404A093F504B093F604BF91BB
:100A7000AF919F918F913F912F910F900FBE0F904B
:100A80001F9018951F920F920FB60F9211240BB65C
:100A90000F922F933F934F935F936F937F938F9317
:100AA0009F93AF93BF93EF93FF93E0919004F091E6
:100AB0009104309709F451C0968DA685B785858538
:100AC00091FF04C09C91892329F447C09C918923FC
:100AD00009F043C0A389B4899C91858980958923B5
:100AE0008C93868997890197F1F7608D718DA68522
:100AF000B785558538E020E0CB010197F1F7822FCB
:100B000090E095958795282F4C91452309F0206812
:100B1000315091F7868D81FD209580918F0490E072
:100B200001968F73992730918E04381749F0A09160
:100B30008F04B0E0A255BB4F2C9380938F0403C069
:100B4000868D8160868F828D938D0197F1F7A389C1
:100B5000B4899C918589892B8C93FF91EF91BF91EA
:100B6000AF919F918F917F916F915F914F913F9145
:100B70002F910F900BBE0F900FBE0F901F901895E6
:100B8000E0919004F0919104E817F90769F4A389C2
:100B9000B4899C918589809589238C9310929104C6
:100BA0001092900481E0089580E008951F920F92C2
:100BB0000FB60F9211240BB60F922F933F934F93C2
:100BC0005F936F937F938F939F93AF93BF93EF93B5
:100BD000FF938091D50535DE2091D9053091DA0556
:100BE0002F5F3F4F3093DA052093D9059091D805B8
:100BF000953618F096E09093D4059091D4059430F2
:100C0000C9F128F4923069F09330D1F05EC095308C
:100C100009F451C0963009F058C091E09093A506B0
:100C200051C0811152C02091D9053091DA05243686
:100C3000310508F442C01092A5061092D8051CC0D8
:100C4000813009F042C0E091D80591E09E0F909369
:100C5000D805F0E02091D9053091DA05EE0FFF1F9D
:100C6000EC52FA4F308727831092DA051092D9059B
:100C700094E029C0811117C0E091D80591E09E0F42
:100C80009093D805F0E02091D9053091DA05EE0F68
:100C9000FF1FEC52FA4F308727831092DA0510922B
:100CA000D90593E010C02091D9053091DA05253699
:100CB000310558F007C0811108C01092DA05109272
:100CC000D90503C095E09093D4059091D705992359
:100CD000B1F081110AC08091D605882321F080915E
:100CE000D60561E009C02F9A0AC08091D6058823F5
:100CF00029F08091D60560E0CCDD01C02F98FF91EE
:100D0000EF91BF91AF919F918F917F916F915F9183
:100D10004F913F912F910F900BBE0F900FBE0F90F0
:100D20001F901895CF92DF92EF92FF92CF93DF93AF
:100D3000EC01072E000C880B990B0E94561C6B01CE
:100D40007C0120E030E040E45FE30E94B51C20E03D
:100D500030E048E452E40E94E71D0E944F1EC6178F
:100D6000D707D4F020E030E040EA5FE3C701B601E6
:100D70000E94B51C20E030E048E452E40E94E71DE8
:100D800020E030E040E85FE30E94831D0E944F1E98
:100D900021E06C177D070CF420E0822F90E0DF91BA
:100DA000CF91FF90EF90DF90CF900895CF92DF9298
:100DB000EF92FF92CF93DF93EB01223160F5FC01BC
:100DC0008081813049F42770E22FF0E0EE52FD4F30
:100DD00098818081892B1EC081111DC0E22FE77090
:100DE000F0E0EE52FD4FC080D12CE12CF12CF4DD6F
:100DF00024EF31E040E050E00E94AA1EC701B60196
:100E00000E94881EDC01CB0181709927AA27BB278D
:100E10002881822B8883DF91CF91FF90EF90DF9024
:100E2000CF90089522D2811105C06FE773E087E368
:100E300095E009C208950F931F93CF93DF93EC01C0
:100E400061E080E326DDC8DD28813981E6E4E29FA8
:100E5000A001E39F500D11248A01550F220B330B83
:100E6000DC01CB01800F911FA21FB31F8093BD082F
:100E70009093BE08A093BF08B093C008D09311020E
:100E8000C0931002DF91CF911F910F910895CF92DF
:100E9000DF92EF92FF920F931F93CF93DF936C013A
:100EA0007A018B01C0E0D0E0CE15DF0589F0D801D2
:100EB0006D918D01D601ED91FC910190F081E02DB5
:100EC000C6011995892B11F47E0102C02196ECCF41
:100ED000C701DF91CF911F910F91FF90EF90DF90AD
:100EE000CF900895CF92DF92EF92FF920F931F93CE
:100EF000CF93DF930091B7061091B806C0E0D0E021
:100F00006BDDD80118966D937D938D939C931B9701
:100F1000D801ED91FC910680F781E02DC80119956B
:100F200097FD04C08A309105B9F41EC055DDF80163
:100F3000C084D184E284F384DC01CB018C199D0947
:100F4000AE09BF09C480D580E680F7808C159D0569
:100F5000AE05BF05E8F208C0FE01ED54F94F8187E8
:100F60002196C035D10561F6FE01ED54F94F118689
:100F70008091B7069091B806DC01ED91FC91008458
:100F8000F185E02D19950D9759F48091B706909150
:100F9000B806DC01ED91FC910680F781E02D1995F2
:100FA000CE01DF91CF911F910F91FF90EF90DF90D5
:100FB000CF900895CF93DF93CDB7DEB72E970FB6BE
:100FC000F894DEBF0FBECDBF83EB93E09A8789878D
:100FD0001C861B8682E08C831E861D86AE014A5EBF
:100FE0005F4F6EE671E0CE0101960E94A8192E9621
:100FF0000FB6F894DEBF0FBECDBFDF91CF9108953D
:101000000F931F93CF9310922F05109230058C01F0
:10101000C0E06C2F70E080E090E00E94541C20E063
:1010200030E040E95FE30E94E71D0E944F1EFB0194
:10103000E652FD4F8081F80191918F019130B1F41A
:10104000282F30E0F901883048F4EE52FD4F9081AE
:1010500080912F05892B80932F0508C0E653FD4F03
:10106000808190913005982B90933005CF5FC231ED
:1010700081F6CF911F910F910895E0913705F0917E
:1010800038050190F081E02D682F87E395E01994F1
:10109000EBE1F5E082E18E0F9191913021F08E131A
:1010A000FBCF81E0089580E008958F929F92AF92E8
:1010B000BF92CF92DF92EF92FF920F931F93CF9345
:1010C000DF93FC01C081D18120910305309104059B
:1010D000C217D3070CF048C09E01220F331FE091C6
:1010E0000105F0910205E20FF31F80809180C1702D
:1010F000DD27F1E0CF27209719F404E610E002C0C5
:101100000CE91FEF7A015B016C01040F151FB80198
:10111000C40108DE892B89F40E0D1F1DB801C4011E
:1011200001DE892B69F4B8016E0D7F1DC401FADD63
:10113000892BE9F023E030E005C021E030E002C077
:1011400022E030E0F50180819181019682179307BA
:101150003CF0F50111821082F601808191810196A7
:1011600091838083CE0105C081E090E002C08FEFC3
:101170009FEFDF91CF911F910F91FF90EF90DF9044
:10118000CF90BF90AF909F908F900895611571059B
:1011900079F0FB0101900020E9F73197AF01461B80
:1011A000570BDC01ED91FC910280F381E02D199445
:1011B00080E090E008958F929F92AF92BF920F933C
:1011C0001F93CF93DF93CDB7DEB7A1970FB6F894F7
:1011D000DEBF0FBECDBF19A2423008F44AE08E0137
:1011E0000F5D1F4F842E912CA12CB12CA5019401D1
:1011F0000E94AA1EE62FB901CA0101501109EA3066
:1012000014F4E05D01C0E95CD801EC93232B242B9E
:10121000252B61F7B80187E395E0B8DFA1960FB6FB
:10122000F894DEBF0FBECDBFDF91CF911F910F911C
:10123000BF90AF909F908F900895682F70E080E0EE
:1012400090E04AE0B8CF0F931F93CF93DF93EC0168
:101250009DDF8C0161E074E0CE0198DF800F911F6B
:10126000DF91CF911F910F9108958091B7069091D2
:10127000B806DC01ED91FC910480F581E02D199513
:10128000A091B706B091B806892B49F0ED91FC9179
:1012900011970680F781E02DCD011995E6CF6BE718
:1012A00074E0CD01D0DF1EDE8CEB96E00C94831948
:1012B00008956CCFCF93DF93EC018091B7069091A6
:1012C000B806DC01ED91FC910480F581E02D1995C3
:1012D000A091B706B091B806892B49F0ED91FC9129
:1012E00011970680F781E02DCD011995E6CF68E9C9
:1012F00073E0CD01DEDFBE018091B7069091B806A4
:10130000A2DFF0DDEFDD6DE774E08CEB96E00E948C
:10131000231F21E0892B09F420E0822FDF91CF9158
:101320000895EF92FF920F931F93CF93DF930BE1FA
:1013300015E0C7E0D5E0EE24E394FC2E82E1F80E40
:10134000F80181918F01813071F48881813051F0F1
:1013500082E894E0AFDF811105C063E474E087E3C5
:1013600095E071DFE8822196FC12EACFDF91CF9100
:101370001F910F91FF90EF900895CF93DF93CDB71A
:10138000DEB72B970FB6F894DEBF0FBECDBF7894B3
:1013900084B5826084BD84B5816084BD85B582607A
:1013A00085BD85B5816085BD80916E00816080932B
:1013B0006E00109281008091810082608093810094
:1013C00080918100816080938100809180008160A4
:1013D000809380008091B10084608093B1008091FF
:1013E000B00081608093B000809191008260809312
:1013F0009100809191008160809391008091900094
:101400008160809390008091A10082608093A10010
:101410008091A10081608093A1008091A0008160F3
:101420008093A000809121018260809321018091AE
:10143000210181608093210180912001816080934E
:10144000200180917A00846080937A0080917A00F4
:10145000826080937A0080917A00816080937A0024
:1014600080917A00806880937A001092C100E091A8
:101470004705F091480582E08083E0914305F091B3
:1014800044051082E0914505F091460580E1808396
:1014900010924F05E0914B05F0914C0586E080835A
:1014A000E0914905F0914A05808180618083E09157
:1014B0004905F0914A05808188608083E091490563
:1014C000F0914A05808180688083E0914905F09120
:1014D0004A0580818F7D808364EF71E080E090E039
:1014E00043DA61E080E304DA60E080E3D2D910926D
:1014F000B9081092B8081092B7081092B608109266
:10150000B5081092B4088DE991E09093BB088093E0
:10151000BA088091AA0896EF980F943048F02EEC04
:10152000280F243028F022EC280F283008F070C053
:101530002DEB30E03093B5082093B4082BE931E06F
:101540003093B7082093B6082CE231E03093B90805
:101550002093B808943070F02EEC280F243050F00F
:1015600022EC280F283010F40C946618A0E0B0E0AC
:101570000C946818A8E6B0E0E8E6F0E0208194302A
:1015800018F08E53883010F081E001C084E0822B87
:101590008C938091AA0896EF980F943058F02EEC17
:1015A000280F243038F022EC280F283030F020E0CB
:1015B00030E005C02BE630E002C02DE630E030938D
:1015C000B2082093B108943010F49AEF0BC0823324
:1015D00081F0833381F0843381F092EC980F98305E
:1015E00070F492EC980F81E001C0880F9A95EAF7A9
:1015F00007C088E005C084E003C082E001C081E04C
:101600008093B3088091BA089091BB080197F1F7D5
:101610008091B8089091B908892B19F180919004B4
:101620009091910428E08E399207D9F0009709F043
:10163000A7DA8091BC088E7F8093BC0810928F043B
:1016400010928E048EE998E0909391048093900418
:10165000E091B108F091B20890818091B308892B94
:10166000808360E08091BB0614D961E08091BB0665
:101670003FD96AE070E080E090E076D960E0809148
:10168000BB0636D968EE73E080E090E06DD92ADCC5
:1016900029DC62E173E08CEB96E00E94231F892B2A
:1016A00009F4B9C76AEF70E080E090E05DD91ADC18
:1016B00019DC6AE273E087E395E0C5DDB3DBB2DBFA
:1016C000B1DB61E08DE014D9F89482E08093B00042
:1016D0008093B10094E69093B3001092B20080938F
:1016E000700078948093D4051092D8058091D50528
:1016F00060E0FED881E08093D70561E08DE0F8D806
:1017000009E812E060E0D8018D918D01F1D8B2E0D6
:101710000C391B07B9F70DE912E061E0F80181917E
:101720008F01E6D8F2E0003B1F07B9F7B1E8CB2EF6
:10173000B2E0DB2E01EB12E0D801FD908D0161E0FB
:101740008F2DD6D861E08F2DA4D8F601F1906F01CE
:1017500061E08F2DCDD861E08F2D9BD8F2E0093B61
:101760001F0751F788E092E066DB1F9285E08F93B8
:101770008EE691E09F938F931DDC0F900F900F905A
:101780000F9082E994E0885F8A87A7E0B5E0AC5EBD
:10179000A98722D9209180022330B9F50DE912E002
:1017A000F80122E1E20FFE2E60E0D8018D918D015B
:1017B00070D8F012F9CF10D90091AB061091AC0699
:1017C0002091AD063091AE060D5E1F4F2F4F3F4F5B
:1017D00006171707280739070CF00EC16093AB06F0
:1017E0007093AC068093AD069093AE06C0907E02D7
:1017F000D0907F0271EBE72E72E0F72EAA24A3941B
:10180000C701A8E08A0FB82E58C00091A706109112
:10181000A8062091A9063091AA060C5F1F4F2F4FF2
:101820003F4F06171707280739072CF66093A706BE
:101830007093A8068093A9069093AA06EBE1EE2E7A
:10184000E5E0FE2EF9E8CF2EF2E0DF2E0DE912E002
:1018500088248394A2E07A2EF80122E1E20F9E2EE2
:10186000D801BC9060E08B2D14D8F601A1906F01D7
:101870008A2D0E942104892B19F4D7011C9215C0CE
:10188000F701808261E0D8018C9103D88BE490E06D
:101890000197F1F78A2D0E942104892B11F4F70199
:1018A000708260E08B2D0E9449040F5F1F4FFFEF95
:1018B000EF1AFF0A9012D4CF7ECFF60101916F018B
:1018C000602F61706A258AE30E94490410E0009548
:1018D0001095B80175956795617087E00E9449047D
:1018E000B8017595679575956795617088E00E9458
:1018F0004904B80123E0759567952A95E1F7617071
:1019000087E30E944904B80134E0759567953A95DC
:10191000E1F761708AE00E944904B80145E07595DD
:1019200067954A95E1F7617088E30E944904B80120
:1019300056E0759567955A95E1F761708CE30E94C2
:101940004904000F012F001F110B602F61708DE300
:101950000E944904D7011D917D0161E0812F0E9401
:10196000490462E070E080E090E00E94B40460E02E
:10197000812F0E944904BE10A0CF80918002811166
:101980003BC0E2E9F4E01192BA85BE13FCCF00E05F
:1019900010E0202F40E062E974E0C801855E9A4FB4
:1019A00005DA0F5F1F4F0830110599F700E010E0CE
:1019B00028E0200F41E063E974E0C8018D5D9A4F93
:1019C000F5D90F5F1F4F0830110591F700E010E0C7
:1019D00020E1200F42E064E974E0C801855D9A4F80
:1019E000E5D90F5F1F4F0830110591F7E2E9F4E0E8
:1019F000F093A404E093A30400911002109111024B
:101A0000D8018D919C91892B09F446C00E94EC0469
:101A10006B017C018091BD089091BE08A091BF0828
:101A2000B091C008C816D906EA06FB06ACF1C80199
:101A300002969093110280931002F80182819381A3
:101A4000892B29F460E080E30E94490425C080E3EB
:101A50000E94210461E0892B09F060E080E30E948C
:101A60004904D80112962D913C91139746E4429F68
:101A7000C001439F900D1124092E000CAA0BBB0B33
:101A8000C80ED91EEA1EFB1EC092BD08D092BE0829
:101A9000E092BF08F092C0088BED95E090930205AC
:101AA000809301058091D80590E090930405809380
:101AB00003058091A50690E09093060580930505A7
:101AC0008091D405853009F02BC28091DD0590917D
:101AD000DE05885891098D35910588F48091D805E7
:101AE000843041F48091DF059091E005809747971D
:101AF00008F4B1C58091D805843408F093C580916D
:101B0000D8058A3108F452C08091DB059091DC053C
:101B1000843F914080F4109200051092FF048FEFF3
:101B20009FEFDC018093FB049093FC04A093FD04E1
:101B3000B093FE0459C08091DD059091DE05859734
:101B40004B97A0F5E1EEF5E082E090E0C12CD12CBE
:101B50007601AC014F5F5F4F2091D80530E042170E
:101B600053075CF4DF0112972D913C912750310906
:101B70002730310508F4B6C5CA01019795958795B8
:101B8000909300058093FF040C972CF410920005AD
:101B90001092FF040BC0C092FB04D092FC04E092B0
:101BA000FD04F092FE0484E090E0BEC68091D8056A
:101BB0008A3108F44CC08091DB059091DC058032BD
:101BC000934008F4A8CF8091DD059091DE05C6977B
:101BD000869708F4A4C53BC0C092FB04D092FC04D5
:101BE000E092FD04F092FE048BE090E09DC620811F
:101BF0003181255231092B31310508F0A0C5CC0CBB
:101C0000DD1CEE1CFF1C6894C0F802963496AC01F3
:101C10004F5F5F4F2091D80530E04217530754F4CF
:101C2000DF0112972D913C912C5031092B30310559
:101C3000F0F2CA01019795958795909300058093DE
:101C4000FF040C974CF6109200051092FF0480914F
:101C5000D805823208F44DC08091DD059091DE05F3
:101C60000697079708F045C0E1EEF5E082E090E0C6
:101C7000C12CD12C76019C012F5F3F4F4091D8059C
:101C800050E024173507E4F4DF0112974D915C9181
:101C900011974E5151094731510508F05DC5CC0CE3
:101CA000DD1CEE1CFF1C6894C0F840815181349605
:101CB000435051094530510510F40296DCCFC9015B
:101CC000019795958795909300058093FF04409721
:101CD0002CF4109200051092FF040BC0C092FB047C
:101CE000D092FC04E092FD04F092FE048CE090E0BF
:101CF0001BC61C821B8281E090E09A8389838091BD
:101D0000D8058D3008F466C049E753E0BE016D5F29
:101D10007F4FCE010196C9D9892B09F05BC049E7F5
:101D200053E0BE016D5F7F4FCE010196BED9019792
:101D300009F050C049E753E0BE016D5F7F4FCE010F
:101D40000196B3D9892B09F045C0812C912C5401FF
:101D500000E010E08091D80590E029813A812817B1
:101D600039074CF549E753E0BE016D5F7F4FCE0167
:101D700001969BD97C0149E753E0BE016D5F7F4F1F
:101D8000CE01019692D9B1E0EB16F10449F4892B0A
:101D900009F5880C991CAA1CBB1C689480F808C023
:101DA000EF28C1F40197B1F4880C991CAA1CBB1C44
:101DB0000F5F1F4FCFCF109300050093FF04809259
:101DC000FB049092FC04A092FD04B092FE0481E01A
:101DD00090E0AAC51C821B8281E090E09A838983EF
:101DE0008091030590910405181619060CF054C053
:101DF000E0910105F091020582E090E09A838983E9
:101E00008281938189974E9708F046C083E090E0E5
:101E10009A838983848195810B970A9708F03CC047
:101E20004CEB51E0BE016D5F7F4FCE0101963DD975
:101E3000892B91F54CEB51E0BE016D5F7F4FCE01D8
:101E4000019633D9019741F5812C912C540100E082
:101E500010E029813A8180910305909104052817AB
:101E600039070CF0BCC44CEB51E0BE016D5F7F4FF5
:101E7000CE0101961AD97C010330110509F079C40D
:101E80004CEB51E0BE016D5F7F4FCE0101960DD945
:101E9000E816F90609F46DC4E0910105F091020518
:101EA00082819381C697869708F4A8C41DC68E3593
:101EB000F2EA9F07FFEFAF07B10508F47BC58F3447
:101EC000F0EB9F07FFEFAF07B10509F0AFC5109228
:101ED000800280E392E00E941B0788E292E09093E8
:101EE0007F0280937E020E94EC04DC01CB018053D0
:101EF000984FAF4FBF4F8093AF069093B006A0931B
:101F0000B106B093B20681E08093AD046AE373E05A
:101F100087E395E098D982E08093D4051092D805A4
:101F20008091AD04882391F00E94EC040091AF06EB
:101F30001091B0062091B1063091B206061717072E
:101F40002807390708F064C31092AD04109180028D
:101F5000113081F03CF411115BC38091A304909186
:101F6000A40452C3123049F0133009F051C385EA7A
:101F700094E04AC386E792E047C38091A20482308E
:101F800009F4F2C228F4882351F08130B1F03AC349
:101F9000833009F412C3843009F457C033C378D8AE
:101FA000811130C30E94EC0460939E0470939F04DF
:101FB0008093A0049093A104CBC20E94EC04DC01A6
:101FC000CB0188589341A109B10900919E04109159
:101FD0009F042091A0043091A104081719072A0733
:101FE0003B07D8F483E08093A2046AEA73E087E3B6
:101FF00095E029D910922F051092300510923105E5
:102000001092320510923305109234051092350566
:102010001092360582E792E0CDC287E095E00E94FB
:10202000000836D8882309F49CC20E94EC0460930F
:102030009A0470939B0480939C0490939D0484E085
:102040008093A20460EC73E0D4C20E94EC04DC0133
:10205000CB01845F9140A109B109C0909A04D0904E
:102060009B04E0909C04F0909D04C816D906EA06F3
:10207000FB0608F069C21093A2046BED73E087E3DE
:1020800095E0E1D820919A0430919B0480919E04C0
:1020900090919F04281B390BEBECF2E0F887EF835B
:1020A00088E090E0529142912417350714F4182FDC
:1020B00003C00197B9F710E027E0622E25E0722EE9
:1020C000F30180E09191913019F08F5F8231D1F767
:1020D00091E1692F70E0FB01E95FFA4F0081013067
:1020E00011F09150F6CF681B7109072E000C880B78
:1020F000990B0E94561C20E030E048E851E40E9411
:10210000E71D29E23CE54FE750E40E94B51C0E9420
:10211000541E6D83E7E0F5E0F12C8191813021F0D0
:10212000F39422E1F212F9CF69EE73E087E395E0D0
:10213000C0D88F2D82D861EF73E087E395E0B9D8DE
:102140006F2D70E080E090E00E94561C20E030E0AF
:1021500048E851E40E94E71D9B01AC0160E070E09B
:1021600080E89FE30E94821D29E23CE54FE750E4AE
:102170000E94B51C6B017C019B01AC010E94841E76
:10218000882319F065EF73E01AC046015701E894FF
:10219000B7F82FEF3FEF4FE75FE7C501B4010E94AB
:1021A000841E811111C02FEF3FEF4FE75FE7C5019C
:1021B000B4010E94501C18163CF469EF73E087E3E9
:1021C00095E00E94C60872C02FEF3FEF4FE75FE433
:1021D000C701B6010E94801E18161CF46DEF73E053
:1021E000EECF2FEF3FEF4FE75FECC701B6010E9444
:1021F000501C87FDF3CF20E030E0A901C701B601F4
:102200000E94501C87FF07C08DE20E943D08C70155
:10221000B601905802C0C701B6012AE037ED43EA83
:102220005BE30E94831D1B012C010E94541E4B0185
:102230005C010E94541C9B01AC01C201B1010E94CF
:10224000821D1B012C014AE0C501B4010E94DB087C
:102250008EE20E943D0820E030E040E251E4C201FD
:10226000B1010E94B51C1B012C010E94541E4B01A0
:10227000A12CB12C4AE0C501B4010E94DB08C501C4
:10228000B4010E94541C9B01AC01C201B1010E9427
:10229000821D20E030E040E251E40E94B51C0E9423
:1022A000541E80E090E04AE00E94DB0861E074E0A8
:1022B00087E395E00E94C608C701B6010E94541E3C
:1022C000F62EE7E0F5E060E0CF01A2E18A0FD82E1C
:1022D0008191813009F46F5FDE12FACF70E080E007
:1022E00090E00E94541C20E030E048E851E40E9455
:1022F000E71D20E030E040E251E40E94B51C0E945E
:10230000541EE62EB1E0B61728F4E2E06E1304C0C6
:1023100022E003C021E001C023E0F1E0FF1530F42A
:1023200082E0F81206C092E0B92E05C0BB24B39437
:1023300002C083E0B82E9D81923028F0923011F4D3
:1023400002E001C003E0822F2B870E941D0963EF8A
:1023500073E087E395E00E9459098B2D0E941D09C7
:1023600063EF73E087E395E00E945909802F0E9494
:102370001D0963EF73E087E395E00E945909C12EC0
:10238000C6948C2D0E941D0963EF73E087E395E0EE
:102390000E9423092B852B9D90011124029FA001EF
:1023A000039F500D1124C49EC001C59E900D1124A1
:1023B00063E070E00E94971E062FCC2019F0672B77
:1023C00009F401E0D3018D913D010E941D09D61051
:1023D000F9CF61E074E087E395E00E94C60864E00D
:1023E00074E087E395E00E9459098E2D0E941D0933
:1023F0006EE074E087E395E00E9459098F2D0E94FA
:102400001D0967E174E087E395E00E9459098D8119
:102410000E941D096DE174E087E395E00E9459096F
:10242000812F0E941D0965E274E087E395E00E9418
:102430005909C0909A04D0909B04E0909C04F090BD
:102440009D0480919E0490919F04A091A004B0915E
:10245000A104C81AD90AEA0AFB0AF7FE0CC08DE2E9
:102460000E943D0866277727CB016C197D098E09EC
:102470009F094AE003C04AE0C701B6010E94DB0899
:102480006FE274E087E395E00E945909802F0E9473
:102490001D0963E074E087E395E00E94230903309F
:1024A00020F4011103C000E001C003E010923405E4
:1024B0001092350510923605023031F0033031F0BC
:1024C000013049F480EC03C088ED01C08BED8093AE
:1024D00035058093360587E095E00E94000820913D
:1024E0009A0430919B0480919E0490919F04281B34
:1024F000390B88E090E0EF81F88552914291F8879E
:10250000EF83241735071CF00197A9F780E0E82F27
:10251000F0E0E753FD4F808180933205023071F087
:10252000033079F0013009F06DC087E394E00E9438
:102530005A09811167C063E474E05BC089E594E0E7
:10254000F6CF85E694E0F3CF0E94480881115AC087
:1025500081E08093A2046AE973E087E395E00E943A
:1025600023090E9491094EC00E94EC04DC01CB01BA
:10257000805D9740A109B10900919A0410919B04D4
:1025800020919C0430919D04081719072A073B07E6
:10259000C8F51092A20461E573E087E395E00E941C
:1025A0002309E7E0F5E082E0819329852E13FCCF33
:1025B0008EE692E00E941B0725C00E9448088823EF
:1025C000E9F010922F05109230051092310510920B
:1025D0003205109233051092340510923505109291
:1025E00036058EE692E00E941B071092A20461E578
:1025F00073E087E395E00E94230904C08BE195E036
:102600000E9400088FE295E090937F0280937E0203
:102610000E940F02BEC861E774E087E395E00E9464
:102620002309FFCF8091DF059091E0058254910945
:102630008E9708F064CA80E090E040E050E0BA0174
:10264000FC01EF51FA4F20813181295031092930A5
:102650003105C8F054CA8091E1059091E2050997CF
:10266000099708F047CA109200051092FF048FEFF7
:102670009FEFDC018093FB049093FC04A093FD0486
:10268000B093FE042EC2FC01ED51FA4F208131813E
:102690002751310922313105F8F02081318126504E
:1026A00031092730310508F02ACA440F551F661F2B
:1026B000771F04968038910519F680E290E0909398
:1026C00000058093FF044093FB045093FC04609347
:1026D000FD047093FE0405C2440F551F661F771F4B
:1026E0004160E7CF20813181235131092F303105FD
:1026F00048F4CC0CDD1CEE1CFF1C6894C0F802965C
:10270000349627CA208131812A5031092930310578
:1027100008F04CCACC0CDD1CEE1CFF1CF0CF8091E5
:10272000DF059091E005C697869708F090CAE3EE22
:10273000F5E083E090E0C12CD12C760168CA2081BD
:1027400031812C5031092A30310508F080CACC0C77
:10275000DD1CEE1CFF1C59CA4D915C914C50510977
:102760004B30510508F0C5CACC0CDD1CEE1CFF1C1B
:102770009CCA4CEB51E0BE016D5F7F4FCE010196CC
:102780000E9455086C010330110569F44CEB51E0CF
:10279000BE016D5F7F4FCE0101960E945508C8169D
:1027A000D90609F079CBE114F10459F4CA94CD2883
:1027B00009F072CB880C991CAA1CBB1C689480F889
:1027C0000BC0EA94EF2809F067CBCD2809F064CB61
:1027D000880C991CAA1CBB1C0F5F1F4F3ACB10938F
:1027E00000050093FF048092FB049092FC04A092E9
:1027F000FD04B092FE0482E090E096C08481958151
:102800004B97459708F070C1DF0116967F0186EC63
:10281000E80EF11C20E030E040E050E060E070E0C5
:1028200080E090E00D911C9111970950110908303A
:10283000110508F059C112960D911C911397015181
:1028400011090D30110568F112960D911C91139725
:10285000045011090530110508F046C101E00E943D
:10286000D41E1496AE15BF05E9F62093FB043093F1
:10287000FC044093FD045093FE0400E20E94EF1E0E
:102880002093F9043093FA0485E090E09093F804E3
:102890008093F70480E390E0909300058093FF0419
:1028A00047C001E00E94D41E2160DBCFA801425046
:1028B0005109DA014D915C91495051094830510557
:1028C00008F0C0C1BC016F5F7F4FD8014D915C9192
:1028D000475051094730510508F0AAC3220F331F52
:1028E000216002960C5F1F4F4091D80550E0445084
:1028F000510984179507D4F2019795958795909380
:1029000000058093FF048A970CF49CC1C901330F22
:10291000AA0BBB0B8093FB049093FC04A093FD04D3
:10292000B093FE0489E090E09093F8048093F7045C
:102930008091FB049091FC04A091FD04B091FE04F1
:102940008D35E2EA9E07EFEFAE07B10509F0AFCA99
:1029500082E0809380021092A20461E573E087E335
:1029600095E00E942309E7E0F5E082E08193298564
:102970002E13FCCF8AE192E00E941B0782E192E0D5
:1029800090937F0280937E020E94EC04DC01CB01D5
:102990008053984FAF4FBF4F8093AF069093B006D0
:1029A000A093B106B093B20681E08093AD046FE5C9
:1029B00073E0AECA8D3D22E292072FEFA207B10568
:1029C00011F511E01093800288E592E00E941B0748
:1029D00086E792E090937F0280937E020E94EC044F
:1029E000DC01CB018053984FAF4FBF4F8093AF06B0
:1029F0009093B006A093B106B093B2061093AD04C5
:102A000064E473E085CA8F369049AF4FB10509F091
:102A100082CA60E973E087E395E00E9423090E947F
:102A20003509811178CA6FE773E072CA8D3122EEE1
:102A300092072FEFA207B10519F583E0809380027A
:102A400080E592E00E941B0788E492E090937F0269
:102A500080937E020E94EC04DC01CB018053984FEE
:102A6000AF4FBF4F8093AF069093B006A093B106CF
:102A7000B093B20681E08093AD0467E673E048CA84
:102A80008735984AAF4FB10509F045CA61E773E051
:102A900087E395E00E9423098091B7069091B806DC
:102AA000DC01ED91FC910480F581E02D1995A09158
:102AB000B706B091B806892B49F0ED91FC911197BA
:102AC0000680F781E02DCD011995E6CF6DE773E023
:102AD000CD010E9423090E9472078CEB96E013D46B
:102AE000A0CF83E090E020CF8091D805893370F1AA
:102AF00082819381895791098335910508F439C101
:102B000025C0D90112966D917C9113976651710978
:102B10006131710508F03CC1D701C601880F991FCA
:102B2000AA1FBB1F6C017D016894C0F84E5F5F4F08
:102B30002C5F3F4F4B33510509F439C1D9016D91D9
:102B40007C916A50710969307105D8F28091D8057D
:102B5000823231F4828193810A97099708F444C143
:102B6000828193818957910983359105D0F48091B1
:102B7000D8058132B0F084819581CA97899788F40D
:102B80009F012A5F3F4FC12CD12C760143E050E0DA
:102B9000D9016D917C916A5071096930710508F411
:102BA00042C1828193818C549109C59778F48091B8
:102BB000D805843031F4848195818097479708F453
:102BC00092C18091D805843408F074C18091D805F1
:102BD000863460F1828193810C970B9708F4D1C100
:102BE00025C0D90112966D917C9113976E51710990
:102BF0006731710508F0FDC1D701C601880F991F23
:102C0000AA1FBB1F6C017D016894C0F84E5F5F4F27
:102C10002C5F3F4F4534510509F4CEC1D9016D9168
:102C20007C916C5071096B307105D8F28091D80598
:102C3000883540F082819381855891098B359105C3
:102C400008F4E7C18091D8058032E1F48281938154
:102C500006970697B8F4848195810997099790F4AF
:102C60009F012A5F3F4FBF01625C7F4FC12CD12C77
:102C70007601D9014D915C9146505109463051057C
:102C800008F4E3C180910305909104059E838D8330
:102C900006970CF440C98F010A5F1F4F43E0242EB2
:102CA000312C55ECC52E5DE9D52E5CE1E52E51E8C1
:102CB000F52ED8016D917C91F8013497A080B180F8
:102CC00080E090E0F1D52B013C01B50180E090E07F
:102CD000EBD54B015C012DEC3CEC4CE45FE345D6BD
:102CE0009B01AC01C301B201DBD587FD15C02DEC02
:102CF0003CEC4CE45FE3C301B20137D69B01AC016D
:102D0000C501B401CDD5E82F880FFF0BEE27FF0FCB
:102D1000EE1FFF27319602C0E0E0F0E0A701960128
:102D200063E971E080E091E0F3D76F01FF0FEE08F7
:102D3000FF08C626D726E826F926BFEF2B1A3B0A3E
:102D40000E5F1F4FED81FE812E163F0609F0B1CFB9
:102D5000C092FB04D092FC04E092FD04F092FE04C9
:102D600080E290E0909300058093FF048FEF9FEF47
:102D7000DBCD84819581CA97899708F0E7CE9F01C2
:102D80002A5F3F4FC12CD12C760143E050E0D6CED4
:102D900012966D917C911397665071096730710599
:102DA00008F0D4CECC0CDD1CEE1CFF1CBFCE9F0166
:102DB0002A583F4FD9012D913C912A503109293091
:102DC000310508F0C3CE2CE130E0309300052093AC
:102DD000FF04C092FB04D092FC04E092FD04F09248
:102DE000FE048AE090E0A0CD2091D805CF01820FAB
:102DF000911D820F911DDC0112978D919C910A9774
:102E0000099708F0ADCE109200051092FF048FEFE5
:102E10009FEFDC018093FB049093FC04A093FD04DE
:102E2000B093FE044DC1D90112966D917C91139718
:102E3000665171096131710568F5D701C601880FC6
:102E4000991FAA1FBB1F6C017D016894C0F84E5FDB
:102E50005F4F2C5F3F4F4332510509F099CE9F01E0
:102E60002A5B3F4FD9012D913C912A5031092930DD
:102E7000310508F096CE20E130E030930005209334
:102E8000FF04C092FB04D092FC04E092FD04F09297
:102E9000FE0416C1D90112966D917C91139766506C
:102EA00071096730710508F07CCECC0CDD1CEE1C7E
:102EB000FF1CCDCF8481958189549109C39708F077
:102EC00085CE9F012A5F3F4FBF016A577F4FC12CBC
:102ED000D12C7601D9014D915C914950510949306D
:102EE0005105B8F073CE868197810997099708F04C
:102EF00068CE109200051092FF048FEF9FEFDC0167
:102F00008093FB049093FC04A093FD04B093FE0413
:102F1000DAC0D90112964D915C911397465151092F
:102F200041315105F0F4D701C601880F991FAA1F3E
:102F3000BB1F6C017D016894C0F82C5F3F4F2617C2
:102F4000370741F620E230E0309300052093FF047C
:102F5000C092FB04D092FC04E092FD04F092FE04C7
:102F6000B2C0D90112964D915C9113974650510908
:102F70004730510508F02ACECC0CDD1CEE1CFF1C9E
:102F8000DCCF848195810997099708F04FCE86811F
:102F900097818C974F9708F049CE808591858997C6
:102FA0004D9708F043CE9F01265F3F4FC12CD12C97
:102FB000760145E050E032CE9F0126573F4FD901C0
:102FC0002D913C912C5031092B30310508F02ECE3B
:102FD00020E230E0309300052093FF04C092FB0410
:102FE000D092FC04E092FD04F092FE0488E090E0B0
:102FF0009BCCD90112966D917C9113976950710900
:103000006930710508F012CECC0CDD1CEE1CFF1CE3
:10301000FDCD84819581825491098E9708F012CE5E
:103020008F01045C1F4F8DE190E020E030E05CCC2C
:10303000D8014D915C91485151094231510510F030
:10304000CB015ACC220F331F4CCCD90112964D9193
:103050005C911397495151094331510508F5D70146
:10306000C601880F991FAA1FBB1F6C017D016894C0
:10307000C0F82C5F3F4F2617370709F0FACD2EE036
:1030800030E0309300052093FF04C092FB04D092FF
:10309000FC04E092FD04F092FE048FE090E044CC4A
:1030A000D90112964D915C911397495051094930BD
:1030B000510508F0E7CDCC0CDD1CEE1CFF1CD9CF70
:1030C00086E090E031CC87E090E02ECCA8E6B0E03E
:1030D000283010F40C94BC0AE0E0F0E00C94BE0A36
:1030E00086E093E090939F0880939E088EE998E095
:1030F0000C94C005CF92DF92EF92FF9210923A05A6
:103100001092390598EEC92E93E0D92EE12CF12CBE
:10311000C0923B05D0923C05E0923D05F0923E0501
:103120008EEE92E0909338058093370585EC90E021
:10313000909344058093430584EC90E0909346057A
:103140008093450580EC90E0909348058093470577
:1031500081EC90E090934A058093490582EC90E0E1
:1031600090934C0580934B0586EC90E090934E0530
:1031700080934D0510925005109251051092520502
:10318000109253050E94EC046093BD087093BE0832
:103190008093BF089093C0081092A1081092A008D5
:1031A000C092A208D092A308E092A408F092A508C9
:1031B00086E093E090939F0880939E081092B50854
:1031C0001092B4081092B7081092B6081092B9087D
:1031D0001092B8081092BB081092BA086091BC080F
:1031E0006E7F6D7F6093BC086695617081E0682793
:1031F00085E30E94490461E085E30E947804E7E2E8
:10320000F2E0E491E093AE08E1EEF1E0E491F0E069
:10321000EE0FFF1FE858FE4F859194919093B008F0
:103220008093AF0860E082E30E9478048091BC083C
:1032300081FD04C061E082E30E94490482E380933F
:10324000AA08E4E2F2E0E491E093AB08EEEDF1E0ED
:10325000E491F0E0EE0FFF1FEE56FE4F8591949142
:103260009093AD088093AC081092B6061092B50604
:103270008EEF92E09093B4068093B3068EE998E0C7
:103280009093B8068093B7061092BA061092B906CA
:1032900083E38093BB0684EF91E0A0E0B0E08093ED
:1032A000A2089093A308A093A408B093A508109235
:1032B0000C0710920D070E94EC046093AF06709308
:1032C000B0068093B1069093B2060E94EC0460931E
:1032D000AB067093AC068093AD069093AE060E9449
:1032E000EC046093A7067093A8068093A9069093B8
:1032F000AA068EE28093D5051092D705FF90EF9035
:10330000DF90CF900895FC0188279927E8942191B8
:103310002032E9F3293010F02E30C8F32B3239F087
:103320002D3231F4689403C00BD0820F911D21918E
:1033300020532A30C8F31EF4909581959F4F08952D
:103340007AE0979F902D879F802D910D11240895ED
:10335000CF93DF93EC018B8188608B83CE0106D005
:103360002B81277F2B83DF91CF9108952F923F925E
:103370004F925F926F927F928F929F92AF92BF9285
:10338000CF92DF92EF92FF920F931F93CF93DF9331
:10339000CDB7DEB72C970FB6F894DEBF0FBECDBF0A
:1033A0007C016B018A01FC0117821682838181FFF7
:1033B000B0C1CE0101964C01F7019381F60193FD56
:1033C000859193FF81916F01882309F49EC1853215
:1033D00039F493FD859193FF81916F01853221F43A
:1033E000B70190E0C7D1E8CF512C312C20E020323A
:1033F000A0F48B3269F030F4803259F0833269F4F2
:1034000020612CC08D3239F0803339F4216026C020
:103410002260246023C0286021C027FD27C030ED32
:10342000380F3A3078F426FF06C0FAE05F9E300D80
:103430001124532E13C08AE0389E300D1124332EF0
:1034400020620CC08E3221F426FD5FC1206406C0CC
:103450008C3611F4206802C0883641F4F60193FDE1
:10346000859193FF81916F018111C1CF982F9F7D2D
:103470009554933028F40C5F1F4FFFE3F9830DC080
:10348000833631F0833771F0833509F057C021C09E
:10349000F801808189830E5F1F4F44244394512C8F
:1034A000540114C03801F2E06F0E711CF801A080C5
:1034B000B18026FF03C0652D70E002C06FEF7FEF83
:1034C000C5012C874CD12C0183012C852F77222E0E
:1034D00016C03801F2E06F0E711CF801A080B180B7
:1034E00026FF03C0652D70E002C06FEF7FEFC501BE
:1034F0002C872AD12C012C852068222E830123FCC5
:1035000019C0832D90E048165906A0F4B70180E257
:1035100090E030D13A94F5CFF50127FC859127FE54
:1035200081915F01B70190E025D131103A94F1E02B
:103530004F1A51084114510479F7DEC0843611F056
:10354000893631F5F80127FF07C0608171818281DA
:1035500093810C5F1F4F08C060817181072E000CA2
:10356000880B990B0E5F1F4F2F76722E97FF09C0A5
:1035700090958095709561957F4F8F4F9F4F2068F4
:10358000722E2AE030E0A4012DD1A82EA81843C045
:10359000853729F42F7EB22E2AE030E025C0F22FA5
:1035A000F97FBF2E8F36C1F018F4883579F0ADC0A1
:1035B000803719F0883721F0A8C02F2F2061B22E54
:1035C000B4FE0DC08B2D8460B82E09C024FF0AC044
:1035D0009F2F9660B92E06C028E030E005C020E19C
:1035E00030E002C020E132E0F801B7FE07C06081A0
:1035F0007181828193810C5F1F4F06C06081718150
:1036000080E090E00E5F1F4FA401ECD0A82EA81818
:10361000FB2DFF777F2E76FE0BC0372D3E7FA51446
:1036200050F474FE0AC072FC08C0372D3E7E05C0FF
:10363000BA2C372D03C0BA2C01C0B52C34FF0DC0F5
:10364000FE01EA0DF11D8081803311F4397E09C03D
:1036500032FF06C0B394B39404C0832F867809F078
:10366000B39433FD12C030FF06C05A2CB31418F4C3
:10367000530C5B18B32CB31460F4B70180E290E0F4
:103680003C8778D0B3943C85F6CFB31410F43B1844
:1036900001C0312C34FF11C0B70180E390E03C87BA
:1036A00069D03C8532FF16C031FD03C088E790E049
:1036B00002C088E590E0B7010CC0832F867851F0F6
:1036C00031FF02C08BE201C080E237FD8DE2B7011D
:1036D00090E050D0A51430F4B70180E390E04AD0D8
:1036E0005A94F8CFAA94F401EA0DF11D8081B70134
:1036F00090E040D0A110F6CF332009F45DCEB701A1
:1037000080E290E037D03A94F7CFF7018681978135
:1037100002C08FEF9FEF2C960FB6F894DEBF0FBE5E
:10372000CDBFDF91CF911F910F91FF90EF90DF9070
:10373000CF90BF90AF909F908F907F906F905F9051
:103740004F903F902F900895FC010590615070407C
:103750000110D8F7809590958E0F9F1F0895FC015A
:103760006150704001900110D8F7809590958E0FB0
:103770009F1F08950F931F93CF93DF93FB01238126
:1037800021FD03C08FEF9FEF28C022FF16C04681A6
:103790005781248135814217530744F4A081B181B8
:1037A0009D012F5F3F4F318320838C93268137818A
:1037B0002F5F3F4F3783268310C0EB01092F182F4F
:1037C0000084F185E02D1995892BE1F68E819F818A
:1037D00001969F838E83812F902FDF91CF911F9130
:1037E0000F910895FA01AA27283051F1203181F173
:1037F000E8946F936E7F6E5F7F4F8F4F9F4FAF4FF9
:10380000B1E03ED0B4E03CD0670F781F891F9A1F0B
:10381000A11D680F791F8A1F911DA11D6A0F711DBF
:10382000811D911DA11D20D009F468943F912AE0CB
:10383000269F11243019305D3193DEF6CF010895B3
:10384000462F4770405D4193B3E00FD0C9F7F6CFE4
:10385000462F4F70405D4A3318F0495D31FD4052AC
:10386000419302D0A9F7EACFB4E0A6959795879542
:1038700077956795BA95C9F7009761057105089521
:103880009B01AC010A2E06945795479537952795CD
:10389000BA95C9F7620F731F841F951FA01D089565
:1038A00040D008F481E00895E89409C097FB3EF405
:1038B00090958095709561957F4F8F4F9F4F99237D
:1038C000A9F0F92F96E9BB279395F69587957795FB
:1038D0006795B795F111F8CFFAF4BB0F11F460FFBB
:1038E0001BC06F5F7F4F8F4F9F4F16C0882311F013
:1038F00096E911C0772321F09EE8872F762F05C027
:10390000662371F096E8862F70E060E02AF09A95C1
:10391000660F771F881FDAF7880F9695879597F9B6
:103920000895990F0008550FAA0BE0E8FEEF161650
:103930001706E807F907C0F012161306E407F507A3
:1039400098F0621B730B840B950B39F40A2661F017
:10395000232B242B252B21F408950A2609F4A140BA
:10396000A6958FEF811D811D08950BD078C069D079
:1039700028F06ED018F0952309F05AC05FC01124CA
:10398000A2C07ED0A0F3959FD1F3950F50E0551FB4
:10399000629FF001729FBB27F00DB11D639FAA27A4
:1039A000F00DB11DAA1F649F6627B00DA11D661FF3
:1039B000829F2227B00DA11D621F739FB00DA11D14
:1039C000621F839FA00D611D221F749F3327A00DCE
:1039D000611D231F849F600D211D822F762F6A2F6A
:1039E00011249F5750408AF0E1F088234AF0EE0FEF
:1039F000FF1FBB1F661F771F881F91505040A9F7FC
:103A00009E3F510570F014C05EC05F3FECF3983EDE
:103A1000DCF3869577956795B795F795E7959F5F62
:103A2000C1F7FE2B880F911D9695879597F90895FC
:103A300097F99F6780E870E060E008959FEF80EC61
:103A4000089500240A941616170618060906089504
:103A500000240A9412161306140605060895092E6A
:103A60000394000C11F4882352F0BB0F40F4BF2BD9
:103A700011F460FF04C06F5F7F4F8F4F9F4F089519
:103A800057FD9058440F551F59F05F3F71F047950F
:103A9000880F97FB991F61F09F3F79F087950895F4
:103AA000121613061406551FF2CF4695F1DF08C013
:103AB000161617061806991FF1CF86957105610530
:103AC00008940895E894BB2766277727CB0197F9D8
:103AD000089509D0A59F900DB49F900DA49F800DCF
:103AE000911D11240895A29FB001B39FC001A39F0F
:103AF000700D811D1124911DB29F700D811D112427
:103B0000911D08955058BB27AA270ED0A8CF99DF42
:103B100030F09EDF20F031F49F3F11F41EF48ECF81
:103B20000EF4E095E7FB84CFE92FAADF80F3BA1704
:103B3000620773078407950718F071F49EF5C2CFEA
:103B40000EF4E0950B2EBA2FA02D0B01B9019001B8
:103B50000C01CA01A0011124FF27591B99F0593FFC
:103B600050F4503E68F11A16F040A22F232F342F44
:103B70004427585FF3CF469537952795A795F04092
:103B80005395C9F77EF41F16BA0B620B730B840BA7
:103B9000BAF09150A1F0FF0FBB1F661F771F881F5F
:103BA000C2F70EC0BA0F621F731F841F48F48795B7
:103BB00077956795B795F7959E3F08F0B3CF9395A6
:103BC000880F08F09927EE0F9795879508950CD0E8
:103BD00046CF3EDF40F035DF30F021F45F3F19F093
:103BE00027CF511170CF2ACF4BDF98F39923C9F318
:103BF0005523B1F3951B550BBB27AA2762177307F3
:103C0000840738F09F5F5F4F220F331F441FAA1FA6
:103C1000A9F333D00E2E3AF0E0E830D09150504066
:103C2000E695001CCAF729D0FE2F27D0660F771F14
:103C3000881FBB1F261737074807AB07B0E809F0F6
:103C4000BB0B802DBF01FF2793585F4F2AF09E3F8B
:103C5000510568F0EDCE37CF5F3FECF3983EDCF3D3
:103C6000869577956795B795F7959F5FC9F7880F04
:103C7000911D9695879597F90895E1E0660F771F56
:103C8000881FBB1F621773078407BA0720F0621BE7
:103C9000730B840BBA0BEE1F88F7E095089504D0E0
:103CA0006894B11110CF0895F3DE88F09F5790F01B
:103CB000B92F9927B751A0F0D1F0660F771F881F51
:103CC000991F1AF0BA95C9F712C0B13081F0FADE27
:103CD000B1E00895F7CE672F782F8827B85F39F0C5
:103CE000B93FCCF3869577956795B395D9F73EF4B0
:103CF00090958095709561957F4F8F4F9F4F089558
:103D000010DE08F48FEF08950CDE880B990B0895F0
:103D1000DB018F939F93DDDEBF91AF91A29F800D5A
:103D2000911DA39F900DB29F900D1124089597FBB4
:103D3000072E16F4009406D077FD08D06CD007FC4F
:103D400005D03EF4909581959F4F089570956195AB
:103D50007F4F0895A1E21A2EAA1BBB1BFD010DC0C7
:103D6000AA1FBB1FEE1FFF1FA217B307E407F5072B
:103D700020F0A21BB30BE40BF50B661F771F881F07
:103D8000991F1A9469F760957095809590959B019D
:103D9000AC01BD01CF010895EE0FFF1F881F8BBF3F
:103DA0000790F691E02D19940F93083090F0982F1A
:103DB000872F762F652F542F432F322F222708501D
:103DC000F4CF220F331F441F551F661F771F881F14
:103DD000991F0A95B2F70F91089597FB10F8169462
:103DE00000080F93083098F00850232F342F452FE8
:103DF000562F672F782F892F902DF4CF0594979504
:103E000087957795679557954795379527950A959F
:103E1000AAF70F910895AA1BBB1B51E107C0AA1F67
:103E2000BB1FA617B70710F0A61BB70B881F991F5B
:103E30005A95A9F780959095BC01CD01089581E030
:103E400090E0F8941AC0FB0151915523A9F0BF01ED
:103E5000DC014D9145174111E1F759F4CD01019075
:103E6000002049F04D9140154111C9F3FB0141116A
:103E7000EFCF81E090E00197089511E0CDE1D1E02E
:103E800000E005C0802FFE0187DF2196011DCE31A5
:0C3E9000D10780E00807B1F7F894FFCFDD
:103E9C00001824243C24240001000100050000002B
:103EAC00700200382424382424000100010005008D
:103EBC000100010001000000007C10101010100027
:103ECC0005000500010005000100010001000100D2
:103EDC000100050005000000000044AA9282820047
:103EEC0005000100050000000100010001000100B7
:103EFC0001000100050001000500010000000100A7
:103F0C0000000A000000003844043840407C0002E5
:103F1C00023A0708370A383C3D1A1B1C1D1E1F208D
:103F2C0021222423262528272A292C2B2D02030481
:103F3C004445111013121415181617424340413FF3
:103F4C003E09060B05390C3B3640064C0420035841
:103F5C0002C2012C01C80082000080C0E0F0F8FC15
:103F6C00FEFF010204081020408000080109020A2B
:103F7C00030B040C050D060E070F00000000A80132
:103F8C004707720150016401EE0100000000670355
:103F9C00470700000000DB0247072F034603C2025D
:103FAC00DA02416461667275697420465820536F59
:103FBC00756E6420426F6172640053465820626FC4
:103FCC0061726420666F756E64004D4F44455F549A
:103FDC00455354004D4F44455F324F4E324F464689
:103FEC000052435F4D4F44455F41524D4544004D97
:103FFC004F44455F5243004D4F44455F4D5554452A
:10400C0000564F4C554D4520444F574E002D004601
:10401C0061696C656420746F2061646A75737400E7
:10402C00564F4C554D452055500052435F4D4F4413
:10403C00455F535441525445440052435F4D4F44E5
:10404C00455F574149545F544F5F434C45415200C3
:10405C0052435F4D4F44455F535441525445445F66
:10406C004255545F494E5F4149520052435F4D4F98
:10407C0044455F454E444544006C6F776573743A14
:10408C0000202F20006E616E00696E66006F7666F0
:10409C00000D0A0053656E736F72733A2000204C4A
:1040AC006F776573743A00204C656E3A002053703C
:1040BC006565643A0020447572286D73293A0020B6
:1040CC00546F74616C3A00474F4F442020202057A6
:1040DC004156004661696C656420746F20706C6198
:1040EC007920747261636B3F0056455259474F4FAC
:1040FC00445741560043454C454252415457415652
:10410C00004E6F7420666F756E64002B00706C61CE
:0E411C007900434C49434B3020205741560058
:020000023000CC
:10E000000D9489F10D94B2F10D94B2F10D94B2F129
:10E010000D94B2F10D94B2F10D94B2F10D94B2F1F0
:10E020000D94B2F10D94B2F10D94B2F10D94B2F1E0
:10E030000D94B2F10D94B2F10D94B2F10D94B2F1D0
:10E040000D94B2F10D94B2F10D94B2F10D94B2F1C0
:10E050000D94B2F10D94B2F10D94B2F10D94B2F1B0
:10E060000D94B2F10D94B2F10D94B2F10D94B2F1A0
:10E070000D94B2F10D94B2F10D94B2F10D94B2F190
:10E080000D94B2F10D94B2F10D94B2F10D94B2F180
:10E090000D94B2F10D94B2F10D94B2F10D94B2F170
:10E0A0000D94B2F10D94B2F10D94B2F10D94B2F160
:10E0B0000D94B2F10D94B2F10D94B2F10D94B2F150
:10E0C0000D94B2F10D94B2F10D94B2F10D94B2F140
:10E0D0000D94B2F10D94B2F10D94B2F10D94B2F130
:10E0E0000D94B2F141546D656761323536300041AF
:10E0F000726475696E6F206578706C6F72657220DE
:10E1000073746B3530305632206279204D4C530099
:10E11000426F6F746C6F616465723E004875683F52
:10E1200000436F6D70696C6564206F6E203D200048
:10E130004350552054797065202020203D20005FF9
:10E140005F4156525F415243485F5F3D2000415658
:10E1500052204C696243205665723D20004743437C
:10E160002056657273696F6E203D20004350552024
:10E1700049442020202020203D20004C6F7720663D
:10E18000757365202020203D20004869676820665F
:10E190007573652020203D200045787420667573D6
:10E1A00065202020203D20004C6F636B2066757336
:10E1B000652020203D20004D617220203720323024
:10E1C000313300312E362E3800342E332E350056A2
:10E1D00023202020414444522020206F7020636F70
:10E1E00064652020202020696E73747275637469E1
:10E1F0006F6E2061646472202020496E74657272B3
:10E20000757074006E6F20766563746F7200726A49
:10E210006D702020006A6D70200057686174207056
:10E220006F72743A00506F7274206E6F7420737541
:10E2300070706F72746564004D7573742062652030
:10E2400061206C6574746572002000577269747483
:10E25000696E672045450052656164696E672045B7
:10E26000450045452065727220636E743D00504F35
:10E27000525400303D5A65726F2061646472003FF1
:10E280003D43505520737461747300403D454550C3
:10E29000524F4D207465737400423D426C696E6B41
:10E2A000204C454400453D44756D70204545505215
:10E2B0004F4D00463D44756D7020464C415348001B
:10E2C000483D48656C70004C3D4C69737420492F83
:10E2D0004F20506F72747300513D51756974005234
:10E2E0003D44756D702052414D00563D73686F7707
:10E2F00020696E7465727275707420566563746FF0
:10E30000727300593D506F727420626C696E6B00BD
:10E310002A0011241FBECFEFD1E2DEBFCDBF01E046
:10E320000CBF12E0A0E0B2E0EEE1FDEF03E00BBFB6
:10E3300002C007900D92A030B107D9F712E0A0E01B
:10E34000B2E001C01D92AE30B107E1F70F9460F367
:10E350000D948DFE01E20EBF0FEF0DBF11241FBE05
:10E360000D9460F30D9400F020E030E040ED57E0B4
:10E3700005C0FA013197F1F72F5F3F4F2817390792
:10E38000C0F308959C01260F311DC901A0E0B0E043
:10E390002F5F3F4FABBFFC018791882361F08093D3
:10E3A000C6008091C00086FFFCCF8091C0008064D1
:10E3B0008093C000EACF08958DE08093C6008091DD
:10E3C000C00086FFFCCF8091C00080648093C000B5
:10E3D0008AE08093C6008091C00086FFFCCF8091C8
:10E3E000C00080648093C00008950F94C2F10F9420
:10E3F000DCF10895FC019081992359F09093C600B7
:10E400008091C00086FFFCCF8091C0008064809323
:10E41000C0003196992379F70895282F982F929567
:10E420009F70892F805D8A3308F0895F8093C600D2
:10E430008091C00086FFFCCF8091C00080648093F3
:10E44000C000822F8F70982F905D9A3308F0995FEB
:10E450009093C6008091C00086FFFCCF8091C000E1
:10E4600080648093C00008959C01FB01853691056E
:10E470001CF46330710594F0C90164E670E00F94F8
:10E480002EFE605D7F4F6093C6008091C00086FFC6
:10E49000FCCF8091C00080648093C0002B30310598
:10E4A00014F43297B4F0C90164E670E00F942EFEC4
:10E4B0006AE070E00F942EFE605D7F4F6093C600AF
:10E4C0008091C00086FFFCCF8091C0008064809363
:10E4D000C000C9016AE070E00F942EFEC0968093E0
:10E4E000C6008091C00086FFFCCF8091C000806490
:10E4F0008093C00008951F93182F8EE692EE60E07F
:10E500000F94C2F11093C6008091C00086FFFCCF2B
:10E510008091C00080648093C0000F94DCF11F9153
:10E5200008952F923F924F925F926F927F928F92B7
:10E530009F92AF92BF92CF92DF92EF92FF920F9392
:10E540001F93DF93CF93CDB7DEB762970FB6F894E2
:10E55000DEBF0FBECDBF382E622ECA01DB015C01CB
:10E560006D01772420E2222E2E010894411C511CBB
:10E570008BC081E0A81680E0B80681E0C80680E084
:10E58000D80628F0C601AA27BB270F940DF2BB2797
:10E59000AD2D9C2D8B2D0F940DF28A2D0F940DF225
:10E5A0002092C6008091C00086FFFCCF8091C00001
:10E5B00080648093C0009DE29093C6008091C0006B
:10E5C00086FFFCCF8091C00080648093C0002092C1
:10E5D000C6008091C00086FFFCCF8091C00080649F
:10E5E0008093C00019828601750188249924A1E0D6
:10E5F0003A1651F03A1620F0B2E03B1661F409C029
:10E600000BBFF701779007C0C7010F9477FE782EF4
:10E6100002C0F7017080872D0F940DF22092C60082
:10E620008091C00086FFFCCF8091C0008064809301
:10E63000C000872D8052F401EF70F0708F3520F408
:10E64000E40DF51D708204C0E40DF51D8EE280839B
:10E650000894E11CF11C011D111D0894811C911CE2
:10E6600090E18916910409F0C2CF80E190E0A0E02A
:10E67000B0E0A80EB91ECA1EDB1E198AC2010F9493
:10E68000FAF10F94DCF16A94662009F072CF629679
:10E690000FB6F894DEBF0FBECDBFCF91DF911F91B3
:10E6A0000F91FF90EF90DF90CF90BF90AF909F9031
:10E6B0008F907F906F905F904F903F902F90089534
:10E6C0002F923F924F925F926F927F928F929F9282
:10E6D000AF92BF92CF92DF92EF92FF920F931F9370
:10E6E000DF93CF93CDB7DEB7CD53D1400FB6F894BB
:10E6F000DEBF0FBECDBF01E20EBF0FEF0DBF94B75F
:10E70000F894A89514BE80916000886180936000A1
:10E7100010926000789493FF05C0E0910002F091A0
:10E7200001021995279A2F9A8091C00082608093E8
:10E73000C00080E18093C40088E18093C1000000A4
:10E74000EE24FF24870144E0A42EB12CCC24DD2448
:10E7500024C0C5010197F1F70894E11CF11C011DCB
:10E76000111D21E2E2162EE4F20620E0020720E06D
:10E77000120718F031E0C32ED12CC801B70127ECE5
:10E780003BE140E050E00F9441FE611571058105C9
:10E79000910519F485B1805885B98091C00087FD35
:10E7A00003C0C114D104A9F2A6014F5F5F4FC25E3E
:10E7B000DE4F59834883CE51D140C25EDE4F8881FF
:10E7C0009981CE51D140019711F00D9410FEC05D9A
:10E7D000DE4F19821882C053D14060E0C15DDE4F28
:10E7E0001882CF52D14088249924C35DDE4F19820C
:10E7F0001882CD52D140C05EDE4F188219821A8233
:10E800001B82C052D140CE5CDE4F188219821A8220
:10E810001B82C253D140EE24FF2487010BBFF701B6
:10E8200007911691C45CDE4F19830883CC53D14005
:10E830000D940BFEC25EDE4F28813981CE51D1404E
:10E840002130310509F52091C600C25EDE4F1982E4
:10E850001882CE51D14022C02F5F3F4F4F4F5F4FA4
:10E86000213082E138078AE7480780E0580780F0C6
:10E87000C45CDE4FE881F981CC53D140EF5FFF4F9C
:10E8800019F0EE27FF27099420E030E040E050E047
:10E890008091C00087FFE0CF2091C600C35DDE4FAE
:10E8A00048815981CD52D1404F5F5F4FC35DDE4FEC
:10E8B00059834883CD52D140213209F063C64A3092
:10E8C000510508F05FC60894811C911C53E0851621
:10E8D000910409F059C600E010E018C081E280936D
:10E8E000C6008091C00086FFFCCF8091C00080648C
:10E8F0008093C0002F5F3F4F2931310579F70F9486
:10E90000DCF10F5F1F4F0530110519F020E030E0FA
:10E91000E5CF10920A0210920B0210920C02109294
:10E920000D02109206021092070210920802109235
:10E930000902109202021092030210920402109235
:10E9400005028FEE90EE60E00F94F5F180E191EE1C
:10E9500060E00F94C2F18091C00087FFFCCF9091DE
:10E96000C600903608F09F759032B8F09093C600BC
:10E970008091C00086FFFCCF8091C00080648093AE
:10E98000C000A0E2A093C6008091C00086FFFCCF2B
:10E990008091C00080648093C000983409F4D7C18E
:10E9A0009934B8F4923409F459C1933458F490333B
:10E9B00019F1903308F4E3C59F33A1F1903409F0C5
:10E9C000DEC5BDC0953409F470C1963409F0D7C5D1
:10E9D00098C1923509F42BC2933538F49C3409F46C
:10E9E000F5C1913509F0CBC518C2963509F445C279
:10E9F000993509F0C4C567C483E792EE62E00F94CD
:10EA0000F5F110920602109207021092080210927D
:10EA1000090210920A0210920B0210920C0210923C
:10EA20000D0213C18FE792EE62E00F94F5F18FEEC5
:10EA300090EE60E00F94F5F181E291EE60E00F94CA
:10EA4000C2F187EB91EE60E00F94F5F180E391EE77
:10EA500060E00F94C2F184EE90EE60E00F94F5F167
:10EA60008FE391EE60E00F94C2F186E090E061E008
:10EA700070E00F9434F20F94DCF18DE591EE60E0DC
:10EA80000F94C2F189EC91EE60E00F94F5F18EE401
:10EA900091EE60E00F94C2F183EC91EE60E00F9490
:10EAA000F5F18CE691EE60E00F94C2F18EE10F94E7
:10EAB0000DF288E90F940DF281E00F940DF20F949E
:10EAC000DCF18BE791EE60E00F94C2F119E0E0E039
:10EAD000F0E010935700E4918E2F0F940DF20F94F5
:10EAE000DCF18AE891EE60E00F94C2F1E3E0F0E03F
:10EAF00010935700E4918E2F0F940DF20F94DCF1D8
:10EB000089E991EE60E00F94C2F1E2E0F0E0109349
:10EB10005700E4918E2F0F940DF20F94DCF188EAE8
:10EB200091EE60E00F94C2F1E1E0F0E01093570045
:10EB30001491812F0F940DF20F94DCF107CF8BE825
:10EB400092EE62E00F94F5F18BE492EE60E00F94A8
:10EB5000F5F10F94DCF100E010E019C0C8016F2D51
:10EB60000F947FFEFF2031F489E492EE60E00F9471
:10EB7000C2F10BC0F092C6008091C00086FFFCCFAE
:10EB80008091C00080648093C0000F5F1F4FC80158
:10EB900081519F41A0E0B0E0ABBFFC01F790BAE229
:10EBA000FB1621F0E2E000301E07C1F60F94DCF105
:10EBB0000F94DCF187E592EE60E00F94F5F10F948D
:10EBC000DCF1CC24DD2400E010E01EC0C8010F946D
:10EBD00077FEF82E882331F489E492EE60E00F94FA
:10EBE000C2F10BC08093C6008091C00086FFFCCFAD
:10EBF0008091C00080648093C000FE1419F00894D6
:10EC0000C11CD11C0F5F1F4FC80181519F41A0E063
:10EC1000B0E0ABBFFC01E790FAE2EF1621F022E092
:10EC20000030120799F60F94DCF10F94DCF182E6C4
:10EC300092EE60E00F94C2F1C60161E070E00F94C3
:10EC400034F20F94DCF10F94DCF110920202109276
:10EC50000302109204021092050278CE89E992EE26
:10EC600062E00F94F5F1279A2F9A16C02F9880E052
:10EC700090E0E0EDF7E03197F1F7019684369105E9
:10EC8000C1F72F9A80E090E0E0EDF7E03197F1F7DF
:10EC9000019684369105C1F78091C00087FFE6CFC9
:10ECA0008091C00087FFFCCF64C485EA92EE62E0E9
:10ECB0000F94F5F140910202509103026091040219
:10ECC0007091050281E020E10F9491F2809102029F
:10ECD00090910302A0910402B091050280509F4FD1
:10ECE000AF4FBF4F8093020290930302A0930402A0
:10ECF000B093050280509041A040B04008F426CE69
:10ED0000A4CF83EB92EE62E00F94F5F140910602FE
:10ED100050910702609108027091090280E020E1A1
:10ED20000F9491F28091060290910702A09108023F
:10ED3000B091090280509F4FAF4FBF4F80930602A2
:10ED400090930702A0930802B0930902FFCD80ECD4
:10ED500092EE62E00F94F5F183E792EE60E00F949B
:10ED6000F5F18FE792EE60E00F94F5F18BE892EE0B
:10ED700060E00F94F5F189E992EE60E00F94F5F10F
:10ED800085EA92EE60E00F94F5F183EB92EE60E09D
:10ED90000F94F5F180EC92EE60E00F94F5F187ECC2
:10EDA00092EE60E00F94F5F188ED92EE60E00F9442
:10EDB000F5F18FED92EE60E00F94F5F18AEE92EEB0
:10EDC00060E00F94F5F183E093EEBDCD87EC92EE19
:10EDD00062E00F94F5F181E40F947BF282E40F94EA
:10EDE0007BF283E40F947BF284E40F947BF285E45E
:10EDF0000F947BF286E40F947BF287E40F947BF20E
:10EE000088E40F947BF28AE40F947BF28BE40F94F6
:10EE10007BF28CE40F947BF299CD88ED92EE62E068
:10EE20000F94F5F1772473948824992409C48FED05
:10EE300092EE62E00F94F5F140910A0250910B02BC
:10EE400060910C0270910D0282E020E10F9491F22A
:10EE500080910A0290910B02A0910C02B0910D02D8
:10EE600080509F4FAF4FBF4F80930A0290930B0289
:10EE7000A0930C02B0930D0269CD8AEE92EE62E08F
:10EE80000F94F5F184EE90EE60E00F94F5F18FECC5
:10EE900091EE60E00F94F5F1662477244301CC5D98
:10EEA000DE4F19821882C452D140D401C301B695F5
:10EEB000A79597958795CA5DDE4F88839983AA8326
:10EEC000BB83C652D140CC5DDE4FA881B981C4520C
:10EED000D1401196CC5DDE4FB983A883C452D14096
:10EEE000CD0162E070E00F9434F2B0E2B093C6005E
:10EEF0008091C00086FFFCCF8091C0008064809329
:10EF0000C000EDE2E093C6008091C00086FFFCCF18
:10EF10008091C00080648093C000F0E2F093C6004E
:10EF20008091C00086FFFCCF8091C00080648093F8
:10EF3000C000CA5DDE4FE880F9800A811B81C6529D
:10EF4000D140BB27A12F902F8F2D0F940DF2CA5DBA
:10EF5000DE4F8881C652D1400F940DF2B0E2FB2EF5
:10EF6000F092C6008091C00086FFFCCF8091C00067
:10EF700080648093C0000DE30093C6008091C000C0
:10EF800086FFFCCF8091C00080648093C00010E2B7
:10EF90001093C6008091C00086FFFCCF8091C00016
:10EFA00080648093C0008BBEF3012791C65DDE4F65
:10EFB0002883CA52D140A22EBB24CC24DD2408943D
:10EFC000611C711C811C911C8BBEF3018791282E42
:10EFD0003324442455240894611C711C811C911C09
:10EFE0008BBEF3013791C55DDE4F3883CB52D140E4
:10EFF0000894611C711C811C911C8BBEF30147910C
:10F00000C45DDE4F4883CC52D140ADEFEA2EAFEF66
:10F01000FA2EAFEF0A2FAFEF1A2F6E0C7F1C801E57
:10F02000911E142D032DF22CEE24EA0CFB1C0C1D5A
:10F030001D1D0F940DF220E22093C6008091C000A8
:10F0400086FFFCCF8091C00080648093C000C65DC5
:10F05000DE4F8881CA52D1400F940DF230E23093D6
:10F06000C6008091C00086FFFCCF8091C000806404
:10F070008093C000C45DDE4F8881CC52D1400F9494
:10F080000DF240E24093C6008091C00086FFFCCFA5
:10F090008091C00080648093C000C55DDE4F888190
:10F0A000CB52D1400F940DF250E25093C6008091A4
:10F0B000C00086FFFCCF8091C00080648093C000B8
:10F0C0008FEFE8168FEFF80680E0080780E018075A
:10F0D00031F484E092EE60E00F94C2F1DFC0D80119
:10F0E000C7018070907CA070B0708050904CA040A0
:10F0F000B040D1F52FEF3FE340E050E0E222F322B1
:10F1000004231523CA5DDE4FA880B980CA80DB8046
:10F11000C652D140AE0CBF1CC01ED11EAA0CBB1CD7
:10F12000CC1CDD1C8EE092EE60E00F94C2F1BB2798
:10F13000A12F902F8F2D0F940DF28E2D0F940DF285
:10F1400030E23093C6008091C00086FFFCCF8091F2
:10F15000C00080648093C0004EE34093C60080915D
:10F16000C00086FFFCCF87C08EE09EEFA0E0B0E03D
:10F17000E822F9220A231B239CE0E91694E9F90608
:10F1800090E0090790E0190709F088C0C45DDE4FE0
:10F19000A881CC52D140EA2EFF2400E010E0102FCD
:10F1A0000F2DFE2CEE24C55DDE4FB881CB52D14031
:10F1B000EB0EF11C011D111DD601C501817090706F
:10F1C000A070B070DC0199278827E80EF91E0A1F8D
:10F1D0001B1F20EF30E040E050E0A222B322C42207
:10F1E000D52241E1AA0CBB1CCC1CDD1C4A95D1F7F1
:10F1F000EA0CFB1C0C1D1D1D81E090E0A0E0B0E0BE
:10F20000282239224A225B2235E1220C331C441C7D
:10F21000551C3A95D1F7E20CF31C041D151D57013E
:10F220006801AA0CBB1CCC1CDD1C85E192EE60E0E1
:10F230000F94C2F1C801AA27BB270F940DF2BB2778
:10F24000A12F902F8F2D0F940DF28E2D0F940DF274
:10F2500090E29093C6008091C00086FFFCCF809121
:10F26000C00080648093C000AEE3A093C60080918C
:10F27000C00086FFFCCF8091C00080648093C000F6
:10F28000C601AA27BB270F940DF2BB27AD2D9C2DDD
:10F290008B2D0F940DF28A2D0F940DF20F94DCF14B
:10F2A000CC5DDE4FE881F981C452D140F99709F471
:10F2B0004DCBF4E0EF2EF12C012D112D6E0C7F1CA7
:10F2C000801E911EF2CD83E093EE62E00F94F5F183
:10F2D0008AE192EE60E00F94C2F18091C00087FF56
:10F2E000FCCF1091C6001F751093C6008091C0001E
:10F2F00086FFFCCF8091C00080648093C0000F9493
:10F30000DCF1812F81548A3108F036C1163409F4BA
:10F3100095C0173490F4133409F44EC0143430F40B
:10F320001134F1F0123409F01DC130C0143409F465
:10F3300059C0153409F016C16BC01A3409F4C4C0A1
:10F340001B3438F4173409F48FC0183409F00AC19B
:10F35000A1C01B3409F4D2C01C3409F003C1E8C0B9
:10F360008FEF81B90DC082B1809582B980E090E0C5
:10F37000E0EDF7E03197F1F70196883C9105C1F790
:10F380008091C00087FFEFCF12B8EFC08FEF84B934
:10F390000DC085B1809585B980E090E0E0EDF7E0A3
:10F3A0003197F1F70196883C9105C1F78091C00033
:10F3B00087FFEFCF15B8D9C08FEF87B90DC088B1DF
:10F3C000809588B980E090E0E0EDF7E03197F1F7C3
:10F3D0000196883C9105C1F78091C00087FFEFCF6F
:10F3E00018B8C3C08FEF8AB90DC08BB180958BB9A7
:10F3F00080E090E0E0EDF7E03197F1F70196883C8E
:10F400009105C1F78091C00087FFEFCF1BB8ADC059
:10F410008FEF8DB90DC08EB180958EB980E090E0F0
:10F42000E0EDF7E03197F1F70196883C9105C1F7DF
:10F430008091C00087FFEFCF1EB897C08FEF80BBD1
:10F440000DC081B3809581BB80E090E0E0EDF7E0F6
:10F450003197F1F70196883C9105C1F78091C00082
:10F4600087FFEFCF11BA81C08FEF83BB0DC084B38C
:10F47000809584BB80E090E0E0EDF7E03197F1F714
:10F480000196883C9105C1F78091C00087FFEFCFBE
:10F4900014BA6BC08FEF809301010FC080910201FD
:10F4A00080958093020180E090E0E0EDF7E03197F5
:10F4B000F1F70196883C9105C1F78091C00087FF64
:10F4C000EDCF1092020151C08FEF809304010FC065
:10F4D0008091050180958093050180E090E0E0ED4A
:10F4E000F7E03197F1F70196883C9105C1F78091DB
:10F4F000C00087FFEDCF1092050137C08FEF8093DA
:10F5000007010FC08091080180958093080180E079
:10F5100090E0E0EDF7E03197F1F70196883C910536
:10F52000C1F78091C00087FFEDCF109208011DC088
:10F530008FEF80930A010FC080910B01809580931B
:10F540000B0180E090E0E0EDF7E03197F1F70196F4
:10F55000883C9105C1F78091C00087FFEDCF1092E4
:10F560000B0103C085E292EEEEC98091C00087FFD7
:10F57000FCCF8091C600EAC988E392EEE4C98CE131
:10F5800091EEE1C988249924933011F1943028F444
:10F59000913089F09230B8F408C0953061F195301F
:10F5A000F0F0963009F048C043C02B3109F042C951
:10F5B00091E06BE13FC96227C15DDE4F2883CF52E6
:10F5C000D14092E037C9B22FA0E0622793E032C960
:10F5D000822F90E0A82BB92B622794E02BC92E3004
:10F5E00009F039C3622795E0C05DDE4F19821882A9
:10F5F000C053D1401FC9E1E0F0E0EC0FFD1FC05D3A
:10F60000DE4F08811981C053D140E00FF11F2083E4
:10F610000F5F1F4FC05DDE4F19830883C053D14079
:10F6200062270A171B0709F005C9D80196E002C92D
:10F63000261709F010C303C0973009F0FBC87724E0
:10F640009981933109F412C19431C8F4963009F4C8
:10F65000D8C0973050F4923009F406C1933009F4C1
:10F660006DC0913009F059C253C0913109F477C08F
:10F67000923108F0BBC0903109F04FC2F5C098310B
:10F6800009F487C0993150F4953109F4EFC09531F0
:10F6900008F4C6C1963109F040C2C2C19A3109F4DA
:10F6A0006CC09A3108F491C09B3109F45BC09D3164
:10F6B00009F033C29D81903359F48F81882311F46E
:10F6C0009EE11CC0813011F091E018C098E916C08D
:10F6D000892F807591F0903539F4E0E0F0E089E011
:10F6E0008093570094910AC0983539F4E3E0F0E034
:10F6F00089E080935700949101C090E01A821B82A8
:10F700008D818C831D829E831F8227E030E009C299
:10F710001A8288E08B8381E48C8386E58D8382E581
:10F720008E8389E48F8383E5888780E589878FE5E9
:10F730008A8782E38B872BE030E0F3C18A818139AD
:10F7400041F0823941F0803911F48FE005C080E04A
:10F7500003C082E001C08AE01A828B8344C0772410
:10F76000739482C08D81882311F48EE12CC0813086
:10F7700011F081E028C088E926C01A82E1E0F0E0BB
:10F7800089E08093570084918B831C8224E030E0D1
:10F79000C8C18B81803589F48C81883039F4E2E0EE
:10F7A000F0E089E08093570084910DC0E0E0F0E044
:10F7B00089E080935700849106C0E3E0F0E089E09F
:10F7C0008093570084911A82DFCF8D81836C99E0FA
:10F7D000E1E0F0E0082E90935700E89507B600FCB2
:10F7E000FDCF1A821B8223E030E09BC180EC8A832C
:10F7F000CE5CDE4F188219821A821B82C253D1401E
:10F800008EC18A8190E0A0E0B0E0582F44273327D2
:10F8100022278B8190E0A0E0B0E0DC0199278827C7
:10F82000282B392B4A2B5B2B8D8190E0A0E0B0E098
:10F83000282B392B4A2B5B2B8C8190E0A0E0B0E089
:10F84000BA2FA92F982F8827282B392B4A2B5B2BCF
:10F85000220F331F441F551FC05EDE4F288339839C
:10F860004A835B83C052D1401A8259C13A81C95C34
:10F87000DE4F3883C753D140CA5CDE4F1882C6536F
:10F88000D1408B81C82EDD24CA5CDE4F488159816E
:10F89000C653D140C42AD52A933109F082C0CE5C28
:10F8A000DE4F88819981AA81BB81C253D1408050AB
:10F8B000904CA340B04030F583E0CE5CDE4FE88052
:10F8C000F9800A811B81C253D140F70100935B008C
:10F8D00080935700E89507B600FCFDCFCE5CDE4F65
:10F8E000088119812A813B81C253D14000501F4FAA
:10F8F0002F4F3F4FCE5CDE4F088319832A833B8313
:10F90000C253D140C05EDE4F488159816A817B81FC
:10F91000C052D140DE011B9631E08C9111962C91A2
:10F9200011971296C75CDE4F2883C953D140C85C3B
:10F93000DE4F1882C853D14090E0C85CDE4FE881AA
:10F94000F981C853D1408E2B9F2B0C01FA01609393
:10F950005B0030935700E89511244E5F5F4F6F4F67
:10F960007F4F0EEFE02E0FEFF02ECE0CDF1CC114F8
:10F97000D10499F685E0C05EDE4F088119812A81A5
:10F980003B81C052D140F80120935B008093570027
:10F99000E89507B600FCFDCF81E180935700E8951C
:10F9A00035C0C05EDE4F88819981AA81BB81C0527B
