:100000001DC100004CC100004AC1000048C10000F1
:1000100046C1000044C1000042C1000040C10000D0
:100020003EC100002FC500002DC500002BC50000FB
:1000300036C10000BBC5000032C1000030C1000065
:100040002EC100002CC100002AC1000028C1000000
:1000500026C1000024C1000022C10000C9C4000064
:100060001EC10000B8C300008DC3000018C100000D
:1000700016C1000014C1000012C1000010C1000030
:100080000EC100000CC100000AC1000008C1000040
:1000900006C1000004C1000002C1000000C1000050
:1000A000FEC00000FCC00000FAC00000F8C0000064
:1000B000F6C00000F4C00000F2C00000F0C0000074
:1000C000EEC00000ECC00000EAC00000E8C0000084
:1000D000E6C00000E4C00000E2C00000E0C0000094
:1000E000DEC0000062026502540258025E029C02F9
:1000F00069026D02730277027B0281028502890226
:100100009C028F02930297022D2D2D3E20000000AD
:100110002100240027002A002D00300033000101B7
:100120000000040107010A0100000A0B02090C0D7E
:100130000E0807030401000000000000000000009A
:1001400000000000000000000000000000000000AF
:10015000000000001211100000000000000000006C
:1001600000000000000000000000000000006C6FB4
:100170006F703A2025640A00000022002500280044
:100180002B002E003100340002010000050108019F
:100190000B01000020002300260029002C002F0066
:1001A00032000001000003010601090105050505F3
:1001B000070508080808020202020A0A08080404DF
:1001C000040401010101010101010303030303030D
:1001D0000303040707070C0C0C0C0C0C0C0C02029C
:1001E000020206060606060606060B0B0B0B0B0B99
:1001F0000B0B010210202008081020401020408026
:1002000002010201080402010102040810204080DA
:100210008040201008040201800402018040201068
:1002200008040201080402010102040810204080B1
:100230000102040810204080A018961811241FBE47
:10024000CFEFD1E2DEBFCDBF00E00CBF29E0AEEBC7
:10025000B4E001C01D92A530B207E1F714E0A0E0C0
:10026000B2E0E8EDFEE300E00BBF02C007900D92A4
:10027000AE3BB107D9F711E0CDE1D1E000E006C017
:1002800021970109802FFE010E94EA1ECC31D1077F
:1002900080E00807A9F70E94560B0C945B1FB0CEB4
:1002A000FC01918D828D981761F0828DDF01A80F7E
:1002B000B11D5D968C91928D9F5F9F73928F90E0A0
:1002C00008958FEF9FEF0895FC01918D828D98170F
:1002D00031F0828DE80FF11D858D90E008958FEF4C
:1002E0009FEF0895FC01918D228D892F90E0805C15
:1002F0009F4F821B91098F73992708958BE795E093
:10030000F1DF21E0892B09F420E0822F0895FC0120
:10031000848DDF01A80FB11DA35ABF4F2C91848D8E
:1003200090E001968F739927848FA689B7892C93C3
:10033000A089B1898C9180648C93938D848D98135E
:1003400006C00288F389E02D80818F7D8083089527
:10035000EF92FF920F931F93CF93DF93EC0181E015
:10036000888F9B8D8C8D981305C0E889F9898081D1
:1003700085FD23C0F62E0B8D10E00F5F1F4F0F730E
:100380001127E02E8C8DE8120BC00FB607FCFACFB8
:10039000E889F989808185FFF5CFCE01B8DFF2CFFA
:1003A0008B8DFE01E80FF11DE35AFF4FF0820B8F9A
:1003B000EA89FB898081806207C0EE89FF896083BA
:1003C000E889F98980818064808381E090E0DF9111
:1003D000CF911F910F91FF90EF900895CF93DF93EE
:1003E000EC01888D8823C1F0EA89FB89808185FD35
:1003F00005C0A889B9898C9186FD0EC00FB607FC8F
:10040000F5CF808185FFF2CFA889B9898C9185FFCE
:10041000EDCFCE017CDFE8CFDF91CF91089580E072
:1004200090E0892B19F06ADF811125C080E090E00F
:10043000892B41F080E090E0892B21F00E940000A0
:1004400081111CC080E090E0892B41F080E090E0B9
:10045000892B21F00E940000811113C080E090E000
:10046000892BA1F080E090E0892B81F00E940000B0
:1004700081110AC008950E940000D8CF0E94000098
:10048000E1CF0E940000EACF0C940000089590E0B4
:10049000FC013197E231F10508F04EC08827EE5893
:1004A000FF4F8F4F0C94EA1E809180008F7703C01E
:1004B000809180008F7D80938000089580918000DE
:1004C000877FF9CF84B58F7702C084B58F7D84BDD7
:1004D00008958091B0008F7703C08091B0008F7D28
:1004E0008093B0000895809190008F7707C080912D
:1004F00090008F7D03C080919000877F8093900053
:1005000008958091A0008F7707C08091A0008F7D13
:1005100003C08091A000877F8093A0000895809100
:1005200020018F7707C0809120018F7D03C08091CB
:100530002001877F8093200108953FB7F894809130
:100540001B0590911C05A0911D05B0911E0526B5B7
:10055000A89B05C02F3F19F00196A11DB11D3FBFFB
:10056000BA2FA92F982F8827820F911DA11DB11D89
:10057000BC01CD0142E0660F771F881F991F4A9585
:10058000D1F708952091C0043091C104281739078C
:1005900071F49091BE048091BF04981741F0E091EE
:1005A000BE04F0E0EA52FB4F808190E008958FEFA7
:1005B0009FEF089508951F93CF93DF93DC015C961E
:1005C0002D913C915D972115310539F481E090E042
:1005D00013969C938E9312973DC05196ED91FC918A
:1005E000529750969C915097892F80951FB75E9691
:1005F0004C915E9741FB772770F941FD6095F89427
:100600004081772311F0492B01C048234083E90141
:100610002197F1F748E0508160FF02C0592B01C0DB
:1006200058235083E9012197F1F76695415099F7D6
:10063000772321F090818923808303C08081982BC8
:1006400090831FBF5C968D919C915D970197F1F708
:1006500021E030E0C901DF91CF911F9108952091F1
:10066000C0043091C1042817390769F48091BF0490
:100670002091BE0490E0805C9F4F821B910960E452
:1006800070E00C94B51E80E090E008952091C004C5
:100690003091C10428173907B9F49091BE048091B4
:1006A000BF04981789F0E091BE04F0E0EA52FB4FD6
:1006B00080812091BE0430E02F5F3F4F2F7333279E
:1006C0002093BE0490E008958FEF9FEF0895AF92BE
:1006D000BF92DF92EF92FF920F931F93CF93DF931E
:1006E000EC01D62EEE80FF80E114F10449F15C01AB
:1006F00089E5A80EB11CD5018C91811117C008E0C5
:1007000011E0F8016491611104C081E0D5018C937E
:100710000DC0D701ED91FC910190F081E02DC70152
:1007200019950F5F1F4F892B61F7EFCF8E819F8146
:10073000DC01ED91FC910190F081E02D6D2D19957A
:100740008C819D81DC01ED91FC910190F081E02D87
:100750006D2DDF91CF911F910F91FF90EF90DF9062
:10076000BF90AF901994CF93C82F8A3021F46DE0D9
:100770008BE795E0EDDD6C2F8BE795E0CF91E8CD31
:100780000E943D1F1F920F920FB60F9211240BB6BD
:100790000F922F933F934F935F936F937F938F931A
:1007A0009F93AF93BF93EF93FF938BE795E0AFDDFC
:1007B000FF91EF91BF91AF919F918F917F916F9139
:1007C0005F914F913F912F910F900BBE0F900FBEF5
:1007D0000F901F9018951F920F920FB60F92112431
:1007E0000BB60F922F938F939F93EF93FF93E0910C
:1007F0008B05F0918C058081E0919105F091920537
:1008000082FD12C09081809194058F5F8F7320913B
:100810009505821751F0E0919405F0E0E558FA4F04
:10082000958F8093940501C08081FF91EF919F91F6
:100830008F912F910F900BBE0F900FBE0F901F90B6
:100840001895CF93DF93282F30E0F901E85DFE4F34
:100850008491F901EE50FE4FD491F901E455FE4F19
:10086000C491CC2389F0811112DEEC2FF0E0EE0F61
:10087000FF1FEE56FE4FA591B491EC91ED2381E060
:1008800090E021F480E002C080E090E0DF91CF9121
:1008900008951F93CF93DF93282F30E0F901E85D8F
:1008A000FE4F8491F901EE50FE4FD491F901E455C9
:1008B000FE4FC491CC23C1F0162F8111E8DDEC2F3F
:1008C000F0E0EE0FFF1FE858FE4FA591B4918FB7EF
:1008D000F894111105C09C91ED2FE095E92302C019
:1008E000EC91ED2BEC938FBFDF91CF911F91089589
:1008F000CF93DF9390E0FC01EE50FE4F2491FC017A
:10090000E455FE4F8491882361F190E0880F991F90
:10091000FC01E25FFE4FC591D491FC01E858FE4F07
:10092000A591B491611109C09FB7F8948881209571
:1009300082238883EC912E230BC0623061F49FB731
:10094000F8943881822F809583238883EC912E2B15
:100950002C939FBF06C08FB7F894E8812E2B288375
:100960008FBFDF91CF9108958F929F92AF92BF92E8
:10097000CF92DF92EF92FF926B017C01DEDD4B01A3
:100980005C01C114D104E104F104E9F0D6DDDC011D
:10099000CB0188199909AA09BB09883E9340A10592
:1009A000B10578F321E0C21AD108E108F10888EE18
:1009B000880E83E0981EA11CB11CC114D104E1046F
:1009C000F10421F7DECFFF90EF90DF90CF90BF9042
:1009D000AF909F908F9008952FB7F894609117056E
:1009E000709118058091190590911A052FBF0895EF
:1009F0001F920F920FB60F9211242F933F938F9354
:100A00009F93AF93BF938091170590911805A09184
:100A10001905B0911A053091160523E0230F2D37E3
:100A200020F40196A11DB11D05C026E8230F0296F2
:100A3000A11DB11D209316058093170590931805ED
:100A4000A0931905B0931A0580911B0590911C0580
:100A5000A0911D05B0911E050196A11DB11D8093A9
:100A60001B0590931C05A0931D05B0931E05BF9117
:100A7000AF919F918F913F912F910F900FBE0F904B
:100A80001F9018951F920F920FB60F9211240BB65C
:100A90000F922F933F934F935F936F937F938F9317
:100AA0009F93AF93BF93EF93FF93E091C004F091B6
:100AB000C104309709F451C0968DA685B785858508
:100AC00091FF04C09C91892329F447C09C918923FC
:100AD00009F043C0A389B4899C91858980958923B5
:100AE0008C93868997890197F1F7608D718DA68522
:100AF000B785558538E020E0CB010197F1F7822FCB
:100B000090E095958795282F4C91452309F0206812
:100B1000315091F7868D81FD20958091BF0490E042
:100B200001968F7399273091BE04381749F0A09130
:100B3000BF04B0E0AA52BB4F2C938093BF0403C004
:100B4000868D8160868F828D938D0197F1F7A389C1
:100B5000B4899C918589892B8C93FF91EF91BF91EA
:100B6000AF919F918F917F916F915F914F913F9145
:100B70002F910F900BBE0F900FBE0F901F901895E6
:100B8000E091C004F091C104E817F90769F4A38962
:100B9000B4899C918589809589238C931092C10496
:100BA0001092C00481E0089580E008951F920F9292
:100BB0000FB60F9211240BB60F922F933F934F93C2
:100BC0005F936F937F938F939F93AF93BF93EF93B5
:100BD000FF938091190635DE20911D0630911E0687
:100BE0002F5F3F4F30931E0620931D0690911C06E9
:100BF000953618F096E09093180690911806943068
:100C0000C9F128F4923069F09330D1F05EC095308C
:100C100009F451C0963009F058C091E09093E9066C
:100C200051C0811152C020911D0630911E062436FC
:100C3000310508F442C01092E90610921C061CC04F
:100C4000813009F042C0E0911C0691E09E0F909324
:100C50001C06F0E020911D0630911E06EE0FFF1FCE
:100C6000E85EF94F3087278310921E0610921D060A
:100C700094E029C0811117C0E0911C0691E09E0FFD
:100C800090931C06F0E020911D0630911E06EE0F99
:100C9000FF1FE85EF94F3087278310921E061092DF
:100CA0001D0693E010C020911D0630911E062536CA
:100CB000310558F007C0811108C010921E0610922D
:100CC0001D0603C095E09093180690911B0699238A
:100CD000B1F081110AC080911A06882321F0809119
:100CE0001A0661E009C02F9A0AC080911A0688236B
:100CF00029F080911A0660E0CCDD01C02F98FF91A9
:100D0000EF91BF91AF919F918F917F916F915F9183
:100D10004F913F912F910F900BBE0F900FBE0F90F0
:100D20001F901895CF92DF92EF92FF92CF93DF93AF
:100D3000EC01072E000C880B990B0E947C1C6B01A8
:100D40007C0120E030E040E45FE30E94DB1C20E017
:100D500030E048E452E40E940D1E0E94751EC61742
:100D6000D707D4F020E030E040EA5FE3C701B601E6
:100D70000E94DB1C20E030E048E452E40E940D1E9B
:100D800020E030E040E85FE30E94A91D0E94751E4C
:100D900021E06C177D070CF420E0822F90E0DF91BA
:100DA000CF91FF90EF90DF90CF900895CF92DF9298
:100DB000EF92FF92CF93DF93EB01223160F5FC01BC
:100DC0008081813049F42770E22FF0E0EA54FD4F32
:100DD00098818081892B1EC081111DC0E22FE77090
:100DE000F0E0EA54FD4FC080D12CE12CF12CF4DD71
:100DF00024EF31E040E050E00E94C81EC701B60178
:100E00000E94A61EDC01CB0181709927AA27BB276F
:100E10002881822B8883DF91CF91FF90EF90DF9024
:100E2000CF900895F4D2811105C06BE873E08BE791
:100E300095E0DBC20895E8EBF2E028E030E0529163
:100E400042918417950714F4822F08952150310997
:100E5000B1F780E008950F931F93CF93DF93EC01D8
:100E600061E080E316DDB8DD28813981E6E4E29FA8
:100E7000A001E39F500D11248A01550F220B330B63
:100E8000DC01CB01800F911FA21FB31F80930109CA
:100E900090930209A0930309B0930409D09315021B
:100EA000C0931402DF91CF911F910F910895CF92BB
:100EB000DF92EF92FF920F931F93CF93DF930091F6
:100EC000FB061091FC06C0E0D0E086DDD801189644
:100ED0006D937D938D939C931B97D801ED91FC911D
:100EE0000680F781E02DC801199597FD04C08A306E
:100EF0009105B9F41EC070DDF801C084D184E2848C
:100F0000F384DC01CB018C199D09AE09BF09C480B3
:100F1000D580E680F7808C159D05AE05BF05E8F20B
:100F200008C0FE01E950F94F81872196C035D105EF
:100F300061F6FE01E950F94F11868091FB06909110
:100F4000FC06DC01ED91FC910084F185E02D199502
:100F50000D9759F48091FB069091FC06DC01ED9110
:100F6000FC910680F781E02D1995CE01DF91CF919C
:100F70001F910F91FF90EF90DF90CF9008955F92B7
:100F80006F927F928F929F92AF92BF92CF92DF9299
:100F9000EF92FF920F931F93CF93DF931DDD20916C
:100FA0008C02233051F4C2EED2E01C2F1E5E60E0B2
:100FB00089916FDC1C13FBCF61C00091EB0610918F
:100FC000EC062091ED063091EE060C5F1F4F2F4F7F
:100FD0003F4F06171707280739070CF04FC06093DB
:100FE000EB067093EC068093ED069093EE06C3E556
:100FF000D5E082EEE82E82E0F82E9EECC92E92E03B
:10100000D92E07E615E022E0B22E552453943BE496
:10101000832E912C42E1642E600EF80181918F01A4
:10102000811122C080918C028823F1F0F701A08009
:1010300060E08A2D2EDCF6017080872D02DC892B82
:1010400011F4188212C0588261E0F701808121DC1E
:10105000C4010197F1F7872DF4DB892B09F4B882DD
:1010600060E08A2D16DC01C0B8822196FFEFEF1AEE
:10107000FF0A8FEFC81AD80A6012CFCFDF91CF9145
:101080001F910F91FF90EF90DF90CF90BF90AF90A6
:101090009F908F907F906F905F900895CF93DF9394
:1010A000CDB7DEB72E970FB6F894DEBF0FBECDBF1B
:1010B00083EB93E09A8789871C861B8682E08C836A
:1010C0001E861D86AE014A5E5F4F6EE671E0CE0160
:1010D00001960E94CE192E960FB6F894DEBF0FBE71
:1010E000CDBFDF91CF9108950F931F93CF931092AF
:1010F0004B0510924C058C01C0E06C2F70E080E035
:1011000090E00E947A1C20E030E040E95FE30E941A
:101110000D1E0E94751EFB01E254FD4F8081F801F7
:1011200091918F019130B1F4282F30E0F90188308E
:1011300048F4EA54FD4F908180914B05892B8093B0
:101140004B0508C0E255FD4F808190914C05982BCE
:1011500090934C05CF5FC23181F6CF911F910F91D3
:101160000895E7E3F5E080E09191913019F08F5F09
:101170008231D1F70895E7E3F5E020E081918130F5
:1011800019F02F5F2231D1F731E1832F90E0FC017C
:10119000E95CFA4F4081413011F03150F6CFAC019B
:1011A000421B51099A0144E6429FC001439F900DA2
:1011B000112461E170E00E94B51ECB010895E3E5C2
:1011C000F5E082E18E0F9191913021F08E13FBCFEB
:1011D00081E0089580E008958F929F92AF92BF9230
:1011E0000F931F93CF93DF93CDB7DEB7A1970FB6C1
:1011F000F894DEBF0FBECDBF19A2423008F44AE01A
:101200008E010F5D1F4F842E912CA12CB12CA501B6
:1012100094010E94C81EE62FB901CA0101501109AC
:10122000EA3014F4E05D01C0E95CD801EC93232BB3
:10123000242B252B61F7B8018BE795E022D2A196EC
:101240000FB6F894DEBF0FBECDBFDF91CF911F91D7
:101250000F91BF90AF909F908F900895CF93DF93A1
:10126000682F70E080E090E04AE0B6DFEC0165EFC7
:1012700073E08BE795E005D28C0F9D1FDF91CF9136
:101280000895CF92DF92EF92FF92CF93DF936B019D
:101290007C01E0917B05F0917C050190F081E02DCF
:1012A0006DE28BE795E01995EC0166277727CB0176
:1012B0006C197D098E099F094AE08EDF8C0F9D1FF6
:1012C000DF91CF91FF90EF90DF90CF900895CF9373
:1012D000DF93BC01990F880B990B97FF02C0D1DFF8
:1012E00002C04AE079DFEC0165EF73E08BE795E03F
:1012F000C8D18C0F9D1FDF91CF910895682F70E0AA
:1013000080E090E04AE068CF8F929F92AF92BF92C8
:10131000CF92DF92EF92FF920F931F93CF93DF93C1
:10132000FC01C081D18120912B0530912C05C21781
:10133000D3070CF048C09E01220F331FE09129050E
:10134000F0912A05E20FF31F80809180C170DD27A4
:10135000F1E0CF27209719F404E610E002C00CE971
:101360001FEF7A015B016C01040F151FB801C40166
:10137000D9DC892B89F40E0D1F1DB801C401D2DC04
:10138000892B69F4B8016E0D7F1DC401CBDC892B5C
:10139000E9F023E030E005C021E030E002C022E0C7
:1013A00030E0F501808191810196821793073CF02E
:1013B000F50111821082F60180819181019691835D
:1013C0008083CE0105C081E090E002C08FEF9FEFE7
:1013D000DF91CF911F910F91FF90EF90DF90CF9011
:1013E000BF90AF909F908F9008950F931F93CF93CE
:1013F000DF93EC0146D18C0165EF73E0CE0141D162
:10140000800F911FDF91CF911F910F9108958091CF
:10141000FB069091FC06DC01ED91FC910480F581C6
:10142000E02D1995A091FB06B091FC06892B49F09F
:10143000ED91FC9111970680F781E02DCD01199572
:10144000E6CF65E374E0CD01D0DF31DD80E097E0E9
:101450000C94A919089515C1EF92FF920F931F9351
:10146000CF93DF9303E515E0C7E3D5E0FF24F394C2
:10147000EC2E82E1E80ED8018D918D01813099F535
:101480008881813079F18091FB069091FC06DC0126
:10149000ED91FC910480F581E02D1995A091FB065A
:1014A000B091FC06892B49F0ED91FC9111970680D3
:1014B000F781E02DCD011995E6CF64EA73E0CD0107
:1014C000CADF67E374E08091FB069091FC068DDF34
:1014D000EEDCEDDC63E474E080E097E00E94411F05
:1014E000892B59F0F8822196EC12C5CFDF91CF916C
:1014F0001F910F91FF90EF90089568E474E08BE7DF
:1015000095E073DFEFCFFF920F931F93CF93DF939D
:1015100000D000D0CDB7DEB78B01F92E6EE574E0B8
:101520008BE795E098DF1DDE21E030E0893010F098
:1015300020E030E0C901CBDE67E674E08BE795E0A0
:101540008ADF19DE18DE21E030E0CD9714F420E0C8
:1015500030E0C901BCDE61E774E08BE795E07BDF3A
:10156000809133059091340520912F0530913005FD
:10157000821B930B60DC72DE6DE774E08BE795E015
:101580006ADF802F90E0A3DE64E874E08BE795E0EB
:1015900062DF812F90E09BDE6CE874E08BE795E0E2
:1015A0005ADF8F2D5BDE80913305909134052091B9
:1015B0002F0530913005821B930B3DDC4FDE00235D
:1015C00019F0CFDD893048F4112351F0D4DDD3DD9B
:1015D000CD9734F463EB74E012C06AEA74E00FC094
:1015E000809133059091340520912F05309130057D
:1015F000821B930B20DC8F1538F467E974E08BE7CE
:1016000095E0F3DE80E006C062EA74E08BE795E0E7
:10161000ECDE81E026960FB6F894DEBF0FBECDBF9C
:10162000DF91CF911F910F91FF900895CF92DF929C
:10163000EF92FF920F931F93CF93DF936C017A0188
:101640008B01C0E0D0E0CE15DF0589F0D8016D91A7
:101650008D01D601ED91FC910190F081E02DC60144
:101660001995892B11F47E0102C02196ECCFC70198
:10167000DF91CF911F910F91FF90EF90DF90CF906E
:1016800008956115710579F0FB0101900020E9F7DB
:101690003197AF01461B570BDC01ED91FC910280A5
:1016A000F381E02D199480E090E00895CF93DF93CB
:1016B000CDB7DEB729970FB6F894DEBF0FBECDBF0A
:1016C000789484B5826084BD84B5816084BD85B51D
:1016D000826085BD85B5816085BD80916E00816029
:1016E00080936E00109281008091810082608093CF
:1016F00081008091810081608093810080918000D1
:101700008160809380008091B10084608093B100FB
:101710008091B00081608093B000809191008260E0
:1017200080939100809191008160809391008091DD
:1017300090008160809390008091A10082608093EE
:10174000A1008091A10081608093A1008091A00000
:1017500081608093A00080912101826080932101AB
:10176000809121018160809321018091200181601D
:101770008093200180917A00846080937A00809128
:101780007A00826080937A0080917A0081608093F1
:101790007A0080917A00806880937A001092C1006C
:1017A000E0918B05F0918C0582E08083E0918705C4
:1017B000F09188051082E0918905F0918A0580E119
:1017C000808310929305E0918F05F091900586E05B
:1017D0008083E0918D05F0918E058081806180830A
:1017E000E0918D05F0918E05808188608083E09185
:1017F0008D05F0918E05808180688083E0918D0554
:10180000F0918E0580818F7D808364EF71E080E0B0
:1018100090E0AAD861E080E36BD860E080E339D83B
:101820001092FD081092FC081092FB081092FA0822
:101830001092F9081092F8088DE991E09093FF0852
:101840008093FE088091EE0896EF980F943048F050
:101850002EEC280F243028F022EC280F283008F036
:1018600070C02DEB30E03093F9082093F8082BE995
:1018700031E03093FB082093FA082CE231E03093FA
:10188000FD082093FC08943070F02EEC280F2430D3
:1018900050F022EC280F283010F40C948C18A0E0A3
:1018A000B0E00C948E18A8E6B0E0E8E6F0E0208105
:1018B000943018F08E53883010F081E001C084E03D
:1018C000822B8C938091EE0896EF980F943058F00D
:1018D0002EEC280F243038F022EC280F283030F07E
:1018E00020E030E005C02BE630E002C02DE630E01D
:1018F0003093F6082093F508943010F49AEF0BC05B
:10190000823381F0833381F0843381F092EC980F3D
:10191000983070F492EC980F81E001C0880F9A958E
:10192000EAF707C088E005C084E003C082E001C098
:1019300081E08093F7088091FE089091FF0801975D
:10194000F1F78091FC089091FD08892B19F18091A5
:10195000C0049091C10418E0823E9107D9F000972D
:1019600009F00ED9809100098E7F809300091092B2
:10197000BF041092BE0482EE98E09093C10480935D
:10198000C004E091F508F091F60890818091F70885
:10199000892B808360E08091FF060E94490461E00A
:1019A0008091FF060E9478046AE070E080E090E099
:1019B0000E94B40460E08091FF060E94780468EE03
:1019C00073E080E090E00E94B40471DA70DA6EE1B6
:1019D00073E080E097E00E94411F892B09F438C62C
:1019E0006AEF70E080E090E00E94B40460DA5FDAB1
:1019F00066E373E08BE795E0F8DC14DA13DA12DAC9
:101A000061E08DE00E947804F89482E08093B00059
:101A10008093B10094E69093B3001092B20080934B
:101A2000700078948093180610921C068091190615
:101A300060E00E94780481E080931B0661E08DE005
:101A40000E947804EEECEE2EE2E0FE2EF2EEAF2ED7
:101A5000F2E0BF2E07E615E0680160E0D7018D9146
:101A60007D010E94780461E0F50181915F010E948F
:101A70007804D6011D926D01B1EEEB16B2E0FB06C3
:101A800061F78091EB069091EC06A091ED06B09184
:101A9000EE060A97A109B1098093EB069093EC0634
:101AA000A093ED06B093EE066ADAE3E5F5E081E097
:101AB0009191923011F0D8018C930F5F1F4FB5E0D8
:101AC000E636FB07A9F77DE8C72E72E0D72E05E9B9
:101AD00012E0F801F1908F0161E08F2D0E947804EF
:101AE00061E08F2D0E944904D601FD906D0161E0F7
:101AF0008F2D0E94780461E08F2D0E944904B2E08E
:101B00000D391B0731F7109273021092720281E0B7
:101B10008093770224E130E03093790220937802B9
:101B200080937A0284E080937D028CE092E093D9E6
:101B30001F9285E08F938EE691E09F938F93AEDAAC
:101B40000F900F900F900F9085E992E018E0180F1A
:101B5000188782EC94E0885F8987A7E3B5E0AC5EE4
:101B6000AF830DDA0E94EC040091EF061091F006AD
:101B70002091F1063091F2060D5E1F4F2F4F3F4F1F
:101B800006171707280739070CF0B2C06093EF0655
:101B90007093F0068093F1069093F206A0908A026B
:101BA000B0908B0265E9C62E62E0D62E01E0F50109
:101BB00011915F01612F617060278AE30E944904DF
:101BC000E12EF12CE094F094B70175956795617062
:101BD00087E00E944904B7017595679575956795EB
:101BE000617088E00E944904B70193E0759567959C
:101BF0009A95E1F7617087E30E944904B70124E0F8
:101C0000759567952A95E1F761708AE00E9449040D
:101C1000B70135E0759567953A95E1F7617088E30E
:101C20000E944904B70146E0759567954A95E1F72A
:101C300061708CE30E944904B701660F672F661F2D
:101C4000770B61708DE30E944904D601FD906D0110
:101C500061E08F2D0E94490462E070E080E090E036
:101C60000E94B40460E08F2D0E94490418851C1165
:101C70009ECF80918C0281113BC0E2ECF4E0119286
:101C800019851E13FCCF00E010E0202F40E062EC2D
:101C900074E0C8018D5A9A4F89D80F5F1F4F0830E2
:101CA000110599F700E010E028E0200F41E063EC17
:101CB00074E0C801855A9A4F79D80F5F1F4F0830DA
:101CC000110591F700E010E020E1200F42E064EC04
:101CD00074E0C8018D599A4F69D80F5F1F4F0830C3
:101CE000110591F782EC94E09093CC048093CB049F
:101CF000E0901402F0901502D7018D919C91892BF0
:101D000009F446C00E94EC044B015C01809101097A
:101D100090910209A0910309B091040988169906CF
:101D2000AA06BB06ACF1C7010296909315028093F8
:101D30001402F70182819381892B29F460E080E30A
:101D40000E94490425C080E30E94210461E0892BA0
:101D500009F060E080E30E944904D70112968D915A
:101D60009C91139726E4289FB001299F700D1124A0
:101D7000CB01770FAA0BBB0B880D991DAA1DBB1DAC
:101D80008093010990930209A0930309B093040979
:101D90008FE196E090932A058093290580911C0697
:101DA00090E090932C0580932B058091E90690E0BC
:101DB00090932E0580932D0580911806853009F0AB
:101DC0002DC28091210690912206885891098D3567
:101DD000910588F480911C06843041F4809123069B
:101DE000909124068097479708F452C480911C066E
:101DF000843408F034C480911C068A3108F452C03F
:101E000080911F0690912006843F914080F41092AB
:101E10002805109227058FEF9FEFDC0180932305A3
:101E200090932405A0932505B093260559C0809171
:101E300021069091220685974B97A0F5E5E2F6E002
:101E400082E090E0C12CD12C7601AC014F5F5F4F56
:101E500020911C0630E0421753075CF4DF01129713
:101E60002D913C91275031092730310508F457C492
:101E7000CA0101979595879590932805809327052A
:101E80000C972CF410922805109227050BC0C092D5
:101E90002305D0922405E0922505F092260584E0E2
:101EA00090E069C580911C068A3108F44CC080918D
:101EB0001F06909120068032934008F4A8CF8091AD
:101EC000210690912206C697869708F445C43BC028
:101ED000C0922305D0922405E0922505F0922605B4
:101EE0008BE090E048C520813181255231092B31AA
:101EF000310508F041C4CC0CDD1CEE1CFF1C6894BD
:101F0000C0F802963496AC014F5F5F4F20911C06DB
:101F100030E04217530754F4DF0112972D913C91A2
:101F20002C5031092B303105F0F2CA0101979595FB
:101F3000879590932805809327050C974CF610926F
:101F400028051092270580911C06823208F44DC0A6
:101F500080912106909122060697079708F045C0C8
:101F6000E5E2F6E082E090E0C12CD12C76019C0104
:101F70002F5F3F4F40911C0650E024173507E4F4D3
:101F8000DF0112974D915C9111974E5151094731E4
:101F9000510508F0FEC3CC0CDD1CEE1CFF1C689440
:101FA000C0F8408151813496435051094530510564
:101FB00010F40296DCCFC90101979595879590930F
:101FC00028058093270540972CF41092280510923D
:101FD00027050BC0C0922305D0922405E092250569
:101FE000F09226058CE090E0C6C41C821B8281E042
:101FF00090E09A83898380911C068D3008F467C035
:1020000049E753E0BE016D5F7F4FCE0101967CD959
:10201000892B09F05CC049E753E0BE016D5F7F4F3B
:10202000CE01019671D9019709F051C049E753E0FB
:10203000BE016D5F7F4FCE01019666D9892B09F0F5
:1020400046C0812C912C5401E12CF12C80911C066E
:1020500090E029813A812817390754F549E753E080
:10206000BE016D5F7F4FCE0101964ED96C0149E7ED
:1020700053E0BE016D5F7F4FCE01019645D9B1E0BF
:10208000CB16D10449F4892B11F5880C991CAA1C94
:10209000BB1C689480F808C0CD28C9F40197B9F436
:1020A000880C991CAA1CBB1CEFEFEE1AFE0ACECFBF
:1020B000F0922805E092270580922305909224054E
:1020C000A0922505B092260581E090E054C41C82C0
:1020D0001B8281E090E09A83898380912B05909107
:1020E0002C05181619060CF055C0E0912905F09141
:1020F0002A0582E090E09A8389838281938189977F
:102100004E9708F047C083E090E09A8389838481EA
:1021100095810B970A9708F03DC04CEB51E0BE014A
:102120006D5F7F4FCE010196EFD8892B99F54CEB6F
:1021300051E0BE016D5F7F4FCE010196E5D801975A
:1021400049F5412C512C3201E12CF12C29813A81A5
:1021500080912B0590912C05281739070CF05EC350
:102160004CEB51E0BE016D5F7F4FCE010196CCD8A4
:102170006C01F3E0EF16F10409F018C34CEB51E0E9
:10218000BE016D5F7F4FCE010196BED8C816D9063D
:1021900009F40CC3E0912905F0912A05828193810D
:1021A000C697869708F449C3A4C38E35F2EA9F0701
:1021B000FFEFAF07B10508F424C48F34E0EB9E07AE
:1021C000EFEFAE07B10509F058C410928C0284E31A
:1021D00092E00E942B078CE292E090938B02809316
:1021E0008A020E94EC04DC01CB018053984FAF4F70
:1021F000BF4F8093F3069093F406A093F506B09337
:10220000F60681E08093D50466E473E08BE795E001
:10221000ECD882E08093180610921C068091D504B9
:10222000882391F00E94EC040091F3061091F406CB
:102230002091F5063091F60606171707280739078B
:1022400008F003C21092D50400918C02013081F095
:102250003CF40111FAC18091CB049091CC04F1C1FE
:10226000023049F0033009F0F0C18DEC94E0E9C18F
:1022700082E892E0E6C18091CA04823009F499C1F3
:1022800028F4882351F08130B9F0D9C1833009F4A2
:10229000B5C1843009F45BC0D2C10E94DF0881114E
:1022A000CEC10E94EC0460932F057093300580939B
:1022B00031059093320571C10E94EC04DC01CB0121
:1022C00088589341A109B109C0902F05D0903005DD
:1022D000E0903105F0903205C816D906EA06FB06F3
:1022E000E8F483E08093CA0466EB73E08BE795E043
:1022F0007CD810924B0510924C0510924D0510920F
:102300004E0510924F0510925005109251051092F3
:1023100052058EE792E00E942B0791C187E395E07A
:102320000E9474080E94DF08882309F43FC10E94BC
:10233000EC046093330570933405809335059093D6
:10234000360584E08093CA046CEC73E06FC10E9490
:10235000EC04DC01CB01845F9140A109B109C0907C
:102360003305D0903405E0903505F0903605C81659
:10237000D906EA06FB0608F00CC10093CA0467EE12
:1023800073E08BE795E031D8409178025091790263
:1023900060917A0270917B0280917C0290917D0223
:1023A000B2D881110FC040917202509173026091B6
:1023B0007402709175028091760290917702A3D891
:1023C000082F01C002E080913305909134052091DF
:1023D0002F0530913005821B930B0E941B07D82ECE
:1023E0000E94BB08C82E0E94B108B82E87E3E82ED1
:1023F00085E0F82EF70160E0C701A2E18A0F982E70
:102400008191813009F46F5F9E12FACF70E080E015
:1024100090E00E947A1C20E030E048E851E40E94FD
:102420000D1E20E030E040E251E40E94DB1C0E94DF
:102430007A1EA62E862F0E947E0960E074E08BE74C
:1024400095E009D88B2D0E947E0960E074E08BE74F
:1024500095E001D88C2D0E947E0960E074E08BE746
:1024600095E00E942B0A8D2D86950E947E0960E0E2
:1024700074E08BE795E00E94F509F70181917F01F7
:102480000E947E099E10F9CF65EF73E08BE795E01F
:10249000F8D868EF73E08BE795E00E942B0A8A2D4D
:1024A0000E947E0962E074E08BE795E00E942B0AAF
:1024B0008B2D0E947E096BE074E08BE795E00E9413
:1024C0002B0A8C2D0E947E0961E174E08BE795E078
:1024D0000E942B0A8D2D0E947E0969E174E08BE732
:1024E00095E00E942B0A8091330590913405A091CC
:1024F0003505B0913605C0902F05D0903005E0909D
:102500003105F0903205BC01CD016C197D098E09B1
:102510009F0997FF03C00E94410903C04AE00E943F
:10252000EC0863E274E08BE795E00E942B0A802FB1
:102530000E947E0967EF73E08BE795E00E94F50942
:10254000109250051092510510925205013021F061
:10255000023039F488ED01C080EC809351058093FE
:10256000520587E395E00E947408809133059091AD
:10257000340520912F0530913005821B930B0E946A
:102580001B07E82FF0E0E356FD4F808180934E0556
:1025900056C00E94DF08811152C081E08093CA04B6
:1025A00066EA73E08BE795E00E94F5090E942C0A29
:1025B00046C00E94EC04DC01CB01805D9740A1097C
:1025C000B109C0903305D0903405E0903505F09006
:1025D0003605C816D906EA06FB0688F51092CA0425
:1025E0006DE573E08BE795E00E94F509E7E3F5E020
:1025F00082E081931F811E13FCCF21C00E94DF085F
:102600008823C9F010924B0510924C0510924D058D
:1026100010924E0510924F051092500510925105E0
:10262000109252051092CA046DE573E08BE795E0B5
:102630000E94F50904C083E595E00E9474088BE4CC
:1026400095E090938B0280938A020E940F0289CAC0
:102650006BE274E08BE795E00E94F509FFCF809173
:10266000230690912406825491098E9708F0C3CBDB
:1026700080E090E040E050E0BA01FC01EB5DF94FF2
:10268000208131812950310929303105C8F0B3CB7F
:1026900080912506909126060997099708F0A6CB08
:1026A00010922805109227058FEF9FEFDC01809391
:1026B000230590932405A0932505B093260538C2E1
:1026C000FC01E95DF94F2081318127513109223127
:1026D0003105C0F4440F551F661F771F41600496F3
:1026E0008038910551F680E290E090932805809320
:1026F0002705409323055093240560932505709387
:10270000260516C220813181265031092730310536
:1027100008F071CB440F551F661F771FE0CF208153
:102720003181235131092F30310548F4CC0CDD1CA7
:10273000EE1CFF1C6894C0F80296349686CB20816C
:1027400031812A5031092930310508F0ABCBCC0C4E
:10275000DD1CEE1CFF1CF0CF809123069091240617
:10276000C697869708F0EFCBE7E2F6E083E090E0CB
:10277000C12CD12C7601C7CB208131812C5031095D
:102780002A30310508F0DFCBCC0CDD1CEE1CFF1C21
:10279000B8CB4D915C914C5051094B30510508F02C
:1027A00024CCCC0CDD1CEE1CFF1CFBCB4CEB51E015
:1027B000BE016D5F7F4FCE0101960E9484095C01CE
:1027C00013E0E116F10469F44CEB51E0BE016D5FDA
:1027D0007F4FCE0101960E948409A816B90609F020
:1027E000D9CCC114D10459F4AA94AB2809F0D2CCA5
:1027F000440C551C661C771C689440F80BC0CA94A6
:10280000CD2809F0C7CCAB2809F0C4CC440C551C2A
:10281000661C771C9FEFE91AF90A98CCF0922805FC
:10282000E0922705409223055092240560922505E9
:102830007092260582E090E09EC0848195814B973E
:10284000459708F056C0DF0116967F0126ECE20E90
:10285000F11C20E030E040E050E060E070E080E01B
:1028600090E0CD90DC90119719E0C11AD10818E0E2
:10287000C116D104F0F51296CD90DC90139711E1BA
:10288000C11AD1081DE0C116D10420F501E00E9453
:10289000F21E21601496AE15BF0519F7209323058B
:1028A00030932405409325055093260500E20E94AD
:1028B0000D1F209321053093220585E090E0909331
:1028C000200580931F0580E390E090932805809376
:1028D000270555C01296CD90DC90139714E0C11ACD
:1028E000D10815E0C116D10420F401E00E94F21EC7
:1028F000D1CF80911C06893340F082819381895722
:1029000091098335910508F41DC280911C0682321D
:1029100009F411C182819381895791098335910509
:1029200008F48EC2828193818C549109C59708F076
:102930000EC180911C06843009F004C18481958108
:102940008097479708F0FEC086819781099709977D
:1029500008F0F8C010922805109227058FEF9FEF1E
:10296000DC018093230590932405A0932505B09363
:10297000260587E090E09093200580931F058091C5
:10298000230590912405A0912505B09126058D354C
:10299000E2EA9E07EFEFAE07B10509F006CC82E050
:1029A00080938C021092CA046DE573E08BE795E08A
:1029B0000E94F509E7E3F5E082E081931F811E1391
:1029C000FCCF8EE192E00E942B0786E192E090938B
:1029D0008B0280938A020E94EC04DC01CB018053BD
:1029E000984FAF4FBF4F8093F3069093F406A09398
:1029F000F506B093F60681E08093D5046BE673E0AC
:102A000005CC8D3D12E291071FEFA107B10511F52D
:102A100001E000938C028CE592E00E942B0782E893
:102A200092E090938B0280938A020E94EC04DC0176
:102A3000CB018053984FAF4FBF4F8093F3069093D5
:102A4000F406A093F506B093F6060093D50460E56E
:102A500073E0DCCB8F369049AF4FB10509F0D9CB8D
:102A60006CE973E08BE795E00E94F5090E94070A84
:102A70008111CFCB6BE873E0C9CB8D31F2EE9F07AC
:102A8000FFEFAF07B10519F583E080938C0284E571
:102A900092E00E942B078CE492E090938B0280934B
:102AA0008A020E94EC04DC01CB018053984FAF4FA7
:102AB000BF4F8093F3069093F406A093F506B0936E
:102AC000F60681E08093D50463E773E09FCB8735FA
:102AD000984AAF4FB10509F09CCB6DE773E08BE7E7
:102AE00095E00E94F5098091FB069091FC06DC01BF
:102AF000ED91FC910480F581E02D1995A091FB06E4
:102B0000B091FC06892B49F0ED91FC91119706805C
:102B1000F781E02DCD011995E6CF69E873E0CD018D
:102B20000E94F5090E94570780E097E012D4A0CFD9
:102B300083E090E020CF828193810A97099708F47F
:102B400060C1E8CE80911C06843408F0DEC180911B
:102B50001C06863460F1828193810C970B9708F4F0
:102B600024C225C0D90112966D917C9113976E51A4
:102B700071096731710508F050C2D701C601880F8D
:102B8000991FAA1FBB1F6C017D016894C0F84E5F9E
:102B90005F4F2C5F3F4F4534510509F421C2D901E5
:102BA0006D917C916C5071096B307105D8F28091F8
:102BB0001C06883578F182819381855891098B357F
:102BC000910508F43AC226C0BC016F5F7F4FD8015F
:102BD0004D915C91475051094730510508F03CC276
:102BE000220F331F216002960C5F1F4F40911C067D
:102BF00050E044505109841795070CF036C2A801E3
:102C000042505109DA014D915C91495051094830C7
:102C10005105D0F280911C068032E1F482819381CB
:102C200006970697B8F4848195810997099790F4DF
:102C30009F012A5F3F4FBF01625C7F4FC12CD12CA7
:102C40007601D9014D915C914650510946305105AC
:102C500008F427C280912B0590912C059E838D83CB
:102C600006970CF4D6CA1F0196E0290E311C03E02A
:102C700010E025ECC22E2DE9D22E2CE1E22E21E827
:102C8000F22ED1016D917C91F1013497A080B18039
:102C900080E090E02FD62B013C01B50180E090E070
:102CA00029D64B015C012DEC3CEC4CE45FE383D670
:102CB0009B01AC01C301B20119D687FD15C02DECF3
:102CC0003CEC4CE45FE3C301B20175D69B01AC015F
:102CD000C501B4010BD6E82F880FFF0BEE27FF0FBD
:102CE000EE1FFF27319602C0E0E0F0E0A701960159
:102CF00063E971E080E091E00E94A61E6F01FF0F82
:102D0000EE08FF08C626D726E826F9260F5F1F4FD4
:102D1000B2E02B0E311CED81FE810E171F0709F06A
:102D2000B0CFC0922305D0922405E0922505F09201
:102D3000260580E290E090932805809327058FEF89
:102D40009FEF19CE84819581CA97899708F0DDCDD0
:102D50009F012A5F3F4FC12CD12C760143E050E008
:102D6000D9016D917C916A5071096930710508F043
:102D7000CCCDD90112966D917C9113976651710952
:102D80006131710570F5D701C601880F991FAA1F1F
:102D9000BB1F6C017D016894C0F84E5F5F4F2C5FD4
:102DA0003F4F4B335105E1F69F012A583F4FD90160
:102DB0002D913C912A5031092930310508F0A5CDDB
:102DC0002CE130E03093280520932705C09223059D
:102DD000D0922405E0922505F09226058AE090E045
:102DE000CACDD90112966D917C91139766507109E5
:102DF0006730710508F089CDCC0CDD1CEE1CFF1C82
:102E0000CCCF20911C06CF01820F911D820F911D06
:102E1000DC0112978D919C910A97099708F07ACD61
:102E200010922805109227058FEF9FEFDC01809309
:102E3000230590932405A0932505B093260562C031
:102E400080911C06813208F46DCD84819581CA97EA
:102E5000899708F067CD9F012A5F3F4FC12CD12C85
:102E6000760143E050E0D9016D917C916A5071097F
:102E70006930710508F056CDD90112966D917C919B
:102E80001397665171096131710560F5D701C6016B
:102E9000880F991FAA1FBB1F6C017D016894C0F8A1
:102EA0004E5F5F4F2C5F3F4F43325105E1F69F016C
:102EB0002A5B3F4FD9012D913C912A50310929308D
:102EC000310508F02FCD20E130E030932805209324
:102ED0002705C0922305D0922405E0922505F092A3
:102EE000260510C0D90112966D917C9113976650FA
:102EF00071096730710508F015CDCC0CDD1CEE1C96
:102F0000FF1CCECF86E090E036CD84819581895438
:102F10009109C39708F01BCE9F012A5F3F4FBF0165
:102F20006A577F4FC12CD12C7601D9014D915C910C
:102F3000495051094930510508F009CED90112967E
:102F40004D915C911397465151094131510510F152
:102F500012964D915C911397465051094730510597
:102F600008F0F5CDCC0CDD1CEE1CFF1C2C5F3F4F98
:102F700026173707D1F620E230E03093280520935A
:102F80002705C0922305D0922405E0922505F092F2
:102F90002605EFCCD701C601880F991FAA1FBB1FBA
:102FA0006C017D016894C0F8E1CF84819581099717
:102FB000099708F0FCCD868197818C974F9708F090
:102FC000F6CD8085918589974D9708F0F0CD9F01CA
:102FD000265F3F4FC12CD12C760145E050E0DFCD7C
:102FE0009F0126573F4FD9012D913C912C5031091B
:102FF0002B30310508F0DBCD20E230E0309328059E
:1030000020932705C0922305D0922405E092250540
:10301000F092260588E090E0AECCD90112966D9131
:103020007C911397695071096930710508F0BFCD23
:10303000CC0CDD1CEE1CFF1CAACD84819581825432
:1030400091098E9708F0E6CD8F01045C1F4F8DE14A
:1030500090E020E030E0CACDD8014D915C9148511C
:10306000510942315105D0F0CB01019795958795D3
:1030700090932805809327058A970CF4CBCDC9013E
:10308000330FAA0BBB0B8093230590932405A093C9
:103090002505B093260589E090E06DCC220F331F03
:1030A000A2CDD90112964D915C91139749515109C6
:1030B0004331510508F5D701C601880F991FAA1F92
:1030C000BB1F6C017D016894C0F82C5F3F4F261731
:1030D000370709F0B6CD2EE030E030932805209375
:1030E0002705C0922305D0922405E0922505F09291
:1030F00026058FE090E03FCCD90112964D915C916E
:103100001397495051094930510508F0A3CDCC0C13
:10311000DD1CEE1CFF1CD9CFA8E6B0E0283010F46F
:103120000C94550CE0E0F0E00C94570C82E193E035
:103130009093E3088093E20882EE98E00C94C00537
:10314000CF92DF92EF92FF9210927E0510927D0552
:1031500098EEC92E93E0D92EE12CF12CC0927F0578
:10316000D0928005E0928105F09282058AEF92E08C
:1031700090937C0580937B0585EC90E09093880587
:103180008093870584EC90E090938A05809389056D
:1031900080EC90E090938C0580938B0581EC90E01F
:1031A00090938E0580938D0582EC90E0909390052E
:1031B00080938F0586EC90E0909392058093910523
:1031C000109294051092950510929605109297050D
:1031D0000E94EC0460930109709302098093030933
:1031E000909304091092E5081092E408C092E60852
:1031F000D092E708E092E808F092E90882E193E0D3
:103200009093E3088093E2081092F9081092F8086E
:103210001092FB081092FA081092FD081092FC0818
:103220001092FF081092FE08609100096E7F6D7F7A
:10323000609300096695617081E0682785E30E94CC
:10324000490461E085E30E947804E7E2F2E0E4915A
:10325000E093F208E1EEF1E0E491F0E0EE0FFF1F01
:10326000E858FE4F859194919093F4088093F30869
:1032700060E082E30E9478048091000981FD04C02F
:1032800061E082E30E94490482E38093EE08E4E275
:10329000F2E0E491E093EF08EEEDF1E0E491F0E08C
:1032A000EE0FFF1FEE56FE4F859194919093F1081B
:1032B0008093F0081092FA061092F9068AE093E0E3
:1032C0009093F8068093F70682EE98E09093FC06C0
:1032D0008093FB061092FE061092FD0683E3809316
:1032E000FF0684EF91E0A0E0B0E08093E6089093C1
:1032F000E708A093E808B093E908109250071092ED
:1033000051070E94EC046093F3067093F4068093D7
:10331000F5069093F6060E94EC046093EF06709316
:10332000F0068093F1069093F2060E94EC046093FD
:10333000EB067093EC068093ED069093EE068EE21A
:103340008093190610921B06FF90EF90DF90CF90AC
:103350000895FC0188279927E89421912032E9F308
:10336000293010F02E30C8F32B3239F02D3231F4E1
:10337000689403C00BD0820F911D219120532A30F5
:10338000C8F31EF4909581959F4F08957AE0979F1A
:10339000902D879F802D910D11240895CF93DF9359
:1033A000EC018B8188608B83CE0106D02B81277F37
:1033B0002B83DF91CF9108952F923F924F925F928E
:1033C0006F927F928F929F92AF92BF92CF92DF9235
:1033D000EF92FF920F931F93CF93DF93CDB7DEB79A
:1033E0002C970FB6F894DEBF0FBECDBF7C016B01EA
:1033F0008A01FC0117821682838181FFB0C1CE0150
:1034000001964C01F7019381F60193FD859193FF9D
:1034100081916F01882309F49EC1853239F493FDAF
:10342000859193FF81916F01853221F4B70190E07E
:10343000C7D1E8CF512C312C20E02032A0F48B32C0
:1034400069F030F4803259F0833269F420612CC085
:103450008D3239F0803339F4216026C02260246037
:1034600023C0286021C027FD27C030ED380F3A3037
:1034700078F426FF06C0FAE05F9E300D1124532E2B
:1034800013C08AE0389E300D1124332E20620CC008
:103490008E3221F426FD5FC1206406C08C3611F403
:1034A000206802C0883641F4F60193FD859193FFB0
:1034B00081916F018111C1CF982F9F7D95549330D9
:1034C00028F40C5F1F4FFFE3F9830DC0833631F002
:1034D000833771F0833509F057C021C0F80180812E
:1034E00089830E5F1F4F44244394512C540114C010
:1034F0003801F2E06F0E711CF801A080B18026FF48
:1035000003C0652D70E002C06FEF7FEFC5012C870F
:103510004CD12C0183012C852F77222E16C0380127
:10352000F2E06F0E711CF801A080B18026FF03C08D
:10353000652D70E002C06FEF7FEFC5012C872AD1A7
:103540002C012C852068222E830123FC19C0832D99
:1035500090E048165906A0F4B70180E290E030D11F
:103560003A94F5CFF50127FC859127FE81915F0103
:10357000B70190E025D131103A94F1E04F1A51088B
:103580004114510479F7DEC0843611F0893631F5E3
:10359000F80127FF07C060817181828193810C5FF0
:1035A0001F4F08C060817181072E000C880B990B9A
:1035B0000E5F1F4F2F76722E97FF09C09095809552
:1035C000709561957F4F8F4F9F4F2068722E2AE034
:1035D00030E0A4012DD1A82EA81843C0853729F4C6
:1035E0002F7EB22E2AE030E025C0F22FF97FBF2EC9
:1035F0008F36C1F018F4883579F0ADC0803719F0F6
:10360000883721F0A8C02F2F2061B22EB4FE0DC044
:103610008B2D8460B82E09C024FF0AC09F2F9660AE
:10362000B92E06C028E030E005C020E130E002C03D
:1036300020E132E0F801B7FE07C06081718182812C
:1036400093810C5F1F4F06C06081718180E090E024
:103650000E5F1F4FA401ECD0A82EA818FB2DFF77FA
:103660007F2E76FE0BC0372D3E7FA51450F474FEDE
:103670000AC072FC08C0372D3E7E05C0BA2C372D1B
:1036800003C0BA2C01C0B52C34FF0DC0FE01EA0DF9
:10369000F11D8081803311F4397E09C032FF06C0EC
:1036A000B394B39404C0832F867809F0B39433FDA8
:1036B00012C030FF06C05A2CB31418F4530C5B1818
:1036C000B32CB31460F4B70180E290E03C8778D06B
:1036D000B3943C85F6CFB31410F43B1801C0312CE1
:1036E00034FF11C0B70180E390E03C8769D03C858E
:1036F00032FF16C031FD03C088E790E002C088E5C4
:1037000090E0B7010CC0832F867851F031FF02C0E2
:103710008BE201C080E237FD8DE2B70190E050D02E
:10372000A51430F4B70180E390E04AD05A94F8CF62
:10373000AA94F401EA0DF11D8081B70190E040D018
:10374000A110F6CF332009F45DCEB70180E290E0FE
:1037500037D03A94F7CFF7018681978102C08FEF77
:103760009FEF2C960FB6F894DEBF0FBECDBFDF9152
:10377000CF911F910F91FF90EF90DF90CF90BF906E
:10378000AF909F908F907F906F905F904F903F9001
:103790002F900895FC010590615070400110D8F7FA
:1037A000809590958E0F9F1F0895FC016150704089
:1037B00001900110D8F7809590958E0F9F1F089566
:1037C0000F931F93CF93DF93FB01238121FD03C050
:1037D0008FEF9FEF28C022FF16C0468157812481BA
:1037E00035814217530744F4A081B1819D012F5FB9
:1037F0003F4F318320838C93268137812F5F3F4F4A
:103800003783268310C0EB01092F182F0084F18520
:10381000E02D1995892BE1F68E819F8101969F837A
:103820008E83812F902FDF91CF911F910F9108955B
:10383000FA01AA27283051F1203181F1E8946F93E1
:103840006E7F6E5F7F4F8F4F9F4FAF4FB1E03ED087
:10385000B4E03CD0670F781F891F9A1FA11D680F25
:10386000791F8A1F911DA11D6A0F711D811D911D58
:10387000A11D20D009F468943F912AE0269F1124CD
:103880003019305D3193DEF6CF010895462F477031
:10389000405D4193B3E00FD0C9F7F6CF462F4F708C
:1038A000405D4A3318F0495D31FD4052419302D0EA
:1038B000A9F7EACFB4E0A695979587957795679590
:1038C000BA95C9F700976105710508959B01AC0190
:1038D0000A2E06945795479537952795BA95C9F7B7
:1038E000620F731F841F951FA01D089540D008F418
:1038F00081E00895E89409C097FB3EF49095809587
:10390000709561957F4F8F4F9F4F9923A9F0F92FA5
:1039100096E9BB279395F695879577956795B79523
:10392000F111F8CFFAF4BB0F11F460FF1BC06F5F09
:103930007F4F8F4F9F4F16C0882311F096E911C01B
:10394000772321F09EE8872F762F05C0662371F03C
:1039500096E8862F70E060E02AF09A95660F771F50
:10396000881FDAF7880F9695879597F90895990F2C
:103970000008550FAA0BE0E8FEEF16161706E80739
:10398000F907C0F012161306E407F50798F0621B5A
:10399000730B840B950B39F40A2661F0232B242B2F
:1039A000252B21F408950A2609F4A140A6958FEF4E
:1039B000811D811D08950BD078C069D028F06ED08C
:1039C00018F0952309F05AC05FC01124A2C07ED020
:1039D000A0F3959FD1F3950F50E0551F629FF00122
:1039E000729FBB27F00DB11D639FAA27F00DB11D7B
:1039F000AA1F649F6627B00DA11D661F829F222704
:103A0000B00DA11D621F739FB00DA11D621F839F8A
:103A1000A00D611D221F749F3327A00D611D231F60
:103A2000849F600D211D822F762F6A2F11249F57AE
:103A300050408AF0E1F088234AF0EE0FFF1FBB1FD1
:103A4000661F771F881F91505040A9F79E3F510570
:103A500070F014C05EC05F3FECF3983EDCF38695D7
:103A600077956795B795F795E7959F5FC1F7FE2B1B
:103A7000880F911D9695879597F9089597F99F67F7
:103A800080E870E060E008959FEF80EC08950024E6
:103A90000A941616170618060906089500240A94B3
:103AA00012161306140605060895092E0394000C39
:103AB00011F4882352F0BB0F40F4BF2B11F460FFC8
:103AC00004C06F5F7F4F8F4F9F4F089557FD9058F1
:103AD000440F551F59F05F3F71F04795880F97FBD2
:103AE000991F61F09F3F79F087950895121613068C
:103AF0001406551FF2CF4695F1DF08C016161706BB
:103B00001806991FF1CF86957105610508940895EF
:103B1000E894BB2766277727CB0197F9089509D04A
:103B2000A59F900DB49F900DA49F800D911D112411
:103B30000895A29FB001B39FC001A39F700D811D86
:103B40001124911DB29F700D811D1124911D0895A6
:103B50005058BB27AA270ED0A8CF99DF30F09EDFA0
:103B600020F031F49F3F11F41EF48ECF0EF4E09557
:103B7000E7FB84CFE92FAADF80F3BA176207730748
:103B80008407950718F071F49EF5C2CF0EF4E09506
:103B90000B2EBA2FA02D0B01B90190010C01CA0107
:103BA000A0011124FF27591B99F0593F50F4503EB2
:103BB00068F11A16F040A22F232F342F4427585FA4
:103BC000F3CF469537952795A795F0405395C9F7BC
:103BD0007EF41F16BA0B620B730B840BBAF0915074
:103BE000A1F0FF0FBB1F661F771F881FC2F70EC013
:103BF000BA0F621F731F841F48F4879577956795E6
:103C0000B795F7959E3F08F0B3CF9395880F08F0CE
:103C10009927EE0F9795879508950CD046CF3EDFF4
:103C200040F035DF30F021F45F3F19F027CF51111C
:103C300070CF2ACF4BDF98F39923C9F35523B1F303
:103C4000951B550BBB27AA2762177307840738F00B
:103C50009F5F5F4F220F331F441FAA1FA9F333D06A
:103C60000E2E3AF0E0E830D091505040E695001C1E
:103C7000CAF729D0FE2F27D0660F771F881FBB1FDA
:103C8000261737074807AB07B0E809F0BB0B802DB4
:103C9000BF01FF2793585F4F2AF09E3F510568F000
:103CA000EDCE37CF5F3FECF3983EDCF3869577950A
:103CB0006795B795F7959F5FC9F7880F911D969502
:103CC000879597F90895E1E0660F771F881FBB1F5E
:103CD000621773078407BA0720F0621B730B840B0B
:103CE000BA0BEE1F88F7E095089504D06894B111DF
:103CF00010CF0895F3DE88F09F5790F0B92F9927E1
:103D0000B751A0F0D1F0660F771F881F991F1AF0E6
:103D1000BA95C9F712C0B13081F0FADEB1E008956A
:103D2000F7CE672F782F8827B85F39F0B93FCCF3EB
:103D3000869577956795B395D9F73EF490958095DC
:103D4000709561957F4F8F4F9F4F0895DB018F9343
:103D50009F93E5DEBF91AF91A29F800D911DA39F20
:103D6000900DB29F900D1124089597FB072E16F425
:103D7000009406D077FD08D06CD007FC05D03EF447
:103D8000909581959F4F0895709561957F4F089507
:103D9000A1E21A2EAA1BBB1BFD010DC0AA1FBB1F4F
:103DA000EE1FFF1FA217B307E407F50720F0A21BC1
:103DB000B30BE40BF50B661F771F881F991F1A942E
:103DC00069F760957095809590959B01AC01BD0158
:103DD000CF010895EE0FFF1F881F8BBF0790F6914C
:103DE000E02D19940F93083090F0982F872F762F9D
:103DF000652F542F432F322F22270850F4CF220F44
:103E0000331F441F551F661F771F881F991F0A9570
:103E1000B2F70F91089597FB10F8169400080F93CE
:103E2000083098F00850232F342F452F562F672F36
:103E3000782F892F902DF4CF0594979587957795B6
:103E4000679557954795379527950A95AAF70F9146
:103E50000895AA1BBB1B51E107C0AA1FBB1FA617D1
:103E6000B70710F0A61BB70B881F991F5A95A9F723
:103E700080959095BC01CD01089581E090E0F89483
:103E80001AC0FB0151915523A9F0BF01DC014D91EE
:103E900045174111E1F759F4CD010190002049F097
:103EA0004D9140154111C9F3FB014111EFCF81E064
:103EB00090E00197089511E0CDE1D1E000E005C068
:103EC000802FFE0187DF2196011DCE31D10780E0D2
:083ED0000807B1F7F894FFCFD9
:103ED80001000000001824243C24240001000100F3
:103EE80005000000020200382424382424000100C0
:103EF800010005000100010001000000007C101015
:103F08001010100005000500010005000100010067
:103F1800010001000100050005000000000044AA9E
:103F280092828200050001000500000001000100E6
:103F38000100010001000100050001000500010069
:103F480000000000000000000000000000000A005F
:103F58000000003844043840407C0402023A070854
:103F6800370A383C3D09060B05390C3B360080C042
:103F7800E0F0F8FCFEFF40064C0420035802C201A2
:103F88002C01C800820001020408102040800008AB
:103F98000109020A030B040C050D060E070F1A1B74
:103FA8001C1D1E1F2021222423262528272A292CD0
:103FB8002B2D02030444451110131214151816175B
:103FC800424340413F3E00000000A801160B720129
:103FD80050016401EE01000000006703160B0000A9
:103FE8000000DB02160B2F034603C202DA0241640B
:103FF80061667275697420465820536F756E642027
:10400800426F6172640053465820626F6172642087
:10401800666F756E64004D4F44455F5445535400B8
:104028004D4F44455F324F4E324F46460052435F34
:104038004D4F44455F41524D4544004D4F44455F07
:104048005243004D4F44455F4D55544500564F4C23
:10405800554D4520444F574E002D004661696C650B
:104068006420746F2061646A75737400564F4C55F0
:104078004D452055500052435F4D4F44455F5354C2
:1040880041525445440052435F4D4F44455F5741A8
:1040980049545F544F5F434C4541520052435F4D72
:1040A8004F44455F535441525445445F4255545F11
:1040B800494E5F4149520052435F4D4F44455F4569
:1040C8004E444544000D0A0053656E736F72733A8F
:1040D8002000204C6F776573743A00204C656E3A67
:1040E800002053706565643A0020447572286D732A
:1040F800293A0020546F74616C3A004E6F74206640
:104108006F756E64002B00474F4F442020202057C6
:10411800415600706C6179004661696C6564207471
:104128006F20706C617920747261636B3F00676FF8
:104138006E654C6F773A00676F6E654C6F6E673AC5
:1041480000676574524353706565643A0063724C46
:104158006F773A0063724C6F6E673A00637252432E
:1041680053706565643A00537065656420666169DB
:104178006C0053756363657373004C6F77206661D9
:0E418800696C004C6F6E67206661696C000008
:00000001FF
