:1000000018C1000046C1000044C1000042C1000008
:1000100040C100003EC100003CC100003AC10000E8
:1000200038C100001CC500001AC5000018C500003A
:1000300030C10000A8C500002CC100002AC100008A
:1000400028C1000026C1000024C1000022C1000018
:1000500020C100001EC100001CC10000B6C4000089
:1000600018C10000A5C300007AC3000012C100003F
:1000700010C100000EC100000CC100000AC1000048
:1000800008C1000006C1000004C1000002C1000058
:1000900000C10000FEC00000FCC00000FAC000006B
:1000A000F8C00000F6C00000F4C00000F2C000007C
:1000B000F0C00000EEC00000ECC00000EAC000008C
:1000C000E8C00000E6C00000E4C00000E2C000009C
:1000D000E0C00000DEC00000DCC00000DAC00000AC
:1000E000D8C000005C025F024E0252025802960223
:1000F000630267026D02710275027B027F02830256
:10010000960289028D0291022D2D2D3E20000000C5
:100110002100240027002A002D00300033000101B7
:100120000000040107010A0100000A0B02090C0D7E
:100130000E0807030401000000000000000000009A
:1001400000000000000000000000000000000000AF
:10015000000000001211100000000000000000006C
:10016000000000000000000000000000000000008F
:100170002200250028002B002E003100340002014F
:100180000000050108010B010000200023002600EB
:1001900029002C002F00320000010000030106019D
:1001A00009010505050507050808080802020202FD
:1001B0000A0A080804040404010101010101010103
:1001C0000303030303030303040707070C0C0C0CCE
:1001D0000C0C0C0C020202020606060606060606B7
:1001E0000B0B0B0B0B0B0B0B010210202008081044
:1001F0002040102040800201020108040201010297
:10020000040810204080804020100804020180046F
:1002100002018040201008040201080402010102CA
:100220000408102040800102040810204080F515C9
:10023000EB1511241FBECFEFD1E2DEBFCDBF00E032
:100240000CBF28E0ACEDB3E001C01D92A031B207B5
:10025000E1F713E0A0E0B2E0E2E3F4E300E00BBF7B
:1002600002C007900D92AC3DB107D9F711E0C8E18B
:10027000D1E000E006C021970109802FFE010E9415
:100280009719C731D10780E00807A9F7EBD70C947D
:10029000081AB6CEFC01918D828D981761F0828D7F
:1002A000DF01A80FB11D5D968C91928D9F5F9F73AA
:1002B000928F90E008958FEF9FEF0895FC01918D4C
:1002C000828D981731F0828DE80FF11D858D90E0B9
:1002D00008958FEF9FEF0895FC01918D228D892F56
:1002E00090E0805C9F4F821B91098F73992708953E
:1002F00086E894E0F1DF21E0892B09F420E0822FE9
:100300000895FC01848DDF01A80FB11DA35ABF4FD2
:100310002C91848D90E001968F739927848FA68904
:10032000B7892C93A089B1898C9180648C93938D2B
:10033000848D981306C00288F389E02D80818F7D1B
:1003400080830895EF92FF920F931F93CF93DF93D3
:10035000EC0181E0888F9B8D8C8D981305C0E88916
:10036000F989808185FD23C0F62E0B8D10E00F5F8B
:100370001F4F0F731127E02E8C8DE8120BC00FB6A4
:1003800007FCFACFE889F989808185FFF5CFCE0196
:10039000B8DFF2CF8B8DFE01E80FF11DE35AFF4F5E
:1003A000F0820B8FEA89FB898081806207C0EE8929
:1003B000FF896083E889F98980818064808381E096
:1003C00090E0DF91CF911F910F91FF90EF900895F2
:1003D000CF93DF93EC01888D8823C1F0EA89FB89F4
:1003E000808185FD05C0A889B9898C9186FD0EC0E4
:1003F0000FB607FCF5CF808185FFF2CFA889B989B8
:100400008C9185FFEDCFCE017CDFE8CFDF91CF91DE
:10041000089580E090E0892B19F06ADF811125C0F2
:1004200080E090E0892B41F080E090E0892B21F082
:100430000E94000081111CC080E090E0892B41F0F7
:1004400080E090E0892B21F00E940000811113C010
:1004500080E090E0892BA1F080E090E0892B81F092
:100460000E94000081110AC008950E940000D8CFA8
:100470000E940000E1CF0E940000EACF0C9400002F
:10048000089590E0FC013197E231F10508F04EC08B
:100490008827EE58FF4F8F4F0C949719809180005A
:1004A0008F7703C0809180008F7D809380000895B6
:1004B00080918000877FF9CF84B58F7702C084B5A3
:1004C0008F7D84BD08958091B0008F7703C08091A7
:1004D000B0008F7D8093B0000895809190008F7759
:1004E00007C0809190008F7D03C080919000877F2E
:1004F0008093900008958091A0008F7707C080912D
:10050000A0008F7D03C08091A000877F8093A00012
:100510000895809120018F7707C0809120018F7D01
:1005200003C080912001877F8093200108953FB709
:10053000F8948091560490915704A0915804B0917A
:10054000590426B5A89B05C02F3F19F00196A11D9F
:10055000B11D3FBFBA2FA92F982F8827820F911D59
:10056000A11DB11DBC01CD0142E0660F771F881FA0
:10057000991F4A95D1F708952091DE033091DF034A
:100580002817390771F49091DC038091DD039817E7
:1005900041F0E091DC03F0E0EF5EFB4F808190E002
:1005A00008958FEF9FEF089508951F93CF93DF93E2
:1005B000DC015C962D913C915D972115310539F454
:1005C00081E090E013969C938E9312973DC05196D4
:1005D000ED91FC91529750969C915097892F809560
:1005E0001FB75E964C915E9741FB772770F941FDEE
:1005F0006095F8944081772311F0492B01C048237E
:100600004083E9012197F1F748E0508160FF02C083
:10061000592B01C058235083E9012197F1F76695C2
:10062000415099F7772321F090818923808303C07B
:100630008081982B90831FBF5C968D919C915D97D4
:100640000197F1F721E030E0C901DF91CF911F91CF
:1006500008952091DE033091DF032817390769F4EC
:100660008091DD032091DC0390E0805C9F4F821B32
:10067000910960E470E00C94621980E090E00895C4
:100680002091DE033091DF0328173907B9F49091E8
:10069000DC038091DD03981789F0E091DC03F0E042
:1006A000EF5EFB4F80812091DC0330E02F5F3F4FF6
:1006B0002F7333272093DC0390E008958FEF9FEF93
:1006C0000895AF92BF92DF92EF92FF920F931F9324
:1006D000CF93DF93EC01D62EEE80FF80E114F1047E
:1006E00049F15C0189E5A80EB11CD5018C918111FD
:1006F00017C008E011E0F8016491611104C081E0C5
:10070000D5018C930DC0D701ED91FC910190F08142
:10071000E02DC70119950F5F1F4F892B61F7EFCFB0
:100720008E819F81DC01ED91FC910190F081E02DA3
:100730006D2D19958C819D81DC01ED91FC910190CD
:10074000F081E02D6D2DDF91CF911F910F91FF90E2
:10075000EF90DF90BF90AF9019940E94EA191F921A
:100760000F920FB60F9211240BB60F922F933F9357
:100770004F935F936F937F938F939F93AF93BF93A9
:10078000EF93FF9386E894E0BCDDFF91EF91BF917A
:10079000AF919F918F917F916F915F914F913F9119
:1007A0002F910F900BBE0F900FBE0F901F901895BA
:1007B0001F920F920FB60F9211240BB60F922F9328
:1007C0008F939F93EF93FF93E0919604F09197049A
:1007D0008081E0919C04F0919D0482FD12C0908183
:1007E00080919F048F5F8F732091A004821751F036
:1007F000E0919F04F0E0EA57FB4F958F80939F04B0
:1008000001C08081FF91EF919F918F912F910F9067
:100810000BBE0F900FBE0F901F901895CF93DF93D4
:10082000282F30E0F901E85DFE4F8491F901E8518D
:10083000FE4FD491F901EE55FE4FC491CC2389F0BF
:1008400081111FDEEC2FF0E0EE0FFF1FE857FE4F87
:10085000A591B491EC91ED2381E090E021F480E04A
:1008600002C080E090E0DF91CF9108951F93CF9375
:10087000DF93282F30E0F901E85DFE4F8491F90104
:10088000E851FE4FD491F901EE55FE4FC491CC23AF
:10089000C1F0162F8111F5DDEC2FF0E0EE0FFF1FF8
:1008A000E259FE4FA591B4918FB7F894111105C08C
:1008B0009C91ED2FE095E92302C0EC91ED2BEC9398
:1008C0008FBFDF91CF911F910895CF93DF9390E079
:1008D000FC01E851FE4F2491FC01EE55FE4F84913E
:1008E000882361F190E0880F991FFC01E25FFE4FC1
:1008F000C591D491FC01E259FE4FA591B4916111CB
:1009000009C09FB7F8948881209582238883EC9151
:100910002E230BC0623061F49FB7F8943881822F88
:10092000809583238883EC912E2B2C939FBF06C048
:100930008FB7F894E8812E2B28838FBFDF91CF915A
:1009400008958F929F92AF92BF92CF92DF92EF92D3
:10095000FF926B017C01EBDD4B015C01C114D10402
:10096000E104F104E9F0E3DDDC01CB018819990928
:10097000AA09BB09883E9340A105B10578F321E09F
:10098000C21AD108E108F10888EE880E83E0981EAB
:10099000A11CB11CC114D104E104F10421F7DECF84
:1009A000FF90EF90DF90CF90BF90AF909F908F908F
:1009B00008952FB7F8946091520470915304809178
:1009C0005404909155042FBF08951F920F920FB6B3
:1009D0000F9211242F933F938F939F93AF93BF93C5
:1009E0008091520490915304A0915404B091550405
:1009F0003091510423E0230F2D3720F40196A11DDF
:100A0000B11D05C026E8230F0296A11DB11D20933C
:100A100051048093520490935304A0935404B093D0
:100A200055048091560490915704A0915804B091B8
:100A300059040196A11DB11D80935604909357044B
:100A4000A0935804B0935904BF91AF919F918F9197
:100A50003F912F910F900FBE0F901F9018951F92EE
:100A60000F920FB60F9211240BB60F922F933F9354
:100A70004F935F936F937F938F939F93AF93BF93A6
:100A8000EF93FF93E091DE03F091DF03309709F4D9
:100A900051C0968DA685B785858591FF04C09C9130
:100AA000892329F447C09C91892309F043C0A38975
:100AB000B4899C918589809589238C9386899789AF
:100AC0000197F1F7608D718DA685B785558538E062
:100AD00020E0CB010197F1F7822F90E09595879563
:100AE000282F4C91452309F02068315091F7868DCD
:100AF00081FD20958091DD0390E001968F73992709
:100B00003091DC03381749F0A091DD03B0E0AF5E0F
:100B1000BB4F2C938093DD0303C0868D8160868F4D
:100B2000828D938D0197F1F7A389B4899C91858972
:100B3000892B8C93FF91EF91BF91AF919F918F91F2
:100B40007F916F915F914F913F912F910F900BBECD
:100B50000F900FBE0F901F901895E091DE03F0915B
:100B6000DF03E817F90769F4A389B4899C918589A3
:100B7000809589238C931092DF031092DE0381E02D
:100B8000089580E008951F920F920FB60F921124DE
:100B90000BB60F922F933F934F935F936F937F9377
:100BA0008F939F93AF93BF93EF93FF93809124050F
:100BB00035DE20912805309129052F5F3F4F309376
:100BC00029052093280590912705953618F096E081
:100BD00090932305909123059430C9F128F4923025
:100BE00069F09330D1F05EC0953009F451C0963071
:100BF00009F058C091E09093F40551C0811152C0A2
:100C000020912805309129052436310508F442C089
:100C10001092F405109227051CC0813009F042C0E3
:100C2000E091270591E09E0F90932705F0E0209139
:100C3000280530912905EE0FFF1FED5DFA4F308733
:100C40002783109229051092280594E029C081116C
:100C500017C0E091270591E09E0F90932705F0E0E3
:100C60002091280530912905EE0FFF1FED5DFA4F09
:100C700030872783109229051092280593E010C031
:100C800020912805309129052536310558F007C0F7
:100C9000811108C0109229051092280503C095E023
:100CA00090932305909126059923B1F081110AC0F4
:100CB00080912505882321F08091250561E009C0F8
:100CC0002F9A0AC080912505882329F08091250557
:100CD00060E0CCDD01C02F98FF91EF91BF91AF9103
:100CE0009F918F917F916F915F914F913F912F9144
:100CF0000F900BBE0F900FBE0F901F901895CF92C4
:100D0000DF92EF92FF92CF93DF93EC01072E000C5E
:100D1000880B990B0E9429176B017C0120E030E0C1
:100D200040E45FE30E94881720E030E048E452E4AA
:100D30000E94BA180E942219C617D707D4F020E0E3
:100D400030E040EA5FE3C701B6010E94881720E067
:100D500030E048E452E40E94BA1820E030E040E875
:100D60005FE30E9456180E94221921E06C177D074C
:100D70000CF420E0822F90E0DF91CF91FF90EF9074
:100D8000DF90CF900895CF92DF92EF92FF92CF93B2
:100D9000DF93EB01223160F5FC018081813049F461
:100DA0002770E22FF0E0EF52FD4F98818081892B70
:100DB0001EC081111DC0E22FE770F0E0EF52FD4F21
:100DC000C080D12CE12CF12CF4DD24EF31E040E0A7
:100DD00050E00E947519C701B6010E945319DC0149
:100DE000CB0181709927AA27BB272881822B888372
:100DF000DF91CF91FF90EF90DF90CF900895809199
:100E0000060690910706DC01ED91FC910480F581C6
:100E1000E02D1995A0910606B0910706892B49F09F
:100E2000ED91FC9111970680F781E02DCD01199588
:100E3000E6CF62EC73E0CD01F1D163D08BE096E0B8
:100E40000E94FE16811105C064EC73E086E894E010
:100E5000E5C108950F931F93CF93DF93EC0161E0F9
:100E600080E304DDA6DD28813981E6E4E29FA0016C
:100E7000E39F500D11248A01550F220B330BDC0127
:100E8000CB01800F911FA21FB31F80930C0890937A
:100E90000D08A0930E08B0930F08D0931102C093D1
:100EA0001002DF91CF911F910F910895CF92DF92A1
:100EB000EF92FF920F931F93CF93DF936C017A0110
:100EC0008B01C0E0D0E0CE15DF0589F0D8016D912F
:100ED0008D01D601ED91FC910190F081E02DC601CC
:100EE0001995892B11F47E0102C02196ECCFC70120
:100EF000DF91CF911F910F91FF90EF90DF90CF90F6
:100F00000895CF92DF92EF92FF920F931F93CF93AA
:100F1000DF930091060610910706C0E0D0E049DD9E
:100F2000D80118966D937D938D939C931B97D80150
:100F3000ED91FC910680F781E02DC801199597FD90
:100F400004C08A309105B9F41EC033DDF801C084B5
:100F5000D184E284F384DC01CB018C199D09AE09B4
:100F6000BF09C480D580E680F7808C159D05AE054D
:100F7000BF05E8F208C0FE01EE5FF94F81872196B8
:100F8000C035D10561F6FE01EE5FF94F1186809103
:100F9000060690910706DC01ED91FC910084F18535
:100FA000E02D19950D9759F480910606909107064A
:100FB000DC01ED91FC910680F781E02D1995CE01C1
:100FC000DF91CF911F910F91FF90EF90DF90CF9025
:100FD0000895CF92DF92EF92FF920F931F93CF93DA
:100FE00010926A0410926B048C01C0E08FE0E82E2E
:100FF000F12C97E0C92ED12C6C2F70E080E090E0AE
:101000000E9427179B01AC0160E070E080E99FE33C
:101010000E94BA180E942219FB01E752FD4F20815D
:10102000F80181918F018130D9F4822F90E028302E
:1010300060F4F601E81BF90BEF52FD4F90818091AF
:101040006A04892B80936A040BC0F701E81BF90B33
:10105000EF52FD4F808190916B04982B90936B041D
:10106000CF5FC23149F6CF911F910F91FF90EF9062
:10107000DF90CF900895EAE6F4E0108211821282A8
:101080001382148215821682178208958F929F927E
:10109000AF92BF92CF92DF92EF92FF920F931F9386
:1010A000CF93DF93FC01C081D18120916604309100
:1010B0006704C217D3070CF048C09E01220F331FEC
:1010C000E0916404F0916504E20FF31F8080918049
:1010D000C170DD27F1E0CF27209719F404E610E076
:1010E00002C00CE91FEF7A015B016C01040F151FB0
:1010F000B801C40104DE892B89F40E0D1F1DB8014F
:10110000C401FDDD892B69F4B8016E0D7F1DC4019A
:10111000F6DD892BE9F023E030E005C021E030E086
:1011200002C022E030E0F5018081918101968217B2
:1011300093073CF0F50111821082F60180819181C4
:10114000019691838083CE0105C081E090E002C0CA
:101150008FEF9FEFDF91CF911F910F91FF90EF9055
:10116000DF90CF90BF90AF909F908F9008956115C2
:10117000710579F0FB0101900020E9F73197AF018B
:10118000461B570BDC01ED91FC910280F381E02DB1
:10119000199480E090E008958F929F92AF92BF9251
:1011A0000F931F93CF93DF93CDB7DEB7A1970FB601
:1011B000F894DEBF0FBECDBF19A2423008F44AE05A
:1011C0008E010F5D1F4F842E912CA12CB12CA501F7
:1011D00094010E947519E62FB901CA010150110945
:1011E000EA3014F4E05D01C0E95CD801EC93232BF4
:1011F000242B252B61F7B80186E894E0B8DFA1968F
:101200000FB6F894DEBF0FBECDBFDF91CF911F9117
:101210000F91BF90AF909F908F9008950F931F9361
:10122000CF93DF93EC01A3DF8C0165ED73E0CE017A
:101230009EDF800F911FDF91CF911F910F91089535
:10124000E2E7F4E082E18E0F9191913039F468ED9C
:1012500073E086E894E0E2DF80E008958E13F4CF37
:1012600081E00895CF93DF93CDB7DEB728970FB60F
:10127000F894DEBF0FBECDBF789484B5826084BD84
:1012800084B5816084BD85B5826085BD85B581608A
:1012900085BD80916E00816080936E001092810008
:1012A00080918100826080938100809181008160C3
:1012B0008093810080918000816080938000809184
:1012C000B10084608093B1008091B0008160809310
:1012D000B000809191008260809391008091910094
:1012E0008160809391008091900081608093900054
:1012F0008091A10082608093A1008091A100816013
:101300008093A1008091A00081608093A0008091D3
:10131000210182608093210180912101816080936D
:1013200021018091200181608093200180917A00C9
:10133000846080937A0080917A00826080937A0042
:1013400080917A00816080937A0080917A00806831
:1013500080937A001092C100E0919604F091970476
:1013600082E08083E0919204F09193041082E091F6
:101370009404F091950480E1808310929E04E091A2
:101380009A04F0919B0486E08083E0919804F091A8
:101390009904808180618083E0919804F0919904A0
:1013A000808188608083E0919804F0919904808125
:1013B00080688083E0919804F091990480818F7D0A
:1013C000808364EF71E080E090E0BBDA61E080E36D
:1013D0007CDA60E080E34ADA10920808109207088D
:1013E0001092060810920508109204081092030843
:1013F0008DE991E090930A08809309088091F9079C
:1014000096EF980F943048F02EEC280F243028F0F7
:1014100022EC280F283008F070C02DEB30E030931C
:101420000408209303082BE931E030930608209349
:1014300005082CE231E03093080820930708943027
:1014400070F02EEC280F243050F022EC280F2830BA
:1014500010F40C94E115A0E0B0E00C94E315A8E6BC
:10146000B0E0E8E6F0E02081943018F08E53883048
:1014700010F081E001C084E0822B8C938091F90709
:1014800096EF980F943058F02EEC280F243038F057
:1014900022EC280F283030F020E030E005C02BE6A9
:1014A00030E002C02DE630E03093010820930008C0
:1014B000943010F49AEF0BC0823381F0833381F0C3
:1014C000843381F092EC980F983070F492EC980F7E
:1014D00081E001C0880F9A95EAF707C088E005C04F
:1014E00084E003C082E001C081E080930208809123
:1014F000090890910A080197F1F7809107089091E7
:101500000808892B19F18091DE039091DF0317E021
:101510008D3E9107D9F0009709F01FDB80910B08F1
:101520008E7F80930B081092DD031092DC038DEE0A
:1015300097E09093DF038093DE03E0910008F09141
:101540000108908180910208892B808360E080915E
:101550000A068CD961E080910A06B7D96AE070E08A
:1015600080E090E0EED960E080910A06AED968EEA6
:1015700073E080E090E0E5D9C4DCC3DC61E173E0B6
:101580008BE096E00E94EE19892B09F425C66AEFDC
:1015900070E080E090E0D5D9B4DCB3DC69E273E0C0
:1015A00086E894E03BDE2BDC2ADC29DC61E08DE080
:1015B0008CD9F89482E08093B0008093B10094E6D7
:1015C0009093B3001092B20080937000789480934F
:1015D0002305109227058091240560E076D981E0EB
:1015E0008093260561E08DE070D908E812E060E0A4
:1015F000D8018D918D0169D9B2E00B391B07B9F77C
:101600000CE912E061E0F80181918F015ED9F2E00E
:101610000F3A1F07B9F7B0E8CB2EB2E0DB2E00EB94
:1016200012E0D801FD908D0161E08F2D4ED961E06F
:101630008F2D1CD9F601F1906F0161E08F2D45D9F6
:1016400061E08F2D13D9F2E0083B1F0751F788E0C6
:1016500092E000DC20EE33E0285F28878CEE93E0F8
:101660008C5E8F83A6D920910F042330B9F50CE945
:1016700012E0D801E2E1AE0FFA2E60E0D8018D91C0
:101680008D01F4D8F012F9CF94D90091FA05109198
:10169000FB052091FC053091FD050D5E1F4F2F4F7E
:1016A0003F4F06171707280739070CF000C1609352
:1016B000FA057093FB058093FC059093FD05C0909F
:1016C0007E02D0907F0270EBE72E72E0F72EAA2404
:1016D000A394970188E0280FB22E55C00091F6051B
:1016E0001091F7052091F8053091F9050C5F1F4F17
:1016F0002F4F3F4F06171707280739072CF660931F
:10170000F6057093F7058093F8059093F905E2E7E5
:10171000EE2EE4E0FE2EF8E8CF2EF2E0DF2E0CE90C
:1017200012E088248394A2E07A2EF80122E1E20FED
:101730009E2ED801BC9060E08B2D98D8F601A19028
:101740006F018A2D6BD8892B19F4D7011C9213C015
:10175000F701808261E0D8018C9188D88BE490E019
:101760000197F1F78A2D5AD8892B11F4F70170826D
:1017700060E08B2D7BD80F5F1F4FFFEFEF1AFF0A42
:101780009012D7CF81CFD6010D916D01602F61707E
:101790006A258AE36BD810E000951095B80175951D
:1017A0006795617087E062D8B80175956795759502
:1017B0006795617088E05AD8B80123E07595679500
:1017C0002A95E1F7617087E351D8B80134E0759547
:1017D00067953A95E1F761708AE048D8B80145E02D
:1017E000759567954A95E1F7617088E33FD8B80130
:1017F00056E0759567955A95E1F761708CE336D898
:10180000000F012F001F110B602F61708DE32ED888
:10181000F70111917F0161E0812F28D862E070E02B
:1018200080E090E08ED860E0812F20D8BE10ABCF52
:1018300080910F0481113BC0E0EEF3E01192188516
:101840001E13FCCF00E010E0202F40E060EE73E0BC
:10185000C8018E589B4F97DA0F5F1F4F0830110554
:1018600099F700E010E028E0200F41E061EE73E01E
:10187000C80186589B4F87DA0F5F1F4F083011054C
:1018800091F700E010E020E1200F42E062EE73E00B
:10189000C8018E579B4F77DA0F5F1F4F0830110535
:1018A00091F720EE33E03093060420930504009175
:1018B000100210911102D8018D919C91892B09F48D
:1018C00045C077D86B017C0180910C0890910D0880
:1018D000A0910E08B0910F08C816D906EA06FB06BB
:1018E000ACF1C80102969093110280931002F801A6
:1018F00082819381892B29F460E080E30E94360481
:1019000025C080E30E940E0461E0892B09F060E0AD
:1019100080E30E943604D80112962D913C911397D2
:1019200046E4429FC001439F900D1124092E000CF4
:10193000AA0BBB0BC80ED91EEA1EFB1EC0920C08D8
:10194000D0920D08E0920E08F0920F088AE295E01E
:1019500090936504809364048091270590E09093B0
:101960006704809366048091F40590E09093690485
:101970008093680480912305853009F011C280911D
:101980002C0590912D05885891098D35910588F485
:1019900080912705843041F480912E0590912F0588
:1019A0008097479708F437C480912705843408F05E
:1019B00019C4809127058A3108F452C080912A0504
:1019C00090912B05843F914080F410926304109213
:1019D00062048FEF9FEFDC0180935E0490935F04BD
:1019E000A0936004B093610459C080912C0590913C
:1019F0002D0585974B97A0F5E0E3F5E082E090E0B8
:101A0000C12CD12C7601AC014F5F5F4F209127058F
:101A100030E0421753075CF4DF0112972D913C919F
:101A2000275031092730310508F43CC4CA01019719
:101A30009595879590936304809362040C972CF49A
:101A400010926304109262040BC0C0925E04D092A4
:101A50005F04E0926004F092610484E090E058C575
:101A6000809127058A3108F44CC080912A05909115
:101A70002B058032934008F4A8CF80912C059091DB
:101A80002D05C697869708F42AC43BC0C0925E0411
:101A9000D0925F04E0926004F09261048BE090E0E9
:101AA00037C520813181255231092B31310508F0AC
:101AB00026C4CC0CDD1CEE1CFF1C6894C0F80296FA
:101AC0003496AC014F5F5F4F2091270530E04217FD
:101AD000530754F4DF0112972D913C912C5031099A
:101AE0002B303105F0F2CA010197959587959093B7
:101AF0006304809362040C974CF610926304109276
:101B00006204809127058232E8F180912C05909142
:101B10002D0506970797B0F5E0E3F5E082E090E049
:101B2000C12CD12C76019C012F5F3F4F409127059E
:101B300050E0241735076CF4DF0112974D915C914A
:101B400011974E5151094731510508F4FCC3E4C3C4
:101B5000C9010197959587959093630480936204DA
:101B600040972CF410926304109262040BC0C09250
:101B70005E04D0925F04E0926004F09261048CE015
:101B800090E0C6C41C821B8281E090E09A83898326
:101B9000809127058D3008F466C049E753E0BE0107
:101BA0006D5F7F4FCE01019671DA892B09F05BC022
:101BB00049E753E0BE016D5F7F4FCE01019666DAC3
:101BC000019709F050C049E753E0BE016D5F7F4FB8
:101BD000CE0101965BDA892B09F045C0812C912C4E
:101BE000540100E010E08091270590E029813A81BE
:101BF000281739074CF549E753E0BE016D5F7F4F69
:101C0000CE01019643DA7C0149E753E0BE016D5FE6
:101C10007F4FCE0101963ADAB1E0EB16F10449F4B8
:101C2000892B09F5880C991CAA1CBB1C689480F8A8
:101C300008C0EF28C1F40197B1F4880C991CAA1CC4
:101C4000BB1C0F5F1F4FCFCF109363040093620440
:101C500080925E0490925F04A0926004B09261044E
:101C600081E090E055C41C821B8281E090E09A8361
:101C700089838091660490916704181619060CF008
:101C800054C0E0916404F091650482E090E09A838E
:101C900089838281938189974E9708F046C083E0BB
:101CA00090E09A838983848195810B970A9708F045
:101CB0003CC04CEB51E0BE016D5F7F4FCE01019601
:101CC000E5D9892B91F54CEB51E0BE016D5F7F4F5B
:101CD000CE010196DBD9019741F5812C912C54015D
:101CE00000E010E029813A818091660490916704B8
:101CF000281739070CF064C34CEB51E0BE016D5F4F
:101D00007F4FCE010196C2D97C010330110509F045
:101D100021C34CEB51E0BE016D5F7F4FCE010196B8
:101D2000B5D9E816F90609F415C3E0916404F091F9
:101D3000650482819381C697869708F450C34FC487
:101D40008E35F2EA9F07FFEFAF07B10508F00DC42B
:101D50008D3D9242AF4FB105F1F411E010930F04A5
:101D600088E592E077D886E792E090937F028093AF
:101D70007E020E94D904DC01CB018053984FAF4F03
:101D8000BF4F8093FE059093FF05A0930006B0938C
:101D900001061093100482E080932305109227051A
:101DA00080911004882391F00E94D9040091FE05CF
:101DB0001091FF05209100063091010606171707C4
:101DC0002807390708F005C21092100480910F040B
:101DD000813081F03CF48111FCC180910504909127
:101DE0000604F3C1823049F0833009F0F2C187E084
:101DF00094E0EBC186E792E0E8C180910404813071
:101E000001F138F0823009F49FC1833009F4C6C172
:101E1000DAC116DA8111D7C167E473E086E894E08D
:101E2000FDD90E94D904609300047093010480934B
:101E300002049093030481E08093040461E573E05D
:101E4000BAC10E94D904DC01CB0188589341A10991
:101E5000B109009100041091010420910204309115
:101E60000304081719072A073B0768F483E08093E7
:101E7000040461E673E086E894E0D0D9FCD882E7F8
:101E800092E00E942A078CEE93E0A3D8D9D9882348
:101E900009F499C182E08093040467E773E086E85F
:101EA00094E0BCD90E94D9046B017C016093E803E3
:101EB0007093E9038093EA039093EB038CEE93E035
:101EC00088D88091000490910104B601681B790BB9
:101ED0000AEC12E0F80188E090E03291229162175A
:101EE000730714F4C82E03C00197B9F7C12CECEEA8
:101EF000F3E080E09191913019F08F5F8231D1F75A
:101F000091E1692F70E0FB01E451FC4F2081213009
:101F100011F09150F6CF681B7109072E000C880B49
:101F2000990B97D720E030E048E851E40E94BA18B6
:101F300029E23CE54FE750E4EBD70E942719B62E83
:101F4000ECEEF3E060E08191813019F06F5F623177
:101F5000D1F770E080E090E07CD720E030E048E806
:101F600051E40E94BA189B01AC0160E070E080E887
:101F70009FE30E94551829E23CE54FE750E4C8D79B
:101F80000E942719A62EECEEF3E060E09F012E5E82
:101F9000822F9191913009F46F5F8E13FACF70E028
:101FA00080E090E054D720E030E048E851E40E941F
:101FB000BA1829E23CE54FE750E4AAD70E94271956
:101FC000D62E6A9D90011124B29EC001B39E900D41
:101FD00011242C2D2695289F7001299FF00C112487
:101FE000C701880F991FE80EF91EF7FE03C033E002
:101FF000E30EF11CF594E794F594E7949E2C65E8C4
:1020000073E086E894E0B3D86D2D70E080E090E056
:102010004AE0C2D86FE873E086E894E0A8D86A2D59
:1020200070E080E090E04AE0B7D868E973E086E8C5
:1020300094E09DD86B2D70E080E090E04AE0ACD851
:102040006EE973E086E894E092D86C2D70E080E051
:1020500090E04AE0A1D866EA73E086E894E087D889
:102060004090E8035090E9036090EA037090EB031E
:102070008091000490910104A0910204B0910304A6
:10208000481A590A6A0A7B0A77FE14C0E09186044E
:10209000F09187040190F081E02D6DE286E894E0F4
:1020A000199566277727CB01641975098609970961
:1020B0004AE003C04AE0C301B2016ED860EB73E0AE
:1020C00086E894E054D8692D70E080E090E04AE022
:1020D00063D867ED73E086E894E0A0D810926F04AF
:1020E00010927004109271048E2D843050F482305E
:1020F00031F0833031F0813049F480EC03C088ED59
:1021000001C08BED80937004809371042091E803EB
:102110003091E9038091000490910104281B390B50
:1021200088E090E0D8015E914E918D01241735072B
:102130001CF00197B9F780E0E82FF0E0E853FD4F7D
:10214000808180936D043FC00E94D904DC01CB01E3
:10215000805D9740A109B1090091E8031091E9035E
:102160002091EA033091EB03081719072A073B0770
:1021700050F51092040469E373E086E894E04ED8C9
:102180000E943B08ECEEF3E082E081931F811E1376
:10219000FCCF8EE692E00E942A0715C051D8882312
:1021A00071F00E943B088EE692E00E942A0710928E
:1021B000040469E373E086E894E030D804C082E761
:1021C00094E00E94E9078AE694E090937F0280936E
:1021D0007E020E94090246CA68EB73E086E894E03A
:1021E0001DD8FFCF80912E0590912F058254910923
:1021F0008E9708F0DECB80E090E040E050E0BA013E
:10220000FC01E05DFA4F20813181295031092930EC
:102210003105C8F0CECB80913005909131050997FA
:10222000099708F0C1CB10926304109262048FEFFB
:102230009FEFDC0180935E0490935F04A0936004A1
:10224000B0936104C9C1FC01EE5CFA4F2081318179
:102250002751310922313105C0F4440F551F661F43
:10226000771F416004968038910551F680E290E036
:10227000909363048093620440935E0450935F04E0
:102280006093600470936104A7C12081318126505E
:1022900031092730310508F08CCB440F551F661FDC
:1022A000771FE0CF20813181235131092F30310553
:1022B00078F0208131812A5031092930310508F028
:1022C000CFCBCC0CDD1CEE1CFF1C029634969BCBB6
:1022D000CC0CDD1CEE1CFF1C6894C0F8F6CF80917E
:1022E0002E0590912F05C697869708F00ACCE2E359
:1022F000F5E083E090E0C12CD12C7601E2CB208187
:1023000031812C5031092A30310508F0FACBCC0C40
:10231000DD1CEE1CFF1CD3CB4D915C914C50510940
:102320004B30510508F02ECCCC0CDD1CEE1CFF1CF4
:10233000408151813496435051094530510508F090
:1023400007CC0296F0CBCC0CDD1CEE1CFF1C689475
:10235000C0F8EECF4CEB51E0BE016D5F7F4FCE0178
:1023600001960E9446086C010330110569F44CEB9C
:1023700051E0BE016D5F7F4FCE0101960E9446087D
:10238000C816D90609F0D1CCE114F10459F4CA9465
:10239000CD2809F0CACC880C991CAA1CBB1C6894D7
:1023A00080F80BC0EA94EF2809F0BFCCCD2809F0E3
:1023B000BCCC880C991CAA1CBB1C0F5F1F4F92CC75
:1023C000109363040093620480925E0490925F0411
:1023D000A0926004B092610482E090E099C0848190
:1023E00095814B97459708F0FAC0DF0116966F016B
:1023F00026ECC20ED11C20E030E040E050E060E06E
:1024000070E080E090E0ED90FC90119719E0E11A07
:10241000F10818E0E116F10408F0E1C01296ED9021
:10242000FC90139711E1E11AF1081DE0E116F104A7
:1024300010F501E084D721601496AC15BD0519F79D
:1024400020935E0430935F044093600450936104D2
:1024500000E290D720935C0430935D0485E090E027
:1024600090935B0480935A0480E390E0909363041C
:102470008093620451C01296ED90FC90139714E083
:10248000E11AF10815E0E116F10408F0A8C001E036
:1024900056D7D2CFA80142505109DA014D915C9133
:1024A000495051094830510508F047C1BC016F5FE0
:1024B0007F4FD8014D915C914750510947305105EC
:1024C00008F032C3220F331F216002960C5F1F4FAA
:1024D0004091270550E04450510984179507D4F2E4
:1024E00001979595879590936304809362048A97EA
:1024F0000CF423C1C901330FAA0BBB0B80935E04FC
:1025000090935F04A0936004B093610489E090E02D
:1025100090935B0480935A0480915E0490915F04D1
:10252000A0916004B09161048D35E2EA9E07EFEF5F
:10253000AE07B10509F004CC82E080930F0410923D
:10254000040469E373E086E894E00E940E09ECEE6F
:10255000F3E082E081931F811E13FCCF8AE192E0B9
:102560000E942A0782E192E00FC08F3420EB92078D
:102570002FEFA207B10501F510920F0480E392E05E
:102580000E942A0788E292E090937F0280937E0265
:102590000E94D904DC01CB018053984FAF4FBF4F4D
:1025A0008093FE059093FF05A0930006B09301066B
:1025B00081E080931004EFCB8D31924EAF4FB10587
:1025C00009F0E9CB83E080930F0480E592E00E945C
:1025D0002A0788E492E0D8CF83E090E099CF8091F9
:1025E0002705893370F18281938189579109833559
:1025F000910508F43AC125C0D90112966D917C91DC
:102600001397665171096131710508F05AC1D701FC
:10261000C601880F991FAA1FBB1F6C017D0168941A
:10262000C0F84E5F5F4F2C5F3F4F4B33510509F4AD
:102630002BC1D9016D917C916A5071096930710586
:10264000D8F280912705823231F4828193810A97F2
:10265000099708F446C1828193818957910983358E
:102660009105D0F4809127058132B0F08481958165
:10267000CA97899788F49F012A5F3F4FC12CD12CBC
:10268000760143E050E0D9016D917C916A50710967
:102690006930710508F444C1828193818C54910999
:1026A000C59778F480912705843031F48481958131
:1026B0008097479708F494C180912705843408F0E7
:1026C00076C180912705863460F1828193810C97D1
:1026D0000B9708F4D3C125C0D90112966D917C9156
:1026E00013976E5171096731710508F0E2C1D70186
:1026F000C601880F991FAA1FBB1F6C017D0168943A
:10270000C0F84E5F5F4F2C5F3F4F4534510509F4D1
:10271000DFC1D9016D917C916C5071096B307105ED
:10272000D8F280912705883540F0828193818558C1
:1027300091098B35910508F4E8C180912705803215
:10274000E1F48281938106970697B8F4848195819C
:102750000997099790F49F012A5F3F4FBF01625C80
:102760007F4FC12CD12C7601D9014D915C914650FF
:1027700051094630510508F4E4C1209166043091B6
:1027800067043E832D83263031050CF404CB8F0182
:102790000A5F1F4F43E0242E312C55ECC52E5DE916
:1027A000D52E5CE1E52E51E8F52ED8016D917C9196
:1027B000F8013497A080B18080E090E048D32B01ED
:1027C0003C01B50180E090E042D34B015C012DEC6F
:1027D0003CEC4CE45FE39CD39B01AC01C301B20130
:1027E00032D387FD15C02DEC3CEC4CE45FE3C30114
:1027F000B2018ED39B01AC01C501B40124D3E82FF3
:10280000880FFF0BEE27FF0FEE1FFF27319602C048
:10281000E0E0F0E0A701960163E971E080E091E07B
:1028200042D56F01FF0FEE08FF08C626D726E8261F
:10283000F926BFEF2B1A3B0A0E5F1F4FED81FE8179
:102840002E163F0609F0B1CFC0925E04D0925F040D
:10285000E0926004F092610480E290E0909363045F
:10286000809362048FEF9FEF53CE84819581CA9746
:10287000899708F0E6CE9F012A5F3F4FC12CD12CEB
:10288000760143E050E0D5CE9F012A583F4FD90151
:102890002D913C912A5031092930310508F0D1CED3
:1028A0002CE130E03093630420936204C0925E0414
:1028B000D0925F04E0926004F09261048AE090E0BC
:1028C00027CED90112966D917C91139766507109AC
:1028D0006730710508F0B5CECC0CDD1CEE1CFF1C7A
:1028E000A0CE20912705CF01820F911D820F911D4F
:1028F000DC0112978D919C910A97099708F0ABCE55
:1029000010926304109262048FEF9FEFDC018093BA
:102910005E0490935F04A0936004B09361044BC184
:10292000D90112966D917C911397665171096131AD
:10293000710568F5D701C601880F991FAA1FBB1F33
:102940006C017D016894C0F84E5F5F4F2C5F3F4F74
:102950004332510509F097CE9F012A5B3F4FD901C1
:102960002D913C912A5031092930310508F094CE3F
:1029700020E130E03093630420936204C0925E044F
:10298000D0925F04E0926004F092610414C1D90116
:1029900012966D917C91139766507109673071059D
:1029A00008F07ACECC0CDD1CEE1CFF1CCDCF848150
:1029B000958189549109C39708F083CE9F012A5FBE
:1029C0003F4FBF016A577F4FC12CD12C7601D901EF
:1029D0004D915C914950510949305105B8F071CE83
:1029E000868197810997099708F066CE1092630453
:1029F000109262048FEF9FEFDC0180935E0490934E
:102A00005F04A0936004B0936104D8C0D90112960A
:102A10004D915C9113974651510941315105F0F4A4
:102A2000D701C601880F991FAA1FBB1F6C017D012A
:102A30006894C0F82C5F3F4F2617370741F620E215
:102A400030E03093630420936204C0925E04D0921D
:102A50005F04E0926004F0926104B0C0D901129664
:102A60004D915C911397465051094730510508F03C
:102A700028CECC0CDD1CEE1CFF1CDCCF84819581A4
:102A80000997099708F04DCE868197818C974F97CB
:102A900008F047CE8085918589974D9708F041CE03
:102AA0009F01265F3F4FC12CD12C760145E050E0BD
:102AB00030CE12966D917C911397695071096930EF
:102AC000710508F02ECECC0CDD1CEE1CFF1C19CEBF
:102AD0009F0126573F4FD9012D913C912C50310930
:102AE0002B30310508F01DCE20E230E03093630436
:102AF00020936204C0925E04D0925F04E09260046E
:102B0000F092610488E090E003CD84819581825445
:102B100091098E9708F011CE8F01045C1F4F8DE153
:102B200090E020E030E0D4CCD8014D915C91485148
:102B300051094231510510F0CB01D2CC220F331F85
:102B4000C4CCD90112964D915C911397495151090A
:102B50004331510528F112964D915C9113974950DC
:102B600051094930510508F008CECC0CDD1CEE1C93
:102B7000FF1C2C5F3F4F2617370709F0F5CD2EE0DD
:102B800030E03093630420936204C0925E04D092DC
:102B90005F04E0926004F09261048FE090E0B8CCB2
:102BA000D701C601880F991FAA1FBB1F6C017D01A9
:102BB0006894C0F8DECF86E090E0AACC87E090E091
:102BC000A7CCA8E6B0E0283010F40C94310AE0E07D
:102BD000F0E00C94330A85E093E09093EE07809345
:102BE000ED078DEE97E00C94AD05CF92DF92EF925A
:102BF000FF92109289041092880498EEC92E93E0F7
:102C0000D92EE12CF12CC0928A04D0928B04E09250
:102C10008C04F0928D048DEE92E090938704809363
:102C2000860485EC90E0909393048093920484EC66
:102C300090E0909395048093940480EC90E09093BE
:102C400097048093960481EC90E09093990480938C
:102C5000980482EC90E090939B0480939A0486EC15
:102C600090E090939D0480939C0410929F04109296
:102C7000A0041092A1041092A2040E94D9046093AF
:102C80000C0870930D0880930E0890930F08109213
:102C9000F0071092EF07C092F107D092F207E0928E
:102CA000F307F092F40785E093E09093EE078093AA
:102CB000ED07109204081092030810920608109273
:102CC0000508109208081092070810920A0810923E
:102CD000090860910B086E7F6D7F60930B08669505
:102CE000617081E0682785E30E94360461E085E336
:102CF0000E946504EDE1F2E0E491E093FD07E7ED69
:102D0000F1E0E491F0E0EE0FFF1FE259FE4F8591F4
:102D100094919093FF078093FE0760E082E30E9406
:102D2000650480910B0881FD04C061E082E30E948C
:102D3000360482E38093F907EAE1F2E0E491E0935C
:102D4000FA07E4EDF1E0E491F0E0EE0FFF1FE85741
:102D5000FE4F859194919093FC078093FB0710920E
:102D60000506109204068DEF92E09093030680937F
:102D700002068DEE97E09093070680930606109268
:102D800009061092080683E380930A0684EF91E017
:102D9000A0E0B0E08093F1079093F207A093F307CF
:102DA000B093F40710925B0610925C060E94D9045F
:102DB0006093FE057093FF058093000690930106D3
:102DC0000E94D9046093FA057093FB058093FC057B
:102DD0009093FD050E94D9046093F6057093F70562
:102DE0008093F8059093F9058EE280932405109264
:102DF0002605FF90EF90DF90CF900895FC01882783
:102E00009927E89421912032E9F3293010F02E30EF
:102E1000C8F32B3239F02D3231F4689403C00BD053
:102E2000820F911D219120532A30C8F31EF49095F2
:102E300081959F4F08957AE0979F902D879F802DD1
:102E4000910D1124089540D008F481E00895E8948C
:102E500009C097FB3EF490958095709561957F4FE2
:102E60008F4F9F4F9923A9F0F92F96E9BB27939590
:102E7000F695879577956795B795F111F8CFFAF4A0
:102E8000BB0F11F460FF1BC06F5F7F4F8F4F9F4FD1
:102E900016C0882311F096E911C0772321F09EE82F
:102EA000872F762F05C0662371F096E8862F70E095
:102EB00060E02AF09A95660F771F881FDAF7880F6F
:102EC0009695879597F90895990F0008550FAA0BC5
:102ED000E0E8FEEF16161706E807F907C0F012162D
:102EE0001306E407F50798F0621B730B840B950B30
:102EF00039F40A2661F0232B242B252B21F4089585
:102F00000A2609F4A140A6958FEF811D811D089521
:102F10000BD078C069D028F06ED018F0952309F056
:102F20005AC05FC01124A2C07ED0A0F3959FD1F3F8
:102F3000950F50E0551F629FF001729FBB27F00D67
:102F4000B11D639FAA27F00DB11DAA1F649F6627BC
:102F5000B00DA11D661F829F2227B00DA11D621F0B
:102F6000739FB00DA11D621F839FA00D611D221FC5
:102F7000749F3327A00D611D231F849F600D211DA9
:102F8000822F762F6A2F11249F5750408AF0E1F04C
:102F900088234AF0EE0FFF1FBB1F661F771F881F95
:102FA00091505040A9F79E3F510570F014C05EC08B
:102FB0005F3FECF3983EDCF3869577956795B79580
:102FC000F795E7959F5FC1F7FE2B880F911D9695AA
:102FD000879597F9089597F99F6780E870E060E01A
:102FE00008959FEF80EC089500240A9416161706A2
:102FF00018060906089500240A94121613061406EA
:1030000005060895092E0394000C11F4882352F04C
:10301000BB0F40F4BF2B11F460FF04C06F5F7F4F04
:103020008F4F9F4F089557FD9058440F551F59F0EB
:103030005F3F71F04795880F97FB991F61F09F3FA5
:1030400079F087950895121613061406551FF2CFCE
:103050004695F1DF08C0161617061806991FF1CF1E
:1030600086957105610508940895E894BB27662745
:103070007727CB0197F9089509D0A59F900DB49FAC
:10308000900DA49F800D911D11240895A29FB00161
:10309000B39FC001A39F700D811D1124911DB29F8C
:1030A000700D811D1124911D08955058BB27AA272A
:1030B0000ED0A8CF99DF30F09EDF20F031F49F3F93
:1030C00011F41EF48ECF0EF4E095E7FB84CFE92FC8
:1030D000AADF80F3BA17620773078407950718F011
:1030E00071F49EF5C2CF0EF4E0950B2EBA2FA02DF1
:1030F0000B01B90190010C01CA01A0011124FF27A5
:10310000591B99F0593F50F4503E68F11A16F0409F
:10311000A22F232F342F4427585FF3CF469537959E
:103120002795A795F0405395C9F77EF41F16BA0B63
:10313000620B730B840BBAF09150A1F0FF0FBB1F11
:10314000661F771F881FC2F70EC0BA0F621F731F5A
:10315000841F48F4879577956795B795F7959E3FB7
:1031600008F0B3CF9395880F08F09927EE0F979545
:10317000879508950CD046CF3EDF40F035DF30F024
:1031800021F45F3F19F027CF511170CF2ACF4BDFC9
:1031900098F39923C9F35523B1F3951B550BBB271E
:1031A000AA2762177307840738F09F5F5F4F220FCB
:1031B000331F441FAA1FA9F333D00E2E3AF0E0E8C4
:1031C00030D091505040E695001CCAF729D0FE2F10
:1031D00027D0660F771F881FBB1F261737074807A2
:1031E000AB07B0E809F0BB0B802DBF01FF27935858
:1031F0005F4F2AF09E3F510568F0EDCE37CF5F3F1D
:10320000ECF3983EDCF3869577956795B795F7953F
:103210009F5FC9F7880F911D9695879597F9089537
:10322000E1E0660F771F881FBB1F621773078407D3
:10323000BA0720F0621B730B840BBA0BEE1F88F7E2
:10324000E095089504D06894B11110CF0895F3DE8D
:1032500088F09F5790F0B92F9927B751A0F0D1F07F
:10326000660F771F881F991F1AF0BA95C9F712C009
:10327000B13081F0FADEB1E00895F7CE672F782FF4
:103280008827B85F39F0B93FCCF386957795679575
:10329000B395D9F73EF490958095709561957F4FE1
:1032A0008F4F9F4F0895DB018F939F93E5DEBF9172
:1032B000AF91A29F800D911DA39F900DB29F900D85
:1032C0001124089597FB072E16F4009406D077FD7D
:1032D00008D06CD007FC05D03EF4909581959F4FA7
:1032E0000895709561957F4F0895A1E21A2EAA1B4B
:1032F000BB1BFD010DC0AA1FBB1FEE1FFF1FA217A6
:10330000B307E407F50720F0A21BB30BE40BF50BA2
:10331000661F771F881F991F1A9469F7609570952B
:10332000809590959B01AC01BD01CF010895EE0FF2
:10333000FF1F881F8BBF0790F691E02D19940F9304
:10334000083090F0982F872F762F652F542F432F1A
:10335000322F22270850F4CF220F331F441F551F4E
:10336000661F771F881F991F0A95B2F70F9108955E
:1033700097FB10F8169400080F93083098F0085047
:10338000232F342F452F562F672F782F892F902DDD
:10339000F4CF0594979587957795679557954795B9
:1033A000379527950A95AAF70F910895AA1BBB1B7D
:1033B00051E107C0AA1FBB1FA617B70710F0A61B35
:1033C000B70B881F991F5A95A9F780959095BC0156
:1033D000CD01089581E090E0F8941AC0FB0151916D
:1033E0005523A9F0BF01DC014D9145174111E1F7CB
:1033F00059F4CD010190002049F04D914015411143
:10340000C9F3FB014111EFCF81E090E001970895EE
:1034100011E0C8E1D1E000E005C0802FFE0187DFA8
:103420002196011DC931D10780E00807B1F7F89452
:02343000FFCFCC
:10343200001824243C24240001000100050000009F
:103442007002003824243824240001000100050001
:103452000100010001000000007C1010101010009B
:103462000500050001000500010001000100010046
:103472000100050005000000000044AA92828200BB
:10348200050001000500000001000100010001002B
:10349200010001000500010005000100000001001B
:1034A20000000A000000003844043840407C00025A
:1034B2003A0708370A383C3D1A1B1C1D1E1F2021E3
:1034C200222423262528272A292C2B2D02030444D3
:1034D20045111013121415181617424340413F3E6E
:1034E20009060B05390C3B3640064C0420035802F2
:1034F200C2012C01C80082000080C0E0F0F8FCFE8E
:10350200FF010204081020408000080109020A039A
:103512000B040C050D060E070F00000000A2015659
:10352200076C014A015E01E80100000000610356D8
:103532000700000000D502560729034003BC02D44D
:1035420002416461667275697420465820536F7532
:103552006E6420426F6172640053465820626F614C
:10356200726420666F756E640052435F4D4F44452E
:103572005F41524D4544004E6F7420436C65617249
:103582000052435F4D4F44455F53544152544544AA
:103592000052435F4D4F44455F574149545F544F7A
:1035A2005F434C4541520052435F4D4F44455F4596
:1035B2004E4445440053656E736F72733A20002087
:1035C2004C6F776573743A00204C656E3A00205355
:1035D200706565643A0020447572286D73293A005B
:1035E20020546F74616C3A004E6F7420666F756E72
:1035F20064002B004661696C656420746F2061640D
:0C3602006A757374000D0A006E6F77008B
:020000023000CC
:10E000000D9489F10D94B2F10D94B2F10D94B2F129
:10E010000D94B2F10D94B2F10D94B2F10D94B2F1F0
:10E020000D94B2F10D94B2F10D94B2F10D94B2F1E0
:10E030000D94B2F10D94B2F10D94B2F10D94B2F1D0
:10E040000D94B2F10D94B2F10D94B2F10D94B2F1C0
:10E050000D94B2F10D94B2F10D94B2F10D94B2F1B0
:10E060000D94B2F10D94B2F10D94B2F10D94B2F1A0
:10E070000D94B2F10D94B2F10D94B2F10D94B2F190
:10E080000D94B2F10D94B2F10D94B2F10D94B2F180
:10E090000D94B2F10D94B2F10D94B2F10D94B2F170
:10E0A0000D94B2F10D94B2F10D94B2F10D94B2F160
:10E0B0000D94B2F10D94B2F10D94B2F10D94B2F150
:10E0C0000D94B2F10D94B2F10D94B2F10D94B2F140
:10E0D0000D94B2F10D94B2F10D94B2F10D94B2F130
:10E0E0000D94B2F141546D656761323536300041AF
:10E0F000726475696E6F206578706C6F72657220DE
:10E1000073746B3530305632206279204D4C530099
:10E11000426F6F746C6F616465723E004875683F52
:10E1200000436F6D70696C6564206F6E203D200048
:10E130004350552054797065202020203D20005FF9
:10E140005F4156525F415243485F5F3D2000415658
:10E1500052204C696243205665723D20004743437C
:10E160002056657273696F6E203D20004350552024
:10E1700049442020202020203D20004C6F7720663D
:10E18000757365202020203D20004869676820665F
:10E190007573652020203D200045787420667573D6
:10E1A00065202020203D20004C6F636B2066757336
:10E1B000652020203D20004D617220203720323024
:10E1C000313300312E362E3800342E332E350056A2
:10E1D00023202020414444522020206F7020636F70
:10E1E00064652020202020696E73747275637469E1
:10E1F0006F6E2061646472202020496E74657272B3
:10E20000757074006E6F20766563746F7200726A49
:10E210006D702020006A6D70200057686174207056
:10E220006F72743A00506F7274206E6F7420737541
:10E2300070706F72746564004D7573742062652030
:10E2400061206C6574746572002000577269747483
:10E25000696E672045450052656164696E672045B7
:10E26000450045452065727220636E743D00504F35
:10E27000525400303D5A65726F2061646472003FF1
:10E280003D43505520737461747300403D454550C3
:10E29000524F4D207465737400423D426C696E6B41
:10E2A000204C454400453D44756D70204545505215
:10E2B0004F4D00463D44756D7020464C415348001B
:10E2C000483D48656C70004C3D4C69737420492F83
:10E2D0004F20506F72747300513D51756974005234
:10E2E0003D44756D702052414D00563D73686F7707
:10E2F00020696E7465727275707420566563746FF0
:10E30000727300593D506F727420626C696E6B00BD
:10E310002A0011241FBECFEFD1E2DEBFCDBF01E046
:10E320000CBF12E0A0E0B2E0EEE1FDEF03E00BBFB6
:10E3300002C007900D92A030B107D9F712E0A0E01B
:10E34000B2E001C01D92AE30B107E1F70F9460F367
:10E350000D948DFE01E20EBF0FEF0DBF11241FBE05
:10E360000D9460F30D9400F020E030E040ED57E0B4
:10E3700005C0FA013197F1F72F5F3F4F2817390792
:10E38000C0F308959C01260F311DC901A0E0B0E043
:10E390002F5F3F4FABBFFC018791882361F08093D3
:10E3A000C6008091C00086FFFCCF8091C0008064D1
:10E3B0008093C000EACF08958DE08093C6008091DD
:10E3C000C00086FFFCCF8091C00080648093C000B5
:10E3D0008AE08093C6008091C00086FFFCCF8091C8
:10E3E000C00080648093C00008950F94C2F10F9420
:10E3F000DCF10895FC019081992359F09093C600B7
:10E400008091C00086FFFCCF8091C0008064809323
:10E41000C0003196992379F70895282F982F929567
:10E420009F70892F805D8A3308F0895F8093C600D2
:10E430008091C00086FFFCCF8091C00080648093F3
:10E44000C000822F8F70982F905D9A3308F0995FEB
:10E450009093C6008091C00086FFFCCF8091C000E1
:10E4600080648093C00008959C01FB01853691056E
:10E470001CF46330710594F0C90164E670E00F94F8
:10E480002EFE605D7F4F6093C6008091C00086FFC6
:10E49000FCCF8091C00080648093C0002B30310598
:10E4A00014F43297B4F0C90164E670E00F942EFEC4
:10E4B0006AE070E00F942EFE605D7F4F6093C600AF
:10E4C0008091C00086FFFCCF8091C0008064809363
:10E4D000C000C9016AE070E00F942EFEC0968093E0
:10E4E000C6008091C00086FFFCCF8091C000806490
:10E4F0008093C00008951F93182F8EE692EE60E07F
:10E500000F94C2F11093C6008091C00086FFFCCF2B
:10E510008091C00080648093C0000F94DCF11F9153
:10E5200008952F923F924F925F926F927F928F92B7
:10E530009F92AF92BF92CF92DF92EF92FF920F9392
:10E540001F93DF93CF93CDB7DEB762970FB6F894E2
:10E55000DEBF0FBECDBF382E622ECA01DB015C01CB
:10E560006D01772420E2222E2E010894411C511CBB
:10E570008BC081E0A81680E0B80681E0C80680E084
:10E58000D80628F0C601AA27BB270F940DF2BB2797
:10E59000AD2D9C2D8B2D0F940DF28A2D0F940DF225
:10E5A0002092C6008091C00086FFFCCF8091C00001
:10E5B00080648093C0009DE29093C6008091C0006B
:10E5C00086FFFCCF8091C00080648093C0002092C1
:10E5D000C6008091C00086FFFCCF8091C00080649F
:10E5E0008093C00019828601750188249924A1E0D6
:10E5F0003A1651F03A1620F0B2E03B1661F409C029
:10E600000BBFF701779007C0C7010F9477FE782EF4
:10E6100002C0F7017080872D0F940DF22092C60082
:10E620008091C00086FFFCCF8091C0008064809301
:10E63000C000872D8052F401EF70F0708F3520F408
:10E64000E40DF51D708204C0E40DF51D8EE280839B
:10E650000894E11CF11C011D111D0894811C911CE2
:10E6600090E18916910409F0C2CF80E190E0A0E02A
:10E67000B0E0A80EB91ECA1EDB1E198AC2010F9493
:10E68000FAF10F94DCF16A94662009F072CF629679
:10E690000FB6F894DEBF0FBECDBFCF91DF911F91B3
:10E6A0000F91FF90EF90DF90CF90BF90AF909F9031
:10E6B0008F907F906F905F904F903F902F90089534
:10E6C0002F923F924F925F926F927F928F929F9282
:10E6D000AF92BF92CF92DF92EF92FF920F931F9370
:10E6E000DF93CF93CDB7DEB7CD53D1400FB6F894BB
:10E6F000DEBF0FBECDBF01E20EBF0FEF0DBF94B75F
:10E70000F894A89514BE80916000886180936000A1
:10E7100010926000789493FF05C0E0910002F091A0
:10E7200001021995279A2F9A8091C00082608093E8
:10E73000C00080E18093C40088E18093C1000000A4
:10E74000EE24FF24870144E0A42EB12CCC24DD2448
:10E7500024C0C5010197F1F70894E11CF11C011DCB
:10E76000111D21E2E2162EE4F20620E0020720E06D
:10E77000120718F031E0C32ED12CC801B70127ECE5
:10E780003BE140E050E00F9441FE611571058105C9
:10E79000910519F485B1805885B98091C00087FD35
:10E7A00003C0C114D104A9F2A6014F5F5F4FC25E3E
:10E7B000DE4F59834883CE51D140C25EDE4F8881FF
:10E7C0009981CE51D140019711F00D9410FEC05D9A
:10E7D000DE4F19821882C053D14060E0C15DDE4F28
:10E7E0001882CF52D14088249924C35DDE4F19820C
:10E7F0001882CD52D140C05EDE4F188219821A8233
:10E800001B82C052D140CE5CDE4F188219821A8220
:10E810001B82C253D140EE24FF2487010BBFF701B6
:10E8200007911691C45CDE4F19830883CC53D14005
:10E830000D940BFEC25EDE4F28813981CE51D1404E
:10E840002130310509F52091C600C25EDE4F1982E4
:10E850001882CE51D14022C02F5F3F4F4F4F5F4FA4
:10E86000213082E138078AE7480780E0580780F0C6
:10E87000C45CDE4FE881F981CC53D140EF5FFF4F9C
:10E8800019F0EE27FF27099420E030E040E050E047
:10E890008091C00087FFE0CF2091C600C35DDE4FAE
:10E8A00048815981CD52D1404F5F5F4FC35DDE4FEC
:10E8B00059834883CD52D140213209F063C64A3092
:10E8C000510508F05FC60894811C911C53E0851621
:10E8D000910409F059C600E010E018C081E280936D
:10E8E000C6008091C00086FFFCCF8091C00080648C
:10E8F0008093C0002F5F3F4F2931310579F70F9486
:10E90000DCF10F5F1F4F0530110519F020E030E0FA
:10E91000E5CF10920A0210920B0210920C02109294
:10E920000D02109206021092070210920802109235
:10E930000902109202021092030210920402109235
:10E9400005028FEE90EE60E00F94F5F180E191EE1C
:10E9500060E00F94C2F18091C00087FFFCCF9091DE
:10E96000C600903608F09F759032B8F09093C600BC
:10E970008091C00086FFFCCF8091C00080648093AE
:10E98000C000A0E2A093C6008091C00086FFFCCF2B
:10E990008091C00080648093C000983409F4D7C18E
:10E9A0009934B8F4923409F459C1933458F490333B
:10E9B00019F1903308F4E3C59F33A1F1903409F0C5
:10E9C000DEC5BDC0953409F470C1963409F0D7C5D1
:10E9D00098C1923509F42BC2933538F49C3409F46C
:10E9E000F5C1913509F0CBC518C2963509F445C279
:10E9F000993509F0C4C567C483E792EE62E00F94CD
:10EA0000F5F110920602109207021092080210927D
:10EA1000090210920A0210920B0210920C0210923C
:10EA20000D0213C18FE792EE62E00F94F5F18FEEC5
:10EA300090EE60E00F94F5F181E291EE60E00F94CA
:10EA4000C2F187EB91EE60E00F94F5F180E391EE77
:10EA500060E00F94C2F184EE90EE60E00F94F5F167
:10EA60008FE391EE60E00F94C2F186E090E061E008
:10EA700070E00F9434F20F94DCF18DE591EE60E0DC
:10EA80000F94C2F189EC91EE60E00F94F5F18EE401
:10EA900091EE60E00F94C2F183EC91EE60E00F9490
:10EAA000F5F18CE691EE60E00F94C2F18EE10F94E7
:10EAB0000DF288E90F940DF281E00F940DF20F949E
:10EAC000DCF18BE791EE60E00F94C2F119E0E0E039
:10EAD000F0E010935700E4918E2F0F940DF20F94F5
:10EAE000DCF18AE891EE60E00F94C2F1E3E0F0E03F
:10EAF00010935700E4918E2F0F940DF20F94DCF1D8
:10EB000089E991EE60E00F94C2F1E2E0F0E0109349
:10EB10005700E4918E2F0F940DF20F94DCF188EAE8
:10EB200091EE60E00F94C2F1E1E0F0E01093570045
:10EB30001491812F0F940DF20F94DCF107CF8BE825
:10EB400092EE62E00F94F5F18BE492EE60E00F94A8
:10EB5000F5F10F94DCF100E010E019C0C8016F2D51
:10EB60000F947FFEFF2031F489E492EE60E00F9471
:10EB7000C2F10BC0F092C6008091C00086FFFCCFAE
:10EB80008091C00080648093C0000F5F1F4FC80158
:10EB900081519F41A0E0B0E0ABBFFC01F790BAE229
:10EBA000FB1621F0E2E000301E07C1F60F94DCF105
:10EBB0000F94DCF187E592EE60E00F94F5F10F948D
:10EBC000DCF1CC24DD2400E010E01EC0C8010F946D
:10EBD00077FEF82E882331F489E492EE60E00F94FA
:10EBE000C2F10BC08093C6008091C00086FFFCCFAD
:10EBF0008091C00080648093C000FE1419F00894D6
:10EC0000C11CD11C0F5F1F4FC80181519F41A0E063
:10EC1000B0E0ABBFFC01E790FAE2EF1621F022E092
:10EC20000030120799F60F94DCF10F94DCF182E6C4
:10EC300092EE60E00F94C2F1C60161E070E00F94C3
:10EC400034F20F94DCF10F94DCF110920202109276
:10EC50000302109204021092050278CE89E992EE26
:10EC600062E00F94F5F1279A2F9A16C02F9880E052
:10EC700090E0E0EDF7E03197F1F7019684369105E9
:10EC8000C1F72F9A80E090E0E0EDF7E03197F1F7DF
:10EC9000019684369105C1F78091C00087FFE6CFC9
:10ECA0008091C00087FFFCCF64C485EA92EE62E0E9
:10ECB0000F94F5F140910202509103026091040219
:10ECC0007091050281E020E10F9491F2809102029F
:10ECD00090910302A0910402B091050280509F4FD1
:10ECE000AF4FBF4F8093020290930302A0930402A0
:10ECF000B093050280509041A040B04008F426CE69
:10ED0000A4CF83EB92EE62E00F94F5F140910602FE
:10ED100050910702609108027091090280E020E1A1
:10ED20000F9491F28091060290910702A09108023F
:10ED3000B091090280509F4FAF4FBF4F80930602A2
:10ED400090930702A0930802B0930902FFCD80ECD4
:10ED500092EE62E00F94F5F183E792EE60E00F949B
:10ED6000F5F18FE792EE60E00F94F5F18BE892EE0B
:10ED700060E00F94F5F189E992EE60E00F94F5F10F
:10ED800085EA92EE60E00F94F5F183EB92EE60E09D
:10ED90000F94F5F180EC92EE60E00F94F5F187ECC2
:10EDA00092EE60E00F94F5F188ED92EE60E00F9442
:10EDB000F5F18FED92EE60E00F94F5F18AEE92EEB0
:10EDC00060E00F94F5F183E093EEBDCD87EC92EE19
:10EDD00062E00F94F5F181E40F947BF282E40F94EA
:10EDE0007BF283E40F947BF284E40F947BF285E45E
:10EDF0000F947BF286E40F947BF287E40F947BF20E
:10EE000088E40F947BF28AE40F947BF28BE40F94F6
:10EE10007BF28CE40F947BF299CD88ED92EE62E068
:10EE20000F94F5F1772473948824992409C48FED05
:10EE300092EE62E00F94F5F140910A0250910B02BC
:10EE400060910C0270910D0282E020E10F9491F22A
:10EE500080910A0290910B02A0910C02B0910D02D8
:10EE600080509F4FAF4FBF4F80930A0290930B0289
:10EE7000A0930C02B0930D0269CD8AEE92EE62E08F
:10EE80000F94F5F184EE90EE60E00F94F5F18FECC5
:10EE900091EE60E00F94F5F1662477244301CC5D98
:10EEA000DE4F19821882C452D140D401C301B695F5
:10EEB000A79597958795CA5DDE4F88839983AA8326
:10EEC000BB83C652D140CC5DDE4FA881B981C4520C
:10EED000D1401196CC5DDE4FB983A883C452D14096
:10EEE000CD0162E070E00F9434F2B0E2B093C6005E
:10EEF0008091C00086FFFCCF8091C0008064809329
:10EF0000C000EDE2E093C6008091C00086FFFCCF18
:10EF10008091C00080648093C000F0E2F093C6004E
:10EF20008091C00086FFFCCF8091C00080648093F8
:10EF3000C000CA5DDE4FE880F9800A811B81C6529D
:10EF4000D140BB27A12F902F8F2D0F940DF2CA5DBA
:10EF5000DE4F8881C652D1400F940DF2B0E2FB2EF5
:10EF6000F092C6008091C00086FFFCCF8091C00067
:10EF700080648093C0000DE30093C6008091C000C0
:10EF800086FFFCCF8091C00080648093C00010E2B7
:10EF90001093C6008091C00086FFFCCF8091C00016
:10EFA00080648093C0008BBEF3012791C65DDE4F65
:10EFB0002883CA52D140A22EBB24CC24DD2408943D
:10EFC000611C711C811C911C8BBEF3018791282E42
:10EFD0003324442455240894611C711C811C911C09
:10EFE0008BBEF3013791C55DDE4F3883CB52D140E4
:10EFF0000894611C711C811C911C8BBEF30147910C
:10F00000C45DDE4F4883CC52D140ADEFEA2EAFEF66
:10F01000FA2EAFEF0A2FAFEF1A2F6E0C7F1C801E57
:10F02000911E142D032DF22CEE24EA0CFB1C0C1D5A
:10F030001D1D0F940DF220E22093C6008091C000A8
:10F0400086FFFCCF8091C00080648093C000C65DC5
:10F05000DE4F8881CA52D1400F940DF230E23093D6
:10F06000C6008091C00086FFFCCF8091C000806404
:10F070008093C000C45DDE4F8881CC52D1400F9494
:10F080000DF240E24093C6008091C00086FFFCCFA5
:10F090008091C00080648093C000C55DDE4F888190
:10F0A000CB52D1400F940DF250E25093C6008091A4
:10F0B000C00086FFFCCF8091C00080648093C000B8
:10F0C0008FEFE8168FEFF80680E0080780E018075A
:10F0D00031F484E092EE60E00F94C2F1DFC0D80119
:10F0E000C7018070907CA070B0708050904CA040A0
:10F0F000B040D1F52FEF3FE340E050E0E222F322B1
:10F1000004231523CA5DDE4FA880B980CA80DB8046
:10F11000C652D140AE0CBF1CC01ED11EAA0CBB1CD7
:10F12000CC1CDD1C8EE092EE60E00F94C2F1BB2798
:10F13000A12F902F8F2D0F940DF28E2D0F940DF285
:10F1400030E23093C6008091C00086FFFCCF8091F2
:10F15000C00080648093C0004EE34093C60080915D
:10F16000C00086FFFCCF87C08EE09EEFA0E0B0E03D
:10F17000E822F9220A231B239CE0E91694E9F90608
:10F1800090E0090790E0190709F088C0C45DDE4FE0
:10F19000A881CC52D140EA2EFF2400E010E0102FCD
:10F1A0000F2DFE2CEE24C55DDE4FB881CB52D14031
:10F1B000EB0EF11C011D111DD601C501817090706F
:10F1C000A070B070DC0199278827E80EF91E0A1F8D
:10F1D0001B1F20EF30E040E050E0A222B322C42207
:10F1E000D52241E1AA0CBB1CCC1CDD1C4A95D1F7F1
:10F1F000EA0CFB1C0C1D1D1D81E090E0A0E0B0E0BE
:10F20000282239224A225B2235E1220C331C441C7D
:10F21000551C3A95D1F7E20CF31C041D151D57013E
:10F220006801AA0CBB1CCC1CDD1C85E192EE60E0E1
:10F230000F94C2F1C801AA27BB270F940DF2BB2778
:10F24000A12F902F8F2D0F940DF28E2D0F940DF274
:10F2500090E29093C6008091C00086FFFCCF809121
:10F26000C00080648093C000AEE3A093C60080918C
:10F27000C00086FFFCCF8091C00080648093C000F6
:10F28000C601AA27BB270F940DF2BB27AD2D9C2DDD
:10F290008B2D0F940DF28A2D0F940DF20F94DCF14B
:10F2A000CC5DDE4FE881F981C452D140F99709F471
:10F2B0004DCBF4E0EF2EF12C012D112D6E0C7F1CA7
:10F2C000801E911EF2CD83E093EE62E00F94F5F183
:10F2D0008AE192EE60E00F94C2F18091C00087FF56
:10F2E000FCCF1091C6001F751093C6008091C0001E
:10F2F00086FFFCCF8091C00080648093C0000F9493
:10F30000DCF1812F81548A3108F036C1163409F4BA
:10F3100095C0173490F4133409F44EC0143430F40B
:10F320001134F1F0123409F01DC130C0143409F465
:10F3300059C0153409F016C16BC01A3409F4C4C0A1
:10F340001B3438F4173409F48FC0183409F00AC19B
:10F35000A1C01B3409F4D2C01C3409F003C1E8C0B9
:10F360008FEF81B90DC082B1809582B980E090E0C5
:10F37000E0EDF7E03197F1F70196883C9105C1F790
:10F380008091C00087FFEFCF12B8EFC08FEF84B934
:10F390000DC085B1809585B980E090E0E0EDF7E0A3
:10F3A0003197F1F70196883C9105C1F78091C00033
:10F3B00087FFEFCF15B8D9C08FEF87B90DC088B1DF
:10F3C000809588B980E090E0E0EDF7E03197F1F7C3
:10F3D0000196883C9105C1F78091C00087FFEFCF6F
:10F3E00018B8C3C08FEF8AB90DC08BB180958BB9A7
:10F3F00080E090E0E0EDF7E03197F1F70196883C8E
:10F400009105C1F78091C00087FFEFCF1BB8ADC059
:10F410008FEF8DB90DC08EB180958EB980E090E0F0
:10F42000E0EDF7E03197F1F70196883C9105C1F7DF
:10F430008091C00087FFEFCF1EB897C08FEF80BBD1
:10F440000DC081B3809581BB80E090E0E0EDF7E0F6
:10F450003197F1F70196883C9105C1F78091C00082
:10F4600087FFEFCF11BA81C08FEF83BB0DC084B38C
:10F47000809584BB80E090E0E0EDF7E03197F1F714
:10F480000196883C9105C1F78091C00087FFEFCFBE
:10F4900014BA6BC08FEF809301010FC080910201FD
:10F4A00080958093020180E090E0E0EDF7E03197F5
:10F4B000F1F70196883C9105C1F78091C00087FF64
:10F4C000EDCF1092020151C08FEF809304010FC065
:10F4D0008091050180958093050180E090E0E0ED4A
:10F4E000F7E03197F1F70196883C9105C1F78091DB
:10F4F000C00087FFEDCF1092050137C08FEF8093DA
:10F5000007010FC08091080180958093080180E079
:10F5100090E0E0EDF7E03197F1F70196883C910536
:10F52000C1F78091C00087FFEDCF109208011DC088
:10F530008FEF80930A010FC080910B01809580931B
:10F540000B0180E090E0E0EDF7E03197F1F70196F4
:10F55000883C9105C1F78091C00087FFEDCF1092E4
:10F560000B0103C085E292EEEEC98091C00087FFD7
:10F57000FCCF8091C600EAC988E392EEE4C98CE131
:10F5800091EEE1C988249924933011F1943028F444
:10F59000913089F09230B8F408C0953061F195301F
:10F5A000F0F0963009F048C043C02B3109F042C951
:10F5B00091E06BE13FC96227C15DDE4F2883CF52E6
:10F5C000D14092E037C9B22FA0E0622793E032C960
:10F5D000822F90E0A82BB92B622794E02BC92E3004
:10F5E00009F039C3622795E0C05DDE4F19821882A9
:10F5F000C053D1401FC9E1E0F0E0EC0FFD1FC05D3A
:10F60000DE4F08811981C053D140E00FF11F2083E4
:10F610000F5F1F4FC05DDE4F19830883C053D14079
:10F6200062270A171B0709F005C9D80196E002C92D
:10F63000261709F010C303C0973009F0FBC87724E0
:10F640009981933109F412C19431C8F4963009F4C8
:10F65000D8C0973050F4923009F406C1933009F4C1
:10F660006DC0913009F059C253C0913109F477C08F
:10F67000923108F0BBC0903109F04FC2F5C098310B
:10F6800009F487C0993150F4953109F4EFC09531F0
:10F6900008F4C6C1963109F040C2C2C19A3109F4DA
:10F6A0006CC09A3108F491C09B3109F45BC09D3164
:10F6B00009F033C29D81903359F48F81882311F46E
:10F6C0009EE11CC0813011F091E018C098E916C08D
:10F6D000892F807591F0903539F4E0E0F0E089E011
:10F6E0008093570094910AC0983539F4E3E0F0E034
:10F6F00089E080935700949101C090E01A821B82A8
:10F700008D818C831D829E831F8227E030E009C299
:10F710001A8288E08B8381E48C8386E58D8382E581
:10F720008E8389E48F8383E5888780E589878FE5E9
:10F730008A8782E38B872BE030E0F3C18A818139AD
:10F7400041F0823941F0803911F48FE005C080E04A
:10F7500003C082E001C08AE01A828B8344C0772410
:10F76000739482C08D81882311F48EE12CC0813086
:10F7700011F081E028C088E926C01A82E1E0F0E0BB
:10F7800089E08093570084918B831C8224E030E0D1
:10F79000C8C18B81803589F48C81883039F4E2E0EE
:10F7A000F0E089E08093570084910DC0E0E0F0E044
:10F7B00089E080935700849106C0E3E0F0E089E09F
:10F7C0008093570084911A82DFCF8D81836C99E0FA
:10F7D000E1E0F0E0082E90935700E89507B600FCB2
:10F7E000FDCF1A821B8223E030E09BC180EC8A832C
:10F7F000CE5CDE4F188219821A821B82C253D1401E
:10F800008EC18A8190E0A0E0B0E0582F44273327D2
:10F8100022278B8190E0A0E0B0E0DC0199278827C7
:10F82000282B392B4A2B5B2B8D8190E0A0E0B0E098
:10F83000282B392B4A2B5B2B8C8190E0A0E0B0E089
:10F84000BA2FA92F982F8827282B392B4A2B5B2BCF
:10F85000220F331F441F551FC05EDE4F288339839C
:10F860004A835B83C052D1401A8259C13A81C95C34
:10F87000DE4F3883C753D140CA5CDE4F1882C6536F
:10F88000D1408B81C82EDD24CA5CDE4F488159816E
:10F89000C653D140C42AD52A933109F082C0CE5C28
:10F8A000DE4F88819981AA81BB81C253D1408050AB
:10F8B000904CA340B04030F583E0CE5CDE4FE88052
:10F8C000F9800A811B81C253D140F70100935B008C
:10F8D00080935700E89507B600FCFDCFCE5CDE4F65
:10F8E000088119812A813B81C253D14000501F4FAA
:10F8F0002F4F3F4FCE5CDE4F088319832A833B8313
:10F90000C253D140C05EDE4F488159816A817B81FC
:10F91000C052D140DE011B9631E08C9111962C91A2
:10F9200011971296C75CDE4F2883C953D140C85C3B
:10F93000DE4F1882C853D14090E0C85CDE4FE881AA
:10F94000F981C853D1408E2B9F2B0C01FA01609393
:10F950005B0030935700E89511244E5F5F4F6F4F67
:10F960007F4F0EEFE02E0FEFF02ECE0CDF1CC114F8
:10F97000D10499F685E0C05EDE4F088119812A81A5
:10F980003B81C052D140F80120935B008093570027
:10F99000E89507B600FCFDCF81E180935700E8951C
:10F9A00035C0C05EDE4F88819981AA81BB81C0527B
:10F9B000D140B695A795979587957C018601ABE0D8
:10F9C000AA2EB12CAC0EBD1E0BC0D5016D915D01F0
:10F9D000C7010F947FFE0894E11CF11C01501040F8
:10F9E0000115110591F7A60160E070E0440F551F65
:10F9F000661F771FC05EDE4FE880F9800A811B8199
:10FA0000C052D1404E0D5F1D601F711F1A82C05E33
:10FA1000DE4F488359836A837B83C052D1407FC0C5
:10FA2000FA80C55CDE4FF882CB53D140C65CDE4F16
:10FA30001882CA53D1408B81C82EDD24C65CDE4FAC
:10FA400008811981CA53D140C02AD12A1A828981DA
:10FA5000BE016D5F7F4F843121F59601C05EDE4FA0
:10FA6000E880F9800A811B81C052D1400BBFF701A9
:10FA700087919691DB018C9311969C936E5F7F4FDB
:10FA8000D801C7010296A11DB11DC05EDE4F88835B
:10FA90009983AA83BB83C052D14022503040F1F6F3
:10FAA00036C0C05EDE4F288139814A815B81C052F9
:10FAB000D1400894C108D108760100E010E0089414
:10FAC000C11CD11C0894E11CF11C011D111DE20E8A
:10FAD000F31E041F151F21BDBB27A52F942F832FB5
:10FAE00082BD2F5F3F4F4F4F5F4FF89A80B5DB01CC
:10FAF0008D93BD012E153F054007510761F7C05E8C
:10FB0000DE4F288339834A835B83C052D1409601FC
:10FB10002D5F3F4FFB01108204C080EC8A8322E0FE
:10FB200030E08BE18093C6008091C00086FFFCCF5F
:10FB30008091C00080648093C000C15DDE4FF88179
:10FB4000CF52D140F093C6008091C00086FFFCCF19
:10FB50008091C00080648093C000432F3093C60022
:10FB60008091C00086FFFCCF8091C00080648093AC
:10FB7000C000922F2093C6008091C00086FFFCCF6A
:10FB80008091C00080648093C0008EE08093C600A6
:10FB90008091C00086FFFCCF8091C000806480937C
:10FBA000C00065E1C15DDE4FE880CF52D1406E25D7
:10FBB00069276427FE01319610C090819093C6009A
:10FBC0008091C00086FFFCCF31968091C000806498
:10FBD0008093C0006927215030402115310569F715
:10FBE0006093C6008091C00086FFFCCF8091C0006A
:10FBF00080648093C00085B1805885B9772081F4F6
:10FC0000C15DDE4F0881CF52D1400F5FC15DDE4F35
:10FC10000883CF52D14090E0A0E0B0E00D941AF4F8
:10FC200027982F9880E090E020ED37E0F901319798
:10FC3000F1F7019684369105C9F700008091C00064
:10FC40008D7F8093C00081E180935700E895EE2777
:10FC5000FF270994FFCF90E00D941AF497FB092E2B
:10FC600007260AD077FD04D02ED006D000201AF443
:10FC7000709561957F4F0895F6F7909581959F4F08
:10FC80000895A1E21A2EAA1BBB1BFD010DC0AA1FDD
:10FC9000BB1FEE1FFF1FA217B307E407F50720F0F5
:10FCA000A21BB30BE40BF50B661F771F881F991F70
:10FCB0001A9469F760957095809590959B01AC01B9
:10FCC000BD01CF010895AA1BBB1B51E107C0AA1FAC
:10FCD000BB1FA617B70710F0A61BB70B881F991FED
:10FCE0005A95A9F780959095BC01CD010895F99991
:10FCF000FECF92BD81BDF89A992780B50895262F31
:10FD0000F999FECF1FBA92BD81BD20BD0FB6F89400
:0EFD1000FA9AF99A0FBE01960895F894FFCF63
:040000033000E000E9
:00000001FF