:1000000018C1000046C1000044C1000042C1000008
:1000100040C100003EC100003CC100003AC10000E8
:1000200038C100001CC500001AC5000018C500003A
:1000300030C10000A8C500002CC100002AC100008A
:1000400028C1000026C1000024C1000022C1000018
:1000500020C100001EC100001CC10000B6C4000089
:1000600018C10000A5C300007AC3000012C100003F
:1000700010C100000EC100000CC100000AC1000048
:1000800008C1000006C1000004C1000002C1000058
:1000900000C10000FEC00000FCC00000FAC000006B
:1000A000F8C00000F6C00000F4C00000F2C000007C
:1000B000F0C00000EEC00000ECC00000EAC000008C
:1000C000E8C00000E6C00000E4C00000E2C000009C
:1000D000E0C00000DEC00000DCC00000DAC00000AC
:1000E000D8C000005C025F024E0252025802960223
:1000F000630267026D02710275027B027F02830256
:10010000960289028D0291022D2D2D3E20000000C5
:100110002100240027002A002D00300033000101B7
:100120000000040107010A0100000A0B02090C0D7E
:100130000E0807030401000000000000000000009A
:1001400000000000000000000000000000000000AF
:10015000000000001211100000000000000000006C
:10016000000000000000000000000000000000008F
:100170002200250028002B002E003100340002014F
:100180000000050108010B010000200023002600EB
:1001900029002C002F00320000010000030106019D
:1001A00009010505050507050808080802020202FD
:1001B0000A0A080804040404010101010101010103
:1001C0000303030303030303040707070C0C0C0CCE
:1001D0000C0C0C0C020202020606060606060606B7
:1001E0000B0B0B0B0B0B0B0B010210202008081044
:1001F0002040102040800201020108040201010297
:10020000040810204080804020100804020180046F
:1002100002018040201008040201080402010102CA
:10022000040810204080010204081020408094142B
:100230008A1411241FBECFEFD1E2DEBFCDBF00E094
:100240000CBF27E0ACE5B3E001C01D92A335B207B7
:10025000E1F713E0A0E0B2E0ECE5F1E300E00BBF72
:1002600002C007900D92AC35B107D9F711E0C8E193
:10027000D1E000E006C021970109802FFE010E9415
:100280002C18C731D10780E00807A9F7D5D70C94FF
:100290009D18B6CEFC01918D828D981761F0828DEC
:1002A000DF01A80FB11D5D968C91928D9F5F9F73AA
:1002B000928F90E008958FEF9FEF0895FC01918D4C
:1002C000828D981731F0828DE80FF11D858D90E0B9
:1002D00008958FEF9FEF0895FC01918D228D892F56
:1002E00090E0805C9F4F821B91098F73992708953E
:1002F0008DEC93E0F1DF21E0892B09F420E0822FDF
:100300000895FC01848DDF01A80FB11DA35ABF4FD2
:100310002C91848D90E001968F739927848FA68904
:10032000B7892C93A089B1898C9180648C93938D2B
:10033000848D981306C00288F389E02D80818F7D1B
:1003400080830895EF92FF920F931F93CF93DF93D3
:10035000EC0181E0888F9B8D8C8D981305C0E88916
:10036000F989808185FD23C0F62E0B8D10E00F5F8B
:100370001F4F0F731127E02E8C8DE8120BC00FB6A4
:1003800007FCFACFE889F989808185FFF5CFCE0196
:10039000B8DFF2CF8B8DFE01E80FF11DE35AFF4F5E
:1003A000F0820B8FEA89FB898081806207C0EE8929
:1003B000FF896083E889F98980818064808381E096
:1003C00090E0DF91CF911F910F91FF90EF900895F2
:1003D000CF93DF93EC01888D8823C1F0EA89FB89F4
:1003E000808185FD05C0A889B9898C9186FD0EC0E4
:1003F0000FB607FCF5CF808185FFF2CFA889B989B8
:100400008C9185FFEDCFCE017CDFE8CFDF91CF91DE
:10041000089580E090E0892B19F06ADF811125C0F2
:1004200080E090E0892B41F080E090E0892B21F082
:100430000E94000081111CC080E090E0892B41F0F7
:1004400080E090E0892B21F00E940000811113C010
:1004500080E090E0892BA1F080E090E0892B81F092
:100460000E94000081110AC008950E940000D8CFA8
:100470000E940000E1CF0E940000EACF0C9400002F
:10048000089590E0FC013197E231F10508F04EC08B
:100490008827EE58FF4F8F4F0C942C1880918000C6
:1004A0008F7703C0809180008F7D809380000895B6
:1004B00080918000877FF9CF84B58F7702C084B5A3
:1004C0008F7D84BD08958091B0008F7703C08091A7
:1004D000B0008F7D8093B0000895809190008F7759
:1004E00007C0809190008F7D03C080919000877F2E
:1004F0008093900008958091A0008F7707C080912D
:10050000A0008F7D03C08091A000877F8093A00012
:100510000895809120018F7707C0809120018F7D01
:1005200003C080912001877F8093200108953FB709
:10053000F8948091B9039091BA03A091BB03B09154
:10054000BC0326B5A89B05C02F3F19F00196A11D3D
:10055000B11D3FBFBA2FA92F982F8827820F911D59
:10056000A11DB11DBC01CD0142E0660F771F881FA0
:10057000991F4A95D1F70895AF92BF92DF92EF92FB
:10058000FF920F931F93CF93DF93EC01D62EEE8053
:10059000FF80E114F10449F15C0189E5A80EB11C6A
:1005A000D5018C91811117C008E011E0F801649128
:1005B000611104C081E0D5018C930DC0D701ED918C
:1005C000FC910190F081E02DC70119950F5F1F4F3D
:1005D000892B61F7EFCF8E819F81DC01ED91FC913A
:1005E0000190F081E02D6D2D19958C819D81DC01AC
:1005F000ED91FC910190F081E02D6D2DDF91CF9177
:100600001F910F91FF90EF90DF90BF90AF901994E2
:1006100020915E0330915F032817390771F49091A0
:100620005C0380915D03981741F0E0915C03F0E07A
:10063000EC58FC4F808190E008958FEF9FEF089574
:1006400008951F93CF93DF93DC015C962D913C912D
:100650005D972115310539F481E090E013969C9364
:100660008E9312973DC05196ED91FC915297509602
:100670009C915097892F80951FB75E964C915E97FD
:1006800041FB772770F941FD6095F894408177230D
:1006900011F0492B01C048234083E9012197F1F76C
:1006A00048E0508160FF02C0592B01C0582350839D
:1006B000E9012197F1F76695415099F7772321F0E9
:1006C00090818923808303C08081982B90831FBFF2
:1006D0005C968D919C915D970197F1F721E030E058
:1006E000C901DF91CF911F91089520915E03309150
:1006F0005F032817390769F480915D0320915C033B
:1007000090E0805C9F4F821B910960E470E00C9444
:10071000F71780E090E0089520915E0330915F0329
:1007200028173907B9F490915C0380915D039817FD
:1007300089F0E0915C03F0E0EC58FC4F808120915F
:100740005C0330E02F5F3F4F2F73332720935C0310
:1007500090E008958FEF9FEF08950E947F181F92F9
:100760000F920FB60F9211240BB60F922F933F9357
:100770004F935F936F937F938F939F93AF93BF93A9
:10078000EF93FF938DEC93E0BCDDFF91EF91BF9170
:10079000AF919F918F917F916F915F914F913F9119
:1007A0002F910F900BBE0F900FBE0F901F901895BA
:1007B0001F920F920FB60F9211240BB60F922F9328
:1007C0008F939F93EF93FF93E091DD03F091DE030E
:1007D0008081E091E303F091E40382FD12C09081F7
:1007E0008091E6038F5F8F732091E703821751F0AA
:1007F000E091E603F0E0E353FC4F958F8093E6032E
:1008000001C08081FF91EF919F918F912F910F9067
:100810000BBE0F900FBE0F901F901895CF93DF93D4
:10082000282F30E0F901E85DFE4F8491F901E8518D
:10083000FE4FD491F901EE55FE4FC491CC2389F0BF
:1008400081111FDEEC2FF0E0EE0FFF1FE857FE4F87
:10085000A591B491EC91ED2381E090E021F480E04A
:1008600002C080E090E0DF91CF9108951F93CF9375
:10087000DF93282F30E0F901E85DFE4F8491F90104
:10088000E851FE4FD491F901EE55FE4FC491CC23AF
:10089000C1F0162F8111F5DDEC2FF0E0EE0FFF1FF8
:1008A000E259FE4FA591B4918FB7F894111105C08C
:1008B0009C91ED2FE095E92302C0EC91ED2BEC9398
:1008C0008FBFDF91CF911F910895CF93DF9390E079
:1008D000FC01E851FE4F2491FC01EE55FE4F84913E
:1008E000882361F190E0880F991FFC01E25FFE4FC1
:1008F000C591D491FC01E259FE4FA591B4916111CB
:1009000009C09FB7F8948881209582238883EC9151
:100910002E230BC0623061F49FB7F8943881822F88
:10092000809583238883EC912E2B2C939FBF06C048
:100930008FB7F894E8812E2B28838FBFDF91CF915A
:1009400008958F929F92AF92BF92CF92DF92EF92D3
:10095000FF926B017C01EBDD4B015C01C114D10402
:10096000E104F104E9F0E3DDDC01CB018819990928
:10097000AA09BB09883E9340A105B10578F321E09F
:10098000C21AD108E108F10888EE880E83E0981EAB
:10099000A11CB11CC114D104E104F10421F7DECF84
:1009A000FF90EF90DF90CF90BF90AF909F908F908F
:1009B00008952FB7F8946091B5037091B6038091B4
:1009C000B7039091B8032FBF08951F920F920FB6EF
:1009D0000F9211242F933F938F939F93AF93BF93C5
:1009E0008091B5039091B603A091B703B091B8037D
:1009F0003091B40323E0230F2D3720F40196A11D7D
:100A0000B11D05C026E8230F0296A11DB11D20933C
:100A1000B4038093B5039093B603A093B703B09348
:100A2000B8038091B9039091BA03A091BB03B09130
:100A3000BC030196A11DB11D8093B9039093BA0325
:100A4000A093BB03B093BC03BF91AF919F918F91D3
:100A50003F912F910F900FBE0F901F9018951F92EE
:100A60000F920FB60F9211240BB60F922F933F9354
:100A70004F935F936F937F938F939F93AF93BF93A6
:100A8000EF93FF93E0915E03F0915F03309709F4D9
:100A900051C0968DA685B785858591FF04C09C9130
:100AA000892329F447C09C91892309F043C0A38975
:100AB000B4899C918589809589238C9386899789AF
:100AC0000197F1F7608D718DA685B785558538E062
:100AD00020E0CB010197F1F7822F90E09595879563
:100AE000282F4C91452309F02068315091F7868DCD
:100AF00081FD209580915D0390E001968F73992789
:100B000030915C03381749F0A0915D03B0E0AC5818
:100B1000BC4F2C9380935D0303C0868D8160868FCC
:100B2000828D938D0197F1F7A389B4899C91858972
:100B3000892B8C93FF91EF91BF91AF919F918F91F2
:100B40007F916F915F914F913F912F910F900BBECD
:100B50000F900FBE0F901F901895E0915E03F091DB
:100B60005F03E817F90769F4A389B4899C91858923
:100B7000809589238C9310925F0310925E0381E02D
:100B8000089580E008951F920F920FB60F921124DE
:100B90000BB60F922F933F934F935F936F937F9377
:100BA0008F939F93AF93BF93EF93FF9380916B04C9
:100BB00035DE20916F04309170042F5F3F4F3093EA
:100BC000700420936F0490916E04953618F096E0AF
:100BD00090936A0490916A049430C9F128F4923099
:100BE00069F09330D1F05EC0953009F451C0963071
:100BF00009F058C091E090933B0551C0811152C05B
:100C000020916F04309170042436310508F442C0FD
:100C100010923B0510926E041CC0813009F042C056
:100C2000E0916E0491E09E0F90936E04F0E02091AD
:100C30006F0430917004EE0FFF1FE659FB4F3087B1
:100C400027831092700410926F0494E029C08111E0
:100C500017C0E0916E0491E09E0F90936E04F0E057
:100C600020916F0430917004EE0FFF1FE659FB4F87
:100C7000308727831092700410926F0493E010C0A5
:100C800020916F04309170042536310558F007C06B
:100C9000811108C01092700410926F0403C095E097
:100CA00090936A0490916D049923B1F081110AC068
:100CB00080916C04882321F080916C0461E009C06C
:100CC0002F9A0AC080916C04882329F080916C04CB
:100CD00060E0CCDD01C02F98FF91EF91BF91AF9103
:100CE0009F918F917F916F915F914F913F912F9144
:100CF0000F900BBE0F900FBE0F901F901895CF92C4
:100D0000DF92EF92FF92CF93DF93EC01072E000C5E
:100D1000880B990B0E94BE156B017C0120E030E02E
:100D200040E45FE30E941D1620E030E048E452E416
:100D30000E944F170E94B717C617D707D4F020E0BC
:100D400030E040EA5FE3C701B6010E941D1620E0D3
:100D500030E048E452E40E944F1720E030E040E8E1
:100D60005FE30E94EB160E94B71721E06C177D0726
:100D70000CF420E0822F90E0DF91CF91FF90EF9074
:100D8000DF90CF900895CF92DF92EF92FF92CF93B2
:100D9000DF93EB01223160F5FC018081813049F461
:100DA0002770E22FF0E0E557FD4F98818081892B75
:100DB0001EC081111DC0E22FE770F0E0E557FD4F26
:100DC000C080D12CE12CF12CF4DD24EF31E040E0A7
:100DD00050E00E940A18C701B6010E94E817DC0122
:100DE000CB0181709927AA27BB272881822B888372
:100DF000DF91CF91FF90EF90DF90CF900895CF9348
:100E0000DF9366E373E08DEC93E004D280914905B3
:100E100090914A05DC01ED91FC910480F581E02D73
:100E20001995A0914905B0914A05892B49F0ED919A
:100E3000FC9111970680F781E02DCD011995E6CF41
:100E400060E473E0CD01E6D1BFD08EE495E00E946E
:100E50009315EC01DD27209739F462E473E08DEC03
:100E600093E0DF91CF91D6C183E593E0CFD1BE016E
:100E7000DD0F880B990B4AE057D163EE72E08DECE1
:100E800093E0DF91CF913BC10F931F93CF93DF93FB
:100E9000EC0161E080E3EADC8CDD28813981E6E465
:100EA000E29FA001E39F500D11248A01550F220BF0
:100EB000330BDC01CB01800F911FA21FB31F809366
:100EC0004F0790935007A0935107B0935207D093C8
:100ED0000D02C0930C02DF91CF911F910F910895E5
:100EE000CF92DF92EF92FF920F931F93CF93DF93F6
:100EF0006C017A018B01C0E0D0E0CE15DF0589F0EE
:100F0000D8016D918D01D601ED91FC910190F08198
:100F1000E02DC6011995892B11F47E0102C021969E
:100F2000ECCFC701DF91CF911F910F91FF90EF9010
:100F3000DF90CF9008958F929F92AF92BF92EF92E1
:100F4000FF920F931F93CF93DF93EC017B0100E09F
:100F500010E02FDD688779878A879B87E881F98190
:100F60000680F781E02DCE01199597FD04C08A30E7
:100F70009105B1F41DC01DDD88849984AA84BB84C9
:100F8000DC01CB0188199909AA09BB098C809D80D5
:100F9000AE80BF8088159905AA05BB05F8F208C088
:100FA000F70181937F010F5F1F4F0035110589F60F
:100FB000C801DF91CF911F910F91FF90EF90BF90EB
:100FC000AF909F908F900895CF93DF936EE475E07C
:100FD0008091490590914A05AEDFEC01FC01EB5B85
:100FE000FA4F11868091490590914A05DC01ED91F7
:100FF000FC910084F185E02D19950D9759F48091AD
:10100000490590914A05DC01ED91FC910680F7813C
:10101000E02D1995CE01DF91CF9108958F929F9287
:10102000AF92BF92CF92DF92EF92FF920F931F93F6
:10103000CF93DF93FC01C081D1812091C90330910E
:10104000CA03C217D3070CF048C09E01220F331FFA
:10105000E091C703F091C803E20FF31F80809180F5
:10106000C170DD27F1E0CF27209719F404E610E0E6
:1010700002C00CE91FEF7A015B016C01040F151F20
:10108000B801C4013CDE892B89F40E0D1F1DB80187
:10109000C40135DE892B69F4B8016E0D7F1DC401D2
:1010A0002EDE892BE9F023E030E005C021E030E0BE
:1010B00002C022E030E0F501808191810196821723
:1010C00093073CF0F50111821082F6018081918135
:1010D000019691838083CE0105C081E090E002C03B
:1010E0008FEF9FEFDF91CF911F910F91FF90EF90C6
:1010F000DF90CF90BF90AF909F908F900895611533
:10110000710579F0FB0101900020E9F73197AF01FB
:10111000461B570BDC01ED91FC910280F381E02D21
:10112000199480E090E008958F929F92AF92BF92C1
:101130000F931F93CF93DF93CDB7DEB7A1970FB671
:10114000F894DEBF0FBECDBF19A2423008F44AE0CA
:101150008E010F5D1F4F842E912CA12CB12CA50167
:1011600094010E940A18E62FB901CA010150110921
:10117000EA3014F4E05D01C0E95CD801EC93232B64
:10118000242B252B61F7B8018DEC93E0B8DFA196F5
:101190000FB6F894DEBF0FBECDBFDF91CF911F9188
:1011A0000F91BF90AF909F908F900895CF92DF9254
:1011B000EF92FF92CF93DF9397FF20C06B017C01EA
:1011C000E091CD03F091CE030190F081E02D6DE22E
:1011D0008DEC93E01995EC0166277727CB016C190C
:1011E0007D098E099F094AE09FDF8C0F9D1FDF91CB
:1011F000CF91FF90EF90DF90CF9008954AE0DF917C
:10120000CF91FF90EF90DF90CF908ECFBC018DEC0F
:1012100093E075CF0F931F93CF93DF93EC016FDFB4
:101220008C0163EE72E0CE016ADF800F911FDF91C7
:10123000CF911F910F910895CF93DF93CDB7DEB774
:101240002F970FB6F894DEBF0FBECDBF789484B54C
:10125000826084BD84B5816084BD85B5826085BDB2
:1012600085B5816085BD80916E00816080936E0040
:101270001092810080918100826080938100809132
:1012800081008160809381008091800081608093E3
:1012900080008091B10084608093B1008091B000A3
:1012A00081608093B0008091910082608093910072
:1012B0008091910081608093910080919000816085
:1012C000809390008091A10082608093A100809122
:1012D000A10081608093A1008091A0008160809333
:1012E000A0008091210182608093210180912101E1
:1012F0008160809321018091200181608093200191
:1013000080917A00846080937A0080917A00826074
:1013100080937A0080917A00816080937A00809136
:101320007A00806880937A001092C100E091DD031A
:10133000F091DE0382E08083E091D903F091DA033B
:101340001082E091DB03F091DC0380E18083109256
:10135000E503E091E103F091E20386E08083E09110
:10136000DF03F091E003808180618083E091DF03FF
:10137000F091E003808188608083E091DF03F09149
:10138000E003808180688083E091DF03F091E003D7
:1013900080818F7D808364EF71E080E090E0D1DA1E
:1013A00061E080E392DA60E080E360DA10924B075C
:1013B00010924A0710924907109248071092470767
:1013C000109246078DE991E090934D0780934C076A
:1013D00080913C0796EF980F943048F02EEC280F40
:1013E000243028F022EC280F283008F070C02DEBB4
:1013F00030E030934707209346072BE931E03093E4
:101400004907209348072CE231E030934B072093A3
:101410004A07943070F02EEC280F243050F022EC64
:10142000280F283010F40C948014A0E0B0E00C9445
:101430008214A8E6B0E0E8E6F0E02081943018F0ED
:101440008E53883010F081E001C084E0822B8C93B1
:1014500080913C0796EF980F943058F02EEC280FAF
:10146000243038F022EC280F283030F020E030E033
:1014700005C02BE630E002C02DE630E03093440793
:1014800020934307943010F49AEF0BC0823381F01D
:10149000833381F0843381F092EC980F983070F4AC
:1014A00092EC980F81E001C0880F9A95EAF707C087
:1014B00088E005C084E003C082E001C081E0809341
:1014C000450780914C0790914D070197F1F7809166
:1014D0004A0790914B07892B19F180915E039091F7
:1014E0005F0327E080339207D9F0009709F035DBDE
:1014F00080914E078E7F80934E0710925D0310926D
:101500005C0380E397E090935F0380935E03E09138
:101510004307F0914407908180914507892B808390
:1015200060E080914D05A2D961E080914D05CDD953
:101530006AE070E080E090E004DA60E080914D05C0
:10154000C4D968EE73E080E090E0FBD93DDD3CDD7E
:101550006BEB72E08EE495E00E948318892B09F40E
:101560000FC56AEF70E080E090E0EBD92DDD2CDD57
:1015700063ED72E08DEC93E04DDE41DC40DC3FDC5E
:101580008091490590914A05DC01ED91FC91048020
:10159000F581E02D19950091490510914A05D80172
:1015A000ED91FC91892B31F00680F781E02DC80187
:1015B0001995E6CF0190F081E02D6CE4C8011995F2
:1015C00063EE72E0C8019BDD10929F051CE08AE586
:1015D00095E000E1080F6EE475E080914905909177
:1015E0004A05A9DC892B09F453C0A0919F051A9FD5
:1015F000D0011124A056BA4FEEE4F5E0812F0190FE
:101600000D928A95E1F790909F05E92DF0E01E9FDD
:10161000D0011F9FB00D1124A555BA4F1C92EE0F9B
:10162000FF1FEE0FFF1FE453F94F10821182128249
:1016300013822AE5A22E25E0B22ED5018D915D01FF
:1016400090ED980F9A3040F081E0890D80939F05CE
:10165000893108F4C0CF1CC0C82ED12CB0E3CB1AFE
:10166000D1080D2C000CEE08FF0820813181428149
:101670005381AAE0B0E00E94D116C60ED71EE81E24
:10168000F91EC082D182E282F3820A11D6CFDCCF6A
:1016900000919F0566EE72E08DEC93E0BBDD63EF99
:1016A00072E08DEC93E0B6DD63EE72E08DEC93E0DA
:1016B00026DD8CE093E0AADD602F70E080E090E012
:1016C0004AE032DD63E173E08DEC93E0A3DD10EAE4
:1016D000E12E15E0F12E8CECC82E86E0D82E812C60
:1016E000912C540110E01017A1F14AE0C501B4019A
:1016F0001BDD8AE193E08ADD80919F05181710F4C5
:10170000C70102C080E090E081DD82E293E07EDDEF
:1017100080919F05181730F4F601608171818281F4
:10172000938103C060E070E0CB014AE0FDDC63EE32
:1017300072E08DEC93E0E3DC1F5FFCE0EF0EF11C48
:1017400024E0C20ED11C8FEF881A980AA80AB80AA2
:10175000CACF63EF72E08DEC93E05CDD61E08DE079
:10176000B4D8F89482E08093B0008093B10094E6FE
:101770009093B3001092B20080937000789480939D
:101780006A0410926E0480916B0460E09ED881E040
:1017900080936D0461E08DE098D80BE512E060E085
:1017A000D8018D918D0191D8B2E00E361B07B9F7A3
:1017B0000FE612E061E0F80181918F0186D8F2E036
:1017C00002381F07B9F7B3E5CB2EB2E0DB2E03E8F2
:1017D00012E0D801FD908D0161E08F2D76D861E097
:1017E0008F2D44D8F601F1906F0161E08F2D6DD8F7
:1017F00061E08F2D3BD8F2E00B381F0751F784E0F2
:1018000092E042DBCE0101966C0198E09C0D9F872F
:10181000D0D800913D0510913E0520913F053091B3
:1018200040050C5F1F4F2F4F3F4F06171707280724
:1018300039071CF1BED80091410510914205209155
:101840004305309144050D5E1F4F2F4F3F4F061744
:101850001707280739070CF0EFC060934105709314
:101860004205809343059093440588E0D6011D927C
:101870008A95E9F700E010E049C060933D05709358
:101880003E0580933F0590934005E0E6EE2EE3E0B1
:10189000FE2EFBE5AF2EF2E0BF2E0FE612E066242F
:1018A0006394A2E05A2ED801E2E1AE0F7A2ED8015D
:1018B0009C9060E0892D0E943604F50181905F01C3
:1018C000882D0E940E04892B19F4D7011C9216C092
:1018D000F701608261E0D8018C910E9436048BE4AC
:1018E00090E00197F1F7882D0E940E04892B11F4E6
:1018F000F701508260E0892D0E9436040F5F1F4F70
:10190000FFEFEF1AFF0A7012D2CF94CF202F40E0E2
:10191000B601C801805A9C4F36DA0F5F1F4F08305E
:101920001105A1F700E010E028E0200F41E0BE0122
:101930006E5F7F4FC80188599C4F25DA0F5F1F4F9C
:101940000830110589F700E010E020E1200F42E0A7
:10195000BE016D5F7F4FC80180599C4F14DA0F5F45
:101960001F4F0830110589F773E8A72E72E0B72ED4
:10197000760199249394F70101917F01602F6170A2
:1019800069258AE30E94360410E000951095B8019D
:1019900075956795617087E00E943604B80175956A
:1019A000679575956795617088E00E943604B80167
:1019B00023E0759567952A95E1F7617087E30E94AA
:1019C0003604B80134E0759567953A95E1F7617092
:1019D0008AE00E943604B80145E0759567954A95FE
:1019E000E1F7617088E30E943604B80156E075950E
:1019F00067955A95E1F761708CE30E943604000FF9
:101A0000012F001F110B602F61708DE30E943604BF
:101A1000D5011D915D0161E0812F0E94360462E0D5
:101A200070E080E090E00E94A10460E0812F0E94BD
:101A30003604BF85BE119FCF00910C0210910D029C
:101A4000F80180819181892B09F47EC00E94D9041C
:101A50004B015C0180914F0790915007A091510775
:101A6000B091520788169906AA06BB060CF46CC002
:101A7000B801110F880B990B99DB80E293E0C6DB6C
:101A8000E0910C02F0910D0260817181072E000C33
:101A9000880B990B8BDB80910C0290910D020296C2
:101AA00090930D0280930C028AE293E0AFDB609189
:101AB0000C0270910D02072E000C880B990B76DB3F
:101AC00080E293E0A3DBE0910C02F0910D026081D3
:101AD0007181072E000C880B990B68DB63EE72E0B6
:101AE0008DEC93E00CDB00910C0210910D02D801FB
:101AF0008D919C91892B29F460E080E30E9436044B
:101B000023C080E30E940E0461E0892B09F060E0AD
:101B100080E30E943604F8012081318146E4429F2F
:101B2000C001439F900D1124092E000CAA0BBB0B82
:101B3000880E991EAA1EBB1E80924F0790925007D6
:101B4000A0925107B092520781E794E09093C803A6
:101B50008093C70380916E0490E09093CA038093B2
:101B6000C90380913B0590E09093CC038093CB0315
:101B700080916A04853009F000C2809173049091CD
:101B80007404885891098D35910588F480916E040C
:101B9000843041F480917504909176048097479742
:101BA00008F40DC280916E04843408F0EFC1809176
:101BB0006E048A3108F452C08091710490917204CD
:101BC000843F914080F41092C6031092C5038FEFBA
:101BD0009FEFDC018093C1039093C203A093C303E2
:101BE000B093C40359C08091730490917404859795
:101BF0004B97A0F5E7E7F4E082E090E0812C912C90
:101C00005401AC014F5F5F4F20916E0430E04217EA
:101C100053075CF4DF0112972D913C912750310955
:101C20002730310508F412C2CA01019795958795AE
:101C30009093C6038093C5030C972CF41092C603AF
:101C40001092C5030BC08092C1039092C203A09270
:101C5000C303B092C40384E090E017C380916E0484
:101C60008A3108F44AC080917104909172048032E4
:101C7000934008F4A8CF8091730490917404C697A0
:101C8000869708F400C239C08092C1039092C203C3
:101C9000A092C303B092C4038BE090E0F6C28081AF
:101CA000918185974B9708F000C2880C991CAA1C5B
:101CB000BB1C689480F82E5F3F4F3496C901019693
:101CC00040916E0450E0841795070CF0ECC1DF01E1
:101CD00012974D915C914C5051094B305105F8F2DF
:101CE0000197959587959093C6038093C5030C97AC
:101CF0005CF61092C6031092C50380916E04823286
:101D000008F44CC08091730490917404069707976F
:101D100008F044C0E7E7F4E082E090E040E050E003
:101D2000BA018C010F5F1F4F20916E0430E0021743
:101D30001307DCF4DF0112972D913C9111972E517E
:101D400031092731310508F0BBC1440F551F661F0B
:101D5000771F41602081318134962350310925302D
:101D6000310510F40296DDCFC8010197959587954E
:101D70009093C6038093C50340972CF41092C6033A
:101D80001092C5030BC04093C1035093C2036093EC
:101D9000C3037093C4038CE090E077C21A8619865F
:101DA00081E090E09A83898380916E048D3008F4FD
:101DB00061C049E753E0BE01675F7F4FC6012ED97E
:101DC000892B09F057C049E753E0BE01675F7F4F99
:101DD000C60124D9019709F04DC049E753E0BE017F
:101DE000675F7F4FC6011AD9892B09F043C0812C48
:101DF000912C540100E010E080916E0490E0298164
:101E00003A81281739073CF549E753E0BE01675F7F
:101E10007F4FC60103D97C0149E753E0BE01675FEC
:101E20007F4FC601FBD8B1E0EB16F10449F4892BD2
:101E300009F5880C991CAA1CBB1C689480F808C082
:101E4000EF28C1F40197B1F4880C991CAA1CBB1CA3
:101E50000F5F1F4FD1CF1093C6030093C50380922D
:101E6000C1039092C203A092C303B092C40381E065
:101E700090E00BC21A86198681E090E09A838983EC
:101E80008091C9039091CA03181619060CF04FC02F
:101E9000E091C703F091C80382E090E09A838983C0
:101EA0008281938189974E9708F041C083E090E04A
:101EB0009A838983848195810B970A97C0F54CEBAF
:101EC00051E0BE01675F7F4FC601A8D8892B79F525
:101ED0004CEB51E0BE01675F7F4FC6019FD8019771
:101EE00031F5412C512C320100E010E029813A817A
:101EF0008091C9039091CA03281739070CF021C1BA
:101F00004CEB51E0BE01675F7F4FC60187D85C0193
:101F10000330110509F0E1C04CEB51E0BE01675FF1
:101F20007F4FC6017BD8A816B90609F4D6C0E09148
:101F3000C703F091C80382819381C697869708F4FE
:101F40000FC161C18E35F2EA9F07FFEFAF07B10500
:101F500008F4C6C18F34E0EB9E07EFEFAE07B10582
:101F600009F0CAC1109252028AE392E00E9444072B
:101F700082E080936A0410926E040E94090248CCA9
:101F80006CE273E08DEC93E045D9FFCF809175044E
:101F900090917604825491098E9708F008CE80E0E3
:101FA00090E040E050E0BA01FC01E958FB4F20818D
:101FB00031812950310929303105C8F0F8CD80919F
:101FC0007704909178040997099708F0EBCD109267
:101FD000C6031092C5038FEF9FEFDC018093C1030E
:101FE0009093C203A093C303B093C40391C1FC01B7
:101FF000E758FB4F208131812751310922313105CA
:10200000C0F4440F551F661F771F41600496803847
:10201000910551F680E290E09093C6038093C5034A
:102020004093C1035093C2036093C3037093C403EE
:102030006FC120813181265031092730310508F0E8
:10204000B6CD440F551F661F771FE0CF2081318129
:10205000235131092F30310548F4880C991CAA1CF2
:10206000BB1C689480F802963496CBCD20813181D8
:102070002A5031092930310508F0F0CD880C991C1F
:10208000AA1CBB1CF0CF8091750490917604C69772
:10209000869708F032CEE9E7F4E023E030E0812CC7
:1020A000912C54010BCEC9011BCE808191810C97DC
:1020B0000A9708F022CE880C991CAA1CBB1CFBCDE9
:1020C0002D913C912C5031092B30310508F066CE12
:1020D000440F551F661F771F3DCE4CEB51E0BE01EC
:1020E000675F7F4FC6010E940E087C010330110517
:1020F00061F44CEB51E0BE01675F7F4FC6010E9467
:102100000E08E816F90609F012CFA114B10459F42B
:10211000EA94EF2809F00BCF440C551C661C771C81
:10212000689440F80BC0AA94AB2809F000CFEF28C0
:1021300009F0FDCE440C551C661C771C0F5F1F4F29
:10214000D5CE1093C6030093C5034092C1035092AD
:10215000C2036092C3037092C40382E090E095C012
:10216000848195814B97459708F04DC0DF01169605
:102170007F0186ECE80EF11C20E030E040E050E00A
:1021800060E070E080E090E00D911C9111970950A3
:10219000110908301105B8F512960D911C9113978D
:1021A000015111090D30110510F501E05DD72160D5
:1021B0001496AE15BF0541F72093C1033093C203B7
:1021C0004093C3035093C40300E269D72093BF0335
:1021D0003093C00385E090E09093BE038093BD03ED
:1021E00080E390E09093C6038093C50352C012969B
:1021F0000D911C911397045011090530110518F425
:1022000001E032D7D5CF80916E04893340F08281CE
:102210009381895791098335910508F486C180918E
:102220006E04823209F477C08281938189579109C3
:102230008335910508F4F7C1828193818C5491090B
:10224000C59708F074C080916E04843009F06AC0AC
:10225000848195818097479708F064C08681978133
:102260000997099708F05EC01092C6031092C50343
:102270008FEF9FEFDC018093C1039093C203A09383
:10228000C303B093C40387E090E09093BE038093B0
:10229000BD036091C1037091C2038091C30390910B
:1022A000C40340E10E94940863EE72E08DEC93E079
:1022B0000E947F088091C1039091C203A091C30343
:1022C000B091C4038D35E2EA9E07EFEFAE07B1058A
:1022D00009F038CE82E08093520286E192E046CE49
:1022E0008D3D9242AF4FB10509F042CE81E080931F
:1022F000520284E292E03ACE8D31924EAF4FB10558
:1023000009F036CE83E0809352028EE092E02ECE2A
:1023100083E090E0BACF828193810A97099708F40D
:1023200063C182CF80916E04843408F0E1C1809152
:102330006E04863460F1828193810C970B9708F4C8
:1023400028C225C0D90112966D917C9113976E51C8
:1023500071096731710508F054C2D501C401880FB5
:10236000991FAA1FBB1F4C015D01689480F84E5F46
:102370005F4F2C5F3F4F4534510509F425C2D90109
:102380006D917C916C5071096B307105D8F2809120
:102390006E04883578F182819381855891098B3557
:1023A000910508F43EC226C0BC016F5F7F4FD80183
:1023B0004D915C91475051094730510508F040C29A
:1023C000220F331F216002960C5F1F4F40916E0455
:1023D00050E044505109841795070CF03AC2A80107
:1023E00042505109DA014D915C91495051094830F0
:1023F0005105D0F280916E048032E1F482819381A4
:1024000006970697B8F4848195810997099790F407
:102410009F012A5F3F4FBF01625C7F4F812C912C4F
:102420005401D9014D915C914650510946305105F6
:1024300008F42BC20091C9031091CA03063011059C
:102440000CF496CD7F01B6E0EB0EF11CB5EC8B2EB3
:10245000BDE99B2EBCE1AB2EB1E8BB2E83E0282E5C
:10246000312CF7016081718134976080718080E048
:1024700090E082D36B877C878D879E87B30180E055
:1024800090E07AD32B013C012DEC3CEC4CE45FE373
:10249000D4D39B01AC016B857C858D859E8568D3EB
:1024A00087FD17C02DEC3CEC4CE45FE36B857C852D
:1024B0008D859E85C2D39B01AC01C301B20158D367
:1024C000E82F880FFF0BEE27FF0FEE1FFF27319637
:1024D00002C0E0E0F0E0A501940163E971E080E072
:1024E00091E076D54F01FF0FAA08BB0886269726F4
:1024F000A826B926FFEF2F1A3F0A22E0E20EF11CB0
:102500002016310609F0ADCF8092C1039092C2032C
:10251000A092C303B092C40380E290E09093C603FC
:102520008093C5038FEF9FEFB0CE84819581CA97CA
:10253000899708F074CE9F012A5F3F4F812C912C20
:10254000540143E050E0D9016D917C916A507109CA
:102550006930710508F063CED90112966D917C91B6
:102560001397665171096131710570F5D501C40188
:10257000880F991FAA1FBB1F4C015D01689480F84A
:102580004E5F5F4F2C5F3F4F4B335105E1F69F018C
:102590002A583F4FD9012D913C912A5031092930B9
:1025A000310508F03CCE2CE130E03093C603209397
:1025B000C5038092C1039092C203A092C303B0925C
:1025C000C4038AE090E061CED90112966D917C91AE
:1025D0001397665071096730710508F020CE880C9A
:1025E000991CAA1CBB1CCCCF20916E04CF01820F7A
:1025F000911D820F911DDC0112978D919C910A977C
:10260000099708F011CE1092C6031092C5038FEF00
:102610009FEFDC018093C1039093C203A093C30397
:10262000B093C40362C080916E04813208F404CE7A
:1026300084819581CA97899708F0FECD9F012A5F12
:102640003F4F812C912C540143E050E0D9016D9112
:102650007C916A5071096930710508F0EDCDD9019E
:1026600012966D917C9113976651710961317105D4
:1026700060F5D501C401880F991FAA1FBB1F4C012B
:102680005D01689480F84E5F5F4F2C5F3F4F43328F
:102690005105E1F69F012A5B3F4FD9012D913C91F5
:1026A0002A5031092930310508F0C6CD20E130E04B
:1026B0003093C6032093C5038092C1039092C20356
:1026C000A092C303B092C40310C0D90112966D91B9
:1026D0007C911397665071096730710508F0ACCD95
:1026E000880C991CAA1CBB1CCECF86E090E0CDCDF7
:1026F0008481958189549109C39708F018CE9F0170
:102700002A5F3F4FBF016A577F4F812C912C5401A4
:10271000D9014D915C91495051094930510508F05A
:1027200006CED90112964D915C91139746515109ED
:1027300041315105F0F4D501C401880F991FAA1F3A
:10274000BB1F4C015D01689480F82C5F3F4F26173A
:102750003707F1F620E230E03093C6032093C5033B
:102760008092C1039092C203A092C303B092C403AB
:102770008ACDD90112964D915C911397465051091B
:102780004730510508F0D3CD880C991CAA1CBB1CFE
:10279000DCCF848195810997099708F0F8CD86816F
:1027A00097818C974F9708F0F2CD80859185899716
:1027B0004D9708F0ECCD9F01265F3F4F812C912C67
:1027C000540145E050E0DBCD9F0126573F4FD90132
:1027D0002D913C912C5031092B30310508F0D7CD8B
:1027E00020E230E03093C6032093C5038092C103FA
:1027F0009092C203A092C303B092C40388E090E019
:1028000044CDD90112966D917C911397695071094D
:102810006930710508F0BBCD880C991CAA1CBB1C43
:10282000A6CD84819581825491098E9708F0E2CDDE
:102830008F01045C1F4F8DE190E020E030E0C6CDB9
:10284000D8014D915C914851510942315105D0F068
:10285000CB010197959587959093C6038093C50307
:102860008A970CF4C7CDC901330FAA0BBB0B809319
:10287000C1039093C203A093C303B093C40389E040
:1028800090E003CD220F331F9ECDD90112964D91BA
:102890005C911397495151094331510508F5D50110
:1028A000C401880F991FAA1FBB1F4C015D016894CA
:1028B00080F82C5F3F4F2617370709F0B2CD2EE086
:1028C00030E03093C6032093C5038092C1039092F9
:1028D000C203A092C303B092C4038FE090E0D5CCB2
:1028E000D90112964D915C91139749505109493085
:1028F000510508F09FCD880C991CAA1CBB1CD9CF90
:10290000A8E6B0E0283010F40C941B0AE0E0F0E0F8
:102910000C941D0A8FEA92E0909331078093300760
:1029200080E397E00C94AD05CF92DF92EF92FF9297
:102930001092D0031092CF0398EEC92E93E0D92EB7
:10294000E12CF12CC092D103D092D203E092D303B8
:10295000F092D40387E992E09093CE038093CD0365
:1029600085EC90E09093DA038093D90384EC90E0B7
:102970009093DC038093DB0380EC90E09093DE0384
:102980008093DD0381EC90E09093E0038093DF037C
:1029900082EC90E09093E2038093E10386EC90E078
:1029A0009093E4038093E3031092E6031092E7030D
:1029B0001092E8031092E9030E94D90460934F0734
:1029C00070935007809351079093520710923307EA
:1029D00010923207C0923407D0923507E092360742
:1029E000F09237078FEA92E0909331078093300797
:1029F0001092470710924607109249071092480715
:102A000010924B0710924A0710924D0710924C07F4
:102A100060914E076E7F6D7F60934E076695617083
:102A200081E0682785E30E94360461E085E30E9427
:102A30006504EDE1F2E0E491E0934007E7EDF1E0B9
:102A4000E491F0E0EE0FFF1FE259FE4F8591949163
:102A5000909342078093410760E082E30E946504FF
:102A600080914E0781FD04C061E082E30E9436043C
:102A700082E380933C07EAE1F2E0E491E0933D07D2
:102A8000E4EDF1E0E491F0E0EE0FFF1FE857FE4FB8
:102A90008591949190933F0780933E07109248054B
:102AA0001092470587EA92E090934605809345058A
:102AB00080E397E090934A058093490510924C0576
:102AC00010924B0583E380934D0584EF91E0A0E0E5
:102AD000B0E08093340790933507A0933607B09306
:102AE000370710929E0510929F050E94D9046093AB
:102AF00041057093420580934305909344050E94DD
:102B0000D90460933D0570933E0580933F059093F3
:102B100040058EE280936B0410926D04FF90EF905D
:102B2000DF90CF900895FC0188279927E8942191A0
:102B30002032E9F3293010F02E30C8F32B3239F06F
:102B40002D3231F4689403C00BD0820F911D219176
:102B500020532A30C8F31EF4909581959F4F089515
:102B60007AE0979F902D879F802D910D11240895D5
:102B700040D008F481E00895E89409C097FB3EF442
:102B800090958095709561957F4F8F4F9F4F9923BA
:102B9000A9F0F92F96E9BB279395F6958795779538
:102BA0006795B795F111F8CFFAF4BB0F11F460FFF8
:102BB0001BC06F5F7F4F8F4F9F4F16C0882311F050
:102BC00096E911C0772321F09EE8872F762F05C064
:102BD000662371F096E8862F70E060E02AF09A95FF
:102BE000660F771F881FDAF7880F9695879597F9F4
:102BF0000895990F0008550FAA0BE0E8FEEF16168E
:102C00001706E807F907C0F012161306E407F507E0
:102C100098F0621B730B840B950B39F40A2661F054
:102C2000232B242B252B21F408950A2609F4A140F7
:102C3000A6958FEF811D811D08950BD078C069D0B6
:102C400028F06ED018F0952309F05AC05FC0112407
:102C5000A2C07ED0A0F3959FD1F3950F50E0551FF1
:102C6000629FF001729FBB27F00DB11D639FAA27E1
:102C7000F00DB11DAA1F649F6627B00DA11D661F30
:102C8000829F2227B00DA11D621F739FB00DA11D51
:102C9000621F839FA00D611D221F749F3327A00D0B
:102CA000611D231F849F600D211D822F762F6A2FA7
:102CB00011249F5750408AF0E1F088234AF0EE0F2C
:102CC000FF1FBB1F661F771F881F91505040A9F739
:102CD0009E3F510570F014C05EC05F3FECF3983E1C
:102CE000DCF3869577956795B795F795E7959F5FA0
:102CF000C1F7FE2B880F911D9695879597F908953A
:102D000097F99F6780E870E060E008959FEF80EC9E
:102D1000089500240A941616170618060906089541
:102D200000240A9412161306140605060895092EA7
:102D30000394000C11F4882352F0BB0F40F4BF2B16
:102D400011F460FF04C06F5F7F4F8F4F9F4F089556
:102D500057FD9058440F551F59F05F3F71F047954C
:102D6000880F97FB991F61F09F3F79F08795089531
:102D7000121613061406551FF2CF4695F1DF08C050
:102D8000161617061806991FF1CF8695710561056D
:102D900008940895E894BB2766277727CB0197F915
:102DA000089509D0A59F900DB49F900DA49F800D0C
:102DB000911D11240895A29FB001B39FC001A39F4C
:102DC000700D811D1124911DB29F700D811D112464
:102DD000911D08955058BB27AA270ED0A8CF99DF80
:102DE00030F09EDF20F031F49F3F11F41EF48ECFBF
:102DF0000EF4E095E7FB84CFE92FAADF80F3BA1742
:102E0000620773078407950718F071F49EF5C2CF27
:102E10000EF4E0950B2EBA2FA02D0B01B9019001F5
:102E20000C01CA01A0011124FF27591B99F0593F39
:102E300050F4503E68F11A16F040A22F232F342F81
:102E40004427585FF3CF469537952795A795F040CF
:102E50005395C9F77EF41F16BA0B620B730B840BE4
:102E6000BAF09150A1F0FF0FBB1F661F771F881F9C
:102E7000C2F70EC0BA0F621F731F841F48F48795F4
:102E800077956795B795F7959E3F08F0B3CF9395E3
:102E9000880F08F09927EE0F9795879508950CD025
:102EA00046CF3EDF40F035DF30F021F45F3F19F0D0
:102EB00027CF511170CF2ACF4BDF98F39923C9F355
:102EC0005523B1F3951B550BBB27AA276217730730
:102ED000840738F09F5F5F4F220F331F441FAA1FE4
:102EE000A9F333D00E2E3AF0E0E830D091505040A4
:102EF000E695001CCAF729D0FE2F27D0660F771F52
:102F0000881FBB1F261737074807AB07B0E809F033
:102F1000BB0B802DBF01FF2793585F4F2AF09E3FC8
:102F2000510568F0EDCE37CF5F3FECF3983EDCF310
:102F3000869577956795B795F7959F5FC9F7880F41
:102F4000911D9695879597F90895E1E0660F771F93
:102F5000881FBB1F621773078407BA0720F0621B24
:102F6000730B840BBA0BEE1F88F7E095089504D01D
:102F70006894B11110CF0895F3DE88F09F5790F058
:102F8000B92F9927B751A0F0D1F0660F771F881F8E
:102F9000991F1AF0BA95C9F712C0B13081F0FADE64
:102FA000B1E00895F7CE672F782F8827B85F39F002
:102FB000B93FCCF3869577956795B395D9F73EF4ED
:102FC00090958095709561957F4F8F4F9F4F089595
:102FD000DB018F939F93E5DEBF91AF91A29F800DA0
:102FE000911DA39F900DB29F900D1124089597FB02
:102FF000072E16F4009406D077FD08D06CD007FC9D
:1030000005D03EF4909581959F4F089570956195F8
:103010007F4F0895A1E21A2EAA1BBB1BFD010DC014
:10302000AA1FBB1FEE1FFF1FA217B307E407F50778
:1030300020F0A21BB30BE40BF50B661F771F881F54
:10304000991F1A9469F760957095809590959B01EA
:10305000AC01BD01CF010895EE0FFF1F881F8BBF8C
:103060000790F691E02D19940F93083090F0982F67
:10307000872F762F652F542F432F322F222708506A
:10308000F4CF220F331F441F551F661F771F881F61
:10309000991F0A95B2F70F91089597FB10F81694AF
:1030A00000080F93083098F00850232F342F452F35
:1030B000562F672F782F892F902DF4CF0594979551
:1030C00087957795679557954795379527950A95ED
:1030D000AAF70F910895AA1BBB1B51E107C0AA1FB5
:1030E000BB1FA617B70710F0A61BB70B881F991FA9
:1030F0005A95A9F780959095BC01CD01089581E07E
:1031000090E0F8941AC0FB0151915523A9F0BF013A
:10311000DC014D9145174111E1F759F4CD010190C2
:10312000002049F04D9140154111C9F3FB014111B7
:10313000EFCF81E090E00197089511E0C8E1D1E080
:1031400000E005C0802FFE0187DF2196011DC931F7
:0C315000D10780E00807B1F7F894FFCF2A
:10315C000100000001000100050000000202050052
:10316C000100050000000100010005000100010044
:10317C00010000000100010001000100010001003C
:10318C00050001000500010000000500050001001C
:10319C00050001000100010001000100050005000F
:1031AC000000023A0708370A383C3D1A1B1C1D1E4A
:1031BC001F2021222423262528272A292C2B2D02C7
:1031CC0003044445111013121415181617424340EA
:1031DC00413F3E09060B05390C3B36010204081031
:1031EC0020408000000000A20170076C014A015EC3
:1031FC0001E80100000000BC027007000000002183
:10320C0003700775038C0308032003416461667225
:10321C0075697420465820536F756E6420426F6137
:10322C0072640053465820626F61726420666F7539
:10323C006E64000D0A0046696C65204C69737469F4
:10324C006E67003D3D3D3D3D3D3D3D3D3D3D3D3D84
:10325C003D3D3D3D3D3D3D3D3D3D3D00466F756E2B
:10326C006420002046696C657300096E616D653AD7
:10327C0020000973697A653A20002D004E6F742086
:10328C00666F756E6400566F6C2075702E2E2E0056
:10329C002B004661696C656420746F2061646A75EB
:0C32AC00737400566F6C756D653A20005D
:020000023000CC
:10E000000D9489F10D94B2F10D94B2F10D94B2F129
:10E010000D94B2F10D94B2F10D94B2F10D94B2F1F0
:10E020000D94B2F10D94B2F10D94B2F10D94B2F1E0
:10E030000D94B2F10D94B2F10D94B2F10D94B2F1D0
:10E040000D94B2F10D94B2F10D94B2F10D94B2F1C0
:10E050000D94B2F10D94B2F10D94B2F10D94B2F1B0
:10E060000D94B2F10D94B2F10D94B2F10D94B2F1A0
:10E070000D94B2F10D94B2F10D94B2F10D94B2F190
:10E080000D94B2F10D94B2F10D94B2F10D94B2F180
:10E090000D94B2F10D94B2F10D94B2F10D94B2F170
:10E0A0000D94B2F10D94B2F10D94B2F10D94B2F160
:10E0B0000D94B2F10D94B2F10D94B2F10D94B2F150
:10E0C0000D94B2F10D94B2F10D94B2F10D94B2F140
:10E0D0000D94B2F10D94B2F10D94B2F10D94B2F130
:10E0E0000D94B2F141546D656761323536300041AF
:10E0F000726475696E6F206578706C6F72657220DE
:10E1000073746B3530305632206279204D4C530099
:10E11000426F6F746C6F616465723E004875683F52
:10E1200000436F6D70696C6564206F6E203D200048
:10E130004350552054797065202020203D20005FF9
:10E140005F4156525F415243485F5F3D2000415658
:10E1500052204C696243205665723D20004743437C
:10E160002056657273696F6E203D20004350552024
:10E1700049442020202020203D20004C6F7720663D
:10E18000757365202020203D20004869676820665F
:10E190007573652020203D200045787420667573D6
:10E1A00065202020203D20004C6F636B2066757336
:10E1B000652020203D20004D617220203720323024
:10E1C000313300312E362E3800342E332E350056A2
:10E1D00023202020414444522020206F7020636F70
:10E1E00064652020202020696E73747275637469E1
:10E1F0006F6E2061646472202020496E74657272B3
:10E20000757074006E6F20766563746F7200726A49
:10E210006D702020006A6D70200057686174207056
:10E220006F72743A00506F7274206E6F7420737541
:10E2300070706F72746564004D7573742062652030
:10E2400061206C6574746572002000577269747483
:10E25000696E672045450052656164696E672045B7
:10E26000450045452065727220636E743D00504F35
:10E27000525400303D5A65726F2061646472003FF1
:10E280003D43505520737461747300403D454550C3
:10E29000524F4D207465737400423D426C696E6B41
:10E2A000204C454400453D44756D70204545505215
:10E2B0004F4D00463D44756D7020464C415348001B
:10E2C000483D48656C70004C3D4C69737420492F83
:10E2D0004F20506F72747300513D51756974005234
:10E2E0003D44756D702052414D00563D73686F7707
:10E2F00020696E7465727275707420566563746FF0
:10E30000727300593D506F727420626C696E6B00BD
:10E310002A0011241FBECFEFD1E2DEBFCDBF01E046
:10E320000CBF12E0A0E0B2E0EEE1FDEF03E00BBFB6
:10E3300002C007900D92A030B107D9F712E0A0E01B
:10E34000B2E001C01D92AE30B107E1F70F9460F367
:10E350000D948DFE01E20EBF0FEF0DBF11241FBE05
:10E360000D9460F30D9400F020E030E040ED57E0B4
:10E3700005C0FA013197F1F72F5F3F4F2817390792
:10E38000C0F308959C01260F311DC901A0E0B0E043
:10E390002F5F3F4FABBFFC018791882361F08093D3
:10E3A000C6008091C00086FFFCCF8091C0008064D1
:10E3B0008093C000EACF08958DE08093C6008091DD
:10E3C000C00086FFFCCF8091C00080648093C000B5
:10E3D0008AE08093C6008091C00086FFFCCF8091C8
:10E3E000C00080648093C00008950F94C2F10F9420
:10E3F000DCF10895FC019081992359F09093C600B7
:10E400008091C00086FFFCCF8091C0008064809323
:10E41000C0003196992379F70895282F982F929567
:10E420009F70892F805D8A3308F0895F8093C600D2
:10E430008091C00086FFFCCF8091C00080648093F3
:10E44000C000822F8F70982F905D9A3308F0995FEB
:10E450009093C6008091C00086FFFCCF8091C000E1
:10E4600080648093C00008959C01FB01853691056E
:10E470001CF46330710594F0C90164E670E00F94F8
:10E480002EFE605D7F4F6093C6008091C00086FFC6
:10E49000FCCF8091C00080648093C0002B30310598
:10E4A00014F43297B4F0C90164E670E00F942EFEC4
:10E4B0006AE070E00F942EFE605D7F4F6093C600AF
:10E4C0008091C00086FFFCCF8091C0008064809363
:10E4D000C000C9016AE070E00F942EFEC0968093E0
:10E4E000C6008091C00086FFFCCF8091C000806490
:10E4F0008093C00008951F93182F8EE692EE60E07F
:10E500000F94C2F11093C6008091C00086FFFCCF2B
:10E510008091C00080648093C0000F94DCF11F9153
:10E5200008952F923F924F925F926F927F928F92B7
:10E530009F92AF92BF92CF92DF92EF92FF920F9392
:10E540001F93DF93CF93CDB7DEB762970FB6F894E2
:10E55000DEBF0FBECDBF382E622ECA01DB015C01CB
:10E560006D01772420E2222E2E010894411C511CBB
:10E570008BC081E0A81680E0B80681E0C80680E084
:10E58000D80628F0C601AA27BB270F940DF2BB2797
:10E59000AD2D9C2D8B2D0F940DF28A2D0F940DF225
:10E5A0002092C6008091C00086FFFCCF8091C00001
:10E5B00080648093C0009DE29093C6008091C0006B
:10E5C00086FFFCCF8091C00080648093C0002092C1
:10E5D000C6008091C00086FFFCCF8091C00080649F
:10E5E0008093C00019828601750188249924A1E0D6
:10E5F0003A1651F03A1620F0B2E03B1661F409C029
:10E600000BBFF701779007C0C7010F9477FE782EF4
:10E6100002C0F7017080872D0F940DF22092C60082
:10E620008091C00086FFFCCF8091C0008064809301
:10E63000C000872D8052F401EF70F0708F3520F408
:10E64000E40DF51D708204C0E40DF51D8EE280839B
:10E650000894E11CF11C011D111D0894811C911CE2
:10E6600090E18916910409F0C2CF80E190E0A0E02A
:10E67000B0E0A80EB91ECA1EDB1E198AC2010F9493
:10E68000FAF10F94DCF16A94662009F072CF629679
:10E690000FB6F894DEBF0FBECDBFCF91DF911F91B3
:10E6A0000F91FF90EF90DF90CF90BF90AF909F9031
:10E6B0008F907F906F905F904F903F902F90089534
:10E6C0002F923F924F925F926F927F928F929F9282
:10E6D000AF92BF92CF92DF92EF92FF920F931F9370
:10E6E000DF93CF93CDB7DEB7CD53D1400FB6F894BB
:10E6F000DEBF0FBECDBF01E20EBF0FEF0DBF94B75F
:10E70000F894A89514BE80916000886180936000A1
:10E7100010926000789493FF05C0E0910002F091A0
:10E7200001021995279A2F9A8091C00082608093E8
:10E73000C00080E18093C40088E18093C1000000A4
:10E74000EE24FF24870144E0A42EB12CCC24DD2448
:10E7500024C0C5010197F1F70894E11CF11C011DCB
:10E76000111D21E2E2162EE4F20620E0020720E06D
:10E77000120718F031E0C32ED12CC801B70127ECE5
:10E780003BE140E050E00F9441FE611571058105C9
:10E79000910519F485B1805885B98091C00087FD35
:10E7A00003C0C114D104A9F2A6014F5F5F4FC25E3E
:10E7B000DE4F59834883CE51D140C25EDE4F8881FF
:10E7C0009981CE51D140019711F00D9410FEC05D9A
:10E7D000DE4F19821882C053D14060E0C15DDE4F28
:10E7E0001882CF52D14088249924C35DDE4F19820C
:10E7F0001882CD52D140C05EDE4F188219821A8233
:10E800001B82C052D140CE5CDE4F188219821A8220
:10E810001B82C253D140EE24FF2487010BBFF701B6
:10E8200007911691C45CDE4F19830883CC53D14005
:10E830000D940BFEC25EDE4F28813981CE51D1404E
:10E840002130310509F52091C600C25EDE4F1982E4
:10E850001882CE51D14022C02F5F3F4F4F4F5F4FA4
:10E86000213082E138078AE7480780E0580780F0C6
:10E87000C45CDE4FE881F981CC53D140EF5FFF4F9C
:10E8800019F0EE27FF27099420E030E040E050E047
:10E890008091C00087FFE0CF2091C600C35DDE4FAE
:10E8A00048815981CD52D1404F5F5F4FC35DDE4FEC
:10E8B00059834883CD52D140213209F063C64A3092
:10E8C000510508F05FC60894811C911C53E0851621
:10E8D000910409F059C600E010E018C081E280936D
:10E8E000C6008091C00086FFFCCF8091C00080648C
:10E8F0008093C0002F5F3F4F2931310579F70F9486
:10E90000DCF10F5F1F4F0530110519F020E030E0FA
:10E91000E5CF10920A0210920B0210920C02109294
:10E920000D02109206021092070210920802109235
:10E930000902109202021092030210920402109235
:10E9400005028FEE90EE60E00F94F5F180E191EE1C
:10E9500060E00F94C2F18091C00087FFFCCF9091DE
:10E96000C600903608F09F759032B8F09093C600BC
:10E970008091C00086FFFCCF8091C00080648093AE
:10E98000C000A0E2A093C6008091C00086FFFCCF2B
:10E990008091C00080648093C000983409F4D7C18E
:10E9A0009934B8F4923409F459C1933458F490333B
:10E9B00019F1903308F4E3C59F33A1F1903409F0C5
:10E9C000DEC5BDC0953409F470C1963409F0D7C5D1
:10E9D00098C1923509F42BC2933538F49C3409F46C
:10E9E000F5C1913509F0CBC518C2963509F445C279
:10E9F000993509F0C4C567C483E792EE62E00F94CD
:10EA0000F5F110920602109207021092080210927D
:10EA1000090210920A0210920B0210920C0210923C
:10EA20000D0213C18FE792EE62E00F94F5F18FEEC5
:10EA300090EE60E00F94F5F181E291EE60E00F94CA
:10EA4000C2F187EB91EE60E00F94F5F180E391EE77
:10EA500060E00F94C2F184EE90EE60E00F94F5F167
:10EA60008FE391EE60E00F94C2F186E090E061E008
:10EA700070E00F9434F20F94DCF18DE591EE60E0DC
:10EA80000F94C2F189EC91EE60E00F94F5F18EE401
:10EA900091EE60E00F94C2F183EC91EE60E00F9490
:10EAA000F5F18CE691EE60E00F94C2F18EE10F94E7
:10EAB0000DF288E90F940DF281E00F940DF20F949E
:10EAC000DCF18BE791EE60E00F94C2F119E0E0E039
:10EAD000F0E010935700E4918E2F0F940DF20F94F5
:10EAE000DCF18AE891EE60E00F94C2F1E3E0F0E03F
:10EAF00010935700E4918E2F0F940DF20F94DCF1D8
:10EB000089E991EE60E00F94C2F1E2E0F0E0109349
:10EB10005700E4918E2F0F940DF20F94DCF188EAE8
:10EB200091EE60E00F94C2F1E1E0F0E01093570045
:10EB30001491812F0F940DF20F94DCF107CF8BE825
:10EB400092EE62E00F94F5F18BE492EE60E00F94A8
:10EB5000F5F10F94DCF100E010E019C0C8016F2D51
:10EB60000F947FFEFF2031F489E492EE60E00F9471
:10EB7000C2F10BC0F092C6008091C00086FFFCCFAE
:10EB80008091C00080648093C0000F5F1F4FC80158
:10EB900081519F41A0E0B0E0ABBFFC01F790BAE229
:10EBA000FB1621F0E2E000301E07C1F60F94DCF105
:10EBB0000F94DCF187E592EE60E00F94F5F10F948D
:10EBC000DCF1CC24DD2400E010E01EC0C8010F946D
:10EBD00077FEF82E882331F489E492EE60E00F94FA
:10EBE000C2F10BC08093C6008091C00086FFFCCFAD
:10EBF0008091C00080648093C000FE1419F00894D6
:10EC0000C11CD11C0F5F1F4FC80181519F41A0E063
:10EC1000B0E0ABBFFC01E790FAE2EF1621F022E092
:10EC20000030120799F60F94DCF10F94DCF182E6C4
:10EC300092EE60E00F94C2F1C60161E070E00F94C3
:10EC400034F20F94DCF10F94DCF110920202109276
:10EC50000302109204021092050278CE89E992EE26
:10EC600062E00F94F5F1279A2F9A16C02F9880E052
:10EC700090E0E0EDF7E03197F1F7019684369105E9
:10EC8000C1F72F9A80E090E0E0EDF7E03197F1F7DF
:10EC9000019684369105C1F78091C00087FFE6CFC9
:10ECA0008091C00087FFFCCF64C485EA92EE62E0E9
:10ECB0000F94F5F140910202509103026091040219
:10ECC0007091050281E020E10F9491F2809102029F
:10ECD00090910302A0910402B091050280509F4FD1
:10ECE000AF4FBF4F8093020290930302A0930402A0
:10ECF000B093050280509041A040B04008F426CE69
:10ED0000A4CF83EB92EE62E00F94F5F140910602FE
:10ED100050910702609108027091090280E020E1A1
:10ED20000F9491F28091060290910702A09108023F
:10ED3000B091090280509F4FAF4FBF4F80930602A2
:10ED400090930702A0930802B0930902FFCD80ECD4
:10ED500092EE62E00F94F5F183E792EE60E00F949B
:10ED6000F5F18FE792EE60E00F94F5F18BE892EE0B
:10ED700060E00F94F5F189E992EE60E00F94F5F10F
:10ED800085EA92EE60E00F94F5F183EB92EE60E09D
:10ED90000F94F5F180EC92EE60E00F94F5F187ECC2
:10EDA00092EE60E00F94F5F188ED92EE60E00F9442
:10EDB000F5F18FED92EE60E00F94F5F18AEE92EEB0
:10EDC00060E00F94F5F183E093EEBDCD87EC92EE19
:10EDD00062E00F94F5F181E40F947BF282E40F94EA
:10EDE0007BF283E40F947BF284E40F947BF285E45E
:10EDF0000F947BF286E40F947BF287E40F947BF20E
:10EE000088E40F947BF28AE40F947BF28BE40F94F6
:10EE10007BF28CE40F947BF299CD88ED92EE62E068
:10EE20000F94F5F1772473948824992409C48FED05
:10EE300092EE62E00F94F5F140910A0250910B02BC
:10EE400060910C0270910D0282E020E10F9491F22A
:10EE500080910A0290910B02A0910C02B0910D02D8
:10EE600080509F4FAF4FBF4F80930A0290930B0289
:10EE7000A0930C02B0930D0269CD8AEE92EE62E08F
:10EE80000F94F5F184EE90EE60E00F94F5F18FECC5
:10EE900091EE60E00F94F5F1662477244301CC5D98
:10EEA000DE4F19821882C452D140D401C301B695F5
:10EEB000A79597958795CA5DDE4F88839983AA8326
:10EEC000BB83C652D140CC5DDE4FA881B981C4520C
:10EED000D1401196CC5DDE4FB983A883C452D14096
:10EEE000CD0162E070E00F9434F2B0E2B093C6005E
:10EEF0008091C00086FFFCCF8091C0008064809329
:10EF0000C000EDE2E093C6008091C00086FFFCCF18
:10EF10008091C00080648093C000F0E2F093C6004E
:10EF20008091C00086FFFCCF8091C00080648093F8
:10EF3000C000CA5DDE4FE880F9800A811B81C6529D
:10EF4000D140BB27A12F902F8F2D0F940DF2CA5DBA
:10EF5000DE4F8881C652D1400F940DF2B0E2FB2EF5
:10EF6000F092C6008091C00086FFFCCF8091C00067
:10EF700080648093C0000DE30093C6008091C000C0
:10EF800086FFFCCF8091C00080648093C00010E2B7
:10EF90001093C6008091C00086FFFCCF8091C00016
:10EFA00080648093C0008BBEF3012791C65DDE4F65
:10EFB0002883CA52D140A22EBB24CC24DD2408943D
:10EFC000611C711C811C911C8BBEF3018791282E42
:10EFD0003324442455240894611C711C811C911C09
:10EFE0008BBEF3013791C55DDE4F3883CB52D140E4
:10EFF0000894611C711C811C911C8BBEF30147910C
:10F00000C45DDE4F4883CC52D140ADEFEA2EAFEF66
:10F01000FA2EAFEF0A2FAFEF1A2F6E0C7F1C801E57
:10F02000911E142D032DF22CEE24EA0CFB1C0C1D5A
:10F030001D1D0F940DF220E22093C6008091C000A8
:10F0400086FFFCCF8091C00080648093C000C65DC5
:10F05000DE4F8881CA52D1400F940DF230E23093D6
:10F06000C6008091C00086FFFCCF8091C000806404
:10F070008093C000C45DDE4F8881CC52D1400F9494
:10F080000DF240E24093C6008091C00086FFFCCFA5
:10F090008091C00080648093C000C55DDE4F888190
:10F0A000CB52D1400F940DF250E25093C6008091A4
:10F0B000C00086FFFCCF8091C00080648093C000B8
:10F0C0008FEFE8168FEFF80680E0080780E018075A
:10F0D00031F484E092EE60E00F94C2F1DFC0D80119
:10F0E000C7018070907CA070B0708050904CA040A0
:10F0F000B040D1F52FEF3FE340E050E0E222F322B1
:10F1000004231523CA5DDE4FA880B980CA80DB8046
:10F11000C652D140AE0CBF1CC01ED11EAA0CBB1CD7
:10F12000CC1CDD1C8EE092EE60E00F94C2F1BB2798
:10F13000A12F902F8F2D0F940DF28E2D0F940DF285
:10F1400030E23093C6008091C00086FFFCCF8091F2
:10F15000C00080648093C0004EE34093C60080915D
:10F16000C00086FFFCCF87C08EE09EEFA0E0B0E03D
:10F17000E822F9220A231B239CE0E91694E9F90608
:10F1800090E0090790E0190709F088C0C45DDE4FE0
:10F19000A881CC52D140EA2EFF2400E010E0102FCD
:10F1A0000F2DFE2CEE24C55DDE4FB881CB52D14031
:10F1B000EB0EF11C011D111DD601C501817090706F
:10F1C000A070B070DC0199278827E80EF91E0A1F8D
:10F1D0001B1F20EF30E040E050E0A222B322C42207
:10F1E000D52241E1AA0CBB1CCC1CDD1C4A95D1F7F1
:10F1F000EA0CFB1C0C1D1D1D81E090E0A0E0B0E0BE
:10F20000282239224A225B2235E1220C331C441C7D
:10F21000551C3A95D1F7E20CF31C041D151D57013E
:10F220006801AA0CBB1CCC1CDD1C85E192EE60E0E1
:10F230000F94C2F1C801AA27BB270F940DF2BB2778
:10F24000A12F902F8F2D0F940DF28E2D0F940DF274
:10F2500090E29093C6008091C00086FFFCCF809121
:10F26000C00080648093C000AEE3A093C60080918C
:10F27000C00086FFFCCF8091C00080648093C000F6
:10F28000C601AA27BB270F940DF2BB27AD2D9C2DDD
:10F290008B2D0F940DF28A2D0F940DF20F94DCF14B
:10F2A000CC5DDE4FE881F981C452D140F99709F471
:10F2B0004DCBF4E0EF2EF12C012D112D6E0C7F1CA7
:10F2C000801E911EF2CD83E093EE62E00F94F5F183
:10F2D0008AE192EE60E00F94C2F18091C00087FF56
:10F2E000FCCF1091C6001F751093C6008091C0001E
:10F2F00086FFFCCF8091C00080648093C0000F9493
:10F30000DCF1812F81548A3108F036C1163409F4BA
:10F3100095C0173490F4133409F44EC0143430F40B
:10F320001134F1F0123409F01DC130C0143409F465
:10F3300059C0153409F016C16BC01A3409F4C4C0A1
:10F340001B3438F4173409F48FC0183409F00AC19B
:10F35000A1C01B3409F4D2C01C3409F003C1E8C0B9
:10F360008FEF81B90DC082B1809582B980E090E0C5
:10F37000E0EDF7E03197F1F70196883C9105C1F790
:10F380008091C00087FFEFCF12B8EFC08FEF84B934
:10F390000DC085B1809585B980E090E0E0EDF7E0A3
:10F3A0003197F1F70196883C9105C1F78091C00033
:10F3B00087FFEFCF15B8D9C08FEF87B90DC088B1DF
:10F3C000809588B980E090E0E0EDF7E03197F1F7C3
:10F3D0000196883C9105C1F78091C00087FFEFCF6F
:10F3E00018B8C3C08FEF8AB90DC08BB180958BB9A7
:10F3F00080E090E0E0EDF7E03197F1F70196883C8E
:10F400009105C1F78091C00087FFEFCF1BB8ADC059
:10F410008FEF8DB90DC08EB180958EB980E090E0F0
:10F42000E0EDF7E03197F1F70196883C9105C1F7DF
:10F430008091C00087FFEFCF1EB897C08FEF80BBD1
:10F440000DC081B3809581BB80E090E0E0EDF7E0F6
:10F450003197F1F70196883C9105C1F78091C00082
:10F4600087FFEFCF11BA81C08FEF83BB0DC084B38C
:10F47000809584BB80E090E0E0EDF7E03197F1F714
:10F480000196883C9105C1F78091C00087FFEFCFBE
:10F4900014BA6BC08FEF809301010FC080910201FD
:10F4A00080958093020180E090E0E0EDF7E03197F5
:10F4B000F1F70196883C9105C1F78091C00087FF64
:10F4C000EDCF1092020151C08FEF809304010FC065
:10F4D0008091050180958093050180E090E0E0ED4A
:10F4E000F7E03197F1F70196883C9105C1F78091DB
:10F4F000C00087FFEDCF1092050137C08FEF8093DA
:10F5000007010FC08091080180958093080180E079
:10F5100090E0E0EDF7E03197F1F70196883C910536
:10F52000C1F78091C00087FFEDCF109208011DC088
:10F530008FEF80930A010FC080910B01809580931B
:10F540000B0180E090E0E0EDF7E03197F1F70196F4
:10F55000883C9105C1F78091C00087FFEDCF1092E4
:10F560000B0103C085E292EEEEC98091C00087FFD7
:10F57000FCCF8091C600EAC988E392EEE4C98CE131
:10F5800091EEE1C988249924933011F1943028F444
:10F59000913089F09230B8F408C0953061F195301F
:10F5A000F0F0963009F048C043C02B3109F042C951
:10F5B00091E06BE13FC96227C15DDE4F2883CF52E6
:10F5C000D14092E037C9B22FA0E0622793E032C960
:10F5D000822F90E0A82BB92B622794E02BC92E3004
:10F5E00009F039C3622795E0C05DDE4F19821882A9
:10F5F000C053D1401FC9E1E0F0E0EC0FFD1FC05D3A
:10F60000DE4F08811981C053D140E00FF11F2083E4
:10F610000F5F1F4FC05DDE4F19830883C053D14079
:10F6200062270A171B0709F005C9D80196E002C92D
:10F63000261709F010C303C0973009F0FBC87724E0
:10F640009981933109F412C19431C8F4963009F4C8
:10F65000D8C0973050F4923009F406C1933009F4C1
:10F660006DC0913009F059C253C0913109F477C08F
:10F67000923108F0BBC0903109F04FC2F5C098310B
:10F6800009F487C0993150F4953109F4EFC09531F0
:10F6900008F4C6C1963109F040C2C2C19A3109F4DA
:10F6A0006CC09A3108F491C09B3109F45BC09D3164
:10F6B00009F033C29D81903359F48F81882311F46E
:10F6C0009EE11CC0813011F091E018C098E916C08D
:10F6D000892F807591F0903539F4E0E0F0E089E011
:10F6E0008093570094910AC0983539F4E3E0F0E034
:10F6F00089E080935700949101C090E01A821B82A8
:10F700008D818C831D829E831F8227E030E009C299
:10F710001A8288E08B8381E48C8386E58D8382E581
:10F720008E8389E48F8383E5888780E589878FE5E9
:10F730008A8782E38B872BE030E0F3C18A818139AD
:10F7400041F0823941F0803911F48FE005C080E04A
:10F7500003C082E001C08AE01A828B8344C0772410
:10F76000739482C08D81882311F48EE12CC0813086
:10F7700011F081E028C088E926C01A82E1E0F0E0BB
:10F7800089E08093570084918B831C8224E030E0D1
:10F79000C8C18B81803589F48C81883039F4E2E0EE
:10F7A000F0E089E08093570084910DC0E0E0F0E044
:10F7B00089E080935700849106C0E3E0F0E089E09F
:10F7C0008093570084911A82DFCF8D81836C99E0FA
:10F7D000E1E0F0E0082E90935700E89507B600FCB2
:10F7E000FDCF1A821B8223E030E09BC180EC8A832C
:10F7F000CE5CDE4F188219821A821B82C253D1401E
:10F800008EC18A8190E0A0E0B0E0582F44273327D2
:10F8100022278B8190E0A0E0B0E0DC0199278827C7
:10F82000282B392B4A2B5B2B8D8190E0A0E0B0E098
:10F83000282B392B4A2B5B2B8C8190E0A0E0B0E089
:10F84000BA2FA92F982F8827282B392B4A2B5B2BCF
:10F85000220F331F441F551FC05EDE4F288339839C
:10F860004A835B83C052D1401A8259C13A81C95C34
:10F87000DE4F3883C753D140CA5CDE4F1882C6536F
:10F88000D1408B81C82EDD24CA5CDE4F488159816E
:10F89000C653D140C42AD52A933109F082C0CE5C28
:10F8A000DE4F88819981AA81BB81C253D1408050AB
:10F8B000904CA340B04030F583E0CE5CDE4FE88052
:10F8C000F9800A811B81C253D140F70100935B008C
:10F8D00080935700E89507B600FCFDCFCE5CDE4F65
:10F8E000088119812A813B81C253D14000501F4FAA
:10F8F0002F4F3F4FCE5CDE4F088319832A833B8313
:10F90000C253D140C05EDE4F488159816A817B81FC
:10F91000C052D140DE011B9631E08C9111962C91A2
:10F9200011971296C75CDE4F2883C953D140C85C3B
:10F93000DE4F1882C853D14090E0C85CDE4FE881AA
:10F94000F981C853D1408E2B9F2B0C01FA01609393
:10F950005B0030935700E89511244E5F5F4F6F4F67
:10F960007F4F0EEFE02E0FEFF02ECE0CDF1CC114F8
:10F97000D10499F685E0C05EDE4F088119812A81A5
:10F980003B81C052D140F80120935B008093570027
:10F99000E89507B600FCFDCF81E180935700E8951C
:10F9A00035C0C05EDE4F88819981AA81BB81C0527B
:10F9B000D140B695A795979587957C018601ABE0D8
:10F9C000AA2EB12CAC0EBD1E0BC0D5016D915D01F0
:10F9D000C7010F947FFE0894E11CF11C01501040F8
:10F9E0000115110591F7A60160E070E0440F551F65
:10F9F000661F771FC05EDE4FE880F9800A811B8199
:10FA0000C052D1404E0D5F1D601F711F1A82C05E33
:10FA1000DE4F488359836A837B83C052D1407FC0C5
:10FA2000FA80C55CDE4FF882CB53D140C65CDE4F16
:10FA30001882CA53D1408B81C82EDD24C65CDE4FAC
:10FA400008811981CA53D140C02AD12A1A828981DA
:10FA5000BE016D5F7F4F843121F59601C05EDE4FA0
:10FA6000E880F9800A811B81C052D1400BBFF701A9
:10FA700087919691DB018C9311969C936E5F7F4FDB
:10FA8000D801C7010296A11DB11DC05EDE4F88835B
:10FA90009983AA83BB83C052D14022503040F1F6F3
:10FAA00036C0C05EDE4F288139814A815B81C052F9
:10FAB000D1400894C108D108760100E010E0089414
:10FAC000C11CD11C0894E11CF11C011D111DE20E8A
:10FAD000F31E041F151F21BDBB27A52F942F832FB5
:10FAE00082BD2F5F3F4F4F4F5F4FF89A80B5DB01CC
:10FAF0008D93BD012E153F054007510761F7C05E8C
:10FB0000DE4F288339834A835B83C052D1409601FC
:10FB10002D5F3F4FFB01108204C080EC8A8322E0FE
:10FB200030E08BE18093C6008091C00086FFFCCF5F
:10FB30008091C00080648093C000C15DDE4FF88179
:10FB4000CF52D140F093C6008091C00086FFFCCF19
:10FB50008091C00080648093C000432F3093C60022
:10FB60008091C00086FFFCCF8091C00080648093AC
:10FB7000C000922F2093C6008091C00086FFFCCF6A
:10FB80008091C00080648093C0008EE08093C600A6
:10FB90008091C00086FFFCCF8091C000806480937C
:10FBA000C00065E1C15DDE4FE880CF52D1406E25D7
:10FBB00069276427FE01319610C090819093C6009A
:10FBC0008091C00086FFFCCF31968091C000806498
:10FBD0008093C0006927215030402115310569F715
:10FBE0006093C6008091C00086FFFCCF8091C0006A
:10FBF00080648093C00085B1805885B9772081F4F6
:10FC0000C15DDE4F0881CF52D1400F5FC15DDE4F35
:10FC10000883CF52D14090E0A0E0B0E00D941AF4F8
:10FC200027982F9880E090E020ED37E0F901319798
:10FC3000F1F7019684369105C9F700008091C00064
:10FC40008D7F8093C00081E180935700E895EE2777
:10FC5000FF270994FFCF90E00D941AF497FB092E2B
:10FC600007260AD077FD04D02ED006D000201AF443
:10FC7000709561957F4F0895F6F7909581959F4F08
:10FC80000895A1E21A2EAA1BBB1BFD010DC0AA1FDD
:10FC9000BB1FEE1FFF1FA217B307E407F50720F0F5
:10FCA000A21BB30BE40BF50B661F771F881F991F70
:10FCB0001A9469F760957095809590959B01AC01B9
:10FCC000BD01CF010895AA1BBB1B51E107C0AA1FAC
:10FCD000BB1FA617B70710F0A61BB70B881F991FED
:10FCE0005A95A9F780959095BC01CD010895F99991
:10FCF000FECF92BD81BDF89A992780B50895262F31
:10FD0000F999FECF1FBA92BD81BD20BD0FB6F89400
:0EFD1000FA9AF99A0FBE01960895F894FFCF63
:040000033000E000E9
:00000001FF