:1000000014C1000040C100003EC100003CC100001E
:100010003AC1000038C1000036C1000034C1000000
:1000200032C1000030C100002EC100002CC1000010
:100030002AC10000A8C4000026C1000024C100009D
:1000400022C1000020C100001EC100001CC1000030
:100050001AC1000018C1000016C100004AC4000007
:1000600012C1000010C40000E5C300000CC1000074
:100070000AC1000008C1000006C1000004C1000060
:1000800002C1000000C10000FEC00000FCC0000072
:10009000FAC00000F8C00000F6C00000F4C0000084
:1000A000F2C00000F0C00000EEC00000ECC0000094
:1000B000EAC00000E8C00000E6C00000E4C00000A4
:1000C000E2C00000E0C00000DEC00000DCC00000B4
:1000D000DAC00000D8C00000D6C00000D4C00000C4
:1000E000D2C0000080028302720276027C02BA0251
:1000F00087028B029102950299029F02A302A70236
:10010000BA02AD02B102B5020000210024002700AE
:100110002A002D0030003300010100000401070116
:100120000A0100002200250028002B002E003100CB
:10013000340002010000050108010B01000020004D
:100140002300260029002C002F00320000010000AF
:10015000030106010901050505050705080808084A
:10016000020202020A0A080804040404010101014F
:10017000010101010303030303030303040707074A
:100180000C0C0C0C0C0C0C0C0202020206060606EF
:10019000060606060B0B0B0B0B0B0B0B01021020BC
:1001A00020080810204010204080020102010804AD
:1001B0000201010204081020408080402010080441
:1001C000020180040201804020100804020108049A
:1001D00002010102040810204080010204081020DE
:1001E000408000000A0B02090C0D0E0807030401F1
:1001F00000000000000000000000000000000000FF
:1002000000000000000000000000000000001211CB
:1002100010000000000000000000000000000000CE
:1002200000000000000000007F0511241FBECFEF7A
:10023000D1E2DEBFCDBF00E00CBF12E0A0E0B2E033
:10024000ECE8F0E100E00BBF02C007900D92A83887
:10025000B107D9F724E0A8E8B2E001C01D92A430AC
:10026000B207E1F711E0C5E1D1E000E005C0219758
:100270000109802FFE01FCD6C431D10780E00807B8
:10028000B1F76FD401C7BCCECF92DF92EF92FF924D
:100290000F931F93CF93DF936C017A018B01C0E022
:1002A000D0E0CE15DF0589F0D8016D918D01D60122
:1002B000ED91FC910190F081E02DC6011995892BFB
:1002C00011F47E0102C02196ECCFC701DF91CF91DE
:1002D0001F910F91FF90EF90DF90CF900895FC0158
:1002E000918D828D981761F0828DDF01A80FB11D6D
:1002F0005D968C91928D9F5F9F73928F90E0089591
:100300008FEF9FEF0895FC01918D828D981731F04A
:10031000828DE80FF11D858D90E008958FEF9FEF9E
:100320000895FC01918D228D892F90E0805C9F4F74
:10033000821B91098F739927089585E992E0F1DF77
:1003400021E0892B09F420E0822F0895FC01848D9F
:10035000DF01A80FB11DA35ABF4F2C91848D90E0EF
:1003600001968F739927848FA689B7892C93A089CA
:10037000B1898C9180648C93938D848D981306C081
:100380000288F389E02D80818F7D80830895EF922C
:10039000FF920F931F93CF93DF93EC0181E0888F3F
:1003A0009B8D8C8D981305C0E889F989808185FD26
:1003B00023C0F62E0B8D10E00F5F1F4F0F73112718
:1003C000E02E8C8DE8120BC00FB607FCFACFE8893F
:1003D000F989808185FFF5CFCE01B8DFF2CF8B8D13
:1003E000FE01E80FF11DE35AFF4FF0820B8FEA89FF
:1003F000FB898081806207C0EE89FF896083E8897C
:10040000F98980818064808381E090E0DF91CF91E1
:100410001F910F91FF90EF900895CF93DF93EC0120
:10042000888D8823C1F0EA89FB89808185FD05C01C
:10043000A889B9898C9186FD0EC00FB607FCF5CF4F
:10044000808185FFF2CFA889B9898C9185FFEDCF96
:10045000CE017CDFE8CFDF91CF91089580E090E07E
:10046000892B19F06ADF811125C080E090E0892B8B
:1004700041F080E090E0892B21F00E940000811182
:100480001CC080E090E0892B41F080E090E0892B57
:1004900021F00E940000811113C080E090E0892BC0
:1004A000A1F080E090E0892B81F00E940000811192
:1004B0000AC008950E940000D8CF0E940000E1CF3A
:1004C0000E940000EACF0C940000089590E0FC0127
:1004D0003197E231F10508F04DC08827EE58FF4F03
:1004E0008F4FC6C5809180008F7703C080918000B8
:1004F0008F7D80938000089580918000877FF9CF61
:1005000084B58F7702C084B58F7D84BD08958091B6
:10051000B0008F7703C08091B0008F7D8093B000D2
:100520000895809190008F7707C0809190008F7D13
:1005300003C080919000877F809390000895809100
:10054000A0008F7707C08091A0008F7D03C08091AD
:10055000A000877F8093A0000895809120018F776D
:1005600007C0809120018F7D03C080912001877F8B
:10057000809320010895CF93DF93282F30E0F90175
:10058000EE51FE4F8491F901E456FE4FD491F901EA
:10059000EA5AFE4FC491CC2389F0811197DFEC2FEA
:1005A000F0E0EE0FFF1FE45CFE4FA591B491EC91DB
:1005B000ED2381E090E021F480E002C080E090E053
:1005C000DF91CF9108951F93CF93DF93282F30E0D1
:1005D000F901EE51FE4F8491F901E456FE4FD4919A
:1005E000F901EA5AFE4FC491CC23C1F0162F8111B4
:1005F0006DDFEC2FF0E0EE0FFF1FEE5DFE4FA591DB
:10060000B4918FB7F894111105C09C91ED2FE0952E
:10061000E92302C0EC91ED2BEC938FBFDF91CF91DA
:100620001F910895CF93DF9390E0FC01E456FE4FB5
:100630002491FC01EA5AFE4F8491882361F190E0F5
:10064000880F991FFC01E85FFE4FC591D491FC0112
:10065000EE5DFE4FA591B491611109C09FB7F8946A
:100660008881209582238883EC912E230BC06230F1
:1006700061F49FB7F8943881822F80958323888313
:10068000EC912E2B2C939FBF06C08FB7F894E88176
:100690002E2B28838FBFDF91CF9108953FB7F89419
:1006A00080918D0290918E02A0918F02B091900264
:1006B00026B5A89B05C02F3F19F00196A11DB11DBD
:1006C0003FBFBA2FA92F982F8827820F911DA11DF8
:1006D000B11DBC01CD0142E0660F771F881F991F35
:1006E0004A95D1F708958F929F92AF92BF92CF9281
:1006F000DF92EF92FF926B017C01D0DF4B015C0136
:10070000C114D104E104F104E9F0C8DFDC01CB013C
:1007100088199909AA09BB09883E9340A105B1052A
:1007200078F321E0C21AD108E108F10888EE880EBA
:1007300083E0981EA11CB11CC114D104E104F10492
:1007400021F7DECFFF90EF90DF90CF90BF90AF907A
:100750009F908F900895CF92DF92EF92FF920F9328
:100760001F93CF93DF937C0108E412E0CC24C39461
:1007700078E0D72ED00EF701C1917F016C2F617008
:100780006C258AE320DFD0E0C095D095BE01759539
:100790006795617087E017DFBE0175956795759560
:1007A0006795617088E00FDFBE0123E0759567955E
:1007B0002A95E1F7617087E306DFBE0134E07595A5
:1007C00067953A95E1F761708AE0FDDEBE0145E08C
:1007D000759567954A95E1F7617088E3F4DEBE018F
:1007E00056E0759567955A95E1F761708CE3EBDEFD
:1007F000CC0FCD2FCC1FDD0B6C2F61708DE3E3DEB2
:10080000F801C1918F0161E08C2FDDDE62E070E0C4
:1008100080E090E068DF60E08C2FD5DED012ABCFB7
:10082000DF91CF911F910F91FF90EF90DF90CF90CC
:10083000089526D41F920F920FB60F9211240BB673
:100840000F922F933F934F935F936F937F938F9369
:100850009F93AF93BF93EF93FF9385E992E076DD8B
:10086000FF91EF91BF91AF919F918F917F916F9188
:100870005F914F913F912F910F900BBE0F900FBE44
:100880000F901F9018951F920F920FB60F92112480
:100890000BB60F922F938F939F93EF93FF93E0915B
:1008A000A502F091A6028081E091AB02F091AC022A
:1008B00082FD12C090818091AE028F5F8F73209174
:1008C000AF02821751F0E091AE02F0E0EB56FD4F1F
:1008D000958F8093AE0201C08081FF91EF919F912F
:1008E0008F912F910F900BBE0F900FBE0F901F9006
:1008F00018951F920F920FB60F9211242F933F93CA
:100900008F939F93AF93BF938091890290918A02B6
:10091000A0918B02B0918C023091880223E0230FCA
:100920002D3720F40196A11DB11D05C026E8230F27
:100930000296A11DB11D2093880280938902909395
:100940008A02A0938B02B0938C0280918D029091C9
:100950008E02A0918F02B09190020196A11DB11D4F
:1009600080938D0290938E02A0938F02B093900299
:10097000BF91AF919F918F913F912F910F900FBE9B
:100980000F901F9018951F920F920FB60F9211247F
:100990000BB60F922F933F934F935F936F937F9379
:1009A0008F939F93AF93BF93EF93FF938091330304
:1009B000E2DD20913703309138032F5F3F4F3093B2
:1009C00038032093370390913603953618F096E05C
:1009D00090933203909132039430C9F128F492300D
:1009E00069F09330D1F05EC0953009F451C0963073
:1009F00009F058C091E09093030451C0811152C096
:100A000020913703309138032436310508F442C071
:100A100010920304109236031CC0813009F042C0CA
:100A2000E091360391E09E0F90933603F0E0209121
:100A3000370330913803EE0FFF1FEE5CFC4F308719
:100A40002783109238031092370394E029C0811154
:100A500017C0E091360391E09E0F90933603F0E0CB
:100A60002091370330913803EE0FFF1FEE5CFC4FEF
:100A700030872783109238031092370393E010C019
:100A800020913703309138032536310558F007C0DF
:100A9000811108C0109238031092370303C095E00B
:100AA00090933203909135039923B1F081110AC0DC
:100AB00080913403882321F08091340361E009C0E0
:100AC0002F9A0AC080913403882329F0809134033F
:100AD00060E079DD01C02F98FF91EF91BF91AF9158
:100AE0009F918F917F916F915F914F913F912F9146
:100AF0000F900BBE0F900FBE0F901F901895E5E959
:100B0000F2E01382128288EE93E0A0E0B0E08483EA
:100B10009583A683B7838CE792E09183808385ECED
:100B200090E09587848784EC90E09787868780ECB7
:100B300090E0918B808B81EC90E0938B828B82ECA8
:100B400090E0958B848B86EC90E0978B868B118E52
:100B5000128E138E148EE2E3F3E08EE28183138211
:100B60000895789484B5826084BD84B5816084BD25
:100B700085B5826085BD85B5816085BD80916E003B
:100B8000816080936E00109281008091810082606C
:100B900080938100809181008160809381008091A9
:100BA00080008160809380008091B1008460809398
:100BB000B1008091B00081608093B000809191007D
:100BC0008260809391008091910081608093910078
:100BD000809190008160809390008091A10082605C
:100BE0008093A1008091A10081608093A1008091F9
:100BF000A00081608093A000809121018260809399
:100C00002101809121018160809321018091200147
:100C100081608093200180917A00846080937A00C3
:100C200080917A00826080937A0080917A0081605E
:100C300080937A0080917A00806880937A00109285
:100C4000C100E091A502F091A602C2E0C083E0914C
:100C5000A102F091A2021082E091A302F091A402FD
:100C600080E180831092AD02E091A902F091AA0286
:100C700086E08083E091A702F091A80280818061E4
:100C80008083E091A702F091A80280818860808330
:100C9000E091A702F091A802808180688083E091B2
:100CA000A702F091A80280818F7D808361E08DE0B2
:100CB000B9DCF894C093B000C093B10084E680938F
:100CC000B3001092B200C09370007894C0933203C6
:100CD000109236038091330360E0A4DC81E08093BE
:100CE000350361E08DE09EDCC0E5D2E060E08991F3
:100CF00099DC82E0C336D807C9F7C4E6D2E061E0E8
:100D0000899190DCE2E0C737DE07C9F7C8E4D2E09A
:100D100080E4E82E82E0F82E199161E0812F82DCD8
:100D200061E0812F50DCF70111917F0161E0812F9B
:100D300079DC61E0812F47DCF2E0C035DF0761F745
:100D400000E512E0C4E6D2E0F99061E08F2D3BDCD3
:100D500060E070E0CB01C7DCF80181918F010BDC12
:100D600060E08F2D30DCF2E0C837DF0769F760E024
:100D700070E0CB01B8DC60E070E0CB01B4DC20E0D7
:100D800030E040E85FE360919102709192028091BF
:100D90009302909194028FD06B017C016093910239
:100DA00070939202809393029093940220E030E03B
:100DB0004CE852E4E4D087FF03C088E392E044C0EB
:100DC00020E030E040E85FE3C701B601D8D087FDFE
:100DD0006FC020E030E046E153E4C701B601CFD058
:100DE00087FF03C080E392E02FC020E030E047E8B7
:100DF00053E4C701B601C3D087FF03C088E292E085
:100E000023C020E030E04FEA53E4C701B601B7D079
:100E100087FF03C080E292E017C020E030E047ED9A
:100E200053E4C701B601ABD087FF03C088E192E06D
:100E30000BC020E030E04FEF53E4C701B6019FD074
:100E400087FF04C080E192E086DC32C020E030E819
:100E500049E054E4C701B60192D087FF03C088E09F
:100E600092E0F2CF20E030E843E154E4C701B6015C
:100E700086D087FF03C080E092E0E6CF20E030E834
:100E80004DE154E4C701B6017AD087FDF4CF20E0EC
:100E900030E040E85FE3C701B60171D087FD08C0CC
:100EA0001092910210929202109293021092940268
:100EB000D5DA46CF5058BB27AA270ED09FC090D076
:100EC00030F095D020F031F49F3F11F41EF485C02E
:100ED0000EF4E095E7FB7BC0E92FA1D080F3BA17B1
:100EE000620773078407950718F071F49EF5B9C07F
:100EF0000EF4E0950B2EBA2FA02D0B01B901900135
:100F00000C01CA01A0011124FF27591B99F0593F78
:100F100050F4503E68F11A16F040A22F232F342FC0
:100F20004427585FF3CF469537952795A795F0400E
:100F30005395C9F77EF41F16BA0B620B730B840B23
:100F4000BAF09150A1F0FF0FBB1F661F771F881FDB
:100F5000C2F70EC0BA0F621F731F841F48F4879533
:100F600077956795B795F7959E3F08F0B3CF939522
:100F7000880F08F09927EE0F97958795089503D06D
:100F800008F481E00895990F0008550FAA0BE0E8D6
:100F9000FEEF16161706E807F907C0F0121613063B
:100FA000E407F50798F0621B730B840B950B39F47B
:100FB0000A2661F0232B242B252B21F408950A26E1
:100FC00009F4A140A6958FEF811D811D089597F921
:100FD0009F6780E870E060E008959FEF80EC0895DF
:100FE00000240A9416161706180609060895002408
:100FF0000A9412161306140605060895092E039482
:10100000000C11F4882352F0BB0F40F4BF2B11F4F5
:1010100060FF04C06F5F7F4F8F4F9F4F089557FD54
:101020009058440F551F59F05F3F71F04795880F56
:1010300097FB991F61F09F3F79F0879508951216ED
:1010400013061406551FF2CF4695F1DF08C0161699
:1010500017061806991FF1CF86957105610508944A
:101060000895E894BB2766277727CB0197F9089561
:10107000EE0FFF1F881F8BBF0790F691E02D19948C
:0C10800081E090E0F89400C0F894FFCFED
:10108C000010101010001000003C424242423C0084
:10109C000022322A262200000038101010103800CE
:1010AC0000424242422418000038242222243800F4
:1010BC000038242438242400001824243C24240040
:1010CC003A0708370A383C3D09060B05390C3B3604
:1010DC001A1B1C1D1E1F2021222423262528272AEB
:1010EC00292C2B2D0203044445111013121415182E
:1010FC001617424340413F3E00000000C701440127
:08110C0091016F0183010D0246
:00000001FF
