:1000000018C1000047C1000045C1000043C1000005
:1000100041C100003FC100003DC100003BC10000E4
:1000200039C100001DC500001BC5000019C5000036
:1000300031C10000A9C500002DC100002BC1000086
:1000400029C1000027C1000025C1000023C1000014
:1000500021C100001FC100001DC10000B7C4000085
:1000600019C10000A6C300007BC3000013C100003B
:1000700011C100000FC100000DC100000BC1000044
:1000800009C1000007C1000005C1000003C1000054
:1000900001C10000FFC00000FDC00000FBC0000067
:1000A000F9C00000F7C00000F5C00000F3C0000078
:1000B000F1C00000EFC00000EDC00000EBC0000088
:1000C000E9C00000E7C00000E5C00000E3C0000098
:1000D000E1C00000DFC00000DDC00000DBC00000A8
:1000E000D9C000005D0260024F025302590297021C
:1000F000640268026E02720276027C02800284024E
:1001000097028A028E0292022D2D2D3E20000000C1
:100110002100240027002A002D00300033000101B7
:100120000000040107010A0100000A0B02090C0D7E
:100130000E0807030401000000000000000000009A
:1001400000000000000000000000000000000000AF
:10015000000000001211100000000000000000006C
:10016000000000000000000000000000000000008F
:100170002200250028002B002E003100340002014F
:100180000000050108010B010000200023002600EB
:1001900029002C002F00320000010000030106019D
:1001A00009010505050507050808080802020202FD
:1001B0000A0A080804040404010101010101010103
:1001C0000303030303030303040707070C0C0C0CCE
:1001D0000C0C0C0C020202020606060606060606B7
:1001E0000B0B0B0B0B0B0B0B010210202008081044
:1001F0002040102040800201020108040201010297
:10020000040810204080804020100804020180046F
:1002100002018040201008040201080402010102CA
:1002200004081020408001020408102040802D188E
:10023000231811241FBECFEFD1E2DEBFCDBF00E0F7
:100240000CBF28E0AEE8B4E001C01D92A13CB207AB
:10025000E1F714E0A0E0B2E0E2EBF8E300E00BBF6E
:1002600002C007900D92AE38B107D9F711E0C8E18E
:10027000D1E000E006C021970109802FFE010E9415
:10028000D71BC731D10780E00807A9F70E9485096D
:100290000C94481CB5CEFC01918D828D981761F0AD
:1002A000828DDF01A80FB11D5D968C91928D9F5FAD
:1002B0009F73928F90E008958FEF9FEF0895FC0158
:1002C000918D828D981731F0828DE80FF11D858D0B
:1002D00090E008958FEF9FEF0895FC01918D228D9E
:1002E000892F90E0805C9F4F821B91098F73992723
:1002F000089587E395E0F1DF21E0892B09F420E000
:10030000822F0895FC01848DDF01A80FB11DA35A2F
:10031000BF4F2C91848D90E001968F739927848F25
:10032000A689B7892C93A089B1898C9180648C931C
:10033000938D848D981306C00288F389E02D808107
:100340008F7D80830895EF92FF920F931F93CF9339
:10035000DF93EC0181E0888F9B8D8C8D981305C015
:10036000E889F989808185FD23C0F62E0B8D10E088
:100370000F5F1F4F0F731127E02E8C8DE8120BC0FB
:100380000FB607FCFACFE889F989808185FFF5CFA0
:10039000CE01B8DFF2CF8B8DFE01E80FF11DE35ADD
:1003A000FF4FF0820B8FEA89FB898081806207C052
:1003B000EE89FF896083E889F98980818064808380
:1003C00081E090E0DF91CF911F910F91FF90EF902E
:1003D0000895CF93DF93EC01888D8823C1F0EA89DB
:1003E000FB89808185FD05C0A889B9898C9186FD2E
:1003F0000EC00FB607FCF5CF808185FFF2CFA8892C
:10040000B9898C9185FFEDCFCE017CDFE8CFDF91FC
:10041000CF91089580E090E0892B19F06ADF811177
:1004200025C080E090E0892B41F080E090E0892BAE
:1004300021F00E94000081111CC080E090E0892B17
:1004400041F080E090E0892B21F00E9400008111B2
:1004500013C080E090E0892BA1F080E090E0892B30
:1004600081F00E94000081110AC008950E940000DE
:10047000D8CF0E940000E1CF0E940000EACF0C9488
:100480000000089590E0FC013197E231F10508F099
:100490004EC08827EE58FF4F8F4F0C94D71B80918A
:1004A00080008F7703C0809180008F7D80938000D3
:1004B000089580918000877FF9CF84B58F7702C03F
:1004C00084B58F7D84BD08958091B0008F7703C07F
:1004D0008091B0008F7D8093B0000895809190004E
:1004E0008F7707C0809190008F7D03C0809190002E
:1004F000877F8093900008958091A0008F7707C038
:100500008091A0008F7D03C08091A000877F8093A1
:10051000A0000895809120018F7707C0809120016D
:100520008F7D03C080912001877F809320010895F3
:100530003FB7F8948091F3049091F404A091F504EE
:10054000B091F60426B5A89B05C02F3F19F001967F
:10055000A11DB11D3FBFBA2FA92F982F8827820F49
:10056000911DA11DB11DBC01CD0142E0660F771F99
:10057000881F991F4A95D1F70895209190043091D2
:1005800091042817390771F490918E0480918F049B
:10059000981741F0E0918E04F0E0E255FB4F808126
:1005A00090E008958FEF9FEF089508951F93CF93E4
:1005B000DF93DC015C962D913C915D97211531050F
:1005C00039F481E090E013969C938E9312973DC08E
:1005D0005196ED91FC91529750969C915097892F8E
:1005E00080951FB75E964C915E9741FB772770F917
:1005F00041FD6095F8944081772311F0492B01C0AB
:1006000048234083E9012197F1F748E0508160FFDA
:1006100002C0592B01C058235083E9012197F1F7FB
:100620006695415099F7772321F090818923808343
:1006300003C08081982B90831FBF5C968D919C9105
:100640005D970197F1F721E030E0C901DF91CF918B
:100650001F91089520919004309191042817390733
:1006600069F480918F0420918E0490E0805C9F4F0C
:10067000821B910960E470E00C94A21B80E090E082
:100680000895209190043091910428173907B9F406
:1006900090918E0480918F04981789F0E0918E04D8
:1006A000F0E0E255FB4F808120918E0430E02F5F17
:1006B0003F4F2F73332720938E0490E008958FEFE0
:1006C0009FEF0895AF92BF92DF92EF92FF920F9348
:1006D0001F93CF93DF93EC01D62EEE80FF80E114C1
:1006E000F10449F15C0189E5A80EB11CD5018C919A
:1006F000811117C008E011E0F8016491611104C094
:1007000081E0D5018C930DC0D701ED91FC91019052
:10071000F081E02DC70119950F5F1F4F892B61F7FD
:10072000EFCF8E819F81DC01ED91FC910190F081F2
:10073000E02D6D2D19958C819D81DC01ED91FC9151
:100740000190F081E02D6D2DDF91CF911F910F91E0
:10075000FF90EF90DF90BF90AF9019940E942A1CF9
:100760001F920F920FB60F9211240BB60F922F9378
:100770003F934F935F936F937F938F939F93AF9329
:10078000BF93EF93FF9387E395E0BCDDFF91EF917B
:10079000BF91AF919F918F917F916F915F914F9199
:1007A0003F912F910F900BBE0F900FBE0F901F9097
:1007B00018951F920F920FB60F9211240BB60F923D
:1007C0002F938F939F93EF93FF93E0914705F091C1
:1007D00048058081E0914D05F0914E0582FD12C0E3
:1007E0009081809150058F5F8F7320915105821702
:1007F00051F0E0915005F0E0E95CFA4F958F80935D
:10080000500501C08081FF91EF919F918F912F91B1
:100810000F900BBE0F900FBE0F901F901895CF93A7
:10082000DF93282F30E0F901E85DFE4F8491F90154
:10083000E851FE4FD491F901EE55FE4FC491CC23FF
:1008400089F081111FDEEC2FF0E0EE0FFF1FE8575B
:10085000FE4FA591B491EC91ED2381E090E021F45D
:1008600080E002C080E090E0DF91CF9108951F9377
:10087000CF93DF93282F30E0F901E85DFE4F84919C
:10088000F901E851FE4FD491F901EE55FE4FC491A4
:10089000CC23C1F0162F8111F5DDEC2FF0E0EE0F27
:1008A000FF1FE259FE4FA591B4918FB7F894111133
:1008B00005C09C91ED2FE095E92302C0EC91ED2B52
:1008C000EC938FBFDF91CF911F910895CF93DF936A
:1008D00090E0FC01E851FE4F2491FC01EE55FE4FE3
:1008E0008491882361F190E0880F991FFC01E25FF9
:1008F000FE4FC591D491FC01E259FE4FA591B491F0
:10090000611109C09FB7F89488812095822388835C
:10091000EC912E230BC0623061F49FB7F8943881BC
:10092000822F809583238883EC912E2B2C939FBF5D
:1009300006C08FB7F894E8812E2B28838FBFDF91F4
:10094000CF9108958F929F92AF92BF92CF92DF92F4
:10095000EF92FF926B017C01EBDD4B015C01C11456
:10096000D104E104F104E9F0E3DDDC01CB018819F5
:100970009909AA09BB09883E9340A105B10578F3FE
:1009800021E0C21AD108E108F10888EE880E83E060
:10099000981EA11CB11CC114D104E104F10421F77B
:1009A000DECFFF90EF90DF90CF90BF90AF909F9001
:1009B0008F9008952FB7F8946091EF047091F00430
:1009C0008091F1049091F2042FBF08951F920F922D
:1009D0000FB60F9211242F933F938F939F93AF9352
:1009E000BF938091EF049091F004A091F104B09135
:1009F000F2043091EE0423E0230F2D3720F401960A
:100A0000A11DB11D05C026E8230F0296A11DB11D31
:100A10002093EE048093EF049093F004A093F104EC
:100A2000B093F2048091F3049091F404A091F50442
:100A3000B091F6040196A11DB11D8093F30490932B
:100A4000F404A093F504B093F604BF91AF919F9185
:100A50008F913F912F910F900FBE0F901F9018957F
:100A60001F920F920FB60F9211240BB60F922F9375
:100A70003F934F935F936F937F938F939F93AF9326
:100A8000BF93EF93FF93E0919004F091910430971E
:100A900009F451C0968DA685B785858591FF04C060
:100AA0009C91892329F447C09C91892309F043C074
:100AB000A389B4899C918589809589238C938689A3
:100AC00097890197F1F7608D718DA685B78555855A
:100AD00038E020E0CB010197F1F7822F90E0959567
:100AE0008795282F4C91452309F02068315091F7C4
:100AF000868D81FD209580918F0490E001968F7303
:100B0000992730918E04381749F0A0918F04B0E0F6
:100B1000A255BB4F2C9380938F0403C0868D8160B8
:100B2000868F828D938D0197F1F7A389B4899C916B
:100B30008589892B8C93FF91EF91BF91AF919F9104
:100B40008F917F916F915F914F913F912F910F9076
:100B50000BBE0F900FBE0F901F901895E091900460
:100B6000F0919104E817F90769F4A389B4899C917D
:100B70008589809589238C9310929104109290041A
:100B800081E0089580E008951F920F920FB60F92B2
:100B900011240BB60F922F933F934F935F936F9354
:100BA0007F938F939F93AF93BF93EF93FF93809126
:100BB000D50535DE2091D9053091DA052F5F3F4FFD
:100BC0003093DA052093D9059091D805953618F021
:100BD00096E09093D4059091D4059430C9F128F40F
:100BE000923069F09330D1F05EC0953009F451C075
:100BF000963009F058C091E09093A50651C081113C
:100C000052C02091D9053091DA052436310508F417
:100C100042C01092A5061092D8051CC0813009F080
:100C200042C0E091D80591E09E0F9093D805F0E086
:100C30002091D9053091DA05EE0FFF1FEC52FA4FE3
:100C4000308727831092DA051092D90594E029C0E5
:100C5000811117C0E091D80591E09E0F9093D805BF
:100C6000F0E02091D9053091DA05EE0FFF1FEC522C
:100C7000FA4F308727831092DA051092D90593E056
:100C800010C02091D9053091DA052536310558F08C
:100C900007C0811108C01092DA051092D90503C06F
:100CA00095E09093D4059091D7059923B1F08111E7
:100CB0000AC08091D605882321F08091D60561E095
:100CC00009C02F9A0AC08091D605882329F0809107
:100CD000D60560E0CCDD01C02F98FF91EF91BF9168
:100CE000AF919F918F917F916F915F914F913F91C4
:100CF0002F910F900BBE0F900FBE0F901F90189565
:100D0000CF92DF92EF92FF92CF93DF93EC01072E09
:100D1000000C880B990B0E9461196B017C0120E08B
:100D200030E040E45FE30E94C01920E030E048E496
:100D300052E40E94F21A0E945A1BC617D707D4F039
:100D400020E030E040EA5FE3C701B6010E94C0192D
:100D500020E030E048E452E40E94F21A20E030E063
:100D600040E85FE30E948E1A0E945A1B21E06C1734
:100D70007D070CF420E0822F90E0DF91CF91FF906F
:100D8000EF90DF90CF900895CF92DF92EF92FF9295
:100D9000CF93DF93EB01223160F5FC01808181303C
:100DA00049F42770E22FF0E0EE52FD4F98818081E8
:100DB000892B1EC081111DC0E22FE770F0E0EE52BA
:100DC000FD4FC080D12CE12CF12CF4DD24EF31E07B
:100DD00040E050E00E94B51BC701B6010E94931B82
:100DE000DC01CB0181709927AA27BB272881822BA0
:100DF0008883DF91CF91FF90EF90DF90CF9008959F
:100E0000FCD1811105C06FE773E087E395E0E3C192
:100E100008950F931F93CF93DF93EC0161E080E37C
:100E200026DDC8DD28813981E6E4E29FA001E39F49
:100E3000500D11248A01550F220B330BDC01CB011D
:100E4000800F911FA21FB31F8093BD089093BE080F
:100E5000A093BF08B093C008D0931102C0931002B2
:100E6000DF91CF911F910F910895CF92DF92EF9272
:100E7000FF920F931F93CF93DF936C017A018B0145
:100E8000C0E0D0E0CE15DF0589F0D8016D918D016D
:100E9000D601ED91FC910190F081E02DC6011995EC
:100EA000892B11F47E0102C02196ECCFC701DF919E
:100EB000CF911F910F91FF90EF90DF90CF90089509
:100EC000CF92DF92EF92FF920F931F93CF93DF9316
:100ED0000091B7061091B806C0E0D0E06BDDD801F4
:100EE00018966D937D938D939C931B97D801ED91EC
:100EF000FC910680F781E02DC801199597FD04C08B
:100F00008A309105B9F41EC055DDF801C084D18442
:100F1000E284F384DC01CB018C199D09AE09BF0981
:100F2000C480D580E680F7808C159D05AE05BF0591
:100F3000E8F208C0FE01ED54F94F81872196C035D3
:100F4000D10561F6FE01ED54F94F11868091B70687
:100F50009091B806DC01ED91FC910084F185E02DC3
:100F600019950D9759F48091B7069091B806DC0158
:100F7000ED91FC910680F781E02D1995CE01DF916E
:100F8000CF911F910F91FF90EF90DF90CF90089538
:100F90000F931F93CF9310922F05109230058C0161
:100FA000C0E06C2F70E080E090E00E945F1920E0CC
:100FB00030E040E95FE30E94F21A0E945A1BFB01F5
:100FC000E652FD4F8081F80191918F019130B1F48B
:100FD000282F30E0F901883048F4EE52FD4F90811F
:100FE00080912F05892B80932F0508C0E653FD4F74
:100FF000808190913005982B90933005CF5FC2315E
:1010000081F6CF911F910F910895E0913705F091EE
:1010100038050190F081E02D682F87E395E0199461
:10102000EBE1F5E082E18E0F9191913021F08E138A
:10103000FBCF81E0089580E008958F929F92AF9258
:10104000BF92CF92DF92EF92FF920F931F93CF93B5
:10105000DF93FC01C081D18120910305309104050B
:10106000C217D3070CF048C09E01220F331FE09136
:101070000105F0910205E20FF31F80809180C1709D
:10108000DD27F1E0CF27209719F404E610E002C035
:101090000CE91FEF7A015B016C01040F151FB80109
:1010A000C4012EDE892B89F40E0D1F1DB801C40169
:1010B00027DE892B69F4B8016E0D7F1DC40120DE87
:1010C000892BE9F023E030E005C021E030E002C0E8
:1010D00022E030E0F501808191810196821793072B
:1010E0003CF0F50111821082F60180819181019618
:1010F00091838083CE0105C081E090E002C08FEF34
:101100009FEFDF91CF911F910F91FF90EF90DF90B4
:10111000CF90BF90AF909F908F900895611571050B
:1011200079F0FB0101900020E9F73197AF01461BF0
:10113000570BDC01ED91FC910280F381E02D1994B5
:1011400080E090E008958F929F92AF92BF920F93AC
:101150001F93CF93DF93CDB7DEB7A1970FB6F89467
:10116000DEBF0FBECDBF19A2423008F44AE08E01A7
:101170000F5D1F4F842E912CA12CB12CA501940141
:101180000E94B51BE62FB901CA0101501109EA30CE
:1011900014F4E05D01C0E95CD801EC93232B242B0F
:1011A000252B61F7B80187E395E0B8DFA1960FB66C
:1011B000F894DEBF0FBECDBFDF91CF911F910F918D
:1011C000BF90AF909F908F900895682F70E080E05F
:1011D00090E04AE0B8CF0F931F93CF93DF93EC01D9
:1011E0009DDF8C0161E074E0CE0198DF800F911FDC
:1011F000DF91CF911F910F9108958091B706909143
:10120000B806DC01ED91FC910480F581E02D199583
:10121000A091B706B091B806892B49F0ED91FC91E9
:1012200011970680F781E02DCD011995E6CF6BE788
:1012300074E0CD01D0DF44DE8CEB96E00C943619DF
:1012400008956CCFCF93DF93EC018091B706909116
:10125000B806DC01ED91FC910480F581E02D199533
:10126000A091B706B091B806892B49F0ED91FC9199
:1012700011970680F781E02DCD011995E6CF68E939
:1012800073E0CD01DEDFBE018091B7069091B80614
:10129000A2DF16DE15DE6DE774E08CEB96E00E94AF
:1012A0002E1C21E0892B09F420E0822FDF91CF91C1
:1012B0000895EF92FF920F931F93CF93DF930BE16B
:1012C00015E0C7E0D5E0EE24E394FC2E82E1F80EB1
:1012D000F80181918F01813071F48881813051F062
:1012E00082E894E0AFDF811105C063E474E087E336
:1012F00095E071DFE8822196FC12EACFDF91CF9171
:101300001F910F91FF90EF900895CF93DF93CDB78A
:10131000DEB72B970FB6F894DEBF0FBECDBF789423
:1013200084B5826084BD84B5816084BD85B58260EA
:1013300085BD85B5816085BD80916E00816080939B
:101340006E00109281008091810082608093810004
:101350008091810081608093810080918000816014
:10136000809380008091B10084608093B10080916F
:10137000B00081608093B000809191008260809382
:101380009100809191008160809391008091900004
:101390008160809390008091A10082608093A10081
:1013A0008091A10081608093A1008091A000816064
:1013B0008093A0008091210182608093210180911F
:1013C00021018160809321018091200181608093BF
:1013D000200180917A00846080937A0080917A0065
:1013E000826080937A0080917A00816080937A0095
:1013F00080917A00806880937A001092C100E09119
:101400004705F091480582E08083E0914305F09123
:1014100044051082E0914505F091460580E1808306
:1014200010924F05E0914B05F0914C0586E08083CA
:10143000E0914905F0914A05808180618083E091C7
:101440004905F0914A05808188608083E0914905D3
:10145000F0914A05808180688083E0914905F09190
:101460004A0580818F7D808364EF71E080E090E0A9
:1014700069DA61E080E32ADA60E080E3F8D910926B
:10148000B9081092B8081092B7081092B6081092D6
:10149000B5081092B4088DE991E09093BB08809351
:1014A000BA088091AA0896EF980F943048F02EEC75
:1014B000280F243028F022EC280F283008F070C0C4
:1014C0002DEB30E03093B5082093B4082BE931E0E0
:1014D0003093B7082093B6082CE231E03093B90876
:1014E0002093B808943070F02EEC280F243050F080
:1014F00022EC280F283010F40C941918A0E0B0E06A
:101500000C941B18A8E6B0E0E8E6F0E020819430E7
:1015100018F08E53883010F081E001C084E0822BF7
:101520008C938091AA0896EF980F943058F02EEC87
:10153000280F243038F022EC280F283030F020E03B
:1015400030E005C02BE630E002C02DE630E03093FD
:10155000B2082093B108943010F49AEF0BC0823394
:1015600081F0833381F0843381F092EC980F9830CE
:1015700070F492EC980F81E001C0880F9A95EAF719
:1015800007C088E005C084E003C082E001C081E0BC
:101590008093B3088091BA089091BB080197F1F746
:1015A0008091B8089091B908892B19F18091900425
:1015B0009091910428E08E399207D9F0009709F0B4
:1015C000CDDA8091BC088E7F8093BC0810928F0486
:1015D00010928E048EE998E0909391048093900489
:1015E000E091B108F091B20890818091B308892B05
:1015F000808360E08091BB063AD961E08091BB06B0
:1016000065D96AE070E080E090E09CD960E080916C
:10161000BB065CD968EE73E080E090E093D950DCC3
:101620004FDC62E173E08CEB96E00E942E1C892B6C
:1016300009F4A6C76AEF70E080E090E083D940DC4F
:101640003FDC6AE273E087E395E0C5DDD9DBD8DBF8
:10165000D7DB61E08DE03AD9F89482E08093B00066
:101660008093B10094E69093B3001092B2008093FF
:10167000700078948093D4051092D8058091D50598
:1016800060E024D981E08093D70561E08DE01ED928
:1016900009E812E060E0D8018D918D0117D9B2E020
:1016A0000C391B07B9F70DE912E061E0F8018191EF
:1016B0008F010CD9F2E0003B1F07B9F7B1E8CB2E40
:1016C000B2E0DB2E01EB12E0D801FD908D0161E06C
:1016D0008F2DFCD861E08F2DCAD8F601F1906F01F3
:1016E00061E08F2DF3D861E08F2DC1D8F2E0093B86
:1016F0001F0751F788E092E08CDB82E994E0885F75
:101700008A87A7E0B5E0AC5EA98754D92091800212
:101710002330B9F50DE912E0F80122E1E20FFE2EC7
:1017200060E0D8018D918D01A2D8F012F9CF42D995
:101730000091AB061091AC062091AD063091AE063B
:101740000D5E1F4F2F4F3F4F06171707280739070A
:101750000CF007C16093AB067093AC068093AD06A6
:101760009093AE06C0907E02D0907F0271EBE72E80
:1017700072E0F72EAA24A394C701A8E08A0FB82E1E
:1017800055C00091A7061091A8062091A906309196
:10179000AA060C5F1F4F2F4F3F4F0617170728074A
:1017A00039072CF66093A7067093A8068093A906C4
:1017B0009093AA06EBE1EE2EE5E0FE2EF9E8CF2E9F
:1017C000F2E0DF2E0DE912E088248394A2E07A2E65
:1017D000F80122E1E20F9E2ED801BC9060E08B2D33
:1017E00046D8F601A1906F018A2D19D8892B19F4DA
:1017F000D7011C9213C0F701808261E0D8018C915F
:1018000036D88BE490E00197F1F78A2D08D8892B20
:1018100011F4F701708260E08B2D29D80F5F1F4F04
:10182000FFEFEF1AFF0A9012D7CF81CFF601019197
:101830006F01602F61706A258AE319D810E0009566
:101840001095B80175956795617087E010D8B8015B
:101850007595679575956795617088E008D8B801AA
:1018600023E0759567952A95E1F7617087E30E94FB
:101870003704B80134E0759567953A95E1F76170E2
:101880008AE00E943704B80145E0759567954A954E
:10189000E1F7617088E30E943704B80156E075955E
:1018A00067955A95E1F761708CE30E943704000F49
:1018B000012F001F110B602F61708DE30E94370410
:1018C000D7011D917D0161E0812F0E94370462E004
:1018D00070E080E090E036D860E0812F0E9437040D
:1018E000BE10A4CF8091800281113BC0E2E9F4E0F8
:1018F0001192BA85BE13FCCF00E010E0202F40E02B
:1019000062E974E0C801855E9A4F3EDA0F5F1F4FAF
:101910000830110599F700E010E028E0200F41E0C1
:1019200063E974E0C8018D5D9A4F2EDA0F5F1F4F97
:101930000830110591F700E010E020E1200F42E0AF
:1019400064E974E0C801855D9A4F1EDA0F5F1F4F8E
:101950000830110591F7E2E9F4E0F093A404E09374
:10196000A3040091100210911102D8018D919C9155
:10197000892B09F445C01ED86B017C018091BD08FC
:101980009091BE08A091BF08B091C008C816D906B2
:10199000EA06FB06ACF1C80102969093110280930F
:1019A0001002F80182819381892B29F460E080E3A1
:1019B0000E94370425C080E30E940F0461E0892B58
:1019C00009F060E080E30E943704D80112962D915F
:1019D0003C91139746E4429FC001439F900D112410
:1019E000092E000CAA0BBB0BC80ED91EEA1EFB1E4B
:1019F000C092BD08D092BE08E092BF08F092C00825
:101A00008BED95E090930205809301058091D805B8
:101A100090E090930405809303058091A50690E0E3
:101A200090930605809305058091D405853009F0D3
:101A30002BC28091DD059091DE05885891098D3586
:101A4000910588F48091D805843041F48091DF05B8
:101A50009091E0058097479708F4B2C58091D8052A
:101A6000843408F094C58091D8058A3108F452C0B6
:101A70008091DB059091DC05843F914080F41092C9
:101A800000051092FF048FEF9FEFDC018093FB04B1
:101A90009093FC04A093FD04B093FE0459C0809180
:101AA000DD059091DE0585974B97A0F5E1EEF5E019
:101AB00082E090E0C12CD12C7601AC014F5F5F4FEA
:101AC0002091D80530E0421753075CF4DF011297EC
:101AD0002D913C91275031092730310508F4B7C5C5
:101AE000CA01019795958795909300058093FF040F
:101AF0000C972CF4109200051092FF040BC0C092BA
:101B0000FB04D092FC04E092FD04F092FE0484E019
:101B100090E0BDC68091D8058A3108F44CC0809110
:101B2000DB059091DC058032934008F4A8CF8091CA
:101B3000DD059091DE05C697869708F4A5C53BC0E4
:101B4000C092FB04D092FC04E092FD04F092FE04EB
:101B50008BE090E09CC620813181255231092B31E8
:101B6000310508F0A1C5CC0CDD1CEE1CFF1C6894EF
:101B7000C0F802963496AC014F5F5F4F2091D805B4
:101B800030E04217530754F4DF0112972D913C9136
:101B90002C5031092B303105F0F2CA01019795958F
:101BA0008795909300058093FF040C974CF6109254
:101BB00000051092FF048091D805823208F44DC0D0
:101BC0008091DD059091DE050697079708F045C0E6
:101BD000E1EEF5E082E090E0C12CD12C76019C0191
:101BE0002F5F3F4F4091D80550E024173507E4F4AC
:101BF000DF0112974D915C9111974E515109473178
:101C0000510508F05EC5CC0CDD1CEE1CFF1C689471
:101C1000C0F84081518134964350510945305105F7
:101C200010F40296DCCFC9010197959587959093A2
:101C300000058093FF0440972CF410920005109249
:101C4000FF040BC0C092FB04D092FC04E092FD04A0
:101C5000F092FE048CE090E01AC61C821B8281E0A8
:101C600090E09A8389838091D8058D3008F466C00E
:101C700049E753E0BE016D5F7F4FCE010196DDD98C
:101C8000892B09F05BC049E753E0BE016D5F7F4FD0
:101C9000CE010196D2D9019709F050C049E753E02F
:101CA000BE016D5F7F4FCE010196C7D9892B09F028
:101CB00045C0812C912C540100E010E08091D805A2
:101CC00090E029813A81281739074CF549E753E01C
:101CD000BE016D5F7F4FCE010196AFD97C0149E710
:101CE00053E0BE016D5F7F4FCE010196A6D9B1E0F2
:101CF000EB16F10449F4892B09F5880C991CAA1CF0
:101D0000BB1C689480F808C0EF28C1F40197B1F4B7
:101D1000880C991CAA1CBB1C0F5F1F4FCFCF1093C0
:101D200000050093FF048092FB049092FC04A092B3
:101D3000FD04B092FE0481E090E0A9C51C821B82E4
:101D400081E090E09A838983809103059091040556
:101D5000181619060CF054C0E0910105F091020527
:101D600082E090E09A8389838281938189974E975C
:101D700008F046C083E090E09A838983848195814E
:101D80000B970A9708F03CC04CEB51E0BE016D5F29
:101D90007F4FCE01019651D9892B91F54CEB51E043
:101DA000BE016D5F7F4FCE01019647D9019741F586
:101DB000812C912C540100E010E029813A8180911E
:101DC000030590910405281739070CF0BDC44CEBAE
:101DD00051E0BE016D5F7F4FCE0101962ED97C018F
:101DE0000330110509F07AC44CEB51E0BE016D5F80
:101DF0007F4FCE01019621D9E816F90609F46EC489
:101E0000E0910105F091020582819381C697869742
:101E100008F4A9C41CC68E35F2EA9F07FFEFAF078E
:101E2000B10508F47AC58F34F0EB9F07FFEFAF07D9
:101E3000B10509F0AEC51092800280E392E00E94E5
:101E4000090788E292E090937F0280937E020E94CD
:101E5000DA04DC01CB018053984FAF4FBF4F809322
:101E6000AF069093B006A093B106B093B20681E09E
:101E70008093AD046AE373E087E395E0ACD982E038
:101E80008093D4051092D8058091AD04882391F0F9
:101E90000E94DA040091AF061091B0062091B106BD
:101EA0003091B206061717072807390708F065C3EF
:101EB0001092AD0410918002113081F03CF41111A8
:101EC0005CC38091A3049091A40453C3123049F0E1
:101ED000133009F052C385EA94E04BC386E792E0E1
:101EE00048C38091A204823009F4F3C228F4882305
:101EF00051F08130B1F03BC3833009F413C3843017
:101F000009F456C034C38CD8811131C30E94DA045D
:101F100060939E0470939F048093A0049093A10407
:101F2000CCC20E94DA04DC01CB0188589341A1099C
:101F3000B10900919E0410919F042091A00430915A
:101F4000A104081719072A073B07D8F483E08093F8
:101F5000A2046AEA73E087E395E03DD910922F0569
:101F6000109230051092310510923205109233050F
:101F700010923405109235051092360582E792E0F2
:101F8000CEC287E095E004D84BD8882309F49EC2DE
:101F90000E94DA0460939A0470939B0480939C04DB
:101FA00090939D0484E08093A20460EC73E0D6C219
:101FB0000E94DA04DC01CB01845F9140A109B109E0
:101FC000C0909A04D0909B04E0909C04F0909D04F3
:101FD000C816D906EA06FB0608F06BC21093A204E5
:101FE0006BED73E087E395E0F6D820919A04309189
:101FF0009B0480919E0490919F04281B390BEBEC6D
:10200000F2E0F887EF8388E090E052914291241744
:10201000350714F4182F03C00197B9F710E027E033
:10202000622E25E0722EF30180E09191913019F03B
:102030008F5F8231D1F791E1692F70E0FB01E95F99
:10204000FA4F0081013011F09150F6CF681B7109F1
:10205000072E000C880B990B0E94611920E030E0DC
:1020600048E851E40E94F21A29E23CE54FE750E4C7
:102070000E94C0190E945F1B6D83E7E0F5E0F12C20
:102080008191813021F0F39422E1F212F9CF69EECF
:1020900073E087E395E0D5D88F2D97D861EF73E093
:1020A00087E395E0CED86F2D70E080E090E00E944D
:1020B000611920E030E048E851E40E94F21A9B01E7
:1020C000AC0160E070E080E89FE30E948D1A29E295
:1020D0003CE54FE750E40E94C0196B017C019B0175
:1020E000AC010E948F1B882319F065EF73E01AC0C2
:1020F00046015701E894B7F82FEF3FEF4FE75FE74E
:10210000C501B4010E948F1B811111C02FEF3FEF59
:102110004FE75FE7C501B4010E945B1918163CF454
:1021200069EF73E087E395E00E948E0872C02FEF9D
:102130003FEF4FE75FE4C701B6010E948B1B181603
:102140001CF46DEF73E0EECF2FEF3FEF4FE75FEC46
:10215000C701B6010E945B1987FDF3CF20E030E094
:10216000A901C701B6010E945B1987FF07C08DE274
:102170000E940508C701B601905802C0C701B60108
:102180002AE037ED43EA5BE30E948E1A1B012C0123
:102190000E945F1B4B015C010E945F199B01AC0117
:1021A000C201B1010E948D1A1B012C014AE0C50138
:1021B000B4010E94A3088EE20E94050820E030E0EE
:1021C00040E251E4C201B1010E94C0191B012C017F
:1021D0000E945F1B4B01A12CB12C4AE0C501B40148
:1021E0000E94A308C501B4010E945F199B01AC01C4
:1021F000C201B1010E948D1A20E030E040E251E4BA
:102200000E94C0190E945F1B80E090E04AE00E949B
:10221000A30861E074E087E395E00E948E08C7019F
:10222000B6010E945F1BF62EE7E0F5E060E0CF010B
:10223000A2E18A0FD82E8191813009F46F5FDE12FE
:10224000FACF70E080E090E00E945F1920E030E07B
:1022500048E851E40E94F21A20E030E040E251E404
:102260000E94C0190E945F1BE62EB1E0B61728F449
:10227000E2E06E1304C022E003C021E001C023E0CD
:10228000F1E0FF1530F482E0F81206C092E0B92EBA
:1022900005C0BB24B39402C083E0B82E9D81923068
:1022A00028F0923011F402E001C003E0822F2B8766
:1022B0000E94E50863EF73E087E395E00E9421093F
:1022C0008B2D0E94E50863EF73E087E395E00E94A1
:1022D0002109802F0E94E50863EF73E087E395E012
:1022E0000E942109C12EC6948C2D0E94E50863EF3F
:1022F00073E087E395E00E94EB082B852B9D90010E
:102300001124029FA001039F500D1124C49EC001FF
:10231000C59E900D1124880F991F63E070E00E9404
:10232000A21B062FCC2019F0672B09F401E0D30182
:102330008D913D010E94E508D610F9CF61E074E06F
:1023400087E395E00E948E0864E074E087E395E0FF
:102350000E9421098E2D0E94E5086EE074E087E35B
:1023600095E00E9421098F2D0E94E50867E174E045
:1023700087E395E00E9421098D810E94E5086DE1C7
:1023800074E087E395E00E942109812F0E94E5080F
:1023900065E274E087E395E00E942109C0909A0409
:1023A000D0909B04E0909C04F0909D0480919E044A
:1023B00090919F04A091A004B091A104C81AD90AD9
:1023C000EA0AFB0AF7FE0CC08DE20E9405086627A8
:1023D0007727CB016C197D098E099F094AE003C05C
:1023E0004AE0C701B6010E94A3086FE274E087E3E8
:1023F00095E00E942109802F0E94E50863E074E0C7
:1024000087E395E00E94EB08033020F4011103C03C
:1024100000E001C003E010923405109235051092DF
:102420003605023031F0033031F0013049F480ECF0
:1024300003C088ED01C08BED809335058093360590
:1024400087E095E00E94C80720919A0430919B0490
:1024500080919E0490919F04281B390B88E090E0A6
:10246000EF81F88552914291F887EF832417350761
:102470001CF00197A9F780E0E82FF0E0E753FD4F4B
:10248000808180933205023071F0033079F00130A1
:1024900009F06DC087E394E00E942209811167C0B2
:1024A00063E474E05BC089E594E0F6CF85E694E0F0
:1024B000F3CF0E94100881115AC081E08093A204DA
:1024C0006AE973E087E395E00E94EB080E945909EE
:1024D0004EC00E94DA04DC01CB01805D9740A10967
:1024E000B10900919A0410919B0420919C043091B1
:1024F0009D04081719072A073B07C8F51092A20484
:1025000061E573E087E395E00E94EB08E7E0F5E022
:1025100082E0819329852E13FCCF8EE692E00E9403
:10252000090725C00E9410088823E9F010922F05A2
:102530001092300510923105109232051092330539
:102540001092340510923505109236058EE692E011
:102550000E9409071092A20461E573E087E395E009
:102560000E94EB0804C08BE195E00E94C8078FE24F
:1025700095E090937F0280937E020E940A02C5C874
:1025800061E774E087E395E00E94EB08FFCF80915C
:10259000DF059091E005825491098E9708F063CA97
:1025A00080E090E040E050E0BA01FC01EF51FA4FCA
:1025B000208131812950310929303105C8F053CAB1
:1025C0008091E1059091E2050997099708F046CAC4
:1025D000109200051092FF048FEF9FEFDC018093B3
:1025E000FB049093FC04A093FD04B093FE042CC262
:1025F000FC01ED51FA4F20813181275131092231FF
:102600003105F8F02081318126503109273031051C
:1026100008F029CA440F551F661F771F049680389B
:10262000910519F680E290E0909300058093FF04F5
:102630004093FB045093FC046093FD047093FE04EC
:1026400003C2440F551F661F771F4160E7CF2081EB
:102650003181235131092F30310548F4CC0CDD1C78
:10266000EE1CFF1C6894C0F80296349626CA20819E
:1026700031812A5031092930310508F04BCACC0C80
:10268000DD1CEE1CFF1CF0CF8091DF059091E00572
:10269000C697869708F08FCAE3EEF5E083E090E0F6
:1026A000C12CD12C760167CA208131812C5031098F
:1026B0002A30310508F07FCACC0CDD1CEE1CFF1C53
:1026C00058CA4D915C914C5051094B30510508F05E
:1026D000C4CACC0CDD1CEE1CFF1C9BCA4CEB51E0A9
:1026E000BE016D5F7F4FCE0101960E941D086C01F7
:1026F0000330110569F44CEB51E0BE016D5F7F4F73
:10270000CE0101960E941D08C816D90609F078CBA3
:10271000E114F10459F4CA94CD2809F071CB880C66
:10272000991CAA1CBB1C689480F80BC0EA94EF2883
:1027300009F066CBCD2809F063CB880C991CAA1C44
:10274000BB1C0F5F1F4F39CB109300050093FF0494
:102750008092FB049092FC04A092FD04B092FE04CF
:1027600082E090E094C0848195814B97459708F072
:102770006EC1DF0116967F0186ECE80EF11C20E0A9
:1027800030E040E050E060E070E080E090E00D91EB
:102790001C911197095011090830110508F057C113
:1027A00012960D911C911397015111090D301105CD
:1027B00060F112960D911C91139704501109053088
:1027C000110508F044C101E0FAD71496AE15BF0513
:1027D000F1F62093FB043093FC044093FD045093E6
:1027E000FE0400E20E94FA1B2093F9043093FA04DD
:1027F00085E090E09093F8048093F70480E390E004
:10280000909300058093FF0446C001E0D8D7216073
:10281000DCCFA80142505109DA014D915C91495039
:1028200051094830510508F0C0C1BC016F5F7F4FAE
:10283000D8014D915C91475051094730510508F03E
:10284000AAC3220F331F216002960C5F1F4F4091D5
:10285000D80550E04450510984179507D4F20197E8
:1028600095958795909300058093FF048A970CF4C3
:102870009CC1C901330FAA0BBB0B8093FB0490933F
:10288000FC04A093FD04B093FE0489E090E09093D3
:10289000F8048093F7048091FB049091FC04A091CC
:1028A000FD04B091FE048D35E2EA9E07EFEFAE071E
:1028B000B10509F0B0CA82E0809380021092A204B0
:1028C00061E573E087E395E00E94EB08E7E0F5E05F
:1028D00082E0819329852E13FCCF8AE192E00E9449
:1028E000090782E192E090937F0280937E020E942A
:1028F000DA04DC01CB018053984FAF4FBF4F809378
:10290000AF069093B006A093B106B093B20681E0F3
:102910008093AD046FE573E0AFCA8D3D22E292076C
:102920002FEFA207B10511F511E01093800288E5A1
:1029300092E00E94090786E792E090937F028093DD
:102940007E020E94DA04DC01CB018053984FAF4F26
:10295000BF4F8093AF069093B006A093B106B0939B
:10296000B2061093AD0464E473E086CA8F369049D2
:10297000AF4FB10509F083CA60E973E087E395E0E2
:102980000E94EB080E94FD08811179CA6FE773E08D
:1029900073CA8D3122EE92072FEFA207B10519F508
:1029A00083E08093800280E592E00E94090788E43A
:1029B00092E090937F0280937E020E94DA04DC0111
:1029C000CB018053984FAF4FBF4F8093AF0690938A
:1029D000B006A093B106B093B20681E08093AD0437
:1029E00067E673E049CA8735984AAF4FB10509F0E9
:1029F00046CA61E773E087E395E00E94EB088091A7
:102A0000B7069091B806DC01ED91FC910480F58148
:102A1000E02D1995A091B706B091B806892B49F021
:102A2000ED91FC9111970680F781E02DCD0119956C
:102A3000E6CF6DE773E0CD010E94EB080E946007CE
:102A40008CEB96E013D4A0CF83E090E020CF809170
:102A5000D805893370F18281938189579109833533
:102A6000910508F439C125C0D90112966D917C9168
:102A70001397665171096131710508F03CC1D701A6
:102A8000C601880F991FAA1FBB1F6C017D016894A6
:102A9000C0F84E5F5F4F2C5F3F4F4B33510509F439
:102AA00039C1D9016D917C916A5071096930710504
:102AB000D8F28091D805823231F4828193810A97CD
:102AC000099708F444C1828193818957910983351C
:102AD0009105D0F48091D8058132B0F08481958140
:102AE000CA97899788F49F012A5F3F4FC12CD12C48
:102AF000760143E050E0D9016D917C916A507109F3
:102B00006930710508F442C1828193818C54910926
:102B1000C59778F48091D805843031F4848195810B
:102B20008097479708F492C18091D805843408F0C3
:102B300074C18091D805863460F1828193810C97AD
:102B40000B9708F4D1C125C0D90112966D917C91E3
:102B500013976E5171096731710508F0FDC1D701F6
:102B6000C601880F991FAA1FBB1F6C017D016894C5
:102B7000C0F84E5F5F4F2C5F3F4F4534510509F45D
:102B8000CEC1D9016D917C916C5071096B3071058A
:102B9000D8F28091D805883540F08281938185589C
:102BA00091098B35910508F4E7C18091D8058032F1
:102BB000E1F48281938106970697B8F48481958128
:102BC0000997099790F49F012A5F3F4FBF01625C0C
:102BD0007F4FC12CD12C7601D9014D915C9146508B
:102BE00051094630510508F4E3C1809103059091E5
:102BF00004059E838D8306970CF441C98F010A5FFB
:102C00001F4F43E0242E312C55ECC52E5DE9D52E07
:102C10005CE1E52E51E8F52ED8016D917C91F8012B
:102C20003497A080B18080E090E049D32B013C0133
:102C3000B50180E090E043D34B015C012DEC3CEC0E
:102C40004CE45FE39DD39B01AC01C301B20133D3DC
:102C500087FD15C02DEC3CEC4CE45FE3C301B201F1
:102C60008FD39B01AC01C501B40125D3E82F880F98
:102C7000FF0BEE27FF0FEE1FFF27319602C0E0E0AB
:102C8000F0E0A701960163E971E080E091E04BD5A7
:102C90006F01FF0FEE08FF08C626D726E826F926A3
:102CA000BFEF2B1A3B0A0E5F1F4FED81FE812E16E0
:102CB0003F0609F0B1CFC092FB04D092FC04E09231
:102CC000FD04F092FE0480E290E090930005809372
:102CD000FF048FEF9FEFDBCD84819581CA978997A1
:102CE00008F0E7CE9F012A5F3F4FC12CD12C76011F
:102CF00043E050E0D6CE12966D917C9113976650CA
:102D000071096730710508F0D4CECC0CDD1CEE1CC7
:102D1000FF1CBFCE9F012A583F4FD9012D913C91F6
:102D20002A5031092930310508F0C3CE2CE130E0BA
:102D3000309300052093FF04C092FB04D092FC0462
:102D4000E092FD04F092FE048AE090E0A0CD209194
:102D5000D805CF01820F911D820F911DDC011297C2
:102D60008D919C910A97099708F0ADCE10920005BD
:102D70001092FF048FEF9FEFDC018093FB04909390
:102D8000FC04A093FD04B093FE044DC1D90112963A
:102D90006D917C911397665171096131710568F5E8
:102DA000D701C601880F991FAA1FBB1F6C017D01A7
:102DB0006894C0F84E5F5F4F2C5F3F4F4332510520
:102DC00009F099CE9F012A5B3F4FD9012D913C918B
:102DD0002A5031092930310508F096CE20E130E043
:102DE000309300052093FF04C092FB04D092FC04B2
:102DF000E092FD04F092FE0416C1D90112966D9185
:102E00007C911397665071096730710508F07CCE8C
:102E1000CC0CDD1CEE1CFF1CCDCF84819581895428
:102E20009109C39708F085CE9F012A5F3F4FBF01EC
:102E30006A577F4FC12CD12C7601D9014D915C91FD
:102E40004950510949305105B8F073CE86819781B8
:102E50000997099708F068CE109200051092FF04B8
:102E60008FEF9FEFDC018093FB049093FC04A09311
:102E7000FD04B093FE04DAC0D90112964D915C9125
:102E800013974651510941315105F0F4D701C6015C
:102E9000880F991FAA1FBB1F6C017D016894C0F8A1
:102EA0002C5F3F4F2617370741F620E230E0309382
:102EB00000052093FF04C092FB04D092FC04E09232
:102EC000FD04F092FE04B2C0D90112964D915C91BE
:102ED0001397465051094730510508F02ACECC0CC3
:102EE000DD1CEE1CFF1CDCCF8481958109970997BE
:102EF00008F04FCE868197818C974F9708F049CE86
:102F00008085918589974D9708F043CE9F01265F74
:102F10003F4FC12CD12C760145E050E032CE9F01CD
:102F200026573F4FD9012D913C912C5031092B3020
:102F3000310508F02ECE20E230E0309300052093DA
:102F4000FF04C092FB04D092FC04E092FD04F092D6
:102F5000FE0488E090E09BCCD90112966D917C91A3
:102F60001397695071096930710508F012CECC0CC5
:102F7000DD1CEE1CFF1CFDCD8481958182549109DE
:102F80008E9708F012CE8F01045C1F4F8DE190E008
:102F900020E030E05CCCD8014D915C914851510962
:102FA0004231510510F0CB015ACC220F331F4CCCCB
:102FB000D90112964D915C911397495151094331B2
:102FC000510508F5D701C601880F991FAA1FBB1F1D
:102FD0006C017D016894C0F82C5F3F4F26173707BE
:102FE00009F0FACD2EE030E0309300052093FF0485
:102FF000C092FB04D092FC04E092FD04F092FE0427
:103000008FE090E044CCD90112964D915C911397DA
:10301000495051094930510508F0E7CDCC0CDD1C71
:10302000EE1CFF1CD9CF86E090E031CC87E090E029
:103030002ECCA8E6B0E0283010F40C94840AE0E02E
:10304000F0E00C94860A86E093E090939F088093CA
:103050009E088EE998E00C94AE05CF92DF92EF9235
:10306000FF9210923A051092390598EEC92E93E01E
:10307000D92EE12CF12CC0923B05D0923C05E09278
:103080003D05F0923E058EEE92E0909338058093D8
:10309000370585EC90E0909344058093430584ECDC
:1030A00090E0909346058093450580EC90E09093E6
:1030B00048058093470581EC90E090934A05809302
:1030C000490582EC90E090934C0580934B0586EC8B
:1030D00090E090934E0580934D051092500510920C
:1030E000510510925205109253050E94DA04609324
:1030F000BD087093BE088093BF089093C0081092DB
:10310000A1081092A008C092A208D092A308E09251
:10311000A408F092A50886E093E090939F0880931E
:103120009E081092B5081092B4081092B708109239
:10313000B6081092B9081092B8081092BB08109205
:10314000BA086091BC086E7F6D7F6093BC0866957D
:10315000617081E0682785E30E94370461E085E3C0
:103160000E946604EDE1F2E0E491E093AE08E7ED41
:10317000F1E0E491F0E0EE0FFF1FE259FE4F859180
:1031800094919093B0088093AF0860E082E30E942E
:1031900066048091BC0881FD04C061E082E30E9466
:1031A000370482E38093AA08EAE1F2E0E491E09335
:1031B000AB08E4EDF1E0E491F0E0EE0FFF1FE8571B
:1031C000FE4F859194919093AD088093AC08109236
:1031D000B6061092B5068EEF92E09093B4068093F7
:1031E000B3068EE998E09093B8068093B7061092E4
:1031F000BA061092B90683E38093BB0684EF91E090
:10320000A0E0B0E08093A2089093A308A093A40844
:10321000B093A50810920C0710920D070E94DA04D3
:103220006093AF067093B0068093B1069093B20698
:103230000E94DA046093AB067093AC068093AD06EF
:103240009093AE060E94DA046093A7067093A806D6
:103250008093A9069093AA068EE28093D5051092DA
:10326000D705FF90EF90DF90CF900895FC0188275D
:103270009927E89421912032E9F3293010F02E307B
:10328000C8F32B3239F02D3231F4689403C00BD0DF
:10329000820F911D219120532A30C8F31EF490957E
:1032A00081959F4F08957AE0979F902D879F802D5D
:1032B000910D1124089540D008F481E00895E89418
:1032C00009C097FB3EF490958095709561957F4F6E
:1032D0008F4F9F4F9923A9F0F92F96E9BB2793951C
:1032E000F695879577956795B795F111F8CFFAF42C
:1032F000BB0F11F460FF1BC06F5F7F4F8F4F9F4F5D
:1033000016C0882311F096E911C0772321F09EE8BA
:10331000872F762F05C0662371F096E8862F70E020
:1033200060E02AF09A95660F771F881FDAF7880FFA
:103330009695879597F90895990F0008550FAA0B50
:10334000E0E8FEEF16161706E807F907C0F01216B8
:103350001306E407F50798F0621B730B840B950BBB
:1033600039F40A2661F0232B242B252B21F4089510
:103370000A2609F4A140A6958FEF811D811D0895AD
:103380000BD078C069D028F06ED018F0952309F0E2
:103390005AC05FC01124A2C07ED0A0F3959FD1F384
:1033A000950F50E0551F629FF001729FBB27F00DF3
:1033B000B11D639FAA27F00DB11DAA1F649F662748
:1033C000B00DA11D661F829F2227B00DA11D621F97
:1033D000739FB00DA11D621F839FA00D611D221F51
:1033E000749F3327A00D611D231F849F600D211D35
:1033F000822F762F6A2F11249F5750408AF0E1F0D8
:1034000088234AF0EE0FFF1FBB1F661F771F881F20
:1034100091505040A9F79E3F510570F014C05EC016
:103420005F3FECF3983EDCF3869577956795B7950B
:10343000F795E7959F5FC1F7FE2B880F911D969535
:10344000879597F9089597F99F6780E870E060E0A5
:1034500008959FEF80EC089500240A94161617062D
:1034600018060906089500240A9412161306140675
:1034700005060895092E0394000C11F4882352F0D8
:10348000BB0F40F4BF2B11F460FF04C06F5F7F4F90
:103490008F4F9F4F089557FD9058440F551F59F077
:1034A0005F3F71F04795880F97FB991F61F09F3F31
:1034B00079F087950895121613061406551FF2CF5A
:1034C0004695F1DF08C0161617061806991FF1CFAA
:1034D00086957105610508940895E894BB276627D1
:1034E0007727CB0197F9089509D0A59F900DB49F38
:1034F000900DA49F800D911D11240895A29FB001ED
:10350000B39FC001A39F700D811D1124911DB29F17
:10351000700D811D1124911D08955058BB27AA27B5
:103520000ED0A8CF99DF30F09EDF20F031F49F3F1E
:1035300011F41EF48ECF0EF4E095E7FB84CFE92F53
:10354000AADF80F3BA17620773078407950718F09C
:1035500071F49EF5C2CF0EF4E0950B2EBA2FA02D7C
:103560000B01B90190010C01CA01A0011124FF2730
:10357000591B99F0593F50F4503E68F11A16F0402B
:10358000A22F232F342F4427585FF3CF469537952A
:103590002795A795F0405395C9F77EF41F16BA0BEF
:1035A000620B730B840BBAF09150A1F0FF0FBB1F9D
:1035B000661F771F881FC2F70EC0BA0F621F731FE6
:1035C000841F48F4879577956795B795F7959E3F43
:1035D00008F0B3CF9395880F08F09927EE0F9795D1
:1035E000879508950CD046CF3EDF40F035DF30F0B0
:1035F00021F45F3F19F027CF511170CF2ACF4BDF55
:1036000098F39923C9F35523B1F3951B550BBB27A9
:10361000AA2762177307840738F09F5F5F4F220F56
:10362000331F441FAA1FA9F333D00E2E3AF0E0E84F
:1036300030D091505040E695001CCAF729D0FE2F9B
:1036400027D0660F771F881FBB1F2617370748072D
:10365000AB07B0E809F0BB0B802DBF01FF279358E3
:103660005F4F2AF09E3F510568F0EDCE37CF5F3FA8
:10367000ECF3983EDCF3869577956795B795F795CB
:103680009F5FC9F7880F911D9695879597F90895C3
:10369000E1E0660F771F881FBB1F6217730784075F
:1036A000BA0720F0621B730B840BBA0BEE1F88F76E
:1036B000E095089504D06894B11110CF0895F3DE19
:1036C00088F09F5790F0B92F9927B751A0F0D1F00B
:1036D000660F771F881F991F1AF0BA95C9F712C095
:1036E000B13081F0FADEB1E00895F7CE672F782F80
:1036F0008827B85F39F0B93FCCF386957795679501
:10370000B395D9F73EF490958095709561957F4F6C
:103710008F4F9F4F089510DE08F48FEF08950CDE51
:10372000880B990B0895DB018F939F93DDDEBF918A
:10373000AF91A29F800D911DA39F900DB29F900D00
:103740001124089597FB072E16F4009406D077FDF8
:1037500008D06CD007FC05D03EF4909581959F4F22
:103760000895709561957F4F0895A1E21A2EAA1BC6
:10377000BB1BFD010DC0AA1FBB1FEE1FFF1FA21721
:10378000B307E407F50720F0A21BB30BE40BF50B1E
:10379000661F771F881F991F1A9469F760957095A7
:1037A000809590959B01AC01BD01CF010895EE0F6E
:1037B000FF1F881F8BBF0790F691E02D19940F9380
:1037C000083090F0982F872F762F652F542F432F96
:1037D000322F22270850F4CF220F331F441F551FCA
:1037E000661F771F881F991F0A95B2F70F910895DA
:1037F00097FB10F8169400080F93083098F00850C3
:10380000232F342F452F562F672F782F892F902D58
:10381000F4CF059497958795779567955795479534
:10382000379527950A95AAF70F910895AA1BBB1BF8
:1038300051E107C0AA1FBB1FA617B70710F0A61BB0
:10384000B70B881F991F5A95A9F780959095BC01D1
:10385000CD01089581E090E0F8941AC0FB015191E8
:103860005523A9F0BF01DC014D9145174111E1F746
:1038700059F4CD010190002049F04D9140154111BE
:10388000C9F3FB014111EFCF81E090E0019708956A
:1038900011E0C8E1D1E000E005C0802FFE0187DF24
:1038A0002196011DC931D10780E00807B1F7F894CE
:0238B000FFCF48
:1038B200001824243C24240001000100050000001B
:1038C200700200382424382424000100010005007D
:1038D2000100010001000000007C10101010100017
:1038E20005000500010005000100010001000100C2
:1038F2000100050005000000000044AA9282820037
:1039020005000100050000000100010001000100A6
:103912000100010005000100050001000000010096
:1039220000000A000000003844043840407C0002D5
:10393200023A0708370A383C3D1A1B1C1D1E1F207D
:1039420021222423262528272A292C2B2D02030471
:103952004445111013121415181617424340413FE3
:103962003E09060B05390C3B3640064C0420035831
:1039720002C2012C01C80082000080C0E0F0F8FC05
:10398200FEFF010204081020408000080109020A1B
:10399200030B040C050D060E070F00000000A30127
:1039A20035076D014B015F01E90100000000620370
:1039B200350700000000D60235072A034103BD0285
:1039C200D502416461667275697420465820536F4E
:1039D200756E6420426F6172640053465820626FB4
:1039E20061726420666F756E64004D4F44455F548A
:1039F200455354004D4F44455F324F4E324F464679
:103A02000052435F4D4F44455F41524D4544004D86
:103A12004F44455F5243004D4F44455F4D55544519
:103A220000564F4C554D4520444F574E002D0046F1
:103A320061696C656420746F2061646A75737400D7
:103A4200564F4C554D452055500052435F4D4F4403
:103A5200455F535441525445440052435F4D4F44D5
:103A6200455F574149545F544F5F434C45415200B3
:103A720052435F4D4F44455F535441525445445F56
:103A82004255545F494E5F4149520052435F4D4F88
:103A920044455F454E444544006C6F776573743A04
:103AA20000202F20006E616E00696E66006F7666E0
:103AB200000D0A0053656E736F72733A2000204C3A
:103AC2006F776573743A00204C656E3A002053702C
:103AD2006565643A0020447572286D73293A0020A6
:103AE200546F74616C3A00474F4F44202020205796
:103AF2004156004661696C656420746F20706C6188
:103B02007920747261636B3F0056455259474F4F9B
:103B1200445741560043454C454252415457415641
:103B2200004E6F7420666F756E64002B00706C61BE
:0E3B32007900434C49434B3020205741560048
:00000001FF
